:020000040800F2
:1000000060EF012065440008614400086144000875
:1000100061440008614400086144000800000000D9
:100020000000000000000000000000006144000823
:10003000614400080000000061440008056B0008EE
:1000400061440008614400086144000861440008FC
:100050006144000861440008512500086D2500082E
:1000600089250008A5250008C1250008614400086D
:1000700061440008614400086144000861440008CC
:1000800061440008614400086144000861440008BC
:10009000614400086144000861440008DD2500084F
:1000A000614400086144000861440008614400089C
:1000B0009D72000861440008D9720008614400087C
:1000C000614400086144000861440008614400087C
:1000D00061440008FD5700082158000845580008F1
:1000E0004D2600086144000861440008614400088E
:1000F000614400086144000861440008BD8A0008AA
:10010000614400086144000861440008614400083B
:10011000695800088D5800086144000861440008CF
:10012000614400086144000861440008614400081B
:10013000614400086144000861440008614400080B
:1001400061440008614400086144000825920008E9
:10015000614400086144000861440008B158000887
:1001600061440008614400086144000861440008DB
:1001700061440008614400086144000861440008CB
:10018000614400086144000870B582B00D4601AAC0
:1001900069460BF0B9FE0646D8B9019CA069023841
:1001A000A37803FB00F011F02FFD00220A4B11F0A1
:1001B000A1FD12F039F82860A378009800FB03F045
:1001C00011F022FD0022044B11F094FD12F02CF8E6
:1001D0006860304602B070BD0000E03F70B582B08C
:1001E00005460C4601AA69460A480BF08DFE0646F4
:1001F00068B901998B69023B8A7802FB03F35B08BB
:100200002B608A78009B03FB02F35B082360304677
:1002100002B070BD9079010870B582B005460C46F9
:1002200001AA69460A480BF06FFE064668B90199B3
:100230008B69023B8A7802FB03F35B082B608A78A8
:10024000009B03FB02F35B082360304602B070BDE5
:100250009479010800294AD02DE9F043C3B005463E
:100260000F46C368002B44D08B4203D3B3EB010984
:1002700009D12FE000210BF0CFFC00283BD128460C
:100280000BF0B4FE3CE04E464FF000083446B6F5A5
:10029000807F28BF4FF48074394628460BF0BCFCA1
:1002A00050BB01AB224602A928460BF0A3F920BBA4
:1002B000414628460BF0B0FC00BB6B46224602A923
:1002C00028460BF053FAD0B9019B1F44009B984479
:1002D000361BDBD1494628460BF09EFC80B92846E8
:1002E0000BF084FE002128460BF096FC08E000206D
:1002F0007047002004E003E002E001E000E0FFE7D7
:1003000043B0BDE8F08300BF012070470120704773
:100310002DE9F0478EB005468846144601466846EA
:100320000BF02EFD0746002850D1284612F028FE7B
:100330000646DFF8A09032E02E2B30D00DF12900D8
:1003400012F01EFE731C1844404533D205EB060A1A
:100350000DF129024946504612F07CFD9DF82830E7
:1003600013F0100F10D023680133236022460021C0
:100370002846FFF7CBFF28B3224641462846FFF721
:10038000C7FF0746D8B116E06368013363602246B1
:1003900001212846FFF7BAFF0023AB5558B108A941
:1003A00068460BF035FD074628B99DF82930002B2B
:1003B000C2D100E0112768460BF020FD06E00023C3
:1003C000AB55ECE700238AF80030F4E738460EB06E
:1003D000BDE8F08798790108F8B5064615461C4631
:1003E0000023636023600F4621B9104611F03CFFE3
:1003F000074680B1304612F0C3FDA8420DD200235B
:100400003B703146384612F04BFD224629463846AD
:10041000FFF77EFFF8BD1120F8BD1120F8BD00BF29
:1004200008B501214FF4804004F062FD00214FF433
:10043000804004F05DFD08BD014B1860704700BFAF
:100440000038014010B401F003039B0001F0FC01EF
:1004500001F1804101F59C318C680F229A4024EA19
:1004600002028A608A6898401043886010BC704716
:10047000014B1860704700BFDC002742014B186039
:10048000704700BF00042742024B186AC0F30020E7
:10049000704700BF0038014070B582B005460023A8
:1004A0000193032008F07AFEEB681A690192134C5D
:1004B000032607E0304608F071FEEB681A690192E6
:1004C000013C18D0019A002AF4DA019A42F00102A4
:1004D0000192019A1A61E9680B690193074B03E0E5
:1004E0000A690192013B03D0019A12F0010FF7D182
:1004F000032008F053FE002002B070BD400D030041
:1005000010B4C4786CB9033300EB8200D0F8D0404B
:100510009B1006D0002251F8040B20600132934258
:10052000F9D1002010BC704770B40332D0F8D0600D
:10053000921009D00C460023356844F8045B01335F
:100540009A42F9D101EB8201084670BC704700BFA6
:1005500070B40023C370012383704023838001297A
:100560000DD10123C37208230370042343704FF499
:10057000A073C380022303724FF0A0460CE051B970
:100580000023C3720C230370062343704FF4A0634F
:10059000C380234E00E00026C66006F500630361B9
:1005A000457895B106F5106300F1140100F1500291
:1005B00006EB451505F5106541F8043F03F5007499
:1005C00042F8044F2033AB42F6D106F58063436115
:1005D00006F58863C0F8CC300178D1B106F5A06388
:1005E00000F18C0206EB411404F5A06442F8043FCC
:1005F0002033A342FAD106F5805300F1CC0206EB7A
:10060000013101F5805142F8043F03F580539942CE
:10061000F9D106F56066C0F80C61002070BC704727
:100620000000044038B50446037A012B22D100258E
:10063000C268936B6FF31043417A09B143F480139E
:100640009363E268D3686FF386136FF396536FF387
:1006500051436FF3D343D3602046FFF71DFFE37888
:10066000012B25D1052363F3440545F02005E368FC
:100670009D6012E0C268D36843F04003D360FFF787
:100680000BFF637A002B0CBF4FF434134FF4741339
:10069000E2689363142008F0BDFDE378012B07D1D5
:1006A000E3689D68052262F3440545F020059D60DE
:1006B000002038BDC268936843F0010393600020B6
:1006C000704700BFC268936823F001039360002065
:1006D000704700BF00B583B000230193019B43F036
:1006E00020030193019B61F38A130193C368019A6C
:1006F0001A61C1680B690193084B03E00A69019212
:10070000013B03D0019A12F0200FF7D1032008F02B
:1007100045FD002003B05DF804FB00BF400D030061
:1007200000B583B000230193019B43F010030193B4
:10073000C368019A1A61C1680B690193084B03E011
:100740000A690192013B03D0019A12F0100FF7D110
:10075000032008F023FD002003B05DF804FB00BF78
:10076000400D030008B5C268D3686FF35D736FF383
:100770009E73012902D143F0005302E009B943F00E
:100780008043D360322008F045FD002008BD00BF43
:10079000C368586900F00100704700BFC3685B6917
:1007A00013F0010F0CBF012000207047C368586987
:1007B00000F00100704700BFC36858699B6918408A
:1007C000704700BFC3685868704700BF43699868A6
:1007D00080F0010000F00100704700BF0023C268F4
:1007E0009361C1684FF0FF324A61C1684A60C268D4
:1007F0006FF080415161C26808499161C2789A42A4
:1008000008BF102343F00C5343F4001343F00803D4
:10081000C1688A6913438B6100207047000800801B
:100820004269136861F3010313607047D0F8CC305C
:10083000186820F02E00704738B504460D4608F0C1
:100840009DFC2046FFF7F2FF10F4805F10D1012DD0
:100850000AD140F48050D4F8CC30186004E06FF333
:100860000C30D4F8CC301860C82008F0D3FC38BD68
:10087000002DF4D0F8E700BF43695869704700BF06
:1008800038B50546FFF7D2FF40F48074D5F8CC3078
:100890001C600A2008F0BEFC6FF30824D5F8CC30A9
:1008A0001C60142008F0B6FC012038BD70B5044669
:1008B00000252E4608F088FCD4F80C311D60237A00
:1008C000012B0CBF294601212046FFF7A9FF204636
:1008D000FFF7D6FF626913686FF382031360E37A50
:1008E000012B11D1E2688023536263F30F0560236B
:1008F00063F31F45E2689562E02262F30F0663F33B
:100900001F46E368C3F8006110212046FFF7E2FEAE
:100910002046FFF705FF237873B104F18C02002312
:100920004FF0FF35184652F8041F8D601168C860FB
:10093000013321789942F6D801212046FFF77CFF48
:100940002046FFF74BFF002070BD00BF70B40023AE
:1009500000EB8104D4F890204FF0FF359560C27809
:10096000012A14BF1A46042200EB411595F8B15331
:10097000032D30D8DFE805F00224021842F4936218
:1009800042F0010200EB411595F8AE5315B142F467
:10099000807220E042F0400200EB411595F8B05320
:1009A000CDB142F0200216E042F4D36242F00102DF
:1009B00000EB411595F8AE536DB142F480720AE038
:1009C00042F4087242F0010200EB411595F8AE5373
:1009D0000DB142F4C072D4F89050EA604669B5692E
:1009E00001228A402A43B261C568AA6942F00072B6
:1009F000AA6100EB411090F8AC2362F39C5390F88D
:100A0000AD2362F3CE2390F8AE2362F3CF3390F898
:100A1000AF23022A14BF0022012262F3514390F84F
:100A2000B12362F39343B0F8B21361F30A03032ACC
:100A300008BF43F00053D4F890201360002070BC2E
:100A4000704700BF2DE9F04186B004460D460022F4
:100A5000164600EB4113D3F8BC339BB100EB4111B8
:100A6000B1F8B213013B0B44B3FBF1F39BB2B3F506
:100A7000807F08D900EB45130902C3F8BC134FF47B
:100A8000807300E0012304EB451191F8AE1339B1F6
:100A900004EB4510B0F8B21303FB01F1C0F8BC132E
:100AA00004EB4511D1F8BC1361F3120263F3DC428D
:100AB00004EB451393F8B43363F35E7204EB8508DB
:100AC000D8F890301A61E378012B06D1D8F890302D
:100AD00004EB4512D2F8B8235A61D8F890301F6859
:100AE0002046FFF773FE60F35D7747F000476FF332
:100AF0009E77D8F890301F60E378002B3ED104EB4E
:100B0000451393F8AE33002B38D104EB4513D3F8DB
:100B1000BC33002B32D004EB451292F8B123032AE8
:100B200021D8DFE802F002110211E168CA6A0392DB
:100B3000033392B2C3F38F039A4214D246F02006D5
:100B40008B691E438E610EE0626912690192033364
:100B500092B2C3F38F039A4205D246F08066E268F0
:100B600093691E43966104EB45131946B3F8BC33F1
:100B70002A46D1F8B8132046FFF7C2FC002006B081
:100B8000BDE8F08186B000EB8101D1F890201368B8
:100B900043F0404313F4802F07D1C168C96AC1F301
:100BA000074149B96FF3DF7306E041690969C1F391
:100BB000074109B96FF3DF731360002006B0704777
:100BC00010B400224FF00043012464F3DC4300EB37
:100BD0008101D1F890000361D1F890100B6843F0C7
:100BE000004362F39E730B60104610BC704700BF59
:100BF00010B50446436900229A6143694FF0FF3201
:100C00005A6103787BB18C30002250F8041F0B68C6
:100C10006FF3DF7343F080436FF3CF330B60013228
:100C200023789342F1D82046FFF77AFD1021204621
:100C3000FFF750FD10BD00BF2DE9F04F87B006460D
:100C400003F00304534800F1280C0CEB841C00EB68
:100C50008400D0F8280100909B101F2BA8BF1F23F1
:100C6000DC1C84F3050400200290DCF804502541CC
:100C70000395DCF8085025410495DCF80C5045FA42
:100C800004F405940439DFF80C915C42019456F8A1
:100C9000045B25F00044032C05DC06AF07EB84045D
:100CA00054F8104C6AE00F2C07DC5CF82440002B51
:100CB000BABF019FBC401C4160E03F2C08DC09EB3F
:100CC0008404D4F8F870009C87FB04E4DF1E46E03F
:100CD0006404B4F1006FBABF24014FF0040E4FF06A
:100CE000000EB4F1005FBCBFA4000EF1020EB4F11F
:100CF000804FBCBF64000EF1010E274FBC4207DCE1
:100D000007F14F4707F5F21707F58267C84602E07B
:100D1000224F09F11408A24687FB0ABAD8F80470DA
:100D20005744A24687FB0ABAD8F808705744A2462F
:100D300087FB0ABAD8F80C70574487FB04A4D8F88C
:100D400010703C4409EB8E0EDEF8F87184FB0787C7
:100D5000FF00009C87FB0484DEF81872DF1B002F65
:100D600008DA7F426FF0004E4EFA07FE744503DC4E
:100D7000BC4003E03C4101E06FF000442043002D03
:100D8000B8BF644241F8044F013A80D107B0BDE8D2
:100D9000F08F00BF9C7901089979825A63218510F0
:100DA0002DE9F04F91B0069007910B920A931A9B90
:100DB0005B69022B40F01E811A9B9B69002B00F09F
:100DC00005810A9B1B7803220392002B0CBF4FF076
:100DD00008094FF0060911E11B9B5F1E4FF0000B45
:100DE0005D46DA46089BC3F1D208CDF81090DDF8D5
:100DF0002890CDF80880DDF82C806E1CD9F83430AE
:100E000003EB4502B2F9024033F91530E41A17F842
:100E1000013F1A9AD26B1AB1814A324412F8012C5E
:100E2000069901EB8A001344019A029902FB03130D
:100E300022460146FFF700FFA244034600B10D958C
:100E40004BEA030BD8F800309A4508DA3546049B84
:100E50009E42D2DB03E0002303939B469A46002385
:100E60001C9A13600D9A1C994A61CB608B604B6091
:100E70000B61039B0B2B03DDBBFA8BF00138CCE03D
:100E8000039B0D930E930F930C2B70DC03EB43032A
:100E900017331B9AD3180593089BC3F1D20304930D
:100EA000CDF808A0DA46039A1346013309930A9B4A
:100EB0005B6B03EB4203B3F93060B3F92E30F61AE3
:100EC0001A9B03F1240BB500069B029A03EB8204E4
:100ED000DDF81C90A046059B002708941C4614F8DA
:100EE000012B5BF8043F049901EBC303019901FB5B
:100EF0000233324649464046FFF79EFE034618B18C
:100F00000DAA039942F827104AEA030A0137A844B8
:100F1000A944032FE3D1089C06EB4603029A1A4426
:100F20000292002E11DD07990A1F0D4401EBC60342
:100F30001E4652F8041F216055F8041B616053F8E7
:100F4000041BA1600C34B542F3D10B9B1B68029AC1
:100F50009A4209DA059B03330593099B03930D2BF2
:100F6000A1D1D346924602E0D346DDF808A00B9B00
:100F7000C3F800A01A9B9B69002B14BF0223012316
:100F80001C9A13600D99134651600E9A9A600F9B3C
:100F90001C98C3608A42B8BF0A469342B8BF134642
:100FA0000361BBFA8BF0013837E0089B02330893EA
:100FB00000231C9A13600D9A1C994A61CB608B60C8
:100FC0004B600B6103939B469A4659E700230D93B0
:100FD0001A9B1B6C01335B0001931A9B9B6808935F
:100FE0000A9B1B6A5B087FF436AFDEE7089B02337F
:100FF0000893F1E60D2303934FF0160900230D9398
:101000001A9B1B6C01335B0001931A9B9B6808932E
:101010000A9B1B6A5B08E9D0DEE611B0BDE8F08FE1
:10102000D47B01082DE9F04F93B01C9FDDF874804C
:10103000002800F0388305460468002C00F0368351
:1010400040680090002800F03483D5F808B0BBF168
:10105000000F00F0318310680344073348BF0733A3
:1010600003951546029201910A46D9100EA800F088
:1010700087FD296811B10EA800F088FD2378002BA8
:1010800040F0598108EBC80207EBC7031B0103EBD3
:10109000C203009A1344596BC84A12F811A002EB1C
:1010A00041025478DB6B022B64D108EBC80207EBDA
:1010B000C7031B0103EBC203009A13441B6C002BF4
:1010C00000F0FD82C8EB48125200C7EB47139B00AB
:1010D0009D18013D5D44073213440BEB0306514656
:1010E0000EA800F053FD05F8010FAE42F7D103251D
:1010F000E6E251460EA800F049FDF07551460EA8F3
:1011000000F044FD307651460EA800F03FFD7076A9
:1011100001350336052DECDD0B2D1BDC05EB4505FC
:10112000049B1D445D4409F12406059B1E445E4456
:1011300021460EA800F02AFDE87521460EA800F011
:1011400025FD287621460EA800F020FD687603359F
:10115000AE42EDD1C8EB4812C7EB47139B0003EB3F
:1011600042035B44002283F83D2083F83C2083F84F
:101170003B207AE2EFB9C8EB48167600751E5D4455
:1011800006F10A09D94451460EA800F0FFFC05F803
:10119000010F4D45F7D106F10B055D4415365E4450
:1011A00021460EA800F0F2FC05F8010BB542F7D17C
:1011B0005BE24FEA08130833009901EB0309CB58AF
:1011C000A3B1C8EB481149004B1E5B44C7EB471263
:1011D00001EB8202013A5A4405310BEB010013F88E
:1011E000011F02F8011F8342F9D112E0C8EB481534
:1011F000C7EB47139B0003EB4505013D5D4400260B
:1012000051460EA800F0C2FC05F8010F0136062E6B
:10121000F6D1D9F80430ABB1C8EB481149008A1DAA
:101220000BEB0203C7EB471002EB8002013A5A4472
:101230000B310BEB010013F8011B02F8011F834275
:10124000F9D112E0C8EB48135B00C7EB471603EB7C
:10125000860605365E44062551460EA800F096FC2B
:1012600006F8010F01350B2DF6D1D9F80830B3B1CE
:10127000C8EB4811490001F10B020BEB0203C7EB6D
:10128000471002EB8002013A5A4410310BEB010087
:1012900013F8011B02F8011F8342F9D112E0C8EBD9
:1012A00048135B00C7EB471603EB86060A365E441D
:1012B0000B2521460EA800F069FC06F8010F013548
:1012C000102DF6D1D9F80C30B3B1C8EB4811490054
:1012D00001F110020BEB0203C7EB471002EB800297
:1012E000013A5A4415310BEB010013F8011B02F8C7
:1012F000011F8342F9D112E0C8EB48135B00C7EB32
:10130000471603EB86060F365E44102521460EA8CD
:1013100000F03CFC06F8010F0135152DF6D1C8EBA5
:101320004812C7EB47139B0003EB42035B440022C8
:101330005A759A7599E108EBC80207EBC7031B01C0
:1013400003EBC203009A13445B6B216A11F00101A5
:1013500002D0B8F1010F56D0B3F5C87F15DA1811D5
:10136000174A82FB0024DA17C2EB6402069202EBF2
:101370008202821A0792C3F38102089203F00303E8
:1013800009930020024604467FE0B3F5FA7F19DA9C
:10139000A3F5C87398100A4A82FB0024DA17C2EB3F
:1013A0006402069202EB8202821A079203F00303A0
:1013B0000893002209921046012466E0EC7B0108A4
:1013C00067666666A3F5FA73C54A82FB0302A2EB61
:1013D000E372069202EB4200181A07900023099369
:1013E000089308EBC80407EBC7031B0103EBC40316
:1013F000009C23441B6C002B44D0089007920020D3
:101400000122022441E003F001005B10B32B19DC40
:10141000B44A82FB0324DA17C2EBE402069202EB21
:10142000C202A3EB8203B04A82FB0342A2EBE37247
:10143000079202EB4202A3EB4203089300220992B7
:10144000032422E0F32B0DDCB43BC3F3011206921C
:10145000C3F38102079203F0030308930022099269
:10146000042412E0F43B9E4A82FB0342A2EBE372A7
:10147000069202EB42029B1A0793002209920892FD
:10148000052402E000200122022408EBC80507EB36
:10149000C7031B0103EBC503009D2B44DB6B022B31
:1014A0000ED108EBC80507EBC7031B0103EBC5030F
:1014B000009D2B441B6C002B14BF0223012300E072
:1014C000002304EB44041C44884B03EB840393F88F
:1014D00020400A9493F821400B9493F822400C94F6
:1014E00093F823300D93B1B1B8F1010F13D10BF183
:1014F000F8040BF58471002306AD55F8235044F829
:10150000045F0AAD55F8235041F8045F0133042B02
:10151000F2D1CBF8F80008EBC80107EBC7031B01B9
:1015200003EBC10300990B445A66DB6B022B5ED1BF
:1015300008EBC80207EBC7031B0103EBC2030B4414
:101540001B6C002B00F0D480069EC8EB4814C7EB40
:1015500047139B0003EB4404013C5C4400253146E7
:101560000EA800F013FB04F8010F0135062DF6D18B
:101570004FF0010A4FF00309BDE058F8045B59F839
:10158000043B002B1BDD07EB470404990C445C442F
:101590001F4407EB47060E445E4429460EA800F0A0
:1015A000F5FAE07529460EA800F0F0FA20762946F3
:1015B0000EA800F0EBFA60760334B442EDD10AF1E4
:1015C000010ABAF1030FD8DD1C9FDDF87480C8EB67
:1015D0004812C7EB47139B0003EB42035B44002216
:1015E00083F83D2083F83C2083F83B203DE0C8EBA6
:1015F0004812C7EB47139B0003EB42031946002335
:1016000099464A1E04921C97CDF87480884606AA13
:1016100052F829600AAA52F82970002F12DD9A4662
:1016200008EB0304013C5C44049AD5183D445D4436
:1016300031460EA800F0AAFA04F8010FAC42F7D127
:101640000AEB070309F10109B9F1040FDFD11C9F6F
:10165000DDF87480C8EB4812C7EB47139B0003EB1F
:1016600042035B4400229A755A7508EBC80207EBE7
:10167000C7031B0103EBC203009A1A44936A08EBE9
:10168000470707F5FC77039A42F82730029C226847
:1016900001990EA800F0D4FA23680344D81003F08F
:1016A000070323603EE04FF0FF303BE04FF0FF3098
:1016B00038E04FF0FF3035E04FF0FF3032E00025EA
:1016C000C8EB48194FEA4909C7EB47139B0005933C
:1016D0004B44049305EB45061E445E4409E500BFF8
:1016E00056555555398EE338ABAAAA2AEC7B01082A
:1016F0004FF0000AD1464FEA8A0306AA1A4411465F
:101700000AAAD3181846C8EB4812C7EB47139B0028
:1017100003EB420304931C974F468146CDF8748037
:1017200088462AE713B0BDE8F08F00BF10B584B03B
:1017300001214FF4001003F087FB0E4B00930023B0
:10174000ADF804304BF6FF72ADF80620ADF8083066
:10175000ADF80A304FF48043ADF80C30064C6946C2
:1017600020460CF0B1FC012120460CF02BFD04B00A
:1017700010BD00BFA086010000540040F8B504462B
:101780000F4616464FF40035294620460CF05CFE05
:101790000028F9D1012120460CF022FD0F4D2946E9
:1017A00020460CF03BFE0028F9D032463946204650
:1017B0000CF032FD3EB90A4D294620460CF02EFEB3
:1017C0000028F9D0F8BD012E06D1064D2946204645
:1017D0000CF024FE0028F9D0F8BD00BF0100030082
:1017E000820007000200030038B505460CF0ACFD8E
:1017F000034C214628460CF011FE0028F9D038BDD4
:101800008400070008B501210CF0F8FC08BD00BFFA
:1018100000B583B001220146074809F02DFE8DF87E
:1018200007009DF8073013F0FF0F0CBF01200020C8
:1018300003B05DF804FB00BFF43C0120704700BF1B
:1018400008B5134B1B7813F0FF0F20D0114B1B78FA
:10185000EBB900220E4B1A7001220E4B1A700E4B80
:101860001B782BB94FF410510C4807F01DF904E018
:101870004FF410510A4807F017F9074B1B781BB9B2
:101880000122054B1A7008BD0022034B1A7008BDD7
:101890008C01002000000020941E0120D86B002045
:1018A00094D60020F8B54FF6FF740D4F0D4E01256C
:1018B0002A463946304609F0ABFD28B107F0C6FC90
:1018C000013CF5D1002400E001240122064907482B
:1018D00009F09EFD08B90134E4B22046F8BD00BF0E
:1018E000947901080CB6002090790108D8B3002043
:1018F0000422034B5A70034B186001221A7170477F
:1019000000000020B00D00200322014B5A707047E8
:1019100000000020064B5B78032B03D10122044B0F
:101920005A707047052B02D10022014B5A70704744
:1019300000000020014B1868704700BFB00D002068
:10194000074B1A689B68013B934207D90421054B5A
:101950005970034B012119710A441A60704700BF86
:10196000B00D002000000020F0B583B06C4B5B7818
:10197000052B00F2C780DFE803F00528A703B903B1
:101980000020CAE0FFF744FF012840F0BD8000229C
:10199000644B1A70644B41F65065DD6041F651624C
:1019A0001A614FF41051614807F044F85C4B012470
:1019B0001C705C7002F078FE5D4B18605D4A5E4BF7
:1019C0001A605E4B1D602046A7E0574BDA681B6922
:1019D000934274D3524B1B78002B00F09780574BE7
:1019E000196841F6506399420BD14F4C04F1100332
:1019F0005049534809F0FEFD2269E3689A422FD20C
:101A000086E0C1F5F252103241F64F639A4209DC8A
:101A10004C4B13444C484D4D13F8014F00F8014F07
:101A2000AB42F9D14A4C234642480144444809F0AC
:101A3000E1FD424B1868C0F5F2531033226893421F
:101A400068DC002808DD404B3E4A184413F8011FAB
:101A500002F8011F9842F9D141F65062374B1A60E3
:101A6000344A354B1A600026344D1C46304F2968E5
:101A7000206802F023FE2B681B1A2B602368184491
:101A800020603868274B1B7813B9284B334401E09A
:101A9000304B3344002200922A46214602F07AFE5F
:101AA00006F59056B6F5904FE1D12B49204B1868BA
:101AB00002F01EFE00221A4B1A7001202DE00222B5
:101AC000174B5A70002028E0174A9368013B1268B0
:101AD000934207D11A4809F099FF0522104B5A701A
:101AE00000201AE0FFF72CFF012016E01B4B1B78AB
:101AF00013F0FF0F10D0124809F088FF0020084BA8
:101B000058700AE0012008E0002006E0012004E00F
:101B1000012002E0012000E0012003B0F0BD00BF81
:101B200000000020941E0120B00D0020D86B002082
:101B300040B80020981E0120F03C0120EC3C012020
:101B4000F43C0120971E012043B80020E73C01200F
:101B5000E83C012094D60020183F01208C01002091
:101B6000054B1B683BB10421044A5170024A012114
:101B70001171013B13607047B00D00200000002080
:101B80000260002343608360C1607047034601F038
:101B90001F014268C1F11F0022FA00F040088A408C
:101BA0005A609A68511A9960002948DAF0B44F4295
:101BB000DE68032E1CDD1C68621C1A60254615F8C1
:101BC000022B12065A601D60657842EA05425A608F
:101BD000E51C1D60A57842EA05225A60251D1D609E
:101BE000E47822435A6020229A60043EDE6019E0C5
:101BF00000225A60741E5EB11A68551C1D6015786B
:101C00005A682A4312025A60013CB4F1FF3FF3D1F3
:101C1000C6F10302D4005A68A2405A60F6009E60E2
:101C20000022DA605A6801F1200422FA04F4204309
:101C30009C682144996002FA07F75F60F0BC704726
:101C40000368591A8368C3EBC100801A704700BF4C
:101C500030B103683BB15869003018BF01207047AC
:101C60004FF0FF3070474FF0FF307047002800F012
:101C7000D880F0B504460368002B00F0D5800A78C0
:101C8000FF2A40F0D4804A7802F0E000E02840F0DB
:101C9000D180D20812F0030F1ABF82F0010202F0C5
:101CA0000100022018704D78C5F34105C5F1040507
:101CB0005D604A7882F0010202F001029A608F783A
:101CC0003F09DF608A78C2F381021A618E78C6F319
:101CD00040065E618E7806F001069E61CE78B609F8
:101CE0001E7791F803E0CEF3011EC3F820E091F8CF
:101CF00003E0CEF3C00EC3F824E091F803E0CEF386
:101D0000800EC3F828E091F803E00EF0030EC3F84C
:101D10002CE0032A00F09180042D00F091800F2F19
:101D200000F09180DE2505FB00F04A2505FB02024C
:101D3000464802445A63012E06D000221A62032E3E
:101D40000CBF0122022200E00222C4F8BC271A784C
:101D500002EB4202186902443D4850F82220C4F8C0
:101D6000C0271A78002A0CBF02250125C4F8C457E1
:101D70001A7802EB42005A68013A0244354830F9B9
:101D8000122092FBF5F2C4F8C8275A68C4F8D0278D
:101D90001A7884F8D427D868002835D05D68013DCA
:101DA0001A78C5EB051502EB4202C2EB02122A4477
:101DB0000244294830F912004FF47A7202FB00F213
:101DC000C4F8B8271A781869C0EB0015500002440F
:101DD000C2EB02122A44DD682A44204D35F9122054
:101DE0001D7F032D18BF01301D4D35F91000121A4B
:101DF000101F9A68002A18BF02225D69821A002DFE
:101E000018BF0132C4F8CC279A6832B108794A79F0
:101E100042EA00221A630620F0BD00221A63042061
:101E2000F0BD4FF0FF3070474FF0FF30F0BD4FF086
:101E3000FF30F0BD4FF0FF30F0BD4FF0FF30F0BD90
:101E40004FF0FF30F0BD4FF0FF30F0BDC49F0108F0
:101E5000A8A4010884A3010898A3010860A20108AE
:101E600070A30108002800F01A812DE9F04F87B017
:101E70008046D0F80090B9F1000F00F0138143685C
:101E80001C460093002B00F0108199F80030002BC5
:101E900034D199F81C30032B0CBF112320231A4690
:101EA000019302910023039304930592092102A850
:101EB000FFF76CFE206099F81C30032B0CBF052146
:101EC000032102A8FFF762FE6060D8F8BC37002B40
:101ED00032DD0834002701260DE0314602A8FFF765
:101EE00055FE44F8040BAC42F7D101372C46D8F824
:101EF000BC37BB4220DD04F11005EEE799F81C3039
:101F0000032B0CBF092311231A46019302910023CE
:101F100003930493059208210DEB0100FFF736FEB1
:101F2000009C206099F81C30032B0CBF012102217A
:101F300002A8FFF72BFE6060D8F8C437002B40F3EF
:101F4000A880DDF800B04FF0000A9CE05C46002756
:101F500001260C2102A8FFF719FE2546A0620921DF
:101F600002A8FFF713FEE06208210DEB0100FFF766
:101F70000DFE206399F80030002B0CBF04210921CD
:101F800002A8FFF703FE6063314602A8FFF7FEFDDB
:101F9000A063002838D0022102A8FFF7F7FDE06314
:101FA000314602A8FFF7F2FD2064052102A8FFF7E1
:101FB000EDFD6064052102A8FFF7E8FDA0640023A1
:101FC000E364032102A8FFF7E1FD2065032102A8D5
:101FD000FFF7DCFD6065032102A8FFF7D7FDA065D0
:101FE000E36B1BB9E362A362636308E0022B04D1D5
:101FF000236C13B90823E36501E00723EB65EB6D60
:10200000C3F114032B661BE00023E3632364052163
:1020100002A8FFF7BBFD6064052102A8FFF7B6FD2B
:10202000A064052102A8FFF7B1FDE064042102A825
:10203000FFF7ACFDE065032102A8FFF7A7FD2066CE
:1020400099F8003023B9314602A8FFF79FFD00E060
:1020500000206866314602A8FFF798FDA866314661
:1020600002A8FFF793FDE86601374834D8F8BC377B
:10207000BB423FF76EAF0AF1010A0BF1900BD8F8A3
:10208000C437534505DDD8F8BC37002B3FF75EAFAA
:10209000F1E7009B1B68C8F8D837019807E04FF0BC
:1020A000FF3070474FF0FF3001E04FF0FF3007B0D6
:1020B000BDE8F08F002800F022812DE9F04F8FB0AD
:1020C00004460768002F00F01D8143681A460893F4
:1020D000002B00F01A81836818460993002B00F04A
:1020E0001781E568002D00F0168123690693002B07
:1020F00000F014810E46079103F5467319460A93C2
:1021000000230D930C93D4F8BC37002B2EDD06EB87
:10211000C60602EB06162836079BC3EB431900EBF5
:10212000890905F5905808F104084FF0000A0B954D
:1021300023464C46B9460F469B46029701940096AB
:102140004B46A8F1040206992846FEF729FE48F8F6
:10215000040F0AF1010A05F5106548363E341837B8
:10216000DBF8BC375345E8DC4F460B9D3B6A002B40
:1021700000F0A88041F20823EB58002B05DC05F5A0
:1021800090531C68002C06DC1AE041F20C23EB583B
:10219000002B2FDCF3E72B1F04F18044013C05EBFF
:1021A000840461496FF0404604331A688A4201DAB8
:1021B000196003E0B2F1804FA8BF1E60A342F3D1C3
:1021C00041F20423EA58002A14DD05F6FC0302F26A
:1021D0003F2205EB820454496FF0404604331A68ED
:1021E0008A4201DA196003E0B2F1804FA8BF1E6095
:1021F0009C42F3D13B6A5A0825D013F0010F15D049
:102200000699D1F8303333B97A6BD1F844330133BE
:1022100032F9131013E07B6B069AD2F8402303EBDC
:102220004203B3F9301001EB410108E005F590538A
:1022300041F20422A9581B689942B8BF19460CAA5A
:10224000284607F043F8386A10F0010F3AD005F538
:10225000905319683B78CBB9079CC4EB4413099A97
:1022600002EB83030CAA039204EBC402089C04EB68
:102270000212D2F888200292401001900A9A00922D
:102280003E333A46284607F055F81BE0079CC4EB5E
:102290004413099E06EB83030CAA049204EBC402C8
:1022A000089C04EB0212D2F888200392401002909E
:1022B0003246F83201920A9A00923E333A46284654
:1022C00007F0D0F9386A58B30C9BB3FA83F3013B9B
:1022D00041F20822AB500D9BB3FA83F3013B41F26C
:1022E0000C22AB5041F2042205F59051A8580B681E
:1022F0008342B8BF03460B60AB50002010E04FF0A4
:10230000FF3070474FF0FF300AE04FF0FF3007E03A
:102310004FF0FF3004E04FF0FF3001E04FF0FF30AE
:102320000FB0BDE8F08F00BF010000C02DE9F04103
:1023300084B0074616460D4621B14B1E0B4218D0FD
:10234000002400E000244FF0010845FA04F313F0E4
:10235000010F09D008FA04F1324689B23846FFF776
:10236000E5FF002840F0BB800134102CEDD10020A7
:10237000BCE0604B1B680B4240F0B3805D4B5B6878
:10238000194240F0B08080293CD011D8082933D0C0
:1023900007D802292AD004292BD0012940F0A58092
:1023A00036E020292ED040292CD0102927D09CE0BF
:1023B000B1F5006F29D00AD8B1F5007F22D0B1F570
:1023C000806F22D0B1F5807F40F08F801AE0B1F5A8
:1023D000005F1AD003D8B1F5805F16D085E0B1F563
:1023E000804F12D0B1F5004F0FD07EE04FF00708BC
:1023F00010E04FF008080DE04FF009080AE04FF038
:102400000A0807E04FF0170804E04FF0280801E041
:102410004FF00608012E04D0002E0CBF022300232B
:1024200000E001230022019200931346294638461A
:102430000CF0BCFC28460CF031FCC4B238460CF061
:1024400039FC2D4A536C43F48043536404F0FC037D
:1024500003F1804303F59C33996804F00302920072
:102460000F27974021EA070199609968C0B200FAE6
:1024700002F2114399601F4B1968EA431140196039
:10248000596811405960196829431960D968114089
:10249000D96099680A409A60012E04D11A46DB6817
:1024A0001D43D5600CE026B9124A93681D43956020
:1024B00006E0104BDA682A43DA609A6815439D609B
:1024C0008DF80C800A238DF80D308DF80E40012315
:1024D0008DF80F3003A80CF0B5F9002006E00120BC
:1024E00004E0012002E0012000E0012004B0BDE88A
:1024F000F08100BF003C014000380240074B1A68E1
:10250000C04302401A605A6802405A60DA680240CA
:10251000DA609A681040986000207047003C0140E3
:102520000A4B1A68120C12041A605A68120C120430
:102530005A60DA68120C1204DA609A68120C1204FB
:102540009A605A69120C12045A617047003C0140AB
:1025500008B5054B5B6913F0010F04D00120024B55
:10256000586104F071FE08BD003C014008B5054B00
:102570005B6913F0020F04D00220024B586104F093
:1025800063FE08BD003C014008B5054B5B6913F0D4
:10259000040F04D00420024B586104F055FE08BD1E
:1025A000003C014008B5054B5B6913F0080F04D0EF
:1025B0000820024B586104F047FE08BD003C014072
:1025C00008B5054B5B6913F0100F04D01020024BC7
:1025D000586104F039FE08BD003C014008B51A4BB3
:1025E0005B6913F0200F04D02020174B586104F0D2
:1025F0002BFE154B5B6913F0400F04D04020124BAB
:10260000586104F021FE104B5B6913F0800F04D079
:1026100080200D4B586104F017FE0B4B5B6913F4DF
:10262000807F05D04FF48070074B586104F00CFE9A
:10263000054B5B6913F4007F05D04FF40070024B2B
:10264000586104F001FE08BD003C014008B5214B73
:102650005B6913F4806F05D04FF480601D4B5861A7
:1026600004F0F2FD1B4B5B6913F4006F05D04FF4CF
:102670000060184B586104F0E7FD164B5B6913F4DA
:10268000805F05D04FF48050124B586104F0DCFDA0
:10269000104B5B6913F4005F05D04FF400500D4BF5
:1026A000586104F0D1FD0B4B5B6913F4804F05D0EA
:1026B0004FF48040074B586104F0C6FD054B5B6941
:1026C00013F4004F05D04FF40040024B586104F062
:1026D000BBFD08BD003C01402DE9F043022A6BD14F
:1026E000464BD3F838E182688EFB0242D3F8205182
:1026F000846985FB046422440A60D3F83C61426823
:1027000086FB0242D3F82451C46985FB0474224439
:102710004A60D3F84051026885FB0242D3F8284151
:10272000076A84FB07C73A448A60D3F844410268C9
:1027300084FB0272D3F82C71D0F820C087FB0C8C7C
:102740006244CA60D3F848C142688CFB0272D3F875
:102750003071D0F81C8087FB089842440A61D3F896
:102760004C71826887FB0282D3F83481836988FBCD
:1027700003931A444A6143698EFB03238B61036907
:1027800086FB0323CB61C36885FB03230B62C3680D
:1027900084FB03234B6203698CFB03238B62436935
:1027A00087FB0323CB6200234B640B64CB638B63F7
:1027B0004B630B63BDE8F08302EBC20C0F4B03EBE2
:1027C0000C1C0CF148040CF18C0E01F14407043888
:1027D0000CF16C0C50F8043F5EF8045954F8046B8B
:1027E0001A4686FB028241F8042B85FB032347F837
:1027F0000439A445EED1BDE8F08300BF8CAB0108DD
:102800002DE9F04386469BBB12F0010000F0C18029
:10281000DEF88071DEF88062DEF88053DEF88044F6
:10282000DEF88015DEF88026DEF88037DEF88000DE
:102830004042CEF880007F42CEF880717642CEF8DA
:1028400080626D42CEF880536442CEF880444942A3
:10285000CEF880155242CEF880265B42CEF8803703
:10286000DEF880385B42CEF880380020BDE8F08387
:102870001C4612F0010F47D0C3F11F050126AE40E0
:10288000013E00F1800200F51067002052F8803C04
:102890004FEAE37C43FA05F9CC4518BF8CEA0603FE
:1028A000A34042F8803C4FEAE37C83EA0C03CCEB84
:1028B000030CDEF880305B424FEAE37843FA05F917
:1028C000C84518BF86EA0803A340CEF880304FEA17
:1028D000E37888EA0303C8EB030343EA0C031843D5
:1028E0000EF5807E0B684FEAE37C43FA05F8C44599
:1028F00018BF86EA0C03A34041F8043B02F580723E
:102900007745C3D1BDE8F083C3F11F050126AE4072
:10291000013E00F1800200F51067002052F8803C73
:102920004FEAE37C43FA05F9CC4518BF8CEA06036D
:10293000A34042F8803C4FEAE37C83EA0C03CCEBF3
:10294000030CDEF880304FEAE37843FA05F9C84516
:1029500018BF86EA0803A340CEF880304FEAE37838
:1029600083EA0803C8EB030343EA0C0318430EF59C
:10297000807E0B684FEAE37C43FA05F8C44518BF34
:1029800086EA0C03A34041F8043B02F580727745C8
:10299000C4D1BDE8F08300BF2DE9F04FC3B00D9165
:1029A0000A92002800F075860E4615460346026816
:1029B000002A00F0718640681890002800F06F86A9
:1029C000DC680B94002C00F06D865B690E93002B85
:1029D00000F06B86516B1378002B00F06986B1F91B
:1029E0000C30224A82FB0312DB17C3EBA2031BB29B
:1029F000169305EBC50306EBC602120102EBC303F7
:102A00000344DB6B022B14D00A9B03F590630B9AF3
:102A100052F823300733154A82FB0312DB17C3EB4E
:102A2000A2030133202BA8BF20230893013B0C9362
:102A30001EE00A9B03EBC3020D9B03EBC3031B01C8
:102A400003EBC203189A13441B6C23B1169A531E4E
:102A50000C9308920CE00A9B03EBC3030B9A02EB66
:102A6000032B002308930C93FAE000BF398EE33860
:102A70000A9B03EBC3030B9A02EB032B0C9A002A6D
:102A800040F3EE80BA4BD3F800A0596800919968E2
:102A90000191D96802911969039159690491996961
:102AA0000591D9690691196A0791D3F824E09F6AC4
:102AB000DE6A1D6B5C6B986BD96B5B46CDF83CB0E6
:102AC000099194465A6C90468AFB0898D3F848902E
:102AD000009981FB09B9C9EB08084FEA4808C3F817
:102AE0004480D3F848808AFB089881FB02924244D4
:102AF00052009A641A6C9046019981FB0898D3F8A9
:102B00004C90029981FB09B9C9EB08084FEA4808C3
:102B1000C3F84080D3F84C80019981FB0898029952
:102B200081FB029242445200DA64DA6B90460399C8
:102B300081FB0898D3F85090049981FB09B9C9EB3F
:102B400008084FEA4808C3F83C80D3F8508003993E
:102B500081FB0898049981FB0292424452001A6555
:102B60009A6B9046059981FB0898D3F85490069982
:102B700081FB09B9C9EB08084FEA4808C3F8388057
:102B8000D3F85480059981FB0898069981FB02923D
:102B9000424452005A655A6B9046079981FB089847
:102BA000D3F858908EFB09B9C9EB08084FEA4808DA
:102BB000C3F83480D3F8588081FB08988EFB0292CA
:102BC000424452009A651A6B904687FB0898D3F8E6
:102BD0005C9086FB09B9C9EB08084FEA4808C3F8BE
:102BE0003080D3F85C8087FB089886FB02924244D1
:102BF0005200DA65DA6A904685FB0898D3F860904F
:102C000084FB09B9C9EB08084FEA4808C3F82C80CF
:102C1000D3F8608085FB089884FB029242445200FE
:102C20001A669A6A904680FB0898D3F864900999CE
:102C300081FB09B9C9EB08084FEA4808C3F82880A6
:102C4000D3F8648080FB089881FB029242445200D2
:102C50005A664833BCF1010C7FF434AFDDF83CB068
:102C60000A9B1D461C930D9A16461B9298000B9BBF
:102C7000034419460C9B03EBC3035B00083301F5C7
:102C8000905422689342B8BF134623601133394AE7
:102C900082FB0342DB17C3EBA20312930E9C234675
:102CA000034418461A9303F5D8531B68139341F64F
:102CB0000833C3580C9341F61033C3580D9328467C
:102CC00005EBC502354606EBC6031B0103EBC20349
:102CD000189F3B441B6C002B169B08BF00231693C8
:102CE00041F20823CB581E460F93C30001461A1821
:102CF00004EBC21202F590520B920A460B4404EB0D
:102D00000321084619910899002940F35982C6F118
:102D100007010C461791062E2146D4BF21460021FB
:102D200014910B9B2433039301900BF13C03049308
:102D300000230993029302EBC20305EBC5021201C3
:102D400002EBC303FB181593CDF874B0039B243B2F
:102D50000793159AD36B19460A93136C63B10B460C
:102D6000169A02998A42C8BF00230A9304E000BF62
:102D7000FCA90108398EE3380C9B0D9A02998A420E
:102D8000C8BF00230E93019B00930F9B062B21DCF1
:102D900030AF27AE0499A1F1480E039C25460020D0
:102DA0000346DDF85CC08A6842FA0CF2D31A181A9E
:102DB0004A6842FA0CF2D31A47F8040D46F8043D6B
:102DC00054F8042D42FA0CF245F8042D08397145E7
:102DD000E9D111E030AC0499A1F148050020034687
:102DE0008A68D31A181A4A68D31A44F8040D44F8AA
:102DF000243C0839A942F3D1279E731005931E9AEB
:102E00004FEA620E1F98209DDDF888A0DDF88C90B7
:102E1000DDF89480269E2499C1EB0E0C00EB09028C
:102E200005EB0A07A91900EB0803D41A1094CAEBA2
:102E30000505AD1B0695219DA44E86FB05A5C9EB96
:102E40000000C8EB000A5646A04C84FB0606384634
:102E50009F4C84FB00808B469E4C84FB0B8BC91BD4
:102E600089469B4C84FB091939469A4C84FB0171B5
:102E70001191DDF84080C24604F1705404F54C24F1
:102E800004F2CB2484FB0A7A934C84FB0373174629
:102E9000A4F12F54A4F5EA24E93C84FB0727444617
:102EA0008D4981FB042424990EEB61026D0002EB35
:102EB0000508551B069A0CEB620E4FEA4B0B0BEB09
:102EC0004000119A5100C1EB490100EB01095B0080
:102ED00003EB4A036200C2EB4702D41A08EB000777
:102EE0001F441E974FEA460A0EEB0A071F976F18FA
:102EF00017442097C9EB05073F1B2197069EC6EB99
:102F00000C062296C9EB08094C4423944144891AC3
:102F10002491CAEB0E0225922844C31A2693289BBB
:102F200029982B9FDDF8B0C0DDF8B8E02F9E059AF8
:102F30002D99C1EB020803EB0C0200EB0709811984
:102F400003EB0E04151BC71BB81B06902A985F4F96
:102F5000064687FB06061096CCEB0303CEEB030E6A
:102F600077465A4880FB07374B46594E86FB03038A
:102F70000846584E86FB00E0C9EB01018A46544ED4
:102F800086FB0A1A4946534E86FB01E1AB4606F121
:102F9000705606F54C2606F2CB2686FB0BEB4E4E02
:102FA00086FB04E49646A6F12F56A6F5EA26E93EEE
:102FB00086FB0E2E484E86FB0525059A2D9E02EBBC
:102FC000660C109A52000CEB0209C2EB0C06069A32
:102FD00008EB620C400000EB43004900C1EB4A01E2
:102FE00000EB010A630003EB4B036A00C2EB4E02E5
:102FF000D41A09EB00051D4427954FEA470E0CEB48
:103000000E052895751815442995CAEB06052D1B44
:103010002A95069DC5EB08072B97CAEB090A54446D
:103020002C944944891A2D91CEEB0C022E923044F7
:10303000C31A2F930E9B002B52D10A9B002B4FD10A
:10304000264B03F12C06DDF804C0DDF81CE000245B
:10305000254626AF03F1200800987A6A57F804390C
:1030600058F8041981FB02924FEAA309DEF80030F8
:10307000C9EB02014A444EF8042B5A42C1EB020943
:1030800056F8082C89FB02A201EB820156F8042CA9
:1030900089FB02A2C3EB82030151CCF880384FEACE
:1030A000E17A81EA0A014FEAE37983EA0902CAEB8D
:1030B0000101C9EB02030B431D4308368034ACF118
:1030C000800CB4F5906FC8D152E000BFA1EBD96E6F
:1030D0008BBE0D627E1A3A16322E0E7E589F010864
:1030E0000E9A30A9DDF81C804046FFF7F5FA0A9BDE
:1030F00003EBC30E514B03EB0E1E0DF1BC0BAEF1F7
:10310000040A0DF584790EF1480E019F002425462E
:1031100026AEDFF82CC1736A56F804295CF804194E
:1031200081FB03039210D11A1A4448F8042B5AF871
:10313000042F81FB02325BF8043F1A4492005EF8D0
:10314000043D81FB030359F8041D0B449B000099C7
:103150000A51C7F88038D0174240D9174B40121A8D
:103160005B1A13431D438034803FB4F5906FD2D176
:10317000149B029C224607990098FFF741FB2843C5
:10318000099A02430992234601330293039A243297
:103190000392019A04320192049A48320492089AE6
:1031A0009A427FF4D3ADDDF874B01146D3009A187B
:1031B0000BEBC20B0B440B9A02EB83030B9302E065
:1031C000002309930893129B1946089A13469142CB
:1031D00040F3CC811592199A02EB83030A930B9B5F
:1031E00007930F9BC3F1070314935D4600E0079418
:1031F0000C9B0D9A08998A42C8BF002398460A9BE7
:103200000E930F9B062B1DDC149E109628462A1D3C
:10321000079B03F1240452F8041C314142F8041CBA
:1032200041683141416053F8041B314143F8041CAB
:1032300008300832A342EED106E000BF8CAB010893
:10324000789F0108002310932868EB68A9696A6ACF
:103250002C6BEE6BA41B121B891A921B5B1AC01AF3
:103260009B1A40104FEA6309BB4B83FB0171490075
:1032700000EB6407041B01EB070E7F1A83FB0212AD
:103280004FEA420A09EB66010AEB0100B34B83FBEC
:1032900000C08000C6EB0903B14A82FB03639B00B8
:1032A000CAEB0102AF4E86FB021292000EEB000148
:1032B0001E91E1181F91B9182091BA1A2192E31AB0
:1032C0002293C0EB0E00239068682B69E969AA6A13
:1032D0006C6B2E6CA41B121B891A921B5B1AC01AF2
:1032E0009B1A40104FEA63099B4B83FB0171490015
:1032F00000EB6407041B01EB070E7F1A83FB02122D
:103300004FEA420A09EB66010AEB0100934B83FB8B
:1033100000C08000C6EB0903914A82FB03639B0057
:10332000CAEB01028F4E86FB021292000EEB0001E7
:103330002491E1182591B9182691BA1A2792E31A17
:103340002893C0EB0E002990A8686B69296AEA6A85
:10335000AC6B6E6CA41B121B891A921B5B1AC01AF1
:103360009B1A40104FEA63097B4B83FB01714900B4
:1033700000EB6407041B01EB070E7F1A83FB0212AC
:103380004FEA420A09EB66010AEB0100734B83FB2B
:1033900000C08000C6EB0903714A82FB03639B00F7
:1033A000CAEB01026F4E86FB021292000EEB000187
:1033B0002A91E1182B91B9182C91BA1A2D92E31A7F
:1033C0002E93C0EB0E002F90424630A90798FFF7CE
:1033D00083F930A9DFF890B11EAA96460A9E002311
:1033E0000093019311950B689B004FEAE37A83EAFF
:1033F0000A0002903360CB689B00DD1783EA050466
:103400000394C6F88031DBF82031DEF80C0083FB32
:1034100000408B6900EB8303D81783EA0007049709
:10342000C6F80033DBF82C31546983FB04744B6A13
:1034300004EB8304E317059384EA03070697C6F8B1
:103440008044DBF83841976884FB07C7DBF82041EC
:10345000DEF824C084FB0C8C0C6B674407EB8404FF
:103460004FEAE47884EA080CC6F80046DBF84441E9
:103470005EF8047B84FB0797D2F82C90DBF82C4194
:10348000234683FB0949CC6B4F4407EB84044FEA86
:10349000E47984EA0907029BCAEB030A039B5D1BDC
:1034A0004AEA0505049B181A0543069B05981B1A52
:1034B0001D43C8EB0C0C45EA0C05C9EB07072F436D
:1034C000009B3B430093C6F88047019B0133019367
:1034D000043180360BF1040B043A032B83D1119D88
:1034E00023A90798021F083051F8043F9B1042F8A7
:1034F000043F9042F8D129A9079800F10C0200F18D
:103500002404204651F8043F9B1042F8043B9042AB
:10351000F8D1109B089E324607990E98FFF770F974
:10352000009A02431046099A0243099248353346ED
:10353000013308930A9A04320A92129A9A423FF788
:1035400056AE1346159A9B1A03EBC3030B9A02EB74
:1035500083030B930CE000BFA1EBD96E1D75A37B19
:103560009A79825A83FB20218CAB0108089B129325
:10357000139B1946129A914252DD199B194601EB91
:103580008205164600240095099D01920C9B0D9919
:10359000B142C8BF00231A4630A9DDF82C8040464E
:1035A000FFF79AF846F3000A31AFA8F1040C0DF5C5
:1035B000867900984FF0000E06F0010857F8042CA9
:1035C000920002604FEAE27B82EA0B0157F8083B67
:1035D0008AEA830343441A434EEA020EC0F880305D
:1035E000DA175340CBEB01019B1A19430D434CF8FA
:1035F000044F00F580704F45E0D10B9B24330B93B3
:10360000019BBEF1000F18BF334601930136009BAA
:1036100004330093139BB342B8DC0995019E02E08A
:10362000129B1E461393139B1F2B11DC199A1146F4
:1036300001EB83020021184608E0D1508033B3F536
:10364000106FFAD101300432202801D00023F4E7B2
:10365000099BB3FA83F01A9C04F5D8531E601C9B97
:1036600003EBC3021B9B03EBC3010B0103EBC20380
:10367000189A1A44D26B41F608332146E25041F6BB
:103680001033169CCC50431E41F618328B5000204C
:1036900029E04FF0FF3026E04FF0FF3023E04FF0FD
:1036A000FF3020E04FF0FF301DE04FF0FF301AE018
:1036B000B1F910300D4A82FB0312DB17C3EBA203F2
:1036C0001BB216930A9B03EBC3030D9A02EBC202D3
:1036D000120102EBC303189A1344DB6B022B7FF435
:1036E00093A9FFF7A6B943B0BDE8F08F398EE33850
:1036F00030B585B005460121084601F0A5FB4AF228
:103700001043ADF804300024ADF806400295ADF842
:103710000C408DF80E4001A94FF080400CF09AFA51
:103720001C238DF8003005238DF801308DF8024000
:1037300001238DF8033068460BF084F805B030BDE6
:1037400008B501214FF080400CF02AFB0122114600
:103750004FF080400CF074FE08BD00BF10B5054C62
:10376000012120460CF01CFB0122114620460CF0E2
:1037700067FE10BD0008004008B5002201214FF08F
:1037800080400CF05DFE00214FF080400CF008FB03
:1037900008BD00BF10B5054C0022012120460CF0E9
:1037A0004FFE002120460CF0FBFA10BD000800403F
:1037B00070B588B006460121022001F045FB952333
:1037C000ADF8143040F65F1306930025ADF81C5099
:1037D000ADF816500F4C05A920460CF03BFA6023BB
:1037E000ADF80030ADF80C5002960125ADF802504E
:1037F000694620460CF060FB082120460CF044FC92
:10380000294620460CF0A6FA294620460CF0C8FAB4
:1038100008B070BD0004004030B585B005460121F8
:10382000042001F011FB4AF21043ADF804300024EB
:10383000ADF806400295ADF80C408DF80E4001A998
:1038400009480CF007FA1E238DF8003004238DF888
:1038500001308DF8024001238DF8033068460AF0EC
:10386000F1FF05B030BD00BF0008004070B500EBAF
:103870004104B4F88C5500EB411405F07F0684F840
:10388000AD63C5F3C01584F8AE5384F8AC239DF83E
:10389000102084F8B123BDF81420A4F8B22384F8D2
:1038A000AF33002284F8C42384F8C52313B901225E
:1038B00084F8B023FDF74AF8002070BD38B5BDF894
:1038C000144022B1154600EB411282F8AC5300EBD4
:1038D0004112B2F8B223A24204D01CB100EB411253
:1038E000A2F8B24300EB411292F8AF239A4204D0FF
:1038F0001BB100EB411282F8AF33FDF727F800202F
:1039000038BD00BF10B4B0F98C35002B07DA00F2D7
:103910008C52012332F9024F002C0BDB00E0002314
:103920009AB200EB43036FEA41416FEA5141A3F8B9
:103930008C1505E00133DBB2082BEBD14FF6FF729B
:10394000D0B210BC704700BF072907D800EB410078
:10395000B0F88C35C3F30E03A0F88C350020704707
:103960000023A0F89035A0F89235A0F89435A0F87F
:103970009635A0F89835A0F89A351846704700BFDC
:1039800008B5284B984208D10121102001F0B0FA67
:103990000021102001F0ACFA08BD234B98420AD157
:1039A00001214FF4003001F095FA00214FF400306E
:1039B00001F090FA08BD1D4B98420AD101214FF445
:1039C000802001F087FA00214FF4802001F082FA74
:1039D00008BD174B98420AD101214FF4002001F095
:1039E00079FA00214FF4002001F074FA08BD114B60
:1039F00098420AD101214FF4801001F06BFA0021A6
:103A00004FF4801001F066FA08BD0B4B984207D1C5
:103A10000121202001F06CFA0021202001F068FA39
:103A200008BD00BF001001400044004000480040B5
:103A3000004C0040005000400014014030B585B0FB
:103A400004460D46038A9BB223F44053CA881343AD
:103A5000038283899BB223F4B05323F00C0289883C
:103A60002B890B4369890B439BB213438381838A60
:103A70009BB223F44073AA8913438382684601F002
:103A80003DF91C4B9C4203D003F580639C4201D15D
:103A9000039B00E0029BA28912F4004F03EB830317
:103AA00003EB8303296814BF49008900B3FBF1F1DC
:103AB000114BA3FB012358090501642300FB1313D9
:103AC000A28912F4004F09D0D90032310A4AA2FB70
:103AD0000131C1F3421242EA050307E01B01323310
:103AE000054AA2FB0323C3F343132B439BB2238159
:103AF00005B030BD001001401F85EB514FF4165347
:103B0000036000238380C38003810C224281838170
:103B1000704700BF10B4038A9BB223F470620C8814
:103B20004B8823438C882343C9880B439BB21343A0
:103B3000038210BC704700BF002303804380838052
:103B4000C380704729B183899BB243F400538381BA
:103B50007047838923F400531B041B0C8381704737
:103B6000038B03F47F430383038B9BB219430183CD
:103B7000704700BF39B183896FEA43436FEA53430B
:103B80009BB2838170478389C3F30E03838170479F
:103B900029B1838A9BB243F4006383827047838A8E
:103BA00023F400631B041B0C83827047C1F30801DC
:103BB000818070478088C0F308007047038A23F033
:103BC0000F031B041B0C0382038A9BB2194301825F
:103BD000704700BF29B183899BB243F00203838100
:103BE0007047838923F002031B041B0C83817047F9
:103BF000838923F400631B041B0C838183899BB29C
:103C000019438181704700BF038A23F020031B04FE
:103C10001B0C0382038A9BB219430182704700BFC9
:103C200029B1038A9BB243F4804303827047038A1D
:103C300023F480431B041B0C0382704783899BB2CF
:103C400043F001038381704729B1838A9BB243F01B
:103C5000080383827047838A23F008031B041B0C2C
:103C600083827047038BDBB20383038B9BB243EAEF
:103C700001210183704700BF29B1838A9BB243F0C1
:103C8000200383827047838A23F020031B041B0CCC
:103C90008382704729B1838A9BB243F010038382E9
:103CA0007047838A23F010031B041B0C8382704728
:103CB000838A23F004031B041B0C8382838A9BB238
:103CC00019438182704700BF29B1838A9BB243F0B8
:103CD000020383827047838A23F002031B041B0CB8
:103CE0008382704722B1838A9BB2194381827047D5
:103CF000838A9BB223EA01018182704710B4C1F329
:103D0000421401F01F01012303FA01F19C4201D189
:103D10000C3003E0022C0CBF103014301AB10368D1
:103D20001943016003E0036823EA0101016010BC4C
:103D3000704700BF0388194214BF0120002070475C
:103D4000C94389B20180704710B4C1F3421201F037
:103D50001F040123A340012A03D1828992B2134098
:103D600005E0022A0CBF028A828A92B213400288BE
:103D700092B243B1090A012303FA01F10A4214BFC6
:103D80001846002000E0002010BC7047090A0123FB
:103D900003FA01F1C94389B20180704710B5BDF83B
:103DA0000C4062F07F020A7506224A75CB8203F44A
:103DB0007F42B2F5407F0CBF40F2094300230B83E2
:103DC0004C832346029A0AF0FDFB10BD70B582B009
:103DD00004460D461646019200F5887300934FF491
:103DE00080730022FFF7DAFF0346002845D194F8DC
:103DF000102185F8222094F8112185F8232094F8C9
:103E0000131194F8122102EB0122AA8494F81421D0
:103E100085F8262094F8152185F8272094F8162196
:103E200085F8282094F8172185F82920082E24D910
:103E300094F8191194F8182102EB01226A8594F87C
:103E40001B1194F81A2102EB0122AA8594F81D1186
:103E500094F81C2102EB0122EA8594F81E2185F8D2
:103E6000302094F81F2185F8312094F8202185F81E
:103E7000322094F8212185F83320184602B070BD15
:103E8000F0B583B007461D46BDF8204000F58876A2
:103E90000194009642F440730022FFF77FFF014631
:103EA000B0B997F81131032B12D197F81031023BBA
:103EB0009C42A8BF1C46A4B244B10023F2189278D9
:103EC00005F8012B02339BB29C42F7D800232B70DC
:103ED000084603B0F0BD00BF2DE9F04F8FB0044697
:103EE0008946154600F58877019200974FF40073D4
:103EF0000022FFF753FF0390002840F0D9806DB1F6
:103F000004F20F136C4A681E80B200F588702044DA
:103F100013F8011F02F8011F8342F9D194F8103100
:103F200089F8343094F8113189F8353094F8132138
:103F300094F8123103EB0223A9F8363094F81431C7
:103F400089F8383094F8152189F8392094F8162129
:103F500089F83A2094F8172189F83B2094F8182121
:103F600089F83C20092D40F2A380052B00F29C80AB
:103F7000524B1C8893F802B0002304934FF0090AB7
:103F800009F13E030D9309F16C084FF0040C86E033
:103F90003B789A441FFA8AFA1F447B78042B7ED11F
:103FA000FE78022E7BD83D79052D78D8BB7819464E
:103FB00005934FFA83FE0EEBCE030D9A13443A7825
:103FC00007927A790892BA790992FA790A923A7A3A
:103FD0000B920EEB8E02D200069200220C915CE056
:103FE00039788A441FFA8AFA0F447978052954D11E
:103FF000F3451AD09DF81C10197083F801C09DF884
:1040000014109970DE701D719DF8201059719DF883
:10401000241099719DF82810D9719DF82C101972EF
:10402000DDF830B0012104911BE07879397901EB9A
:1040300000218C4233DC9DF81C10197083F801C0FC
:104040009DF814109970DE701D719DF82010597143
:104050009DF8241099719DF82810D9719DF82C10A5
:1040600019723C78069901EBC20008EB000108F8D0
:10407000004078784870B8788870F878C8707C7993
:10408000387900EB04208880B87988717C79397997
:1040900001EB0424A4B2013252B2AA42A0DBB9F867
:1040A000363053453FF674AF044B00221A809A70A5
:1040B00003980FB0BDE8F08F333F0120D00D0020F2
:1040C00038B500240C7505254D75CA820C834C83C8
:1040D000234622460AF076FA38BD00BF38B50024E0
:1040E0000C7509254D75CA820C834C8323462246E4
:1040F0000AF068FA38BD00BF38B501250D750B25EB
:104100004D75CB820A8300224A8313460AF05AFA7D
:1041100038BD00BF10B502240C7501244C75002475
:10412000CC820A834C8312F0800F03F11E0300EB54
:10413000431319BF22461A7100225A7100231A46EE
:104140000AF040FA10BD00BF02780B8813440B80C0
:1041500003781844704700BF03787BB10A787AB1BE
:1041600093420FD101E093420ED110F8013F6BB1A1
:1041700011F8012F002AF6D1012070470120704765
:1041800001207047002070470020704701207047D1
:104190000346027832B10020013013F8012F002AC3
:1041A000FAD170470020704703782BB101F8013B2A
:1041B00010F8013F002BF9D100230B70704700BFAE
:1041C00010B4044630B10B460818202203F8012B26
:1041D0008342FBD100230B5510BC7047002800F030
:1041E00081802DE9F04F85B00D46C368002B7CD04F
:1041F0004369002B7CD08669002E7CD0D0F8BC2788
:10420000022A3FD1994603F5106203924FF0000A4B
:1042100003F5D85B0BF1180B03F5D85808F11C080F
:104220000AF0010706F508542268DBF80030009315
:104230003B463146484609F0DBFB2268D8F800309F
:1042400000933B4606F1800109F5106009F0D0FBB0
:1042500039013944236803EB8111294A06EB8101B6
:1042600028460AF067FF2368DF1B07F0070727606F
:1042700080350AF1010A09F18009039B9945CFD1E4
:1042800000203AE09A464FF0000906F5085703F57A
:10429000D85808F11808DFF868B009F001043A6846
:1042A000D8F80030009323463146504609F0A0FB71
:1042B000210121443B6803EB81115A4606EB810141
:1042C00028460AF0D9FD3B681C1B04F007043C603B
:1042D000403509F101090AF1800AB9F1120FDCD168
:1042E00000200AE04FF0FF3070474FF0FF3004E04D
:1042F0004FF0FF3001E04FF0FF3005B0BDE8F08F28
:1043000060A5010801207047012070470120704717
:10431000012070470120704701207047012070473D
:10432000012070470120704701207047012070472D
:10433000012070470120704701207047012070471D
:10434000012070470120704701207047012070470D
:1043500001207047CB1FDBB2012B13D870B4066865
:10436000094B8D006A1892009C189E50426862604A
:104370008268A26002692261C268294403EB81015C
:10438000CA6070BC704700BF0400002008B500EB95
:104390008000044B53F820300BB1984708BD04202F
:1043A00008BD00BF0400002008B500EB8000044BEE
:1043B00003EB800043680BB1984708BD042008BD9B
:1043C000040000207BB138B51C4600EB8000084B90
:1043D00003EB8000056945B12346144608461A469A
:1043E0002146A84738BD04207047042038BD00BFCF
:1043F000040000207BB138B51C4600EB8000084B60
:1044000003EB8000C56845B12346144608461A46AA
:104410002146A84738BD04207047042038BD00BF9E
:104420000400002008B500EB8000054B03EB80037F
:104430009B681BB108461146984708BD042008BD7B
:1044400004000020004870470000FC420120704733
:1044500001207047012070470120704701207047FC
:10446000FEE700BF08B50E4B0E4A9A420CD2581E0A
:10447000801A20F0030004300B4B184453F8041B3F
:1044800042F8041B8342F9D1084809494FF0000261
:104490008842B8BF40F8042BFADB00F02FFB08BDC0
:1044A000B00D002000000020DCB20108B00D00209B
:1044B000604F012008B50B4808F0CEFE48B10A4B0A
:1044C0001B78012B05D1094A137803F0FE03137002
:1044D00004E0064A137843F001031370034B187885
:1044E00008BD00BF20480120CC4D0120B8000020AD
:1044F000014B1878704700BFB80000208AB32DE93F
:10450000F84313461B4A127812F0010F2BD11D46B7
:104510000F460646184808F09FFED0B1174B1B788F
:10452000012B18D16D02DFF85080DFF854902B4634
:104530003A463146404604F04BF904464946404667
:1045400008F022FF404608F087FE78B1032CEED039
:1045500002E0002400E00024201C18BF0120BDE878
:10456000F883042070470320BDE8F8830120BDE8EC
:10457000F88300BFB800002020480120CC4D012066
:10458000D04D0120AAB32DE9F84313461E4A1278F4
:1045900012F0010F2FD11D4A1278042A2ED01D4689
:1045A0000F4606461A4808F057FED0B1174B1B7845
:1045B000012B18D16D02DFF85880DFF858902B4698
:1045C0003A463146404604F0A3F804464946404680
:1045D00008F0DAFE404608F03FFE90B1032CEED022
:1045E00002E0002400E00024201C18BF0120BDE8E8
:1045F000F883042070470320BDE8F8830220BDE85B
:10460000F8830120BDE8F883B8000020CC4D0120DC
:1046100020480120D04D01200F4B1B7813F0010FD3
:1046200016D1032803D8DFE800F01504090E042092
:1046300070470A4B1B680B60002070474FF40073F3
:104640000B80002070474FF400730B600020704710
:104650000320704700207047B8000020104601205A
:1046600000B330B40446D0F8C427D0F8C83703FBF1
:1046700002F2D0F8BC3703FB02F3002B11DD023944
:104680000020054621F8025F0130D4F8C427D4F891
:10469000C83703FB02F2D4F8BC3703FB02F38342B2
:1046A000F0DC30BC704700BF08B505F0FBFD08BD6D
:1046B00018B108B505F03CFE08BD70474B1E002B35
:1046C00010DD1946002310F8012BFF2A04D10278CF
:1046D00002F0E002E02A08D001338B42F3D14FF020
:1046E000FF3070474FF0FF3070471846704700BFEB
:1046F000034618B1D0F8D027032A08D000230B6056
:104700004B608B60CB600B614B618B617047D0F865
:10471000B8270A60D0F8BC274A60D0F8C0278A6062
:104720001022CA6090F8D42702EB4200D3F8D027B9
:10473000013A0244074830F91200D3F8BC2702FBC3
:1047400000F20A61D3F8D0274A6193F8D4378B611D
:10475000704700BF84A3010890B138B504460D46E8
:104760001146FDF783FAB0F1FF3F0CD0D4F8D037F3
:10477000032B0BD129462046FFF7BAFF002038BD96
:104780006FF0040070476FF0050038BD6FF0050052
:1047900038BD00BF002800F09F812DE9F04F87B0A1
:1047A00004460393914688460968FDF75FFAB0F125
:1047B000000BC0F29481D8F800105944C8F80010DA
:1047C0002046FDF74FFBB0F1000A06DA03992046B8
:1047D000FFF746FF6FF006008DE1D8F80030534434
:1047E000C8F800300BEB0A02D9F800309B1AC9F860
:1047F0000030D4F8B83723B1D4F8B037002B4FD1FC
:1048000056E0D4F8B037002B4AD10123C4F8B037B2
:10481000D8F8003002930BEB0A07DF1BD9F80060D1
:104820001D4631462846FFF749FF2B180028C0F2E5
:104830005D81295C3A78914215D159787A78914214
:1048400011D1B9789A784A4012F0FC0F0BD111F0CF
:10485000020F18BF03F1FF33029A9B1AC4F8B43752
:10486000002B0BDA03E0DD1C0330361AD9E703997D
:104870002046FFF7F5FE6FF002003CE19B44D34475
:10488000D4F8C03703FB0BFB4FEACB0BD4F8C4279B
:10489000D4F8C83703FB02F39BFBF3F3C4F8B83733
:1048A000D4F8B4572046FDF7D3F92844C4F8CC0710
:1048B000109BF3B1D9F80030C4F8CC37D4F8D8271E
:1048C0000AB9002B06DC03992046FFF7C9FE6FF0FA
:1048D000050010E1C4F8DC37D8F800703B44C8F894
:1048E0000030D9F80030D4F8CC279B1AC9F8003032
:1048F00058E0D4F8CC17D9F80030994206DD039976
:104900002046FFF7ADFE4FF0FF30F4E0D4F8DC377F
:10491000D4F8D827934223DB04F11C07991A3944B1
:1049200038460EF003F8D4F8D807D4F8CC27D8F8D6
:10493000001038440DF060FFD4F8CC37D4F8D827F5
:104940001A44C4F8DC27D8F800201344C8F8003013
:10495000D9F80030D4F8CC279B1AC9F8003021E0F0
:1049600004F11C000A46D8F8001018440DF044FF6A
:10497000D4F8CC37D4F8DC271A44C4F8DC27D8F8AC
:1049800000201344C8F80030D9F80030D4F8CC2700
:104990009B1AC9F8003003992046FFF761FE6FF0BB
:1049A0000100A8E000230593D4F8DC57ED00D4F80B
:1049B000C437002B40F3968004F5FC6302934FF05C
:1049C0000009A04682E0DDF808A00024DDF814B05C
:1049D0000194CDF800902B4605AA39464046FCF7D5
:1049E00021FB059ECBEBC00232445AF8043B9B1AD4
:1049F0000744AD1A002801DBAB4206DD03994046AF
:104A0000FFF72EFE6FF0070075E00194CDF80090DF
:104A100005AA3946404604F07DFF002806DA0399CE
:104A20004046FFF71DFE6FF0080064E00744C6EB48
:104A3000C006059A1644AD1B0134D8F8BC37A34212
:104A4000C4DC49464046FDF735FB002806DBD8F8B4
:104A5000BC37002BC8BF002407DC19E0039940468F
:104A6000FFF7FEFD6FF0090045E02246494640464B
:104A7000FDF792FF002806DA03994046FFF7F0FDA4
:104A80006FF00A0037E00134D8F8BC37A342ECDC01
:104A9000D8F8C82702FB09F203FB02F1039B03EBE2
:104AA00041014046FFF79AFB002806DA0399404689
:104AB000FFF7D6FD6FF00B001DE009F10109029B25
:104AC00008330293D8F8C4374B450DDDD8F8BC370E
:104AD000002B3FF778AFB4E76FF0040070476FF03A
:104AE000050008E0002006E0002004E04FF0FF335E
:104AF000C4F8B437BBE607B0BDE8F08F08B503F0E3
:104B0000D9FE01F039FF05F073FB4FF4E1320021CB
:104B1000154800F09BFD02F077FB04F0BDFA02F0AF
:104B200039F804F0AFFB09F08BFFFCF7BBFE0F4830
:104B300002F0F2F80E4802F0EFF80E4BDB780BB9FA
:104B4000FCF7E8FE0C4D0D4C04F080FB01F0AAFED2
:104B500002F0A8FE2368C3EBC300C3EBC0032868C0
:104B60001844FCF701FFEFE7004C00409079010882
:104B700094790108184F0120CC0D0020B00D0020C1
:104B80000A4B1A6842F001021A60002199601A6803
:104B900022F0847222F480321A60054A5A601A6840
:104BA00022F480221A60D960704700BF00380240AA
:104BB00010300024024B00221A701870704700BF9A
:104BC00002380240034A136823F0F80343EAC000A6
:104BD0001060704700380240014B1860704700BFFA
:104BE00000004742084B00221A701A70012802D0B8
:104BF000042804D070470122034B1A707047052225
:104C0000014B1A70704700BF70380240014B1860AA
:104C1000704700BF800E474210B4019C40EA046018
:104C2000014341EA82125B08013B42EA0340024B26
:104C3000586010BC704700BF00380240014B18603C
:104C4000704700BF60004742090741EA8010024BED
:104C5000C3F88400704700BF00380240014B186061
:104C6000704700BF68004742014B1860704700BFA3
:104C70004C004742034A936823F0EC63194308430E
:104C80009060704700380240034A936823F07843ED
:104C9000194308439060704700380240034A936804
:104CA00023F0030318439060704700BF00380240B0
:104CB000024B986800F00C00704700BF00380240BB
:104CC000034A936823F0F00318439060704700BFD5
:104CD00000380240034A936823F4E053184390607D
:104CE000704700BF00380240034A936823F46043D2
:104CF00043EAC000906070470038024010B4244B73
:104D00009B6803F00C03042B05D0082B06D00BBBCB
:104D1000204B036020E0204B03601DE01C4B5A68D1
:104D20005B6803F03F0312F4800F194A5268C2F324
:104D3000881214BF18491749B1FBF3F303FB02F2C1
:104D4000134B5B68C3F3014301335B00B2FBF3F326
:104D5000036001E00F4B03600D4CA368C3F3031322
:104D60000E49CB5CDAB20368D3404360A268C2F359
:104D700082228A5CD2B223FA02F28260A268C2F373
:104D800042328A5CD2B2D340C36010BC704700BFCD
:104D9000003802400024F40000127A00BC00002019
:104DA00000F44073B3F5407F09D108498B6823F4C0
:104DB000F81320F0704222F4407213438B60034AD0
:104DC000136FC0F30B0018431067704700380240A0
:104DD000014B1860704700BF3C0E4742014B186002
:104DE000704700BF400E4742014B1860704700BF3C
:104DF0005C01474221B1054B1A6B104318637047A1
:104E0000024A136B23EA0000106370470038024027
:104E100021B1054B5A6B104358637047024A536BDC
:104E200023EA0000506370470038024021B1054B6F
:104E30009A6B104398637047024A936B23EA000011
:104E4000906370470038024021B1054B1A6C104343
:104E500018647047024A136C23EA0000106470471C
:104E60000038024021B1054B5A6C1043586470471A
:104E7000024A536C23EA0000506470470038024035
:104E800021B1054B1A69104318617047024A136932
:104E900023EA0000106170470038024021B1054B41
:104EA0005A69104358617047024A536923EA000067
:104EB000506170470038024021B1054B9A69104398
:104EC00098617047024A936923EA00009061704735
:104ED0000038024021B1054B1A6A1043186270472E
:104EE000024A136A23EA0000106270470038024049
:104EF00021B1054B5A6A104358627047024A536AFF
:104F000023EA0000506270470038024021B1054B8F
:104F10001A6D104318657047024A136D23EA0000AA
:104F2000106570470038024021B1054B5A6D10439F
:104F300058657047024A536D23EA00005065704778
:104F40000038024021B1054B9A6D104398657047B7
:104F5000024A936D23EA00009065704700380240D2
:104F600021B1054B1A6E104318667047024A136E42
:104F700023EA0000106670470038024021B1054B5B
:104F80005A6E104358667047024A536E23EA000077
:104F9000506670470038024021B1054B1A78104323
:104FA00018707047024A137823EA000010707047A7
:104FB0000D3802404309012B02D1074B1B6804E066
:104FC000022B054B0CBF1B6F5B6F00F01F0023FA19
:104FD00000F000F0010070470038024010B582B0C8
:104FE0000023019331242046FFF7E4FF019B0133A6
:104FF0000193019BB3F5A06F01D00028F3D03120BD
:10500000FFF7D8FF003018BF012002B010BD00BF6D
:10501000024A536F43F08073536770470038024071
:10502000034BDB68184214BF01200020704700BF0B
:1050300000380240014B1870704700BF0E38024024
:105040008388C2889A420DD202899A4204BF002303
:10505000038103890268D154038901330381C38822
:105060000133C380704700BF704700BF03460E4A3C
:10507000904209D002F5806290420AD002F5806227
:1050800090420DD0094800E009480A4A934201D1F4
:1050900008E00948094A9342094B08BF184670477F
:1050A000084870470848704700440040CC00002082
:1050B000DC00002000500040EC0000200014014003
:1050C000FC0000201C0100200C01002008B5FFF7A7
:1050D000CDFFC2886AB942890389934213D1002364
:1050E00024E0013AC28021E003685B56013141812E
:1050F000F7E7418983888B42F6D108E003689B5625
:105100000132428112E083889342F7D107E0002305
:105110004381036893F9003001214181E1E70023D5
:105120004381036893F9003001224281D8B208BD5F
:1051300008B5FFF79BFFC38833B9038940898342D1
:1051400014BF0020012008BD002008BD08B5FFF7EE
:105150008DFFC2888088824214BF0020012008BDD4
:1051600008B5FFF783FF0023C3800381438108BD97
:1051700010B50C46FFF77AFF447310BD38B50C46E6
:10518000FFF774FFC28843897AB1858800689D4221
:1051900008BF0023C15CA14209D001339BB2013A90
:1051A00092B2002AF3D1002038BD002038BD012082
:1051B00038BD00BF2DE9F04107460D469046FFF788
:1051C00055FFC4881CB30646417B3846FFF7D6FF1F
:1051D00038B108F1FF38B8F1000FD8BF002410DD56
:1051E00003E0B388A34211D1F3E700243846FFF768
:1051F0006DFF2855737B834203D00134A4B244452C
:10520000F4DB0134A4B200232B5500E00024204637
:10521000BDE8F08138B504460D46FFF727FF037B54
:105220009BB1691E0DE0238803F080039BB2002B25
:10523000F9D092B2A280238803F080039BB2002BA6
:10524000F9D011F8012F002AEDD138BD70B5044610
:105250000E461546FFF70AFF037BABB1A5B1721EE0
:10526000691E16FA81F1238803F080039BB2002B9C
:10527000F9D012F8013FA380238803F080039BB28A
:10528000002BF9D08A42EED170BD00BF0D4B984281
:105290000DD003F5806398420FD0A3F500639842C8
:1052A00014BF00230123084A904201D107E00223E2
:1052B000064A904208BF062302E0042300E00523CB
:1052C000184670470048004000500040001401405C
:1052D00000B583B058B9072301930323009301233A
:1052E00000224FF4C0610D4809F078FD12E001285A
:1052F0000AD1072301930323009301230022C02135
:10530000074809F06BFD05E0032803D10721054894
:10531000FFF7AAFE03B05DF804FB00BF00000240E7
:10532000000402400010014000B583B050B90723CB
:10533000019303230093012300220C210C4809F060
:105340004DFD12E001280AD10723019303230093A6
:10535000012300226021074809F040FD05E00328F1
:1053600003D107210448FFF77FFE03B05DF804FB7B
:1053700000000240000C02400044004010B582B022
:10538000044670B9072301930323009301230022ED
:105390004FF4406100F1804000F5013009F01EFD3E
:1053A0001BE001280BD10723019303230093012362
:1053B00000224FF440610D4809F010FD13E002286F
:1053C0000BD10723019303230093012300224FF401
:1053D0004071074809F002FD05E0032C03D10721C5
:1053E0000448FFF741FE02B010BD00BF00080240B4
:1053F000000C02400048004000B583B048B90823C3
:10540000019303210091012300220D4809F0E6FCDD
:1054100013E001280BD108230193032300930123F8
:1054200000224FF44061074809F0D8FC05E003284A
:1054300003D108210448FFF717FE03B05DF804FB11
:105440000000024000080240004C004030B583B02C
:10545000B0B90825019503240094012300224FF4DC
:10546000805100F1804000F5023009F0B7FC019551
:105470000094012300220421054809F0AFFC05E057
:10548000032803D108210348FFF7EEFD03B030BD28
:10549000000C02400050004000B583B068B90823FA
:1054A00001930323009301230022C02100F18040D7
:1054B00000F5023009F092FC13E001280BD108231B
:1054C000019303230093012300224FF484410648F3
:1054D00009F084FC05E0032803D108210348FFF705
:1054E000C3FD03B05DF804FB001802400014014046
:1054F0002DE9F04186B00446884617461E46FFF760
:10550000B5FD054602974A4B9C420BD1494A536C64
:1055100043F0100353644046FFF7DAFE25238DF86D
:1055200004301DE0444B9C420BD1424A136C43F4BF
:10553000003313644046FFF7F7FE26238DF804304E
:105540001DE03E4B9C420BD13A4A136C43F480233E
:1055500013644046FFF712FF27238DF804301DE047
:10556000374B9C420BD1334A136C43F40023136432
:105570004046FFF741FF34238DF804301CE0314BE7
:105580009C420BD12B4A136C43F4801313644046A6
:10559000FFF75CFF35238DF804300DE02A4B9C4269
:1055A0000AD1244A536C43F0200353644046FFF76A
:1055B00073FF47238DF804302046FEF7E1F90123FD
:1055C0008DF8073006238DF805302046FFF75EFE84
:1055D0008DF8060001A809F035F9ADF814600C9BB0
:1055E000ADF812300D9BADF810300E9BADF80E30BB
:1055F0000F9BADF80C3000232B7340F6FF73009324
:10560000009B5A1E0092002BFAD102A92046FEF7F9
:1056100015FAA3899BB243F02003A38101232B73C6
:10562000A3899BB243F40053A38106B0BDE8F08187
:105630000010014000380240004400400048004093
:10564000004C0040005000400014014070B584B090
:1056500004460D4616462C4B98420AD1002303936C
:10566000029301930C22009232462748FFF740FF35
:105670001BE0264B98420AD1002303930293019327
:105680000C22009232462148FFF732FF1CE0204BEB
:1056900098420AD100230393029301930C220092B3
:1056A00032461B48FFF724FF1DE01A4B9C420BD1EA
:1056B00000230393029301930C2200923246294661
:1056C0001448FFF715FF1CE0134B9C420BD100233D
:1056D0000393029301930C220092324629460E480E
:1056E000FFF706FF0DE00D4B9C420AD10023039308
:1056F000029301930C220092324629460748FFF795
:10570000F7FE04B070BD00BF00100140004400402F
:1057100000480040004C0040005000400014014090
:10572000F0B585B004460D4616461F462D4B9842EF
:105730000AD100230393029301930C2300933B4669
:105740002848FFF7D5FE1BE0274B98420AD10023DB
:105750000393029301930C2300933B462248FFF7E7
:10576000C7FE1DE0214B98420AD100230393029308
:1057700001930C2300933B461C48FFF7B9FE1FE042
:105780001B4B9C420CD100230393029301930C23E7
:1057900000933B46324629461548FFF7A9FE1EE016
:1057A000144B9C420CD100230393029301930C23CE
:1057B00000933B46324629460E48FFF799FE0EE01D
:1057C0000D4B9C420BD100230393029301930C23B6
:1057D00000933B46324629460748FFF789FE05B04D
:1057E000F0BD00BF001001400044004000480040F0
:1057F000004C0040005000400014014008B5064B2A
:105800001B8803F020039BB22BB1034B9988C9B2CC
:105810000248FFF715FC08BD00100140CC00002035
:1058200008B5064B1B8803F020039BB22BB1034B3A
:105830009988C9B20248FFF703FC08BD0044004044
:10584000DC00002008B5064B1B8803F020039BB248
:105850002BB1034B9988C9B20248FFF7F1FB08BD91
:1058600000480040EC00002008B5064B1B8803F000
:1058700020039BB22BB1034B9988C9B20248FFF7B2
:10588000DFFB08BD004C00401C01002008B5064BA2
:105890001B8803F020039BB22BB1034B9988C9B23C
:1058A0000248FFF7CDFB08BD005000400C0100206E
:1058B00008B5064B1B8803F020039BB22BB1034BAA
:1058C0009988C9B20248FFF7BBFB08BD001401402C
:1058D000FC00002070B582B00446084611462061E5
:1058E00063612283BDF8183063830222FCF71EFD3A
:1058F000618B00250195012600962B462A4660699A
:1059000009F054FA6572E56065602560A67202B020
:1059100070BD00BFC36802689A1A42600360002B22
:1059200003DA0123037218467047002BCCBF002313
:1059300002230372184670474172704710B403691E
:105940001A69038B134014BF0122002241690969BF
:10595000847A944216D0448B82729BB92140437A58
:1059600043B919B1C368013BC3600BE0C36801339D
:10597000C36007E019B1C3680133C36002E0C368C4
:10598000013BC36010BC704730B4174B1860174B15
:10599000FF24002514491A8802F0400292B2CAB1CD
:1059A0001A8912F0030FFBD01A8902F0800292B21A
:1059B000002AF5D19C811A8912F0030FFBD01A89B5
:1059C00002F0800292B2002AF5D19889C0B2FF2875
:1059D00001D103E028460A68002ADCD1FF2814BF61
:1059E0000020012030BC7047E00D00200030014055
:1059F0004FF48072124B1A83A3F558431B8803F0AF
:105A000040039BB2D3B10F4A138913F0030FFBD0AD
:105A1000138903F080039BB2002BF5D1FF22094BC1
:105A20009A811A46138913F0030FFBD0138903F0F0
:105A300080039BB2002BF5D1024B9B89704700BFBE
:105A4000000802400030014010B54FF48072184B3E
:105A50005A83A3F558431B8803F040039BB2D3B18C
:105A6000144A138913F0030FFBD0138903F080034A
:105A70009BB2002BF5D1FF220E4B9A811A46138957
:105A800013F0030FFBD0138903F080039BB2002BAC
:105A9000F5D1084B9B894FF4FA70FFF775FF044668
:105AA00010B9FFF7A5FF00E00124204610BD00BF9C
:105AB000000802400030014038B505460C464FF45E
:105AC000FA70FFF761FF0346002800F096804C4B08
:105AD0001B8803F040039BB2CBB1494A138913F0F2
