:020000040800F2
:10000000D80F00206D090008C9090008C9090008B7
:10001000C9090008C9090008C90900080000000052
:10002000000000000000000000000000C9090008F6
:10003000C909000800000000C9090008C909000832
:10004000C9090008C9090008C9090008C909000848
:10005000C9090008C909000831050008550500084C
:10006000790500089D050008C1050008C9090008B8
:10007000C9090008C9090008C9090008C909000818
:10008000C9090008C9090008C9090008C909000808
:10009000C9090008C9090008C9090008E5050008E0
:1000A000C9090008C9090008C9090008C9090008E8
:1000B000C9090008C9090008C9090008C9090008D8
:1000C000C9090008C9090008C9090008C9090008C8
:1000D000C90900083D1300086D1300089D130008AE
:1000E00071060008C9090008C9090008C909000803
:1000F000C9090008C9090008C9090008C909000898
:10010000C9090008C9090008C9090008C909000887
:10011000CD130008FD130008C9090008C90900082B
:10012000C9090008C9090008C9090008C909000867
:10013000C9090008C9090008C9090008C909000857
:10014000C9090008C9090008C9090008C909000847
:10015000C9090008C9090008C90900082D140008C8
:10016000C9090008C9090008C9090008C909000827
:10017000C9090008C9090008C9090008C909000817
:10018000C9090008C909000880B584B000AF012181
:100190004FF4001000F050FD0D4B3B600023BB807E
:1001A0004BF6FF73FB8000233B8100237B814FF4E0
:1001B0008043BB813B461946064801F085FD01217D
:1001C000044801F043FE00BF1037BD4680BD00BFAC
:1001D000A08601000054004080B582B000AF786076
:1001E0000B46FB701346BB7000BF4FF400317868BC
:1001F00001F0EAFE0346002BF7D10121786801F0F7
:1002000045FE00BF1349786801F0AEFE0346002B9F
:10021000F8D0BA78FB781946786801F077FEBB7899
:10022000002B08D100BF0C49786801F09DFE034601
:10023000002BF8D00AE0BB78012B07D100BF07499B
:10024000786801F091FE0346002BF8D000BF083714
:10025000BD4680BD010003008200070002000300CC
:1002600080B582B000AF78600B46FB70FB78194612
:10027000786801F069FE00BF0549786801F074FEF6
:100280000346002BF8D000BF0837BD4680BD00BF35
:100290008400070080B582B000AF786001217868E3
:1002A00001F014FE00BF0837BD4680BD90B589B08F
:1002B00002AF78600B467B8013467B707B88002BF7
:1002C00005D07A887B88013B1340002B21D0002386
:1002D0007B7519E07A887B7D42FA03F303F0010312
:1002E000002B0ED07B7D012202FA03F39BB27A78B9
:1002F00019467868FFF7DAFF0346002B01D0012387
:100300000CE17B7D01337B757B7D0F2BE2D90023D4
:1003100004E1844B1A687B881340002B05D1814B84
:100320005A687B881340002B01D00123F6E07B88BC
:10033000802B43D0802B11DC082B39D0082B06DC16
:10034000022B2FD0042B30D0012B28D03CE0202BC7
:1003500034D0402B32D0102B2DD035E0B3F5006FC8
:100360002FD0B3F5006F09DCB3F5007F26D0B3F5CD
:10037000806F26D0B3F5807F20D025E0B3F5005FF5
:100380001FD0B3F5005F03DCB3F5805F19D01BE02D
:10039000B3F5804F15D0B3F5004F12D014E006230B
:1003A000BB7513E00723BB7510E00823BB750DE098
:1003B0000923BB750AE00A23BB7507E01723BB7549
:1003C00004E02823BB7501E00123A7E07B78012B23
:1003D00002D10123FB7507E07B78002B02D10223B9
:1003E000FB7501E00023FB75798800230193FB7DF9
:1003F000009300230022786801F078FE7B8818467D
:1004000001F0ECFE03463B75786801F0FFFE034601
:10041000FB74454A444B5B6C43F48043536443494B
:100420003B7D9B08DBB21C46404A3B7D9B08DBB210
:10043000023352F823303A7D02F0030292000F207B
:1004400000FA02F2D2431A40A31C41F82320374895
:100450003B7D9B08DBB21C46344A3B7D9B08DBB2EC
:10046000023352F82330F97C3A7D02F00302920005
:1004700001FA02F21A43A31C40F823202949294B10
:100480001B687A88D24313400B602649254B5B6872
:100490007A88D24313404B602249224B1A687B88EA
:1004A00013430B601F491F4BDB687A88D24313400C
:1004B000CB601C491B4B9B687A88D24313408B60EE
:1004C0007B78012B06D11749164BDA687B881343DA
:1004D000CB6015E07B78002B06D11249114B9A684E
:1004E0007B8813438B600BE00E490E4BDA687B88E8
:1004F0001343CB600B490B4B9A687B8813438B608B
:10050000BB7D3B730A237B733B7DBB730123FB7372
:1005100007F10C03184601F089FD002318461C372B
:10052000BD4690BD003C014000380240003801400B
:1005300080B500AF064B5B6903F00103002B05D0CB
:10054000034B01225A61012000F09AFA00BF80BDDE
:10055000003C014080B500AF064B5B6903F002032D
:10056000002B05D0034B02225A61022000F088FACA
:1005700000BF80BD003C014080B500AF064B5B6909
:1005800003F00403002B05D0034B04225A6104201E
:1005900000F076FA00BF80BD003C014080B500AF9E
:1005A000064B5B6903F00803002B05D0034B0822C0
:1005B0005A61082000F064FA00BF80BD003C014091
:1005C00080B500AF064B5B6903F01003002B05D02C
:1005D000034B10225A61102000F052FA00BF80BD78
:1005E000003C014080B500AF204B5B6903F0200365
:1005F000002B05D01D4B20225A61202000F040FA2C
:100600001A4B5B6903F04003002B05D0174B4022C7
:100610005A61402000F034FA144B5B6903F0800308
:10062000002B05D0114B80225A61802000F028FA5F
:100630000E4B5B6903F48073002B07D00B4B4FF418
:1006400080725A614FF4807000F01AFA074B5B69B0
:1006500003F40073002B07D0044B4FF400725A616F
:100660004FF4007000F00CFA00BF80BD003C014068
:1006700080B500AF2A4B5B6903F48063002B07D081
:10068000274B4FF480625A614FF4806000F0F8F914
:10069000234B5B6903F40063002B07D0204B4FF41E
:1006A00000625A614FF4006000F0EAF91C4B5B698C
:1006B00003F48053002B07D0194B4FF480525A613A
:1006C0004FF4805000F0DCF9154B5B6903F40053E4
:1006D000002B07D0124B4FF400525A614FF40050D8
:1006E00000F0CEF90E4B5B6903F48043002B07D07A
:1006F0000B4B4FF480425A614FF4804000F0C0F938
:10070000074B5B6903F40043002B07D0044B4FF405
:1007100000425A614FF4004000F0B2F900BF80BDC2
:10072000003C014080B582B000AF78607B682C4A05
:10073000934208D10121102000F0BAFA00211020C4
:1007400000F0B6FA47E07B68264A93420AD10121BD
:100750004FF4003000F08EFA00214FF4003000F02A
:1007600089FA38E07B68204A93420AD101214FF48C
:10077000802000F07FFA00214FF4802000F07AFA08
:1007800029E07B68194A93420AD101214FF40020E5
:1007900000F070FA00214FF4002000F06BFA1AE02C
:1007A0007B68134A93420AD101214FF4801000F074
:1007B00061FA00214FF4801000F05CFA0BE07B68D6
:1007C0000C4A934207D10121202000F071FA002148
:1007D000202000F06DFA00BF0837BD4680BD00BF85
:1007E000001001400044004000480040004C004020
:1007F000005000400014014080B58AB000AF78601E
:10080000396000237B6200233B620023FB610023ED
:10081000BB617B681B8A9BB27B627B6A23F440537B
:100820007B623B68DB881A467B6A13437B627B6A88
:100830009AB27B681A827B689B899BB27B627B6AD7
:1008400023F4B05323F00C037B623B689A883B6827
:100850001B8913439AB23B685B8913439BB21A46C8
:100860007B6A13437B627B6A9AB27B689A817B685E
:100870009B8A9BB27B627B6A23F440737B623B68FA
:100880009B891A467B6A13437B627B6A9AB27B68B8
:100890009A8207F10803184600F006F97B68304A8F
:1008A000934203D07B682F4A934202D17B693B621B
:1008B00001E03B693B627B689B899BB21BB2002BCA
:1008C0000CDA3A6A13469B0013449A001A443B68B8
:1008D0001B685B00B2FBF3F3FB610BE03A6A134663
:1008E0009B0013449A001A443B681B689B00B2FBB0
:1008F000F3F3FB61FB691C4AA2FB03235B091B01A9
:100900007B627B6A1B09642202FB03F3FA69D31A38
:10091000BB617B689B899BB21BB2002B0CDABB6965
:10092000DB003233104AA2FB03235B0903F0070309
:100930007A6A13437B620BE0BB691B0132330A4ABC
:10094000A2FB03235B0903F00F037A6A13437B6264
:100950007B6A9AB27B681A8100BF2837BD4680BD8A
:1009600000100140001401401F85EB5180B582B09A
:1009700000AF104B7B60104B3B6007E03B681A1DDB
:100980003A607A68111D796012681A603B680B4AF8
:100990009342F3D30A480B494FF000028842B8BF94
:1009A00040F8042BFADB00F013F800BF0837BD460F
:1009B00080BD00BF682300080000002074000020F4
:1009C00074000020D407002080B400AFFEE700BF11
:1009D00080B582B002AF00F0FDFF00F0B9FE01F07B
:1009E000A1F84FF4E13200211F4800F07FF94FF4E5
:1009F000004300931D4B4FF400521C491C4800F06B
:100A0000F3FD1E221B49184800F02EFA0346002B66
:100A100006D0194B1B78DBB20133DAB2164B1A70D1
:100A2000134800F01DFE124B5B68002B0BDD134BCF
:100A30001B780133DAB2114B1A70104B1B78184631
:100A400001F08EF8DDE70A4B5B68002BD9DA0B4B1F
:100A50001B78013BDAB2094B1A70084B1B78184619
:100A600001F07EF8CDE700BF004C004000080240D6
:100A7000B000002090000020740000200000002042
:100A800080B582B000AF0346FB80064B1B8BFA8813
:100A90009A4202D1034800F00DFE00BF0837BD4660
:100AA00080BD00BFB000002080B489B000AF786086
:100AB0000023BB6100237B610023FB6102233B61B8
:100AC0000023FB600223BB60484B9B6803F00C03D0
:100AD000BB61BB69042B07D0082B09D0002B3FD189
:100AE0007B68434A1A603FE07B68424A1A603BE0F9
:100AF0003E4B5B6803F480039B0DFB603B4B5B68E4
:100B000003F03F03BB60FB68002B0DD0394ABB6884
:100B1000B2FBF3F2354B596847F6C0730B409B09A3
:100B200003FB02F3FB610CE0314ABB68B2FBF3F25A
:100B30002E4B596847F6C0730B409B0903FB02F329
:100B4000FB612A4B5B6803F440331B0C01335B00F1
:100B50003B61FA693B69B2FBF3F27B681A6003E020
:100B60007B68234A1A6000BF204B9B6803F0F003A8
:100B7000BB61BB691B09BB611F4ABB6913441B787E
:100B8000DBB27B617B681A687B69DA407B685A60FC
:100B9000164B9B6803F4E053BB61BB699B0ABB61C6
:100BA000154ABB6913441B78DBB27B617B685A68CA
:100BB0007B69DA407B689A600C4B9B6803F4604366
:100BC000BB61BB695B0BBB610B4ABB6913441B7800
:100BD000DBB27B617B685A687B69DA407B68DA60EC
:100BE00000BF2437BD4680BC704700BF00380240BC
:100BF0000024F40000127A000400002080B483B0C6
:100C000000AF78600B46FB70FB78002B06D00949DB
:100C1000084B1A6B7B6813430B6306E00549054BD1
:100C20001A6B7B68DB4313400B6300BF0C37BD4678
:100C300080BC70470038024080B483B000AF786059
:100C40000B46FB70FB78002B06D00949084B1A6C49
:100C50007B6813430B6406E00549054B1A6C7B68FF
:100C6000DB4313400B6400BF0C37BD4680BC7047AC
:100C70000038024080B483B000AF78600B46FB7050
:100C8000FB78002B06D00949084B1A6A7B6813438E
:100C90000B6206E00549054B1A6A7B68DB4313408B
:100CA0000B6200BF0C37BD4680BC70470038024065
:100CB00080B483B000AF78600B46FB70FB78002BEC
:100CC00006D00949084B5A6A7B6813434B6206E019
:100CD0000549054B5A6A7B68DB4313404B6200BFF2
:100CE0000C37BD4680BC70470038024080B588B0E4
:100CF00004AFF8600B467A60FB72FB68374A934298
:100D00000DD1F97A0023039300230293002301936A
:100D10000C23009300237A68304800F09FFBFB68A7
:100D20002F4A93420DD1F97A0023039300230293B3
:100D3000002301930C23009300237A68284800F0D5
:100D40008DFBFB68274A93420DD1F97A0023039368
:100D500000230293002301930C23009300237A685D
:100D6000204800F07BFBFB681F4A93420DD1F97AC3
:100D70000023039300230293002301930C23009389
:100D800000237A68184800F069FBFB68174A934211
:100D90000DD1F97A002303930023029300230193DA
:100DA0000C23009300237A68104800F057FBFB687F
:100DB0000F4A93420DD1F97A002303930023029343
:100DC000002301930C23009300237A68084800F065
:100DD00045FB00BF1037BD4680BD00BF001001407D
:100DE0000044004000480040004C004000500040DB
:100DF0000014014080B584B000AF78600023FB731D
:100E0000786800F0E5F8B860BB68DB88002B05D196
:100E1000BB681A89BB685B899A421FD0BB685A8934
:100E2000BB689B889A4202D1BB6800225A81BB688A
:100E30001B68BA68528913441B78FB73BB685B89D3
:100E400001339AB2BB685A81BB68DB88002B05D09E
:100E5000BB68DB88013B9AB2BB68DA80FB7B184633
:100E60001037BD4680BD00BF90B587B000AFF860B9
:100E7000B9601346FB800023FB82F86800F0A8F8F5
:100E800038613B69DB88002B0ED03B695B7B1946E0
:100E9000F86800F033F80346002B1AD13B69DA8872
:100EA0003B699B889A4214D0002322E0FB8ABA68EF
:100EB000D418F868FFF79EFF03462370FB8ABA68D0
:100EC00013441A783B695B7B9A4208D0FB8A013352
:100ED000FB82FA8AFB88013B9A42E7DB00E000BF15
:100EE000FB8A0133FB82FB8ABA68134400221A7022
:100EF000FB8A18461C37BD4690BD00BF80B584B044
:100F000000AF78600B46FB70786800F061F8B8605D
:100F1000BB68DB88FB81BB685B89BB8116E0BB6873
:100F20009B88BA899A4201D10023BB81BB681A68A9
:100F3000BB8913441B78FA789A4201D1012309E056
:100F4000BB890133BB81FB89013BFB81FB89002B02
:100F5000E5D1002318461037BD4680BD80B483B06C
:100F600000AF78600B46FB707B68DA887B689B88F3
:100F70009A421BD27B681A897B689B889A4202D16D
:100F80007B6800221A817B681B687A681289134487
:100F9000FA781A707B681B8901339AB27B681A81D0
:100FA0007B68DB8801339AB27B68DA8000BF0C373C
:100FB000BD4680BC704700BF80B483B000AF78608E
:100FC0000B467B8000BF0C37BD4680BC704700BF1E
:100FD00080B485B000AF78607B68144A934201D139
:100FE000134BFB607B68134A934201D1124BFB60A9
:100FF0007B68124A934201D1114BFB607B68114A16
:10100000934201D1104BFB607B68104A934201D19F
:101010000F4BFB607B680F4A934201D10E4BFB6084
:10102000FB6818461437BD4680BC7047001001406D
:10103000140000200044004024000020004800402C
:1010400034000020004C00404400002000500040CC
:1010500054000020001401406400002080B485B0DA
:1010600000AF78607B68144A934201D10023FB7380
:101070007B68124A934201D10123FB737B68104ABB
:10108000934201D10223FB737B680E4A934201D144
:101090000423FB737B680C4A934201D10523FB7345
:1010A0007B680A4A934201D10623FB73FB7B1846F7
:1010B0001437BD4680BC704700100140004400401A
:1010C00000480040004C0040005000400014014027
:1010D00080B584B002AF0346FB71FB79002B0AD1C7
:1010E0000723019303230093012300224FF4C061DF
:1010F0000D4801F01FF8FB79012B09D1072301935B
:101100000323009301230022C021084801F012F8B4
:10111000FB79032B03D107210548FFF74DFF00BFE3
:101120000837BD4680BD00BF0000024000040240F9
:101130000010014080B584B002AF0346FB71FB791B
:10114000002B09D1072301930323009301230022DD
:101150000C210D4800F0EEFFFB79012B09D107238C
:10116000019303230093012300226021074800F02C
:10117000E1FFFB79032B03D107210548FFF71CFF93
:1011800000BF0837BD4680BD00000240000C024091
:101190000044004080B584B002AF0346FB71FB7988
:1011A000002B0AD10723019303230093012300227C
:1011B0004FF44061144800F0BDFFFB79012B0AD1C8
:1011C0000723019303230093012300224FF440617E
:1011D0000E4800F0AFFFFB79022B0AD107230193E1
:1011E00003230093012300224FF44071084800F0CC
:1011F000A1FFFB79032B03D107210648FFF7DCFE93
:1012000000BF0837BD4680BD000402400008024010
:10121000000C02400048004080B584B002AF034695
:10122000FB71FB79002B09D1082301930323009361
:101230000123002203210E4800F07CFFFB79012BE3
:101240000AD10823019303230093012300224FF4C2
:101250004061084800F06EFFFB79032B03D10821A1
:101260000548FFF7A9FE00BF0837BD4680BD00BF97
:101270000000024000080240004C004080B584B0ED
:1012800002AF0346FB71FB79002B14D108230193B5
:1012900003230093012300224FF480510B4800F0F8
:1012A00049FF082301930323009301230022042113
:1012B000074800F03FFFFB79032B03D108210548C5
:1012C000FFF77AFE00BF0837BD4680BD0008024028
:1012D000000C02400050004080B584B002AF0346CD
:1012E000FB71FB79002B09D10823019303230093A1
:1012F00001230022C0210E4800F01CFFFB79012BC6
:101300000AD10823019303230093012300224FF401
:101310008441084800F00EFFFB79032B03D108211C
:101320000548FFF749FE00BF0837BD4680BD00BF36
:1013300000080240001802400014014080B500AFD0
:10134000084B1B889BB203F02003002B07D0054BF2
:101350009B889BB2DBB219460348FFF7FFFD00BF35
:1013600080BD00BF001001401400002080B500AF18
:10137000084B1B889BB203F02003002B07D0054BC2
:101380009B889BB2DBB219460348FFF7E7FD00BF1D
:1013900080BD00BF004400402400002080B500AFA5
:1013A000084B1B889BB203F02003002B07D0054B92
:1013B0009B889BB2DBB219460348FFF7CFFD00BF05
:1013C00080BD00BF004800403400002080B500AF61
:1013D000084B1B889BB203F02003002B07D0054B62
:1013E0009B889BB2DBB219460348FFF7B7FD00BFED
:1013F00080BD00BF004C00404400002080B500AF1D
:10140000084B1B889BB203F02003002B07D0054B31
:101410009B889BB2DBB219460348FFF79FFD00BFD4
:1014200080BD00BF005000405400002080B500AFD8
:10143000084B1B889BB203F02003002B07D0054B01
:101440009B889BB2DBB219460348FFF787FD00BFBC
:1014500080BD00BF001401406400002080B58CB046
:1014600000AFF8607A601A460B46FB7213463B8168
:10147000F868FFF7ADFDF8627B68FB61FB68534AD3
:1014800093420BD1524A524B5B6C43F010035364AE
:10149000FB7A1846FFF71CFE25233B76FB684D4A76
:1014A00093420BD14A4A4A4B1B6C43F400331364FA
:1014B000FB7A1846FFF73EFE26233B76FB68464A3A
:1014C00093420BD1424A424B1B6C43F4802313647A
:1014D000FB7A1846FFF75EFE27233B76FB683F4A00
:1014E00093420BD13A4A3A4B1B6C43F400231364EA
:1014F000FB7A1846FFF790FE34233B76FB68384AA8
:1015000093420BD1324A324B1B6C43F48013136469
:10151000FB7A1846FFF7B2FE35233B76FB68314A6B
:1015200093420BD12A4A2A4B5B6C43F0200353644D
:10153000FB7A1846FFF7D0FE47233B76F868FFF7A3
:10154000F1F80123FB7606237B76F868FFF786FD2A
:101550000346BB7607F11803184600F067FD3B8988
:101560003B85BB6B9BB2FB84FB6B9BB2BB843B6C30
:101570009BB27B847B6C9BB23B84FB6A00221A7318
:1015800040F6FF737B6100BF7B695A1E7A61002BB6
:10159000FAD107F11C031946F868FFF72DF9FB682B
:1015A0009B899BB243F020039AB2FB689A81FB6A45
:1015B00001221A73FB689B899BB243F400539AB2D1
:1015C000FB689A8100BF3037BD4680BD00100140E6
:1015D000003802400044004000480040004C0040F9
:1015E000005000400014014080B586B002AFF860A2
:1015F000B9603B601346FB80FB68BA681A61FB6800
:101600003A685A61FB68FA881A83FB683A8B5A83F6
:10161000FB681869FB681B8B02221946FEF746FE21
:10162000FB685869FB68598B0023019301230093E1
:101630000023002200F05AFDFB6800225A72FB686A
:101640000022DA60FB6800225A60FB6800221A6000
:10165000FB6801229A7200BF1037BD4680BD00BFF3
:1016600080B483B000AF78607B68DA687B681B6801
:10167000D21A7B685A607B68DA687B681A607B687C
:10168000DB68002B04DA7B6801221A7201230CE06C
:101690007B68DB68002B04DD7B6800221A72002364
:1016A00003E07B6802221A72022318460C37BD46FB
:1016B00080BC704780B485B000AF78607B681B69E0
:1016C0001B697A68128B1340002B14BF012300237F
:1016D000DBB2FB737B685B691B697A68528B1340D2
:1016E000002B14BF01230023DBB2BB737B689B7A02
:1016F000FA7B9A4227D07B68FA7B9A727B689B7A46
:10170000002B20D17B685B7A002B0ED1BB7B012B99
:1017100005D17B68DB685A1E7B68DA6013E07B6862
:10172000DB685A1C7B68DA600DE0BB7B012B05D1BE
:101730007B68DB685A1C7B68DA6004E07B68DB68E6
:101740005A1E7B68DA6000BF1437BD4680BC704704
:1017500080B586B000AF01210120FFF74FFA0121CB
:101760000220FFF74BFA01210420FFF747FAC023BC
:101770003B6102233B7500237B750123BB7500236E
:10178000FB7507F110031946194800F035F82023BE
:10179000BB6001233B7300237B730023BB730023D7
:1017A000FB7307F108031946114800F025F84FF4C0
:1017B00080433B6000233B7100237B710023FB715E
:1017C0003B4619460B4800F017F801222021084833
:1017D00000F0A0F804220621054800F0B3F8042226
:1017E0000721034800F0AEF800BF1837BD4680BDA2
:1017F000000402400008024080B487B000AF786067
:10180000396000237B6100233B610023FB600023E0
:101810007B6176E001227B6902FA03F33B613B685E
:101820001A683B691340FB60FA683B699A4265D1CC
:101830007B681A687B695B00032101FA03F3DB43D1
:101840001A407B681A607B681A683B681B791946E6
:101850007B695B0001FA03F31A437B681A603B68FB
:101860001B79012B03D03B681B79022B2ED17B689F
:101870009A687B695B00032101FA03F3DB431A409A
:101880007B689A607B689A683B685B7919467B69DC
:101890005B0001FA03F31A437B689A607B685A681D
:1018A0007B699BB2194601238B40DB431A407B685E
:1018B0005A607B685B683A68927911467A6992B29D
:1018C00001FA02F292B21A437B685A607B68DA68C6
:1018D0007B699BB25B00032101FA03F3DB431A40EF
:1018E0007B68DA607B68DA683B68DB7919467B697C
:1018F0005B0001FA03F31A437B68DA607B6901330A
:101900007B617B690F2B85D900BF1C37BD4680BC2E
:10191000704700BF80B483B000AF78600B467B8017
:1019200013467B707B78002B03D07B687A881A8300
:1019300002E07B687A885A8300BF0C37BD4680BCC2
:10194000704700BF80B485B000AF78600B467B80E5
:1019500013467B700023FB600023BB607A787B8892
:1019600003F007039B0002FA03F3FB607B88DB08AC
:101970009BB218467B88DB089BB21A467B6808320C
:1019800053F822207B8803F007039B000F2101FA04
:1019900003F3DB4302EA03017B6800F1080243F82A
:1019A00022107B88DB089BB21A467B68083253F80A
:1019B0002220FB681343BB607B88DB089BB21A467E
:1019C0007B680832B96843F8221000BF1437BD465F
:1019D00080BC704780B500AF124A124B1B6843F0C1
:1019E000010313600F4B00229A600E4A0D4B1B68D7
:1019F00023F0847323F4803313600A4B0A4A5A603D
:101A0000084A084B1B6823F480231360054B00220F
:101A1000DA6000F00DF8054B4FF000629A6000BFED
:101A200080BD00BF003802401030002400ED00E00F
:101A300080B483B000AF00237B6000233B60354A55
:101A4000344B1B6843F480331360324B1B6803F440
:101A500000333B607B6801337B603B68002B03D124
:101A60007B68B3F5A06FF0D12A4B1B6803F40033F9
:101A7000002B02D001233B6001E000233B603B6868
:101A8000012B42D1234A234B1B6C43F08053136438
:101A9000214A214B1B6843F4804313601D4A1D4BB0
:101AA0009B6893601B4A1B4B9B6843F40043936005
:101AB000184A184B9B6843F4A0539360154B174A80
:101AC0005A60144A134B1B6843F08073136000BFC5
:101AD000104B1B6803F00073002BF9D0104B40F241
:101AE00005621A600B4A0B4B9B6823F0030393605B
:101AF000084A084B9B6843F00203936000BF054B04
:101B00009B6803F00C03082BF9D100BF0C37BD46CE
:101B100080BC7047003802400070004019544007F4
:101B2000003C024080B500AFFEF72EFB01222021D1
:101B30000A48FFF7EFFE2D2000F012F800210520E3
:101B400000F02AF80021022000F04CF80F2000F0ED
:101B50006FF80A2000F092F800BF80BD0004024038
:101B600080B582B000AF0346FB71FB793F2B0CD8E8
:101B7000002288210748FEF72FFBFB79194605480C
:101B8000FEF76EFB0348FEF785FB00BF0837BD4636
:101B900080BD00BF0054004080B582B000AF034656
:101BA0000A46FB711346BB71BB791F2B13D8002269
:101BB00088210B48FEF710FBFB795B015AB297F9BD
:101BC000063013435BB2DBB219460548FEF748FB0B
:101BD0000348FEF75FFB00BF0837BD4680BD00BF6E
:101BE0000054004080B582B000AF03460A46FB7146
:101BF0001346BB71BB79032B14D8002288210B48F4
:101C0000FEF7EAFABB79DB00DAB2FB791343DBB209
:101C100043F04003DBB219460448FEF721FB0348BA
:101C2000FEF738FB00BF0837BD4680BD00540040BA
:101C300080B582B000AF0346FB71FB790F2B16D83D
:101C4000FB79072B03D9FB79C3F11703FB71002242
:101C500088210948FEF7C0FAFB7943F06003DBB244
:101C600019460548FEF7FCFA0348FEF713FB00BFD0
:101C70000837BD4680BD00BF0054004080B582B02B
:101C800000AF0346FB71FB790F2B16D8FB79072BAE
:101C900003D9FB79C3F11703FB710022882109489E
:101CA000FEF79AFAFB7943F07003DBB21946054858
:101CB000FEF7D6FA0348FEF7EDFA00BF0837BD4637
:101CC00080BD00BF0054004080B58AB000AF78608E
:101CD00039600023FB8400237B840423BB84574B9F
:101CE000FB617B689B88FB84FB8C23F03F03FB84B8
:101CF00007F10C031846FEF7D7FE7B69FB61FB6911
:101D00004F4AA2FB03239B0C7B84FA8C7B8C1343EE
:101D1000FB847B68FA8C9A807B681B889BB223F0DB
:101D200001039AB27B681A800023FB843B681B681E
:101D3000444A934215D83B681B685B00FA69B2FBC2
:101D4000F3F3BB84BB8C032B01D80423BB84FA8C34
:101D5000BB8C1343FB847B8C01339AB27B681A845F
:101D600040E03B68DB884BF6FF72934209D13B6849
:101D70001A6813465B001344FA69B2FBF3F3BB84A1
:101D80000EE03B681A6813469B0013449A00134404
:101D9000FA69B2FBF3F3BB84BB8C43F48043BB848E
:101DA000BB8CC3F30B03002B03D1BB8C43F00103AB
:101DB000BB84BA8CFB8C13439BB26FEA43436FEA3C
:101DC0005343FB847B8C4FF4967202FB03F31E4A51
:101DD00082FB03129211DB17D31A9BB201339AB222
:101DE0007B681A847B68FA8C9A837B681B889BB219
:101DF00043F001039AB27B681A807B681B88FB84DE
:101E0000FB8C23F4816323F00203FB843B689A88F4
:101E10003B685B8913439AB2FB8C1343FB847B685A
:101E2000FA8C1A803B689A893B681B8913439AB2E3
:101E30007B681A8100BF2837BD4680BD00127A003A
:101E400083DE1B43A0860100D34D621080B483B0B3
:101E500000AF78600B46FB70FB78002B08D07B68E6
:101E60001B889BB243F001039AB27B681A8007E09B
:101E70007B681B889BB223F001039AB27B681A80AF
:101E800000BF0C37BD4680BC704700BF80B483B034
:101E900000AF78600B46FB70FB78002B08D07B68A6
:101EA0001B889BB243F480739AB27B681A8007E068
:101EB0007B681B889BB223F480739AB27B681A807C
:101EC00000BF0C37BD4680BC704700BF80B483B0F4
:101ED00000AF78600B46FB70FB78002B08D07B6866
:101EE0001B889BB243F400739AB27B681A8007E0A8
:101EF0007B681B889BB223F400739AB27B681A80BC
:101F000000BF0C37BD4680BC704700BF80B483B0B3
:101F100000AF78600B46FB701346BB70BB78002B9C
:101F200004D0FB7843F00103FB7003E0FB7823F05F
:101F30000103FB70FB789AB27B681A8200BF0C37F2
:101F4000BD4680BC704700BF80B483B000AF7860EE
:101F50000B46FB70FB789AB27B681A8200BF0C3785
:101F6000BD4680BC704700BF80B487B000AF7860CA
:101F7000396000233B610023FB600023BB6000232A
:101F8000FB757B689B8A9BB2FB607B681B8B9BB25B
:101F9000BB60BB681B04BB60FA68BB68134323F0DB
:101FA0007F433B613A693B681A403B689A4202D1E1
:101FB0000123FB7501E00023FB75FB7D18461C37F0
:101FC000BD4680BC704700BF80B487B000AF78606A
:101FD00039600023FB7500233B610023FB607B68B5
:101FE000FB603B681B0F3B613B6823F07F433B601A
:101FF0003B69002B03D0FB681433FB6005E03B68B2
:102000001B0C3B60FB681833FB60FB681A683B687D
:102010001340002B02D00123FB7501E00023FB7568
:10202000FB7D18461C37BD4680BC704780B485B028
:1020300000AF78600023FB730023BB730F237B7317
:102040007B68DB78002B38D0264BDB68DB4303F45E
:10205000E0631B0AFB73FB7BC3F10403BB737A7B56
:10206000FB7B42FA03F37B737B685B781A46BB7B8E
:1020700002FA03F3FB737B689A787B7B1340DAB236
:10208000FB7B1343FB73FB7B1B01FB73164A7B68D3
:102090001B781344FA7B83F80023134A7B681B7870
:1020A0005B09DBB218467B681B7803F01F03012134
:1020B00001FA03F342F820300FE00B497B681B78EC
:1020C0005B09DBB218467B681B7803F01F03012213
:1020D0009A4000F1200341F8232000BF1437BD4689
:1020E00080BC704700ED00E000E100E080B584B006
:1020F00002AF7860084611461A4603467B800B46BD
:102100007B7013463B707B88002B0ED0786800F004
:102110008DF838787A7879883B7D01933B7C009301
:102120000346786800F09AF800E000BF0837BD4623
:1021300080BD00BF80B586B002AF7860084611460A
:102140001A4603467B800B467B7013463B707B88A8
:10215000002B3ED0786800F069F80023FB6029E08E
:102160007A88FB6842FA03F303F00103002B1DD0C9
:10217000FB68DA08FB68D9087B68083153F821301E
:10218000F96801F0070189000F2000FA01F1C94345
:102190000B40387FF96801F00701890000FA01F16E
:1021A00019437B68083243F8221000E000BFFB6847
:1021B0000133FB60FB680F2BD2D97A7879883B7E9C
:1021C00001933B78009313460222786800F046F8AA
:1021D00000E000BF1037BD4680BD00BF80B485B0B1
:1021E00000AF0346FB800023FB8105E0FB89013340
:1021F000FB81FB885B08FB80FB88012BF6D8FB8901
:1022000018461437BD4680BC704700BF80B483B009
:1022100000AF78607B6803F13F4303F57E039B0AC0
:102220009BB218460C37BD4680BC704780B582B063
:1022300000AF78607868FFF7E9FF03461A4601238C
:1022400003FA02F1044A044B1B6B0B43136300BFF8
:102250000837BD4680BD00BF0038024080B584B05D
:1022600000AF7860084611461A4603467B800B464D
:102270007B7013463B707868FFF7C8FF0346BB735B
:102280000023FB7367E07A88FB7B42FA03F303F0D9
:102290000103002B5BD0BB7BBA7B324931F81220A3
:1022A00011B2FA7B012000FA02F212B20A4312B212
:1022B00091B22C4A22F813107B68DB68FA7B52003B
:1022C000032101FA02F2D2431340397EFA7B520015
:1022D00001FA02F21A437B68DA607B681A68FB7BBA
:1022E0005B00032101FA03F3DB4313407978FA7BA7
:1022F000520001FA02F21A437B681A607B78012BC4
:1023000002D07B78022B23D17B685B68FA7B0121AA
:1023100001FA02F292B2D24313403978FA7B01FA01
:1023200002F292B21A437B685A607B689A68FB7B20
:102330005B00032101FA03F3DB431340397FFA7B8F
:10234000520001FA02F21A437B689A6000E000BF73
:10235000FB7B0133FB73FB7B0F2B94D900BF103742
:08236000BD4680BD780000209D
:102368002D00000000000000010203040102030424
:10237800060708097C0500202C0100000000000069
:10238800000A0000500400202C010000000000009A
:10239800000A0000240300202C01000000000000B7
:1023A800000A0000A80600202C0100000000000020
:1023B800000A0000CC0000202C01000000000000F2
:1023C800000A0000F80100202C01000000000000B5
:0423D800000A0000F7
:0400000508000000EF
:00000001FF
