:020000040800F2
:1000000018FA0020A91A0008A51A0008A51A000865
:10001000A51A0008A51A0008A51A0008000000008B
:10002000000000000000000000000000A51A000809
:10003000A51A000800000000A51A00087D3A000873
:10004000A51A0008A51A0008A51A0008A51A000894
:10005000A51A0008A51A00088D100008A5100008B0
:10006000BD100008D5100008ED100008A51A000802
:10007000A51A0008A51A0008A51A0008A51A000864
:10008000A51A0008A51A0008A51A0008A51A000854
:10009000A51A0008A51A0008A51A000805110008ED
:1000A000A51A0008A51A0008A51A0008A51A000834
:1000B0004D3D0008A51A0008A51A0008A51A000859
:1000C000A51A0008A51A0008A51A0008A51A000814
:1000D000A51A000869270008A5270008F1270008CD
:1000E00069110008A51A0008A51A0008A51A000839
:1000F000A51A0008A51A0008A51A000871490008E9
:10010000A51A0008A51A0008A51A0008A51A0008D3
:100110003D28000879280008A51A0008A51A00083B
:10012000A51A0008A51A0008A51A0008A51A0008B3
:10013000A51A0008A51A0008A51A0008A51A0008A3
:10014000A51A0008A51A0008A51A0008A94D00085C
:10015000A51A0008A51A0008A51A0008B528000865
:10016000A51A0008A51A0008A51A0008A51A000873
:10017000A51A0008A51A0008A51A0008A51A000863
:10018000A51A0008A51A000830B4C4786CB900EBB1
:10019000820003339B10D0F8D05006D022460132A3
:1001A00051F8040B28609342F9D1002030BC70470D
:1001B0000332921030B4D0F8D05009D00846002352
:1001C00001332C6840F8044B9A42F9D101EB8201CB
:1001D000084630BC704700BFF0B501244022002320
:1001E000A14284708280C37000F06681002900F013
:1001F00050814278C3604FF4006101610678002AA3
:1002000000F06D814FF460674FF488644FF48061B3
:1002100003F5106E03F53065012AC0F818E0456556
:100220007ED003F5126E03F53265022AC0F81CE099
:10023000856575D003F5146E03F53465032AC0F89F
:1002400020E0C5656CD003F5166E03F53665042A0B
:10025000C0F824E0056663D003F5186E03F5386531
:10026000052AC0F828E045665AD003F51A6E03F552
:100270003A65062AC0F82CE0856651D003F51C6E5D
:1002800003F53C65072AC0F830E0C56648D003F5A1
:100290001E6E03F53E65082AC0F834E005673FD0BE
:1002A00003F5206E03F54065092AC0F838E045677C
:1002B00036D003F5226E03F542650A2AC0F83CE009
:1002C00085672DD003F5246E03F544650B2AC0F82D
:1002D00040E0C56724D003F5266E03F546650C2A79
:1002E000C0F844E0C0F880501AD003F5286E03F53A
:1002F00048650D2AC0F848E0C0F8845010D003F5D6
:100300002A6E03F54A650E2AC0F84CE0C0F8885002
:1003100006D003F52C6503F54C620565C0F88C200A
:100320004161C0F8CC40002E00F0AF8003F5A06220
:10033000012EC0F8902000F0DA8003F5A462022EAE
:10034000C0F894204BD003F5A862032EC0F8982083
:1003500045D003F5AC62042EC0F89C203FD003F5D5
:10036000B062052EC0F8A02039D003F5B462062E85
:10037000C0F8A42033D003F5B862072EC0F8A82037
:100380002DD003F5BC62082EC0F8AC2027D003F5B1
:10039000C062092EC0F8B02021D003F5C4620A2E35
:1003A000C0F8B4201BD003F5C8620B2EC0F8B820EB
:1003B00015D003F5CC620C2EC0F8BC200FD003F58D
:1003C000D0620D2EC0F8C02009D003F5D4620E2EE5
:1003D000C0F8C42003D003F5D862C0F8C82003F5E4
:1003E000805103F50052022EC0F8D010C0F8D4207E
:1003F0004BD003F54052032EC0F8D82045D003F56A
:100400008042042EC0F8DC203FD003F5A042052E28
:10041000C0F8E02039D003F5C042062EC0F8E42031
:1004200033D003F5E042072EC0F8E8202DD003F5C5
:100430000042082EC0F8EC2027D003F51042092E08
:10044000C0F8F02021D003F520420A2EC0F8F42095
:100450001BD003F530420B2EC0F8F82015D003F561
:1004600040420C2EC0F8FC200FD003F550420D2E58
:10047000C0F8002109D003F560420E2EC0F8042117
:1004800003D003F57043C0F80831C0F80C710020A8
:10049000F0BD194DC1724FF4A0610C260622C18037
:1004A000164F174C1749DFF86CE006702B46427068
:1004B000C560C0F810E0ABE64FF4A0740223082634
:1004C00004224FF0A045C172C480037206704270CE
:1004D0002B460D4F0D4C0E49DFF83CE0E8E7134684
:1004E0004FF460674FF488644FF4806118E703F5B8
:1004F0008053C0F8D030C8E700000440000E04402C
:100500004004044000040440000E00504004005029
:1005100000040050000804400008005070B5037A41
:10052000012B82B005464FF0000247D0C168484C0D
:10053000CB6843F04003CB600320019204F006FC3B
:10054000EB681A69019206E004F000FCEB68013CDC
:100550001A69019219D0019A002A4FF00300F3DAC8
:1005600001993B4A41F00101019101991961196911
:10057000019103E019690191013A02D00199C9077B
:10058000F8D4032004F0E2FBEB686A7A002A0CBF7F
:100590004FF434124FF474129A63142004F0ECFBFD
:1005A000EB78012B07D1EB689E68052262F34406C5
:1005B00046F020069E60002002B070BDC168437AFC
:1005C00016468A6B66F310420BB142F480128A63BE
:1005D000CB681F4C6FF386136FF396536FF3514341
:1005E0006FF3D343CB6003200023009304F0AEFBF2
:1005F000EB681A69009206E004F0A8FBEB68013C86
:100600001A69009218D0009A002A4FF00300F3DA1A
:1006100000990F4A41F0010100910099196119698F
:10062000009103E019690091013A02D00099C807CE
:10063000F8D4032004F08AFBEB78012BBBD105230F
:1006400063F34406EB6846F020069E60A8E700BF0F
:10065000400D0300C268936843F0010393600020DB
:10066000704700BFC268936823F0010393600020C5
:10067000704700BFC26808B5D36801296FF35D7386
:100680006FF39E7308D009B943F08043D3603220E2
:1006900004F072FB002008BD43F00053F6E700BFF2
:1006A000C368586900F00100704700BFC36858690B
:1006B0009B691840704700BFF0B5044683B004F052
:1006C0001BFBD4F80C31626900261E60237A012BD3
:1006D000136816BF012166F3010361F30103136080
:1006E000D4F8CC2013686FF382036FF341036FF3E8
:1006F000C3036FF3451343F4807515600A2004F0BB
:100700003BFBD4F8CC306FF308251D60142004F0B7
:1007100033FB626913686FF382031360E37A012B82
:10072000374600F0D480E16800230193019A704BB2
:1007300042F020020192019A102060F38A12019285
:10074000019A0A610A69019203E00A690192013B78
:1007500002D0019A9506F8D4032004F0F7FA00239A
:100760000093009AE168624B42F010020092009AF6
:100770000A610A69009203E00A690092013B02D013
:10078000009AD006F8D4032004F0E0FA2378002B76
:1007900069D0D4F890104FF0FF3200238A60CB600C
:1007A000217801295FD9D4F894108A60CB60217830
:1007B000022958D9D4F898108A60CB60217803298F
:1007C00051D9D4F89C108A60CB60217804294AD989
:1007D000D4F8A0108A60CB602178052943D9D4F8D9
:1007E000A4108A60CB60217806293CD9D4F8A810DF
:1007F0008A60CB602178072935D9D4F8AC108A609B
:10080000CB60217808292ED9D4F8B0108A60CB604B
:100810002378092B27D9D4F8B41000238A60CB6041
:1008200021780A291FD9D4F8B8108A60CB602178C2
:100830000B2918D9D4F8BC108A60CB6021780C2918
:1008400011D9D4F8C0108A60CB6021780D290AD95B
:10085000D4F8C4108A60CB6021780E2903D9D4F86B
:10086000C8108A60CB600121204604F037FAD4F822
:10087000CC2013686FF382036FF341036FF3C3035C
:100880006FF34513D90402D443F480531360C82096
:1008900004F072FAE26817484FF0FF3100236FF05E
:1008A000804593615161516055619061E378916930
:1008B000002B14BF0023102343F00C5343F4001308
:1008C00043F008030B430020936103B0F0BD802385
:1008D000E022E16863F30F0662F30F07C0F26006DF
:1008E000C0F260074B628E62C1F800711CE700BF66
:1008F000400D0300000800804269136861F30103A2
:100900001360704743695869704700BF38B50546A2
:100910000A20D5F8CC2013686FF382036FF34103EC
:100920006FF3C3036FF3451343F48074146004F052
:1009300023FAD5F8CC306FF308241C60142004F09F
:100940001BFA012038BD00BFF0B500EB81034FF06A
:10095000FF32D3F890504B01C418AA60C27894F8C3
:10096000B163012A14BF002404240022032E13D8EB
:10097000DFE806F002530247C61844F4936496F881
:10098000AE7344F00104002F44D196F8B06344F0F4
:1009900040040EB144F02004D0F814E0EC60DEF81E
:1009A0001840C768012606FA01F12143CEF8181055
:1009B000B969184441F00073BB6190F8AC7390F8CA
:1009C000AF3390F8AD6390F8AE4390F8B113B0F840
:1009D000B20367F39C52A3F1020366F3CE22B3FA8B
:1009E00083F364F3CF325B0963F3514261F39342C3
:1009F00060F30A02032908BF42F000522A60002077
:100A0000F0BDC61844F4D36496F8AE6344F0010414
:100A1000002EC1D044F48074BEE7C61844F40874B4
:100A200096F8AE6344F00104002EB5D044F4C074CF
:100A3000B2E700BFF0B54D01461987B0D6F8BC3318
:100A4000002483B1B6F8B2735A1E3A44B2FBF7F2EF
:100A500092B2B2F5807F5CD93B024FF4807EC6F83B
:100A6000BC33724602E04FF0010E7246461996F80A
:100A7000AE732FB1B6F8B23302FB03F3C6F8BC3342
:100A800001F1150700EB471200EB810192F814C148
:100A9000D1F8906063F312046EF3DC446CF35E747F
:100AA0003461C478D0F814E0012C04BFD2F81821C6
:100AB00072613268DEF8084004F0010484F0010439
:100AC00064F35D7242F000426FF39E723260C2784E
:100AD000E2B9054495F8AE23C2B9BBB195F8B1238C
:100AE000032A22D8DFE802F018021802DEF81040CC
:100AF0000194DA1CA4B2C2F38F02944215D2C468E6
:100B0000A26942F08062A261C27872B1002007B08F
:100B1000F0BDC2F3090EA9E7C568EC6A0394DA1CBC
:100B2000A4B2C2F38F02944211D39BB200EB4710E0
:100B300003339B10D0F81801D1F8D040E6D0002242
:100B4000013250F8041B21609342F9D1DEE7AA6913
:100B500042F02002AA61C278002AD7D1E5E700BF9F
:100B600000EB810186B0D1F89020136843F0404338
:100B700059030AD541690969C1F3074109B96FF3FE
:100B8000DF730020136006B07047C168C96AC1F303
:100B900007410029F3D00020136006B0704700BF62
:100BA00000EB81014FF00043D1F89020012161F367
:100BB000DC4313611368002043F0004360F39E732D
:100BC0001360704730B5012185B0104C4FF4001010
:100BD00001F008F90E4B00934FF4804200232046A9
:100BE00069464BF6FF75ADF80430ADF80830ADF846
:100BF0000A30ADF80C20ADF8065004F02BFF20466B
:100C0000012104F09BFF05B030BD00BF005400403F
:100C1000A086010070B504460E4615464FF400311B
:100C2000204604F0D1FF0028F8D10121204604F02D
:100C300093FF1149204604F0B9FF0028F9D031464E
:100C40002A46204604F0A4FF15B1012D07D070BD3F
:100C50000A49204604F0AAFF0028F9D070BD0849CF
:100C6000204604F0A3FF0028F1D10549204604F0F6
:100C70009DFF0028F3D0EAE701000300820007008F
:100C80000200030010B5044604F08EFF034920461D
:100C900004F08CFF0028F9D010BD00BF84000700CD
:100CA000012104F067BF00BF114B1A78A2B1114AAD
:100CB000517889B910B5104C197023780121517001
:100CC0004FF410514BB10D4803F048FE22780A4B07
:100CD00052B100221A7010BD7047094803F03EFE61
:100CE0002278054B002AF4D101221A7010BD00BFF2
:100CF00080010020000000204CC100204C79002021
:100D0000900E002010B54FF6FF7403E004F07AF85F
:100D1000013C13D001220E490E4804F019FC0028B2
:100D2000F4D101220C490D4804F012FC00280CBF3C
:100D3000022001200A4B00221A7010BD0122064930
:100D4000064804F005FC08B1204610BD0120F1E77B
:100D500078C20008C45800207CC2000890560020C9
:100D6000000000202DE9F041064684B015460C46EF
:100D7000A1B14B1E0B423FD0E70705D50121FFF77C
:100D8000F1FF002840F0B780A00707D52A460221CE
:100D90003046FFF7E7FF002840F0AD80610700F123
:100DA000AE80220700F1B580E30600F1BC80A70603
:100DB00000F1C380600600F19680210600F1C68034
:100DC000E20500F1CD80A30500F1D580670500F1B3
:100DD000DD80200500F1E580E10400F1FA80A20445
:100DE00000F1EB80630400F10081E30B40F0098126
:100DF000002004B0BDE8F081A24B1A680A427AD103
:100E00005B68194277D1802900F0318100F21281AC
:100E1000082900F0208100F2FE80022900F02B81D9
:100E2000042900F02681012965D10627012D00F053
:100E3000FF80002D14BF0022022200238DE80C0049
:100E400021461A46304605F053F8204605F01EFAB2
:100E50005FFA80F830468C4E05F024FA716C894BAD
:100E600008F0FC0202F1804202F59C3241F480411C
:100E7000716408F00301966889004FF00F0E0EFAB6
:100E800001FE26EA0E0696609668C0B200FA01F1ED
:100E9000314391601968E24311401960596811406B
:100EA0005960196821431960D9681140D96099685F
:100EB000012D02EA01029A6000F0B68015B1DA68ED
:100EC0002243DA609A6814439C600A22012303A833
:100ED0008DF80C708DF80E808DF80D208DF80F3088
:100EE00004F044FF84E72A4640213046FFF73AFFEA
:100EF00000283FF462AF012004B0BDE8F0812A462B
:100F000004213046FFF72EFF0028F4D122077FF599
:100F10004BAF2A4608213046FFF724FF0028EAD1CC
:100F2000E3067FF544AF2A4610213046FFF71AFF4B
:100F30000028E0D1A7067FF53DAF2A4620213046A4
:100F4000FFF710FF00283FF435AFD4E72A46802191
:100F50003046FFF707FF0028CDD1E2057FF533AF1C
:100F60002A464FF480713046FFF7FCFE0028C2D1BC
:100F7000A3057FF52BAF2A464FF400713046FFF7EB
:100F8000F1FE0028B7D167057FF523AF2A464FF45D
:100F900080613046FFF7E6FE0028ACD120057FF5E2
:100FA0001BAF2A464FF400613046FFF7DBFE0028F6
:100FB000A1D1E1047FF513AF0BE02A464FF40051B5
:100FC0003046FFF7CFFE002895D163047FF50DAFC3
:100FD0000BE02A464FF480513046FFF7C3FE00284D
:100FE00089D1A2047FF5FEAEE7E72A464FF480419F
:100FF0003046FFF7B7FE00287FF47DAFE30B3FF4E8
:10100000F7AE2A4630464FF40041FFF7ABFE00280A
:101010003FF4EEAE6FE7202929D0402927D01029D0
:101020007FF469AF0A2701E7DA681443DC604CE714
:101030002A4602E7B1F5006F0BD00ED9B1F5005F7B
:1010400007D01AD9B1F5804F03D0B1F5004F7FF426
:1010500052AF2827EAE60927E8E6B1F5007F06D077
:10106000B1F5806FF5D0B1F5807F7FF444AF1727DD
:10107000DCE60827DAE60727D8E6B1F5805FE8D096
:1010800039E700BF003C01400038024008B5044B7E
:101090005A69D20703D50120586102F043FE08BD0A
:1010A000003C014008B5044B5A69920703D5022061
:1010B000586102F037FE08BD003C014008B5044B02
:1010C0005A69520703D50420586102F02BFE08BD6F
:1010D000003C014008B5044B5A69120703D50820AB
:1010E000586102F01FFE08BD003C014008B5044BEA
:1010F0005A69D20603D51020586102F013FE08BDCC
:10110000003C014008B5174B5A69910625D4154B90
:101110005A6952061CD4134B5A69100613D4114B4A
:101120005A69D10509D40F4B5A69920504D54FF479
:101130000070586102F0F6FD08BD4FF480705861F0
:1011400002F0F0FDEFE78020586102F0EBFDE6E7EA
:101150004020586102F0E6FDDDE72020586102F0F2
:10116000E1FDD4E7003C014008B51E4B5A6950052B
:1011700031D41C4B5A69110527D41A4B5A69D20431
:101180001DD4184B5A69900413D4164B5A69510454
:1011900009D4144B5A69120404D54FF40040586125
:1011A00002F0C0FD08BD4FF48040586102F0BAFD66
:1011B000EFE74FF40050586102F0B4FDE5E74FF45B
:1011C0008050586102F0AEFDDBE74FF400605861DB
:1011D00002F0A8FDD1E74FF48060586102F0A2FD53
:1011E000C7E700BF003C014030B5012185B005468E
:1011F000084600F0F7FD00244AF2104301A94FF021
:101200008040ADF804300295ADF80640ADF80C40D2
:101210008DF80E4005F04EF81C22012368468DF82B
:1012200001408DF802408DF800208DF8033004F065
:101230009DFD05B030BD00BF08B501214FF08040D5
:1012400005F092F8012211464FF08040BDE80840B9
:1012500005F0E6B808B501214FF08040002205F006
:10126000DFF800214FF08040BDE8084005F07CB871
:10127000F0B5184C89B007460121022000F0B2FDFC
:1012800000269522204640F65F136946ADF80020FF
:1012900001250193ADF80860ADF8026005F00AF889
:1012A0006023204603A9ADF80C300597ADF818600F
:1012B000ADF80E5005F066F82046082105F0A8F8B4
:1012C0002946204605F042F82946204605F04CF80C
:1012D00009B0F0BD00040040F8B500EB410500EB9B
:1012E0004114B5F88C559DF8187084F8AC2305F0BE
:1012F0007F06C5F3C01584F8AD6384F8AE53BDF81E
:101300001C6084F8AF33002584F8B173A4F8B2638D
:1013100084F8C45384F8C55313B9012384F8B03357
:10132000FFF712FB0020F8BD70B54C01BDF814505A
:1013300012B1061986F8AC230219B2F8B263AE42B4
:1013400000D05DB9044494F8AF239A4202D00BB1A7
:1013500084F8AF33FFF7F8FA002070BDA2F8B2535B
:10136000F0E700BFB0F98C35002B1DDAB0F98E35EF
:10137000002B25DAB0F99035002B24DAB0F992353C
:10138000002B23DAB0F99435002B22DAB0F9963528
:10139000002B21DAB0F99835002B20DAB0F99A3514
:1013A000002B1FDAFF2070470022134600EB430397
:1013B0006FEA41416FEA5141A3F88C15104670471E
:1013C00001221346F2E702221346EFE703221346F7
:1013D000ECE704221346E9E705221346E6E7062276
:1013E0001346E3E707221346E0E700BF072907D8C3
:1013F00000EB4100B0F88C35C3F30E03A0F88C3538
:101400000020704700F5B2620023C0F890351846FE
:1014100053609360704700BF08B52B4B984219D0BA
:101420002A4B984220D02A4B984229D0294B9842E7
:1014300032D0294B98423BD0284B984200D008BD6F
:101440000121202000F0F8FC00212020BDE8084008
:1014500000F0F2BC0121102000F0EEFC0021102071
:10146000BDE8084000F0E8BC01214FF4003000F076
:10147000D5FC00214FF40030BDE8084000F0CEBCA0
:1014800001214FF4802000F0C9FC00214FF480209E
:10149000BDE8084000F0C2BC01214FF4002000F07C
:1014A000BDFC00214FF40020BDE8084000F0B6BCB0
:1014B00001214FF4801000F0B1FC00214FF48010A6
:1014C000BDE8084000F0AABC001001400044004004
:1014D00000480040004C0040005000400014014013
:1014E000028A0B89F0B592B2CF888E88044622F426
:1014F00040523A4348890D4689892282A289334362
:1015000092B2034322F4B05222F00C029BB2134376
:10151000A381A38A9BB223F440730B4385B0A382BB
:10152000684600F0F7FB1D4B9C4228D003F5806312
:101530009C4224D0029AA389A18913F4004F2B68FE
:1015400002EB820214BF5B009B0002EB8202B2FB43
:10155000F3F0134AA2FB00356D096423090405FB6F
:1015600013034FEA05150CD41B013233A2FB0323EE
:10157000C3F343132B439BB2238105B0F0BD039A01
:10158000D9E7D9003231A2FB0131C1F3421242EA5C
:1015900005039BB2238105B0F0BD00BF00100140E0
:1015A0001F85EB51F8B5164680254FF48072002355
:1015B00006270D75CA820B834E834F75334600F59F
:1015C00088720C46054604F01BFB00B1F8BD95F887
:1015D000103184F8223095F8113184F8233095F8D1
:1015E000132195F8123103EB0223A38495F81431EB
:1015F00084F8263095F8153184F8273095F816319F
:1016000084F8283095F8173184F82930082EDDD970
:1016100095F8192195F8183103EB0223638595F8A5
:101620001B2195F81A3103EB0223A38595F81D21A0
:1016300095F81C3103EB0223E38595F81E3184F8FD
:10164000303095F81F3184F8313095F8203184F826
:10165000323095F8213184F83330F8BD2DE9F04F60
:1016600006238026154600F588790E754B754FF4D4
:10167000007600230B838BB04A464D83CE822B46E7
:1016800004468B4604F0BCFA8046002840F00E81E8
:10169000002D44D0DFF880E204F58A730EF10402D5
:1016A0004A4588BF734500F20581082DCEF301023B
:1016B00094BF00230123002A18BF0023002B00F051
:1016C000F9802F1FC7F38D0701374FEA870C1FFAE8
:1016D0008CFC71464A460346013398B252F8046BBB
:1016E00041F8046B8742F7D8654518D004EB0C032A
:1016F0000CF1010292B293F810310EF80C309542C1
:1017000085490CD9A0180CF102039BB290F8100186
:1017100088549D4203D9E21892F81021CA5494F8D3
:1017200010318BF8343094F811318BF8353094F84F
:10173000132194F8123103EB02239BB2ABF836303D
:1017400094F814218BF8382094F815118BF839107F
:1017500094F816118BF83A1094F817118BF83B1087
:1017600094F818118BF83C10092D40F29F80052A3F
:10177000DFF8ACC100F29580002201929CF80020B5
:101780000092BCF802400BF13E024FF0090E0992A4
:101790000BF16C0A9E4580F0828099F800209144FC
:1017A000964499F80120042A1FFA8EFEF2D199F886
:1017B0000360022EEED899F80450052DEAD899F866
:1017C0000030039399F80530049399F8063099F89E
:1017D0000270059399F80730069399F8083007933B
:1017E0007BB21AB20293099902EBC20302EB8202A6
:1017F000D20008920B440022AA424BDA99F800105A
:101800008944714499F8010005281FFA81FEF3D13B
:101810000099029881425CD09DF80C1019704FF02D
:10182000040159709DF8101059719DF814109971A8
:101830009DF81810D9719DF81C10197201219F7024
:10184000DE701D7100970191089901EBC20099F8B3
:1018500000100AF80010504499F80110417099F8EE
:101860000210817099F80310C17099F8054099F839
:10187000041001EB0421818099F80610817199F818
:10188000054099F80410013252B201EB0424AA4237
:10189000A4B2B3DBBBF836309E45FFF47EAF019BAC
:1018A000ABBB0023ACF802308CF8003040460BB0E4
:1018B000BDE8F08F681E80B200F58870174A20449A
:1018C00004F20F1313F8011F02F8011F8342F9D12C
:1018D00025E799F8050099F8041001EB00218C42E6
:1018E000D8DC9DF80C1019704FF0040159709DF868
:1018F000101059719DF8141099719DF81810D97134
:101900009DF81C109F70DE701D7119729CE79DF888
:1019100000308CF80030C4E7ECE10020EBE100205F
:10192000A00D00202DE9F0418027BDF818400F756B
:1019300042F440724FF0060E1E4600F5887740F2E2
:101940000943CA820B834C8381F815E03A4623464B
:10195000804604F055F918B998F81131032B01D0DD
:10196000BDE8F08198F81031023B9C42A8BF1C46AC
:10197000A4B244B10246BB18023292B29B7806F878
:10198000013B9442F7D800233370BDE8F08100BFDB
:1019900030B400230525CA824D750B750B834B832C
:1019A0001A4630BC04F02CB930B400230925CA8291
:1019B0004D750B750B834B831A4630BC04F020B970
:1019C00070B41E3300EB431300240A830226120670
:1019D0004FF001050E754D75CC824C834CBF1C71C8
:1019E0005C7100231A4670BC04F00AB901207047EC
:1019F0000120704701207047012070470120704787
:101A00000120704701207047012070470120704776
:101A10000120704700EB8000034B53F8203003B1E6
:101A200018470420704700BF04000020044B00EB5F
:101A3000800003EB80035B6803B118470420704704
:101A4000040000200BB90420704730B40D46114645
:101A5000074A00EB800402EB8404246924B11A468F
:101A60002846234630BC1847042030BC704700BFCE
:101A7000040000200BB90420704730B40D46114615
:101A8000074A00EB800402EB8404E46824B11A46A0
:101A90002846234630BC1847042030BC704700BF9E
:101AA00004000020FEE700BF08B50C480C4B98422C
:101AB00007D2C2431A4422F003020432094906F055
:101AC0007FFD094809494FF000028842B8BF40F83D
:101AD000042BFADBBDE8084000F0D0B8000000207D
:101AE000A00D002074C60008A00D002014F20020F4
:101AF00008B50A4803F0DCFD18B1094B1B78012B2F
:101B000006D0084B1A7842F001021A70187808BD06
:101B1000044B1A7802F0FE021A70F7E7D8EA0020A8
:101B200084F00020B8000020014B1878704700BFF7
:101B3000B80000200AB904207047F8B5164B1B788E
:101B400013F0010401D00320F8BD054613481646E2
:101B50000F4603F0ADFDD0B1114B1B78012B01D026
:101B60002046F8BD760201E0032C11D133463A46F7
:101B700029460A4802F012FE0A490446074803F0C3
:101B8000D3FD064803F094FD0028EDD10120F8BDF7
:101B9000201C18BF0120F8BDB8000020D8EA0020A2
:101BA00084F0002088F000200AB9042070472DE955
:101BB000F0411C4B1B7813F0010402D00320BDE858
:101BC000F081194E3378042B02D10220BDE8F08158
:101BD0000546164890460F4603F06AFDD8B13378A3
:101BE000012B02D02046BDE8F0814FEA482601E0F3
:101BF000032C12D133463A4629460C4802F084FDA4
:101C00000B490446094803F08FFD084803F050FDD6
:101C10000028EDD10120BDE8F081201C18BF012073
:101C2000BDE8F081B800002084F00020D8EA002050
:101C300088F000200F4B1B78DB0701D5032070478D
:101C4000032814D8DFE800F0020E090400207047D2
:101C50004FF400730B60002070474FF400730B804B
:101C600000207047044B1B680B6000207047042065
:101C7000704700BFB8000020C8E80020F0B587B06A
:101C800002F0F2FD01F06AFE03F0CAF84FF4E1320F
:101C900000211D481D4E00F0CDFC01F0F3FF02F0C5
:101CA0006DFF01F037FF03F085F840F65E10FFF797
:101CB000DFFA04F0EFF8FFF725F803F0A3F801F0DE
:101CC0002FFE01F0F5FF0127002442F210750137C5
:101CD00003F098F801F024FE01F0EAFFA6FB0723C9
:101CE0005B0B621C05FB13735FFA82FE08492246F8
:101CF00001A8002BEBD10193029303930493059366
:101D0000744606F0BFFDE2E7004C00405917B7D11A
:101D100080C2000810B4214CA36803F00C03042B0C
:101D20001AD0082B1BD01E4B03601C4A1D49946817
:101D3000C4F303140C5DE34043609468C4F382244D
:101D40000C5D23FA04F48460926810BCC2F3423242
:101D50008A5CD340C3607047134B0360E5E7636858
:101D6000616813F4800F636818BF0F4C01F03F02E5
:101D70000CBF0B49B4FBF2F1C3F3881308BFB1FBEE
:101D8000F2F101FB03F2054B5B68C3F3014301333E
:101D90005B00B2FBF3F30360C7E700BF003802400B
:101DA0000024F400BC00002000127A0029B9054A82
:101DB000136B23EA000010637047024B1A6B104349
:101DC000186370470038024029B9054A536B23EA6B
:101DD000000050637047024B5A6B104358637047C2
:101DE0000038024029B9054A136C23EA0000106448
:101DF0007047024B1A6C1043186470470038024059
:101E000029B9054A536C23EA000050647047024B1D
:101E10005A6C1043586470470038024029B9054A8B
:101E2000136A23EA000010627047024B1A6A1043DB
:101E3000186270470038024029B9054A536A23EAFC
:101E4000000050627047024B5A6A10435862704754
:101E500000380240AF4B98422DE9F047064600F0AB
:101E6000C58003F58063984200F0C28003F580636B
:101E7000984200F0BF8003F58063984200F096809E
:101E800003F544439842A44F00F0A880F888002846
:101E900000F084809F4B97F80DE09E4200F0B680E2
:101EA00003F580639E4200F089809C4B9E4200F0C7
:101EB000AF8003F580639E427ED0994B994DA3F18C
:101EC0001004AE420CBF1D462546EC886B89002CE1
:101ED00066D0B5F80480D5F800C002E09BB2002CB3
:101EE0005ED0984508BF0023013C1CF8035075459F
:101EF00003F10103A4B2F1D1013A002A40F3AE810B
:101F0000854C844B04F150009E4214BF2546054683
:101F100000F0BE8003F500639E427BD003F548438A
:101F20009E4200F0F180A3F544439E4200F03F81C1
:101F30007D4840340023864214BF284620469C46F4
:101F40004FF0010E16E04689B0F80880B04509D080
:101F5000B0F80480B04553D0046806F10108A45DD0
:101F6000A0F80A802C707D7BA54229D001339BB25A
:101F70009A4225DDC488CD18002CE4D08688B0F8BC
:101F80000A804645066822D008F1010916F9086062
:101F9000A0F80A90013CC480F4B2E3E7BDE8F08702
:101FA000BB888342A8D00020BDE8F0875F4FF88847
:101FB00020B397F80DE078E75C4D86E75C4D84E749
:101FC000013398B203460022CA54BDE8F087A0F856
:101FD0000AC096F90060A0F80AE0DBE7F88A00285A
:101FE00000F0908097F81DE0103766E7514F4DE7FD
:101FF0004F4F4BE7504FF8880028DAD1BDE8F08703
:10200000066844813478A0F80AE0ABE7494D5CE704
:10201000494D5AE700239C4620464FF0010E17E039
:10202000B0F83490C1452BD0066B08F1010916F9C0
:102030000880A0F83A90013DE5865FFA88F58AF8B5
:1020400000507E7BAE42BBD001339BB29A42B7DDDB
:10205000E58EB0F83A8001EB030A002DE0D1B0F82C
:102060003890C145EBD0B0F83490C14500F0DE8027
:10207000056B08F1010915F80850A0F83A90DEE761
:10208000066BA0F83AC096F90080A0F83AE0D2E7D3
:1020900000239C464FF0010E19E06E89B5F80880C8
:1020A000B0450AD0B5F80480B04500F0D18028686A
:1020B00006F10108805DA5F80A8020707C7B8442CF
:1020C0003FF47EAF01339BB29A427FF779AFE88845
:1020D000CC180028E1D0AE88B5F80A8046452E68B5
:1020E00009D008F1010916F90860A5F80A9001382D
:1020F000E880F0B2E1E7A5F80AC096F90060A5F81B
:102100000AE0F4E7BDE8F08700239C4620464FF044
:10211000010E2DE000440040CC000020004C0040A7
:10212000DC0000200014014000480040EC000020CA
:102130000C0100201C010020FC000020B0F81490CD
:10214000C1452CD0066908F1010916F90880A0F8EC
:102150001A90013DE5825FFA88F58AF800507E7B8F
:10216000AE423FF42DAF01339BB29A427FF728AFC6
:10217000E58AB0F81A8001EB030A002DDED1B0F831
:102180001890C145E9D0B0F81490C1455AD00569FE
:1021900008F1010915F80850A0F81A90DDE7066962
:1021A000A0F81AC096F90080A0F81AE0D1E7002341
:1021B0009C4625464FF0010E19E0B5F82490C14524
:1021C0002CD02E6A08F1010916F90880A5F82A908A
:1021D0000138E0845FFA88F08AF800007E7B86424E
:1021E0003FF4EEAE01339BB29A427FF7E9AEE08C4A
:1021F000B5F82A8001EB030A0028DED1B5F8289053
:10220000C145E9D0B5F82490C14515D0286A08F138
:10221000010910F80800A5F82A90DDE72E6AA5F854
:102220002AC096F90080A5F82AE0D1E74587056B1A
:102230002D78A0F83AE002E76885286A0078A5F8CA
:102240002AE0C9E7458305692D78A0F81AE084E7FC
:102250002E6868813078A5F80AE02EE70123184639
:10226000B1E600BF704700BF2DE9F043B94DA84269
:1022700089B004460F461E4679D0B74B984278D0B5
:1022800003F58063984276D003F58063984262D06C
:1022900003F54443984267D0B04DB14B04929C4241
:1022A00000F0F280AB4B9C4200F0DB80AA4B9C42DA
:1022B00000F0B780AB4B9C4200F09680AA4B9C424A
:1022C0007AD0AA4B9C4259D02046FFF7A5F8A14AE4
:1022D0000123062194428DF80B308DF809100DD0A2
:1022E0009D4B9C423ED09F4B9C4239D09E4B9C4282
:1022F00034D09E4B9C420CBF0623002302A88DF8CD
:102300000A3003F033FD00230C2140F6FF72ADF8D4
:102310001C60ADF81A10ADF81830ADF81630ADF8F5
:1023200014302B730392039B5A1E0392002BFAD195
:1023300004A92046FFF7D4F8A3899BB243F02003F9
:102340000122A3812A73A3899BB243F40053A38182
:1023500009B0BDE8F0830492854DA7E70523CDE7DA
:102360000423CBE70223C9E70492824DA6E7824DFE
:1023700093E7824D91E70492814D97E7814A536C30
:1023800043F020035364002F00F0D380012F00F0AE
:102390001A81032F03D108212046FFF763FF47234B
:1023A00072488DF80830FFF737F8012206238DF8C0
:1023B0000B208DF809309CE7724A136C43F48013AC
:1023C0001364002F00F09F80032F00F0BD803523A1
:1023D00065488DF80830FFF71FF8012206238DF8B5
:1023E0000B208DF8093081E7664A136C43F4002313
:1023F0001364002F5AD0012F00F0D980032F03D18E
:1024000008212046FFF72EFF342356488DF8083068
:10241000FFF702F8012206238DF80B208DF8093012
:1024200061E7584A136C43F480231364002F47D0AC
:10243000012F00F0E080022F00F0D180032F03D1A4
:1024400007212046FFF70EFF272320468DF808308E
:10245000FEF7E2FF012206238DF80B208DF80930EC
:102460003EE7484A136C43F400331364A7B3012FCB
:1024700000F0CD80032F03D107212046FFF7F2FEA5
:1024800026238DF808301FE73E4A536C43F01003B3
:10249000536467B3012F7FD0032F03D10721204658
:1024A000FFF7E0FE25238DF808300AE70823032113
:1024B0008DE80A003A460123334803F0B9FDA3E74B
:1024C00007210323019100933A4601234FF4406111
:1024D0002E4803F0ADFDB7E70721032301910093D8
:1024E0003A4601230C21284803F0A2FDC8E7032245
:1024F00007238DE80C004FF4C06101233A462248BF
:1025000003F096FDCEE74FF003084FF008093A4676
:102510008DE8000301234FF480511D4803F088FD2E
:102520008DE800033A46012304211A4803F080FD98
:102530004DE708210323019100933A460123C0216E
:10254000134803F075FD2AE708212046FFF78AFEAD
:102550003DE700BF0044004000480040CC000020A0
:1025600000100140004C00400050004000140140A9
:10257000EC000020DC0000201C0100200C010020E9
:10258000FC0000200038024000000240000402402D
:1025900000080240000C0240032207238DE80C00D3
:1025A000C0213B4600221F4803F042FD7AE7082184
:1025B0000322019100923B4600224FF440611A48E9
:1025C00003F036FD20E708210322019100923B46EB
:1025D00000224FF48441154803F02AFDDFE6032270
:1025E00007238DE80C004FF44071012300221048AE
:1025F00003F01EFD28E707210322019100923B46CC
:1026000000224FF44061084803F012FD1CE7072147
:102610000322019100923B4600226021044803F00E
:1026200007FD2DE7000402400008024000180240A8
:10263000000C024070B5424B984288B004460D46EB
:10264000164615D03F4B984212D03F4B98420AD0C5
:102650003E4B984207D03E4B984204D03D4B9C42A3
:102660000CD008B070BD0023FFF7FEFD08B070BDB0
:102670000023FFF7F9FD374B9C42F2D1364A04960E
:10268000536C43F020035364002D42D0012D4BD0F6
:10269000032D39D047232F488DF808302F4DFEF7F2
:1026A000BBFE0623012202A88DF80B208DF809300D
:1026B0008DF80A3003F05AFB00230C2140F6FF721C
:1026C0002B77ADF81C30ADF81830ADF81630ADF8FA
:1026D0001430ADF81A100392039B5A1E0392002B7C
:1026E000FAD11C4C04A92046FEF7FAFEA3899BB23E
:1026F00043F02003A381A3899BB243F4005301223A
:10270000A3812A7708B070BD20460821FFF7AAFDF3
:10271000C0E708210323019100932A460123C02129
:102720000F4803F085FCB5E70821032201910092D0
:102730002B4600224FF484410A4803F079FCA9E7B4
:10274000001001400044004000480040004C0040A0
:10275000005000400014014000380240CC0000202E
:1027600000080240001802400C4A13889B0614D54A
:102770000B4B92889888D988814292B20DD21989E0
:10278000884208BF0021186808BF1981425419897E
:10279000DA88013101321981DA8070470010014076
:1027A000CC000020104A13889B061CD50F4B928842
:1027B000B3F85400B3F85610814292B213D2B3F872
:1027C0005810884208BF0021186D08BFA3F85810A0
:1027D0004254B3F85810B3F8562001310132A3F82F
:1027E0005810A3F85620704700440040CC00002049
:1027F000104A13889B061CD50F4B9288B3F84400EF
:10280000B3F84610814292B213D2B3F8481088420E
:1028100008BF0021186C08BFA3F848104254B3F851
:102820004810B3F8462001310132A3F84810A3F84C
:102830004620704700480040CC0000200C4A138816
:102840009B0614D50B4B9288988ED98E814292B2FA
:102850000DD2198F884208BF0021186B08BF198755
:102860004254198FDA8E013101321987DA867047A6
:10287000004C0040CC0000200C4A13889B0614D565
:102880000B4B9288988CD98C814292B20DD2198DC3
:10289000884208BF0021186A08BF19854254198D63
:1028A000DA8C013101321985DA847047005000401A
:1028B000CC0000200C4A13889B0614D50B4B928841
:1028C000988AD98A814292B20DD2198B884208BF68
:1028D0000021186908BF19834254198BDA8A013123
:1028E00001321983DA82704700140140CC000020C5
:1028F00070B582B00446BDF81850436101610126ED
:10290000228365830846002511460222FEF72AFA33
:10291000618B606901952B462A46009603F0E8FA20
:102920006572E56065602560A67202B070BD00BF8B
:10293000C368026803609A1A002B426005DB14BF6B
:1029400000230223037218467047012303721846BE
:10295000704700BF0269038B12694169134010B4CC
:10296000847A096914BF01220022944209D082723C
:10297000428B33B9437A11402BB931B1C368013B63
:10298000C36010BC70470029F8D0C36810BC013385
:10299000C3607047F8B5324B324EC82232601D46D4
:1029A0001F464FF0FF0E1A88540604D40020F8BDCD
:1029B0002A89140606D51A899207F9D11A8992072D
:1029C000F9D0F5E7A7F80CE01A89254C9207FBD05F
:1029D0002A891206F8D4BA89D2B2FF2A04D1326801
:1029E000002AE0D10020F8BDFE2ADFD10B46FF22ED
:1029F0000146204601F0D4F823885F0605D4184A22
:102A000013885F0616D40120F8BD22462389144995
:102A10009E07FBD013891D06F8D4FF230A468B813D
:102A2000084613890E499C07FBD003891B06F8D47E
:102A30008B89E4E71046138909499E07FBD0038977
:102A40001D06F8D4FF230A468B81084613890449E2
:102A50009C07FBD003891B06F8D48B890120F8BDA5
:102A600000300140B40D0020334B344A4FF48071E4
:102A700030B4598313885D0648D4304B30484FF446
:102A8000FA72026019461C46FF2501E00268B2B1E5
:102A90001A885206FAD51A899207FCD00A891206BA
:102AA000F9D4A5811A899207FCD00A891206F9D4B3
:102AB000A289D2B2FF2AE9D1012030BC70471E4B57
:102AC0001E4A4FF480711983138803F040039BB2B0
:102AD00013B9184630BC70471046138917499D0733
:102AE000FBD003891C06F8D4FF230A468B810846D5
:102AF000138912499B07FBD0038903F080039BB223
:102B0000002BF5D118468A8930BC704710461389CE
:102B10000A499C07FBD003891B06F8D4FF230A4609
:102B20008B810846138905499D07FBD003891C0644
:102B3000F8D48B89A1E700BF0008024000300140B3
:102B4000B40D0020F8B54D4B4D4E4FF4FA72326083
:102B50001D461F464FF0FF0E02E03268002A2CD0BF
:102B60001A885406F9D51A899207FCD02A891406C6
:102B7000F9D4A7F80CE01A89404C9207FBD02A89B7
:102B80001206F8D4BA89D2B2FF2AE6D123885B06AE
:102B900017D4FD2913D0394C01464FF4007220465A
:102BA00000F0E6FF23885B0652D4344A13885B06A4
:102BB00039D4324A13885B0619D40020F8BD0120AD
:102BC000F8BD224623892D4D9E07FBD013891B0695
:102BD000F8D48BB22A46AB811389284C9F07FBD0CF
:102BE0002B891E06F8D4FD29A389D4D1E7E7104626
:102BF000138922499F07FBD003891E06F8D4FF23BF
:102C00000A468B81084613891C499D07FBD003891E
:102C10001C06F8D4888900F01F00A0F10500B0FA66
:102C200080F04009F8BD1046138914499F07FBD076
:102C300003891E06F8D4FF230A468B8108461389B0
:102C40000E499D07FBD003891C06F8D48B89B0E799
:102C500022462046138909499F07FBD003891E0697
:102C6000F8D4FF230A468B810846138903499D0740
:102C7000FBD003891C06F8D48B8996E7003001400D
:102C8000B40D002070B5060604460D4600F12681FD
:102C90000C2C0CD08F4B904A4FF480711983138801
:102CA000590631D4FFF7E0FE08B9FF2070BD8A4A0B
:102CB0001388580600F19280874A1388590600F15C
:102CC000A780854A1388590600F1BB80824A138881
:102CD000590600F1D080804A13885B0600F1E58038
:102CE0007D4B1B884CB3082C5AD15A0600F1008149
:102CF000794B0A2419461D46FF26188800F040002B
:102D000080B2002834D170BD1046138972499B07E8
:102D1000FBD003891E06F8D4FF230A468B810846A0
:102D200013896D499B07FBD003891E06F8D48B8954
:102D3000FFF79AFE0028B8D0B9E75B06D8D59525ED
:102D4000654A1046138964499E07FBD003891B0618
:102D5000F8D40A468D81084613895F499E07FBD047
:102D600003891D06F8D48B891DE00A89100606D553
:102D70001A899207F9D11A899207F9D0F5E7AE813D
:102D80001A899207FCD00A891006F9D4AA8992B24E
:102D9000D0B21206B7D5621E12F0FF04ADD170BDDD
:102DA0005B0600F1A7800C2CA2D14B4A1388590670
:102DB0009ED51046138948499B07FBD003891E0600
:102DC000F8D4FF230A468B810846138942499D07A0
:102DD000FBD003891C06F8D48B8989E71046138938
:102DE0003D499B07FBD003891E06F8D444F04003FD
:102DF0000A468B810846138937499B07FBD0038914
:102E00001E06F8D4344A8B89138859067FF559AFCA
:102E10001046138930499B07FBD003891E06F8D45E
:102E20002B0E0A468B81084613892B499B07FBD042
:102E300003891E06F8D4284A8B89138859067FF522
:102E400045AF1046138924499B07FBD003891E0612
:102E5000F8D4C5F307430A468B81084613891E49F7
:102E60009B07FBD003891E06F8D41B4A8B89138865
:102E700059067FF530AF1046138917499B07FBD0E1
:102E800003891E06F8D4C5F307230A468B8108463A
:102E9000138911499B07FBD003891E06F8D40E4AFB
:102EA0008B8913885B067FF51BAF104613890A498F
:102EB0009E07FBD003891B06F8D4EDB20A468D812C
:102EC0000846138904499E07FBD003891D06F8D4E0
:102ED0008B8905E7000802400030014000213720BF
:102EE000FFF7D0FE01283FF60EAF04F07F04CFE6D7
:102EF000872525E7012523E7F0B5914D85B000240E
:102F00002346284601224FF480710194009402F078
:102F1000EFFF00F0FFFD21468A4800F05FFE4FF40E
:102F2000807389492B830B680393EFF30583002B90
:102F300042D0864A0A211368DB03FCD50139FAD155
:102F4000804B0A24FF251946184603E0621E12F042
:102F5000FF0414D01A885706F8D51A899607FCD0B2
:102F60000A891206F9D485811A899707FCD00A8943
:102F70001606F9D48289621E12F0FF04EAD12146B6
:102F80002046FFF77FFE0128054664D070486C4A52
:102F90006C4B00244FF48071047011831B885B0616
:102FA0003CD46C4B01221A701A7802F0FB021A70A2
:102FB0001878C0B205B0F0BD0B68039A9B1A092BB4
:102FC000BED80B68039A9B1A092BF5D9B8E721469E
:102FD000A920FFF757FE01288DBF2C460224A92502
:102FE000254602E0FFF74EFE20B133680021284657
:102FF000002BF7D13368002BC8D14FF4007110209B
:10300000FFF740FE0028C1D151494D4A0C704D4B8D
:103010004FF4807111831B885A0616D5494A104611
:10302000138948499B07FBD003891F06F8D4FF2367
:103030000A468B810846138942499E07FBD00389C3
:103040001D06F8D48B89002CABD0424B1A7802F0C5
:10305000FE021A70A8E7404E4FF47A734FF4D57110
:1030600008203360FFF70EFE0128B0D1354B02ADCA
:1030700019461F46284603AC4FF0FF0E1A8802F08F
:10308000400292B28AB900F8012B8442F6D19DF831
:103090000A30012B7FF47AAF9DF80B30AA2B7FF416
:1030A00075AF17E00A89120606D51A899207F9D179
:1030B0001A899207F9D0F5E7A7F80CE01A89920768
:1030C000FCD00A891206F9D4BA89D2B2DBE7FFF73D
:1030D000D9FD28B133684FF08041A920002BF6D1EB
:1030E0003368002B3FF452AF00213A20FFF7CAFDAE
:1030F00000287FF44BAF134AFF2610461146138871
:1031000003F040039BB25BB905F8013BA542F6D141
:103110009DF8083013F0400F14BF0C24042473E70B
:1031200013899B07FCD003891F06F9D48E8113896C
:103130009B07FCD003891F06F9D48B89DBB2E3E738
:103140000008024000300140B00D002010E000E017
:10315000A40D00202C010020B40D0020034B1A7890
:1031600002F0FB021A701878704700BF2C01002093
:103170002DE9F0475A4B1B78DC0703D50326304670
:10318000BDE8F087574B1B788146180758BF4902A6
:10319000012A164656D01220FFF774FD98B9524CFA
:1031A000DFF84CA12546A046C823CAF80030FF220C
:1031B000238859062CD4003618BF012600210C2084
:1031C000FFF760FD02E0003618BF0126474B464A74
:1031D0004FF48071198313885B06D0D5104613898C
:1031E00041499F07FBD003891D06F8D4FF230A46F7
:1031F0008B81084613893C499C07FBD003891B0639
:10320000F8D48B893046BDE8F0872B891F0606D598
:1032100023899B07F9D123899B07F9D0F5E7A8F803
:103220000C202389304F9807FBD02B891906F8D43E
:10323000B8F80C30DBB2FF2B12D1DAF80030002BDB
:10324000B6D1B8E71120FFF71DFD0028BED14846D2
:103250004FF40071FFF79EFBB0FA80F67609B5E7F0
:10326000FE2BA8D14FF40073FF224946384600F0E8
:1032700097FC3B885B060AD423885B0611D4013E89
:1032800009F5007990D199E72B89180610D5238983
:103290009F07F9D123899F07F9D0F5E72B891806F5
:1032A00012D523899F07F9D123899F07F9D0F5E724
:1032B000FF23A8F80C3023899907FCD02B891A0624
:1032C000F9D4B8F80C30D7E7FF23A8F80C302389DD
:1032D0009907FCD02B891A06F9D4B8F80C30CEE740
:1032E0002C010020A40D0020003001400008024005
:1032F000B40D0020F8B5314B1E78F50701D5032039
:10330000F8BD1B785C0701D50220F8BD2C4B1B785B
:1033100014461A070F4658BF4F02012C05463ED0EF
:1033200013F0060F36D139461920FFF7ABFC08B36E
:10333000201C18BF0120234B23494FF480721A83AD
:103340000B885B06E1D50A460B891F4C9F07FBD013
:1033500013891E06F8D4FF232146A38122460B8938
:10336000194C9D07FBD013891B06F8D4A389F8BD1F
:10337000013C07D02846FC21FFF7E4FB05F500756A
:103380000028F5D1FD210020FFF7DCFB0028CFD17C
:103390000120D0E721469720FFF774FCC3E73946A8
:1033A0001820FFF76FFC0028F2D12846FE21FFF716
:1033B000C9FBB0FA80F04009BDE700BF2C01002036
:1033C000A40D00200008024000300140B14B1B78E2
:1033D000DA0701D503207047F0B50C4685B0042804
:1033E00000F29F80DFE800F042519D0B0300AA4DE0
:1033F0002B7813F0060F40F0BE8001203BE0A64D75
:103400002B7803F0040303F0FF01002B00F08B8006
:1034100000218D20FFF736FC0028EED19F4A13884B
:103420005B0600F1018110216846FFF7B3FA00281E
:10343000E3D09A4B302118461D46FF2604E04A1E71
:1034400012F0FF0100F0E8801A885706F7D51A89B4
:103450009207FCD002891706F9D4AE811A89920727
:10346000FCD002891706F9D4AA89E8E7FFF7FCFA2D
:10347000B0FA80F040098A4B884A4FF48071198372
:1034800013885B0637D405B0F0BD00210920FFF793
:10349000F9FB05460028B0D110216846FFF77AFAFB
:1034A0000028AAD09DF800309B09012B00F0D180A4
:1034B0009DF805109DF80A709DF809209DF80700F9
:1034C0009DF806309DF8086001F00F0101EBD7115F
:1034D00052000231800002F006029B020A4403F40B
:1034E000406300EB9611D2B20B44093A013393408A
:1034F00028462360BFE71446138968499F07FBD01D
:1035000023891E06F8D4FF230A468B810C461389B3
:1035100062499D07FBD023891B06F8D48B8905B02F
:10352000F0BD0420A7E70920FFF7ACFB0646002802
:103530007FF463AF10216846FFF72CFA00283FF4B0
:103540005CAF2B7803F0020303F0FF00002B00F0C8
:1035500091809DF80A309DF80B109DF80D205B00BE
:1035600003F07E0303EBD11392090133013A934038
:10357000304623607FE769460B20FFF727FF0028CE
:103580007FF43BAF9DF800309B0904D19DF80A30D1
:103590005E067FF532AF12CC2B78180758BF490270
:1035A0004FF0200058BF6402FFF76CFB00287FF447
:1035B00024AF21462120FFF765FB014600287FF458
:1035C0001CAF2620FFF75EFB00287FF416AF334BBD
:1035D000344D47F230522A601C461946FF2603E05C
:1035E0002A68002A3FF409AF1A885206F8D51A89CA
:1035F0009707FCD022891006F9D48E811A89920788
:10360000FCD0208900F0800080B20028F6D18A89A1
:10361000D2B2FF2AE4D12EE79DF80A201023120926
:1036200093400846236026E7104613891B499F07ED
:10363000FBD003891E06F8D4FF230A468B81084677
:10364000138916499D07FBD003891B06F8D48B8983
:10365000E9E69DF807309DF808109DF809201B0445
:1036600003F47C13013302EB012213449B0228462E
:10367000236000E79DF80B609DF80A30F50005F027
:103680001805C3F3840205EB5615531C05FB0333E1
:103690002360F0E62C010020A40D00200030014042
:1036A00000080240B40D0020014B00201870704744
:1036B000E0F1002038B50D4C6178054661B92178FC
:1036C0000A4C41B12846FDF74BFA28462178FDF710
:1036D0008DFE0023237038BDFDF742FA617828463D
:1036E000FDF784FE00236370E9E700BFACE400202F
:1036F000F0B591F84330082B83B00C4606D0D4F8CF
:1037000044311B6C9847002003B0F0BD91F8453060
:10371000502BF4D191F86E30B1F870201B4D190682
:1037200094F876104BBFEB70AB70AA80EA800A0663
:103730000646B4F8783025D4A970EB803046FDF702
:1037400011FEE97868703046FDF70CFEB5F806E02A
:1037500094F8213094F820206978287002278DE8A9
:1037600080403046FDF7B8FD94F8213094F82020D1
:10377000AC882978009730460194FDF7ADFD002014
:1037800003B0F0BDE970AB80A978D7E7ACE40020C6
:10379000F0B583B00D46064601F08AFFB0B15C4C2F
:1037A00023780A2B12D8DFE803F0161C32064F5993
:1037B000636B717B1400304600F092FE002800F02D
:1037C0008E80012800F09080022877D0012003B07D
:1037D000F0BD0420FBE7304601F086FF0120207099
:1037E000F5E700232121FF2229756A753046EB8217
:1037F0002B836B8329461A4602F002FA002867D011
:103800000328E4D10222092362702370DFE700233A
:10381000A121FE22012729756A75EB822B83304690
:103820006F833B463B4A294602F0EAF9002849D11A
:10383000394A137A82F808321BB1384B1A78002AB9
:103840005ED003232370C2E7304600F07FFE0028DD
:10385000B7D1324A052350702370B8E7304600F0E4
:10386000C3FE0028ADD12D4A082350702370AEE767
:10387000304600F0FDFE0028A3D163782370A6E750
:103880003046294601F050FF0120A0E7D5F8443129
:10389000DB6B9847C0B2F0B1012897D1062096E7BC
:1038A00030466B7929460022FEF78AF800288ED12F
:1038B000194A637882F80802237088E70A23237084
:1038C000012084E7032882D10923607023707EE7FA
:1038D000022323707BE708232370012077E70F4A38
:1038E00004235070237072E70C4A53780133DBB223
:1038F000092B5370E2D8062301202370E07066E79D
:10390000D5F844211F70136C0190984701985EE729
:10391000E0F10020B4E40020ACE40020A50D00207C
:1039200000B583B0022201A90A48FEF793FA40B11C
:103930009DF80430642B07D0752B02D1064B012271
:103940001A7003B05DF804FB034B01225A7003B0F8
:103950005DF804FB004C0040A70D00202DE9F04766
:1039600001218CB00846434E434FFEF71FFA012158
:103970000220FEF71BFA012104200024FEF716FAAC
:103980000125C0234FF002083046694600934FF0EE
:1039900020098DF804808DF805408DF807408DF8DA
:1039A000065000F027FD304602A9CDF808904FF4EC
:1039B000804A8DF80C508DF80D408DF80E408DF832
:1039C0000F4000F017FD384604A98DF814408DF81B
:1039D00015408DF81740CDF810A000F00BFD2A46D9
:1039E00051463846FDF7BEF92A464946304600F0B2
:1039F0005DFD30460422062100F05EFD04223046C3
:103A0000072100F059FD4FF0030930464FF60B43F4
:103A100006A906938DF81C508DF81E408DF81F40A6
:103A20008DF81D9000F0E6FC7E23384608A9089327
:103A30008DF824508DF825908DF826408DF827407C
:103A400000F0D8FC42463846092100F035FD4FF41D
:103A5000007338460AA98DF82C808DF82D808DF8DA
:103A60002E408DF82F400A9300F0C4FC0CB0BDE846
:103A7000F08700BF0004024000080240F8B5234E62
:103A8000336801333360FDF70FF9214B1A6812B127
:103A90001A68013A1A6032681C4BB2F57A7F00D07E
:103AA000F8BD5A6801325A609A6800211960002AEC
:103AB00027D1AFF30080317B0029F1D0134F0024D0
:103AC00004E0397B0134E4B28C42E9D206EB840590
:103AD0002B69002BF6D01A7B002AF3D09A68501E6F
:103AE000002AEFD098600028EBD11A6958699047F6
:103AF0002B6993E806009960397B002AE2D11A739A
:103B0000E0E79A68013A9A60D3E700BFAC0D002065
:103B1000C0E600200F4B104A1B6810491048F0B453
:103B2000A2FB03720F4E104D104C9B09920CA6FB8A
:103B30000363013AF0274A60002685F823709B0A48
:103B4000012507228E6084F824500A60F0BC0360CF
:103B5000704700BF7C01002083DE1B4310E000E0C3
:103B6000C4E600201791650200ED00E0AC0D0020D6
:103B700003885B0613D503899B07FCD003891B06CA
:103B8000F9D462B10A4411F8013B838103899B0790
:103B9000FCD003891B06F9D491428389F3D1704785
:103BA00010B40488640614D50489A407FCD00489E1
:103BB0002406F9D46BB1CC1892B2828103899B0799
:103BC000FCD003891B06F9D4838901F8013BA1428B
:103BD000F3D110BC704700BF704700BF254A904228
:103BE00000D0704730B589B0044603A80D4601F0F7
:103BF00025FF214A536C43F4805353641DB3012DB8
:103C00002CD0032D1AD01B4C00234FF000724FF024
:103C100082710391049306930592238823F0400355
:103C20001B041B0C238003A9204601F0E7FE238818
:103C30009BB243F04003238009B030BD20460521EC
:103C4000FFF7CAFFDFE7032205238DE80C00E02120
:103C50002B462A46094802F0EBF9D4E70521032256
:103C600000230191009238211A46054802F0E0F93C
:103C7000C9E700BF003001400038024000000240A8
:103C80000004024000B5084B084883B04FF40042DE
:103C9000009219464FF40052FEF72AFE282003B086
:103CA0005DF804EBFDF7A0BA00080240D80D002033
:103CB00010B5184C2046FEF73BFE237F43B1637FCF
:103CC0000133DBB20022032B227714BF63776277C4
:103CD0006368104A002B0CDD527F0F4B03EBC203CD
:103CE000184602215B6898470C4B1A78012A0DD0C0
:103CF00010BDFDD0527F084B03EBC20318460121D3
:103D00005B689847064B1A78012AF1D100221A7095
:103D100010BD00BFD80D002040010020A80D0020DC
:103D2000A70D0020084B1A8B824210B5044607D01D
:103D3000B4F5804F00D010BDBDE81040FDF77CBA4F
:103D40001846FEF707FEF3E7D80D002008B501215D
:103D50004FF0804002F06EFB00B908BD01214FF02A
:103D6000804002F073FB4FF48041054800F094FB63
:103D700010B9044B01221A77BDE80840FDF76ABA72
:103D800000080240D80D00200123C0F810330020A5
:103D9000704700BF0023C0F810331846704700BFBB
:103DA000002070472DE9F041069F144605460E4657
:103DB000984600F047FF002000F09EFF00224023BD
:103DC0000121A37122706270A27084F82020E1703A
:103DD000217784F8211028462179FDF707FB6179C6
:103DE0002846FDF703FB3146C4F84081C4F844710E
:103DF000284601F0DBFBD4F844311B68984728467D
:103E0000BDE8F04100F054BF0B7F0022013B70B5CC
:103E10000C468A7405460A2B00F28D80DFE803F019
:103E2000141C2A334B5A678E708206008B7B013339
:103E3000DBB2022B8B7340F2A3804B780B7008220D
:103E40008A740223184670BD4A79143101F0FEFECF
:103E5000022323770023F5E7497901F031FC01289B
:103E600000F09280032866D105230B22A3742277E9
:103E70000023E7E70B798A89896801F023FF04238F
:103E800023770023DEE7097901F01AFC012800F00E
:103E90008E8004286AD0032808D0284601F00CFC44
:103EA000524A238A1288C01A904244D90B2323779E
:103EB0000023184670BD4B7900EB4313012283F8B1
:103EC000C5234B798A89896801F0D8FE06232377B8
:103ED0000023B7E7497901F0F3FB01286AD00428F1
:103EE00070D0022825D1052323770023AAE70022DA
:103EF0002379114601F0E6FE082323770023A1E78A
:103F00004B7900EB4313002293F8C51381F00101B4
:103F100083F8C5136379114601F0B0FE0A232377B5
:103F200000238FE7497901F0CBFB012822D002283A
:103F300044D00328BAD00023184670BD097901F097
:103F4000BFFB0128064615D00328AFD0284601F054
:103F5000B3FB264A238A1288C01A9042A6D8042EA0
:103F6000E9D163782370A67403236BE76378237029
:103F7000002367E7637823700D232377002361E72D
:103F800001230B7700235DE7237D628B23F07F0302
:103F9000DBB2EAB1154A41F288311180FBB9052341
:103FA0002377284601F088FB002320824AE7092373
:103FB000237772E707232377002343E70923237737
:103FC00000233FE7637823700C232377002339E72E
:103FD000064A322111802BB907232377E1E7032317
:103FE0002377DEE709232377DBE700BFF80D002006
:103FF00070B594B002260C468DF80F60054601F0AE
:1040000057FB237870BB002B48D0B34200D02670FA
:10401000D4F844311B699847002601234022A2713D
:10402000E370237784F82130217926706670A670BA
:1040300084F820602846FDF7D9F961792846FDF714
:10404000D5F9D4F844315B689847D4F8403104F18D
:1040500020015B68284698472846FDF7D3F926706B
:1040600014B070BD0A2BFBD801A252F823F000BF98
:104070009D400008E1400008114000086140000830
:10408000574100087541000891410008D5400008DB
:10409000B340000861400008C3410008284601F011
:1040A00007FB0028DCD001232370642000F064FEAD
:1040B000D6E7D4F844319B6B98470128D0D1D4F887
:1040C000403128461B68214698470028C8D105235F
:1040D0002370C5E721462846FFF796FE14B070BD51
:1040E000D4F844319B68984700212846FDF73AF9F7
:1040F000802160712846FDF735F92071284601F0CE
:10410000D1FA06460028ABD1D4F84431DB68984791
:10411000284601F0C1FAD4F84431C0B284F8210035
:1041200004229B6922709847A07994F8213094F872
:1041300020202179019000962846FDF7CDF894F8CB
:10414000213094F820206179A479019400962846C2
:10415000FDF7C2F884E7A378092B81D8DFE813F0D4
:10416000DC00CB0000019400B6009F007D006600DB
:104170005A005300D4F8403128469B68214698479E
:104180008DF80F009DF80F3053B90623237067E7B1
:10419000D4F840312846DB68214698478DF80F0057
:1041A0009DF80F30DBB21A1F012A40F20181062B65
:1041B0007FF456AFD4F844310A221B682270984726
:1041C0004EE7012200234021E270227784F821206B
:1041D00023706370A37084F82030A1712846217980
:1041E000FDF704F961792846FDF700F9D4F8443168
:1041F0005B689847D4F8403128465B6804F1200199
:10420000984714B070BDD4F844315B6B98470823CD
:10421000237025E7284694F839202146FDF7C4FB92
:1042200000287FF41DAF0923A37019E794F832200A
:10423000002A00F0C480FF210091284604AB2146EB
:10424000FDF770FB00287FF40BAFD4F8443104A8CD
:104250001B6B98470823A37002E794F83120002ACB
:1042600000F0BD80FF210091284604AB2146FDF7F8
:1042700059FB00287FF4F4AED4F8443104A8DB6A7B
:1042800098470723A370EBE6284609222146FDF74D
:10429000E5F900287FF4E4AE0423A370E0E694F887
:1042A0003020002A00F09380FF210091284604ABC3
:1042B0002146FDF737FB00287FF4D2AED4F8443115
:1042C00004A89B6A98470623A370C9E62846E28E95
:1042D0002146FDF7C3F900287FF4C2AED4F844317B
:1042E00004F16C025B6A04F13E0104F1340098476A
:1042F0000523A370B4E6284612222146FDF752F9A1
:1043000000287FF4ADAED4F8443104F12200DB691B
:1043100098470223A370A3E6082221462846FDF70A
:1043200041F9064600287FF49BAE94F82930A3712A
:10433000284601F0B7F9A379617900960122A270AD
:104340002846019332463346FCF7EEFFA3792179E4
:1043500001930096284633463246FCF7E5FF7FE698
:10436000012221462846FDF713FB064600287FF46C
:1043700077AE022000F000FD0122D4F8443184F829
:1043800020201B6A9847032394F820202179019666
:1043900000962846A3703346FCF7C6FF94F8202009
:1043A00061790196009633462846FCF7BDFF57E633
:1043B000D4F844315B6C98470A23237050E6D4F854
:1043C00044310B481B6B98470823A37048E6D4F888
:1043D000443107489B6A98470623A37040E6D4F807
:1043E00044310348DB6A98470723A37038E600BFCF
:1043F0008CC2000800222DE9F0471346D1F800E0F6
:1044000001274FF0030C04E00133102B02F10202EC
:1044100029D007FA03F434EA0E05F5D1D0F800806C
:104420000E790CFA02F5ED4308EA0508C0F80080A1
:10443000D0F8009006FA02FA013E4AEA0909012E74
:104440000CFA02F8C0F800900FD9C568CC7925EABB
:104450000805C560C568944001332C43102BC46027
:1044600002F10202D5D1BDE8F087866891F8059087
:104470003540856086688D7909FA02F949EA0606B1
:104480008660466826EA04044460466805FA03F438
:10449000A4B234434460D8E70369194214BF012031
:1044A0000020704701837047418370470AB94183F8
:1044B00070470183704700BFCB0800EB830001F019
:1044C000070110B48900046A0F238B4024EA030318
:1044D0000362036A10BC8A4042EA0301016270472A
:1044E000F8B501F0E5F808B90320F8BD144BDA7807
:1044F000012A0AD0022AF7D1D87B18B101281CD092
:104500000228F1D10122DA70F8BD0E491A71062590
:10451000002203208D73022407250B4F4A613F269A
:104520008A61CA618A600A730A61CA739870D87313
:104530001D70DC709F609E81F8BDD870F8BD00BF13
:10454000E0F10020F0F10020D0F10020F8B501F0FA
:10455000AFF808B90320F8BD1F4BDA78012A0AD05A
:10456000022AF7D1D87B10B3012833D00228F1D129
:104570000122DA70F8BD19491A71082201F11004FC
:104580008A60802600220A252520C8730A610E73DE
:104590008D730426072503200221114F6260A2605B
:1045A000E2609E701D70D873D9709F60F8BD0C4991
:1045B0000C4A0C7891F801E08F78CE788D79D47020
:1045C000CC7982F802E0012157701670557214728E
:1045D000D970F8BDD870F8BDE0F10020F0F10020EE
:1045E000C8E60020C8E80020F8B501F061F808B975
:1045F0000320F8BD1A4BDA78012A0BD0022AF7D132
:10460000D87B18BB174A184C92780121D209227323
:10461000D970F8BD15491A71802400220A261A257E
:104620000A610C738E733F240526CD734A610725FA
:104630008A61CA61032002220A4F8C604C74CC74D8
:104640009E701D70D873DA709F60F8BD012804D089
:104650000228CDD10122DA70F8BDD870F8BD00BFB4
:10466000E0F10020C8E60020C8E80020F0F10020BA
:10467000F8B501F01DF808B90320F8BD1E4BDA7833
:10468000012A0AD0022AF7D1D87B28B3012830D0DA
:104690000228F1D10122DA70F8BD18491A7180257B
:1046A00000220A200A619F780D7388733F2503203A
:1046B0004A618A61CA6106260A7407240222DFF869
:1046C00040E08D60CD74C873D8735F709E701C70AD
:1046D000DA70C3F808E0F8BD09490A4A0F784E7845
:1046E0008D78CC78D7710121967155711471D9707C
:1046F000F8BDD870F8BD00BFE0F10020F0F1002057
:10470000C8E60020C8E80020F0B585B00D4601924B
:104710001C4600F0CDFF10B9032005B0F0BD1D4AC6
:10472000D17801290AD00229F6D1D07B18B101280D
:104730002CD00228F0D10123D370EEE7164B117173
:104740000A2199732A219DF80660D9730021196105
:104750009DF807709DF805E095609E74650A9DF8C8
:104760000460596103209C6019735F740724C5F3CA
:1047700007279961D961022183F813E0DD759F75E0
:104780001E751470D073D17005B0F0BDD0700320C9
:10479000C3E700BFE0F10020F0F100202DE9F04375
:1047A0002E4E85B003240192894698463470054602
:1047B00000F07EFF90B12A4FFB78012B12D0022B24
:1047C0000CD1FC7B002C3BD0012C40D0022C05D11D
:1047D000012334702046FB7001E0FC70307805B096
:1047E000BDE8F0831F4A347020463B71FC730A23F6
:1047F000282480269373D47300239DF80540136109
:104800004FEA58259DF807E01673D4749DF80660AA
:104810009DF80440536196749361C5F30726D361F4
:1048200007210223C7F80890C2F8088082F811E037
:10483000D575967514753970FB7005B0BDE8F083B9
:10484000284600F035FF0028C2D1FC7BBCE7284693
:1048500000F02EFF0028C0D1FC7BB7E768010020E4
:10486000E0F10020F0F10020364B37481A680021B3
:1048700042F001021A6099601A6822F0847222F4F0
:1048800080321A6058601A6882B022F480221A605E
:10489000D960009101911A6842F480321A601A4678
:1048A00003E0009BB3F5A06F09D0136803F4003355
:1048B0000193009B01330093019B002BF1D0214B0E
:1048C0001B6813F4003318BF01230193019B012BD4
:1048D00005D01E4B4FF000629A6002B07047194B32
:1048E0001B491A6C1B4842F080521A640A6842F451
:1048F00080420A609A689A609A6842F400429A601C
:104900009A6842F4A0529A6058601A6842F0807225
:104910001A601A4611680B4B8901FBD50E4A40F20A
:10492000056111609A6822F003029A609A6842F069
:1049300002029A601A46936803F00C03082BFAD11E
:10494000C7E700BF003802401030002400ED00E04F
:104950000070004008544007003C0240034BD86000
:1049600059601A6842F001021A607047B86002404C
:1049700008B5124B5B681B0112D44FF01051104860
:1049800000F04AF800B908BD4FF010510C4800F093
:104990006BF84FF010510A48BDE8084000F022B80B
:1049A0004FF02051064800F05FF84FF020510448C6
:1049B00000F018F8034B01221A7008BD0060024095
:1049C000B860024080010020044A05491368002BAA
:1049D00008BF0B461844106018467047FC0D0020B5
:1049E00014F2002010B4094B094C0A4AA04294BFAB
:1049F0001846104611F0005F21F0F02121F08211DD
:104A000014BFC160816010BC704700BF00600240ED
:104A10000F6402400064024070B4104A104E114C02
:104A200021F0F02323F0C315B04298BF14468DB196
:104A3000006800F01E0000EAD12289004CBF6068C7
:104A4000206823F08213184002D0101C18BF0120E8
:104A500070BC7047406900F08002EEE700600240E1
:104A60000F6402400064024010B4094B094C0A4A2A
:104A7000A04294BF1846104611F0005F21F0F021CB
:104A800021F0821114BFC160816010BC704700BF6B
:104A9000006002400F640240006402400349044B7E
:104AA0000220002208701A70704700BF84F00020B6
:104AB000000E0020704700BF704700BF704700BF66
:104AC000704700BF014B03221A70704784F000202A
:104AD00001207047014B00221A70704784F00020BB
:104AE000014B00221A707047000E0020074B1A7805
:104AF00052B9074A0749107B012290421A7008BF39
:104B000004230A7008BF0B7000207047000E0020BD
:104B1000C8E8002084F00020704700BF704700BF45
:104B2000704700BF704700BF014B00221A707047EA
:104B3000000E00200349044B0220002208701A7066
:104B4000704700BF84F00020000E00200349044B92
:104B50000220002208701A70704700BF84F0002005
:104B6000000E00200349044B0220002208701A7036
:104B7000704700BF84F00020000E002030B50121F6
:104B800085B00520FDF712F901214FF40040FDF733
:104B900029F9002402254FF4A453694624480093C0
:104BA0008DF804508DF805508DF806408DF80740BB
:104BB000FFF720FC4FF4004302A91E4802938DF832
:104BC0000C508DF80E408DF80F408DF80D50FFF70A
:104BD00011FC06220F211748FFF76EFC0622072161
:104BE0001348FFF769FC06220A211148FFF764FC0D
:104BF00006220C210E48FFF75FFC0F4B0F4A9C83E7
:104C000093680F4923F400039360C2F8841013687B
:104C100043F08063136013681B01FCD5064B40F220
:104C200006214FF4606219849A8305B030BD00BF3D
:104C30000008024000000240003C004000380240F2
:104C4000C043002070B50121184C82B00846FDF722
:104C5000ADF84FF4D05600232046022269460325C2
:104C60008DF806308DF807308DF8042000968DF809
:104C70000550FFF7BFFB20460A220921FFF71CFC65
:104C800020460A220B21FFF717FC0A2220460C219E
:104C9000FFF712FC01214FF48040FDF7B1F801212C
:104CA0008020FDF791F802B070BD00BF0000024007
:104CB00000B54FF4C06083B001F04EF801234322E9
:104CC00001A88DF804208DF805308DF806308DF898
:104CD000073001F04BF803B05DF804FB21B14FF44D
:104CE00080710448FFF7E0BB4FF480710148FFF783
:104CF000D9BB00BF0000024030B5012185B0084695
:104D0000FDF754F80024022201234FF4807502A914
:104D10000C488DF80D208DF80C3002958DF80E4062
:104D20008DF80F40FFF766FB29460648FFF7BAFBF0
:104D3000054A0194019B013393420193FAD905B0CE
:104D400030BD00BF00000240DB503400C0EB00105B
:104D5000084BC200A3FB0213D21A82B003EB52022B
:104D6000002392080193019B01339A420193FAD2E6
:104D700002B0704725499224094A0A4B02FB00F011
:104D8000A3FB0023C21A82B003EB52020023920855
:104D90000193019B01339A420193FAD202B070470A
:104DA000C0D4010025499224014801F053BB00BF43
:104DB000D8EA002030B50D4D0D4B0E4A0E480F4C71
:104DC00083B00221009329700D4B0121FEF7EAFF09
:104DD0000123084908482370FFF70AF9237813B91B
:104DE000052003B030BD287803B030BD84F000202A
:104DF0008401002088F00020D8EA0020010E002065
:104E000030010020034B1B7803B970470249034867
:104E1000FFF7EEB8010E002088F00020D8EA00204D
:104E200010B5234CFBF7CEFE012220212148FFF7CD
:104E30003DFB002220468821FBF7ECFE2046142192
:104E4000FBF720FF2046FBF72BFF0022204688219E
:104E5000FBF7E0FE2046B421FBF714FF2046FBF7EA
:104E60001FFF002220468821FBF7D4FE2046582150
:104E7000FBF708FF2046FBF713FF0022204688219E
:104E8000FBF7C8FE20466821FBF7FCFE2046FBF737
:104E900007FF204600228821FBF7BCFE20467D212B
:104EA000FBF7F0FE2046BDE81040FBF7F9BE00BF5F
:104EB000005400400004024010B589B903783F2B2C
:104EC00013D80446002288210E48FBF7A3FE217860
:104ED0000C48FBF7D7FE0B48BDE81040FBF7E0BEDF
:104EE000012903D0022907D010BD10BD0378002B83
:104EF000FAD0013B0370E4E703783E2BF4D801338A
:104F00000370DEE70054004010B5B9B903780F2BE9
:104F100019D8072B02D9C3F11703DCB2002288216C
:104F20001048FBF777FE44F060010E48C9B2FBF76A
:104F3000A9FE0C48BDE81040FBF7B2BE012903D022
:104F4000022908D010BD10BD03780E2BFAD801330A
:104F5000DBB20370DDE70378002BF3D0013BDBB25B
:104F60000370D6E70054004010B5B9B903780F2B91
:104F700019D8072B02D9C3F11703DCB2002288210C
:104F80001048FBF747FE44F070010E48C9B2FBF72A
:104F900079FE0C48BDE81040FBF782BE012903D022
:104FA000022908D010BD10BD03780E2BFAD80133AA
:104FB000DBB20370DDE70378002BF3D0013BDBB2FB
:104FC0000370D6E700540040F0B5D0F800E0BEF121
:104FD000000F33D09EF80070202F09D93A2F39D016
:104FE000724601E03A2B07D012F8013F202BF9D886
:104FF0001A4B1F783846F0BD303F092F03D80EF109
:1050000001039A4221D0561CDFF854C000275CF8F7
:10501000044F714601E093420DD111F8013B14F8A1
:10502000012BA3F16105192D9CBF203BDBB2002AA7
:10503000F1D1B14206D00137092FE8D14FF0FF3747
:105040003846F0BD01603846F0BD092FF6D0013278
:105050000260CFE70EF10106D6E700BF040E002084
:105060000CC300082DE9F041056B8D4223D0037974
:1050700004460E4600F134071BB301232A46394685
:105080004078FCF7F7FCC8B9636AE2692071EB1A53
:10509000934216D294F80380B8F1010F4FF0010348
:1050A00039460ED9E269607815442A46FCF7E2FCDD
:1050B00008F1FF38F0E70020BDE8F0810120BDE8ED
:1050C000F0813246394601236078FCF7BBFC0028AA
:1050D00018BF4FF0FF36266314BF01200020BDE843
:1050E000F08100BF2DE9F0410746002384B0084657
:1050F0003B601446FFF768FF061E19DBDFF8D0831C
:1051000008EB86035D68BDB13D602B7823B16878FC
:10511000FCF78CFCC70713D5F0B2002368702B7026
:10512000FCF778FCC60714D5032004B0BDE8F08175
:105130000B2004B0BDE8F0810C2004B0BDE8F08184
:105140003CB300F0040303F0FF00002BEDD00A2075
:10515000EBE70CB14107FAD400224FF0FF3405F120
:1051600034062A712C63314601236878FCF76AFC07
:1051700060B995F8332295F83232286343EA022366
:105180004AF65522934206D00D20CEE72C6301202B
:10519000CBE72046C9E7D5F86A20CB4B22F07F4108
:1051A000994200F01381D5F8861021F07F41994291
:1051B00000F00C8195F8F601002800F04181D5F847
:1051C000FA4195F806320BB1D5F80A3295F8161265
:1051D000019309B1D5F81A1295F8263202910BB154
:1051E000D5F82A320393DCB9019C64BB029C002CE5
:1051F00039D1039C002CC7D04FF0FF370023BC42AD
:105200002B712F6300F0018131460123224668781B
:10521000FCF718FC002800F0F7802F63012084E7DA
:105220004FF0FF370023BC422B712F6300F0188131
:105230000123224631466878FCF704FC002800F080
:1052400001812F63D0E74FF0FF370023BC422B7161
:105250002F631CD00123224631466878FCF7F2FB0D
:10526000A0B12F63C2E74FF0FF370023BC422B7180
:105270002F6300F0AE800123224631466878FCF7A8
:10528000E1FB002800F0A4802F63B2E72C6395F8BF
:10529000331295F832324AF6552243EA01239342FB
:1052A000A4D1D5F86A30884A23F07F43934205D0D1
:1052B000D5F8863023F07F43934297D195F840206C
:1052C00095F83F3043EA0223B3F5007F7FF45CAFEB
:1052D00095F84B1095F84A3095F84400E87053EA79
:1052E000012318BF194600F1FF3308BFA96DE9611A
:1052F000012B3FF649AF95F84130AB70002B3FF4DE
:1053000043AF5A1E1A427FF43FAF95F8452095F8F7
:10531000466042EA062632072E817FF435AF95F8C3
:10532000487095F8472095F843E052EA072295F82F
:10533000427008BF6A6D57EA0E273FF425AF01FBA4
:1053400000F007EB161E86447245FFF41DAFCEEB4E
:105350000202B2FBF3F3002B3FF416AF40F6F572F6
:10536000934240F2D3804FF6F572934240F2B280FE
:10537000023327440EEB0402AB616F62EA622C62D7
:10538000002E7FF401AF9B0003F2FF132A6EAA6286
:10539000B1EB532FFFF4F8AE95F8651095F8643033
:1053A00043EA01234FF0FF328021012B2A61EA609A
:1053B000697163D00322B8F828302A7001339BB298
:1053C0000020A8F82830EB806861AEE6044675E757
:1053D0002C6395F8331295F832324AF6552243EA97
:1053E000012393427FF405AFD5F86A30364A23F0A3
:1053F0007F4393423FF462AFD5F8863023F07F437A
:1054000093427FF4F6AE59E72C6395F8331295F882
:1054100032324AF6552243EA012393427FF4B4AE76
:10542000D5F86A30284A23F07F4393423FF446AFD1
:10543000D5F8863023F07F4393427FF4A5AE3DE755
:105440000446BEE695F8332295F832322C6343EADF
:1054500002234AF6552293427FF4C6AED5F86A205D
:10546000194922F07F428A423FF428AFD5F88630AE
:1054700023F07F438B427FF4B7AE1FE7611C2846C1
:10548000FFF7F0FD002895D195F8332295F83232D8
:105490006E7143EA02234AF6552293428AD10B4B9E
:1054A0006A6B9A4286D103F1FF5303F50053D5F896
:1054B000182220339A427FF47DAFD5F81C22D5F80C
:1054C00020322A61EB6075E7464154005252614137
:1054D000040E0020023327440EEB0402AB616F621E
:1054E000EA622C62002E3FF44FAE5B0003F2FF1322
:1054F0000744B1EB532FAF62FFF446AE4FF0FF33DA
:1055000080226A712B61EB60022254E70233274448
:105510000EEB0402AB616F62EA622C62002E3FF474
:1055200033AE03F0010202F2FF1203EB430302EB7E
:1055300053030744B1EB532FAF62FFF425AE4FF096
:10554000FF3380226A712B61EB60012233E700BFD9
:1055500010B584B004AB019043F8041D18460091C7
:105560001446FFF731FD002810DB0F4B80001A189E
:1055700052680AB100211170019A034482B10020DF
:10558000012C5A60107004D004B010BD0B2004B080
:1055900010BD0246694601A8FFF7A4FD04B010BD86
:1055A00010465A60F0E700BF040E002038B5002511
:1055B0000823C0F810530446C0F81453C0F85053E1
:1055C00080F88C53C0F81853C0F8545380F88D53AA
:1055D000C0F81C53C0F8585380F88E53C0F82053BD
:1055E000C0F85C5380F88F53C0F82453C0F8605360
:1055F00080F89053C0F82853C0F8645380F8915352
:10560000C0F82C53C0F8685380F89253C0F8305358
:10561000C0F86C5380F89353C0F83453C0F87053FB
:1056200080F89453C0F83853C0F8745380F89553F9
:10563000C0F83C53C0F87853A0F8B23380F89653C2
:10564000C0F84053C0F87C5380F89753C0F84453D7
:10565000C0F8805380F89853C0F84853C0F884537A
:1056600080F89953C0F84C53C0F8885380F89A5387
:10567000FAF7B2FD2046FAF7F5FF2046FAF74EFF9B
:1056800001212046FAF7F6FF2046FBF715F82046E1
:10569000FAF7E0FF284638BDD0F8CC301868C0F3E0
:1056A0004140704708B5FBF731F9002008BD00BF45
:1056B000D0F81003704700BF4369986880B2704704
:1056C000014491F89B037047D43150F82100704792
:1056D00010B500EB41134418002284F89B23C3F853
:1056E000C023FBF7A7F910BD10B5FFF7E1FF48B1E4
:1056F000074B0849084A094C1960002001215C60E9
:105700005873D170064A0749002313700B6010BD0F
:10571000F0F1002055534243E0F10020504030208A
:10572000A60D0020300E00202DE9F0410E46054662
:10573000FFF7BEFFE0B1AB4C2379013B072B17D835
:10574000DFE803F01825394F86647504A64A314610
:10575000537892782846FCF733F9A44A136801334A
:10576000042B136070D8002800F0A38004286BD0AD
:10577000BDE8F0819C4B9E495B781F22284600F0D3
:10578000B7FA0122022362712371BDE8F081964BC2
:1057900028465978FFF794FF012800F08E800228F0
:1057A00000F087800428E3D1904A01210823117476
:1057B0002371BDE8F0818C4F28463978FFF780FFD0
:1057C00001285FD06379874A032B5BD10428CFD1AE
:1057D0008648002407210523047411715371BDE824
:1057E000F081814E28467178FFF76AFF01287AD050
:1057F000022800F09F800428BAD17C4901200822A9
:105800000523087422716371BDE8F081764E284645
:105810003178FFF755FF012800F0A7800428A7D1B1
:10582000724A0021072311742371BDE8F0816E4A8A
:1058300031461378D2782846FCF7C2F86B4A1368D1
:105840000133042B13602ED90223E373BDE8F081EA
:10585000684E654BA6603F27284600251B78C6F892
:105860000550C6F809507573C6F8015035703146B9
:105870003A460525A781657100F054FA0623237185
:10588000BDE8F081594EBA887068DFF85C81002766
:1058900003238242376063713CD3002857D105232C
:1058A0002371BDE8F08100287FF460AF137C022BE8
:1058B00057D063792371BDE8F0814D494B4B8A681D
:1058C0004848002602251E606571002AE7D00C7B3F
:1058D00081685A609960D96023064CBF0323042372
:1058E0000371BDE8F081414FF28878684FF00008FD
:1058F00004238242C7F80080637143D30028CED0CE
:1059000082B27378B968284600F0F2F9C7F80480CB
:10591000BDE8F08198F80030B168284600F002FA3E
:10592000B8F804307268B168D21A0B447260B36080
:10593000BDE8F0812D4B9968DB6899424AD0F28826
:1059400073782846891ABDE8F04100F0D1B982B2D7
:1059500098F80030B168284600F0E4F97760BDE8B7
:10596000F08108232371BDE8F081A3781F4A2370DA
:1059700000210523284611606371FFF799FE80B965
:10598000012362E77378B968284600F0B1F9BB6873
:10599000F1887A68FB60521A0B44BB607A60BDE8FC
:1059A000F08131782846FFF78FFE0D287FF44CAF49
:1059B000104B114A196891427FF446AF0C4A59685E
:1059C00052689142DCD11B7B002B3FF43EAF022B8F
:1059D000D6D13AE728467378F288BDE8F04100F066
:1059E00087B900BFE0F10020ACE40020300E0020B9
:1059F000F0F10020D0F1002055534253F0B44A8812
:105A00000F888D88CC880B894E893A432A432243DC
:105A10008D89CC89098A1A43324303882A43224359
:105A200003F4415313439BB20380838B23F400633D
:105A30001B041B0C8383F0BC0182704700230722E8
:105A40000282038043808380C380038143818381FA
:105A5000C3817047F0B5054685B068460E46AC88F0
:105A6000FCF758F9029B32483268DFF8CCE0A0FB23
:105A7000031024F03F042404800C240C87B23C4320
:105A8000AC80298821F001010904090C72452980A4
:105A900024D85200B3FBF2F39BB2032B07F10107AA
:105AA00098BF04232F84AB832888B7887289B48970
:105AB000318980B240F0010028802B8823F4816373
:105AC00023F002031B043A431B0C134344EA010274
:105AD0009BB292B22B802A8105B0F0BDF4884BF6C0
