:020000040800F2
:1000000050570120516900084D6900084D690008EA
:100010004D6900084D6900084D69000800000000A6
:100020000000000000000000000000004D69000812
:100030004D690008000000004D690008098E0008A5
:100040004D6900084D6900084D6900084D690008B8
:100050004D6900084D69000821380008393800084A
:100060005138000869380008813800084D690008D7
:100070004D6900084D6900084D6900084D69000888
:100080004D6900084D6900084D6900084D69000878
:100090004D6900084D6900084D690008993800084D
:1000A0004D6900084D6900084D6900084D69000858
:1000B000B19100084D690008F19100084D690008F0
:1000C0004D6900084D6900084D6900084D69000838
:1000D0004D690008ED7A0008297B0008757B00084F
:1000E000FD3800084D6900084D6900084D69000899
:1000F0004D6900084D6900084D6900089DA500087C
:100100004D6900084D6900084D6900084D690008F7
:10011000C17B0008FD7B00084D6900084D6900089F
:100120004D6900084D6900084D6900084D690008D7
:100130004D6900084D6900084D6900084D690008C7
:100140004D6900084D6900084D69000815AA0008AE
:100150004D6900084D6900084D690008397C0008A8
:100160004D6900084D6900084D6900084D69000897
:100170004D6900084D6900084D6900084D69000887
:100180004D6900084D69000830B4C4786CB900EBC3
:10019000820003339B10D0F8D05006D022460132A3
:1001A00051F8040B28609342F9D1002030BC70470D
:1001B0000332921030B4D0F8D05009D00846002352
:1001C00001332C6840F8044B9A42F9D101EB8201CB
:1001D000084630BC704700BFF0B501244022002320
:1001E000A14284708280C37000F06681002900F013
:1001F00050814278C3604FF4006101610678002AA3
:1002000000F06D814FF460674FF488644FF48061B3
:1002100003F5106E03F53065012AC0F818E0456556
:100220007ED003F5126E03F53265022AC0F81CE099
:10023000856575D003F5146E03F53465032AC0F89F
:1002400020E0C5656CD003F5166E03F53665042A0B
:10025000C0F824E0056663D003F5186E03F5386531
:10026000052AC0F828E045665AD003F51A6E03F552
:100270003A65062AC0F82CE0856651D003F51C6E5D
:1002800003F53C65072AC0F830E0C56648D003F5A1
:100290001E6E03F53E65082AC0F834E005673FD0BE
:1002A00003F5206E03F54065092AC0F838E045677C
:1002B00036D003F5226E03F542650A2AC0F83CE009
:1002C00085672DD003F5246E03F544650B2AC0F82D
:1002D00040E0C56724D003F5266E03F546650C2A79
:1002E000C0F844E0C0F880501AD003F5286E03F53A
:1002F00048650D2AC0F848E0C0F8845010D003F5D6
:100300002A6E03F54A650E2AC0F84CE0C0F8885002
:1003100006D003F52C6503F54C620565C0F88C200A
:100320004161C0F8CC40002E00F0AF8003F5A06220
:10033000012EC0F8902000F0DA8003F5A462022EAE
:10034000C0F894204BD003F5A862032EC0F8982083
:1003500045D003F5AC62042EC0F89C203FD003F5D5
:10036000B062052EC0F8A02039D003F5B462062E85
:10037000C0F8A42033D003F5B862072EC0F8A82037
:100380002DD003F5BC62082EC0F8AC2027D003F5B1
:10039000C062092EC0F8B02021D003F5C4620A2E35
:1003A000C0F8B4201BD003F5C8620B2EC0F8B820EB
:1003B00015D003F5CC620C2EC0F8BC200FD003F58D
:1003C000D0620D2EC0F8C02009D003F5D4620E2EE5
:1003D000C0F8C42003D003F5D862C0F8C82003F5E4
:1003E000805103F50052022EC0F8D010C0F8D4207E
:1003F0004BD003F54052032EC0F8D82045D003F56A
:100400008042042EC0F8DC203FD003F5A042052E28
:10041000C0F8E02039D003F5C042062EC0F8E42031
:1004200033D003F5E042072EC0F8E8202DD003F5C5
:100430000042082EC0F8EC2027D003F51042092E08
:10044000C0F8F02021D003F520420A2EC0F8F42095
:100450001BD003F530420B2EC0F8F82015D003F561
:1004600040420C2EC0F8FC200FD003F550420D2E58
:10047000C0F8002109D003F560420E2EC0F8042117
:1004800003D003F57043C0F80831C0F80C710020A8
:10049000F0BD194DC1724FF4A0610C260622C18037
:1004A000164F174C1749DFF86CE006702B46427068
:1004B000C560C0F810E0ABE64FF4A0740223082634
:1004C00004224FF0A045C172C480037206704270CE
:1004D0002B460D4F0D4C0E49DFF83CE0E8E7134684
:1004E0004FF460674FF488644FF4806118E703F5B8
:1004F0008053C0F8D030C8E700000440000E04402C
:100500004004044000040440000E00504004005029
:1005100000040050000804400008005070B5037A41
:10052000012B82B005464FF0000247D0C168484C0D
:10053000CB6843F04003CB60032001920AF03CFA01
:10054000EB681A69019206E00AF036FAEB68013CA2
:100550001A69019219D0019A002A4FF00300F3DAC8
:1005600001993B4A41F00101019101991961196911
:10057000019103E019690191013A02D00199C9077B
:10058000F8D403200AF018FAEB686A7A002A0CBF44
:100590004FF434124FF474129A6314200AF022FAC2
:1005A000EB78012B07D1EB689E68052262F34406C5
:1005B00046F020069E60002002B070BDC168437AFC
:1005C00016468A6B66F310420BB142F480128A63BE
:1005D000CB681F4C6FF386136FF396536FF3514341
:1005E0006FF3D343CB600320002300930AF0E4F9B8
:1005F000EB681A69009206E00AF0DEF9EB68013C4C
:100600001A69009218D0009A002A4FF00300F3DA1A
:1006100000990F4A41F0010100910099196119698F
:10062000009103E019690091013A02D00099C807CE
:10063000F8D403200AF0C0F9EB78012BBBD10523D5
:1006400063F34406EB6846F020069E60A8E700BF0F
:10065000400D0300C268936843F0010393600020DB
:10066000704700BFC268936823F0010393600020C5
:10067000704700BFC26808B5D36801296FF35D7386
:100680006FF39E7308D009B943F08043D3603220E2
:100690000AF0A8F9002008BD43F00053F6E700BFB8
:1006A000C368586900F00100704700BFC36858690B
:1006B0009B691840704700BFF0B5044683B00AF04C
:1006C00051F9D4F80C31626900261E60237A012B9F
:1006D000136816BF012166F3010361F30103136080
:1006E000D4F8CC2013686FF382036FF341036FF3E8
:1006F000C3036FF3451343F4807515600A200AF0B5
:1007000071F9D4F8CC306FF308251D6014200AF07D
:1007100069F9626913686FF382031360E37A012B4E
:10072000374600F0D480E16800230193019A704BB2
:1007300042F020020192019A102060F38A12019285
:10074000019A0A610A69019203E00A690192013B78
:1007500002D0019A9506F8D403200AF02DF900235F
:100760000093009AE168624B42F010020092009AF6
:100770000A610A69009203E00A690092013B02D013
:10078000009AD006F8D403200AF016F92378002B3B
:1007900069D0D4F890104FF0FF3200238A60CB600C
:1007A000217801295FD9D4F894108A60CB60217830
:1007B000022958D9D4F898108A60CB60217803298F
:1007C00051D9D4F89C108A60CB60217804294AD989
:1007D000D4F8A0108A60CB602178052943D9D4F8D9
:1007E000A4108A60CB60217806293CD9D4F8A810DF
:1007F0008A60CB602178072935D9D4F8AC108A609B
:10080000CB60217808292ED9D4F8B0108A60CB604B
:100810002378092B27D9D4F8B41000238A60CB6041
:1008200021780A291FD9D4F8B8108A60CB602178C2
:100830000B2918D9D4F8BC108A60CB6021780C2918
:1008400011D9D4F8C0108A60CB6021780D290AD95B
:10085000D4F8C4108A60CB6021780E2903D9D4F86B
:10086000C8108A60CB60012120460AF06DF8D4F8E8
:10087000CC2013686FF382036FF341036FF3C3035C
:100880006FF34513D90402D443F480531360C82096
:100890000AF0A8F8E26817484FF0FF3100236FF024
:1008A000804593615161516055619061E378916930
:1008B000002B14BF0023102343F00C5343F4001308
:1008C00043F008030B430020936103B0F0BD802385
:1008D000E022E16863F30F0662F30F07C0F26006DF
:1008E000C0F260074B628E62C1F800711CE700BF66
:1008F000400D0300000800804269136861F30103A2
:100900001360704743695869704700BF38B50546A2
:100910000A20D5F8CC2013686FF382036FF34103EC
:100920006FF3C3036FF3451343F4807414600AF04C
:1009300059F8D5F8CC306FF308241C6014200AF065
:1009400051F8012038BD00BFF0B500EB81034FF036
:10095000FF32D3F890504B01C418AA60C27894F8C3
:10096000B163012A14BF002404240022032E13D8EB
:10097000DFE806F002530247C61844F4936496F881
:10098000AE7344F00104002F44D196F8B06344F0F4
:1009900040040EB144F02004D0F814E0EC60DEF81E
:1009A0001840C768012606FA01F12143CEF8181055
:1009B000B969184441F00073BB6190F8AC7390F8CA
:1009C000AF3390F8AD6390F8AE4390F8B113B0F840
:1009D000B20367F39C52A3F1020366F3CE22B3FA8B
:1009E00083F364F3CF325B0963F3514261F39342C3
:1009F00060F30A02032908BF42F000522A60002077
:100A0000F0BDC61844F4D36496F8AE6344F0010414
:100A1000002EC1D044F48074BEE7C61844F40874B4
:100A200096F8AE6344F00104002EB5D044F4C074CF
:100A3000B2E700BFF0B54D01461987B0D6F8BC3318
:100A4000002483B1B6F8B2735A1E3A44B2FBF7F2EF
:100A500092B2B2F5807F5CD93B024FF4807EC6F83B
:100A6000BC33724602E04FF0010E7246461996F80A
:100A7000AE732FB1B6F8B23302FB03F3C6F8BC3342
:100A800001F1150700EB471200EB810192F814C148
:100A9000D1F8906063F312046EF3DC446CF35E747F
:100AA0003461C478D0F814E0012C04BFD2F81821C6
:100AB00072613268DEF8084004F0010484F0010439
:100AC00064F35D7242F000426FF39E723260C2784E
:100AD000E2B9054495F8AE23C2B9BBB195F8B1238C
:100AE000032A22D8DFE802F018021802DEF81040CC
:100AF0000194DA1CA4B2C2F38F02944215D2C468E6
:100B0000A26942F08062A261C27872B1002007B08F
:100B1000F0BDC2F3090EA9E7C568EC6A0394DA1CBC
:100B2000A4B2C2F38F02944211D39BB200EB4710E0
:100B300003339B10D0F81801D1F8D040E6D0002242
:100B4000013250F8041B21609342F9D1DEE7AA6913
:100B500042F02002AA61C278002AD7D1E5E700BF9F
:100B600000EB810186B0D1F89020136843F0404338
:100B700059030AD541690969C1F3074109B96FF3FE
:100B8000DF730020136006B07047C168C96AC1F303
:100B900007410029F3D00020136006B0704700BF62
:100BA00000EB81014FF00043D1F89020012161F367
:100BB000DC4313611368002043F0004360F39E732D
:100BC000136070472DE9F04FDFF8B4814FEAA30CB2
:100BD00003F0030408EB8403BCF11F0F89B008EB9A
:100BE000841BA8BF4FF01F0CBCF11B0FD3F80031C2
:100BF000DBF804400193D8BF0CF10305DBF80C309F
:100C0000CDF808B00646DBF80800D4BF25EAE57544
:100C10001F2540FA05F72C412B410020043905948B
:100C2000069707930490E3460EE008AC04EB8505B5
:100C300055F8104C002B40EA0400B8BF6442013A5A
:100C400041F8044F00F0828056F8043B23F0004541
:100C5000032DEADD0F2D0BDC029CBBF1000F54F8D5
:100C60002540BABFCBF10005AC4044FA0BF4E1E7F4
:100C70003F2D0CDC08EB8505019CD5F8D05085FB99
:100C80000474ABF10305002D57DB2C41D2E76C0453
:100C9000B4F1006F5DDA04276C0500970625B4F106
:100CA000005FBCBFA4000095B4F1804F03DA009D43
:100CB0000135640000952A4F2A4DDFF8C8C0DFF8DF
:100CC000C890BC42284FD8BF3D46284F0395D8BF97
:100CD000BA46274D274FCCBFAA46BE4605F1F95567
:100CE000254F05F5CE2505F29B15D8BF3D46234F70
:100CF000CABFAE46B9466546A44689FB0C7C65442E
:100D0000A14685FB09C9CE4425468EFB05C5AA44EC
:100D10008AFB0454009D08EB8507039D2C44D7F8FB
:100D2000D05184FB05E5ED00019C85FB04E4D7F878
:100D3000F051C5EB0B05002DA7DA6D426FF00047AF
:100D400047FA05FE744508DD3C4673E709B0BDE887
:100D5000F08F002702250097A1E7AC406AE700BFAB
:100D60009979825AB477F5FE591858FF8D496C234A
:100D7000F0CEC2271BAA575928482EB0A9BDA029DA
:100D8000586B0108A4F633D3632185102DE9F04F89
:100D900091B01A9C069064690791022C05920A93FF
:100DA00000F0FB800D2303934FF016091A9B0A9A5B
:100DB0001B6C116A1A9A01335B00002001934B08E7
:100DC00092680D9000D10232C2F1D20300931B9BB6
:100DD000CDF810904FF0000A5F1EDFF82C820297CA
:100DE0005546D346DDF8289002E0049B9E422EDA59
:100DF000D9F8342002991A9B32F91540D3F83CE017
:100E000011F8013F029102EB45020699B2F9022066
:100E100001EB8B01141B6E1C0846224608EB060CE6
:100E2000BEF1000F01D01CF801EC019F7344BE46D7
:100E3000009F0EFB0373FFF7C5FEA3444AEA000AB6
:100E400000B10D95059B1B689B453546CDDB1C9A73
:100E50000D9B536100231360D36093605360136153
:100E6000039B0B2B6FDC03990D914B005A180E91CD
:100E70000F911B99CDF808B017328A1804921A9A6C
:100E800050462432DDF810A00B9259460A9ADDF83C
:100E90002CB0526BDDF81C801344069AB3F9306015
:100EA000B3F92E30F61A039B02EB81040133A146FD
:100EB0000894B50009930027044600995BF8043FA5
:100EC0001AF8012B01EBC3030199484601FB0233D9
:100ED00041463246FFF776FEA9440443A84418B1C0
:100EE0000DAA039B42F827300137032FE5D1029A60
:100EF00006EB46031A44002E20460292089C12DD9F
:100F0000079A02EBC60615443146131F53F8042F07
:100F1000226055F8042B626056F8042BA260A942A7
:100F200004F10C04F2D1059B029A1B689A4231DA53
:100F3000099B049A039303320D2B049209D05B00A2
:100F400002999246A2E7BAFA8AF0013811B0BDE8D8
:100F5000F08FDDF808B08246059B0E99C3F800B00B
:100F60001A9B1C9C98690D9B0F9A636000280CBF0C
:100F7000012002208B42B8BF0B469342B8BF1346F4
:100F80002060BAFA8AF00138A1602361E26011B0F2
:100F9000BDE8F08F93468246DEE71A9B9B69C3B992
:100FA0001A9A106C0A9A116A1A9A01304000491074
:100FB0009268019019D01C9903939B460B604B617A
:100FC000CB608B604B600B61C2F1D2030093DA46B9
:100FD00049E70A9B1B78002B4FF0030314BF4FF027
:100FE00006094FF008090393E0E61C9B0391196082
:100FF0005961D960996059601961C2F1D0038B467B
:1010000000938A462FE700BF686D01082DE9F04F75
:1010100099B0DDF888B0DDF88CA0002800F0CF830F
:101020000468002C00F0CB8345680095002D00F08B
:10103000C6838668002E00F0C283156808902B4492
:10104000DD1D48BF03F10E051746079206910A46BB
:101050000CA8E91000F0ECFD3968002940F0AE81E1
:101060002378002B40F0D5804FEACB034FEACA0229
:1010700001935B4402921B01524403EBC203009AAA
:101080001344CC4A596BD86B12F8115002EB41044F
:101090000228647800F02A82BBF1000F00F0B881CA
:1010A0004FEA0A1308330099CF5801EB0308002FC9
:1010B00000F00B834FEA4A13CAEB030204934FEA92
:1010C0004B1352000393CBEB0303101D9B001F181F
:1010D00013449842C8BF974206EB030106EB020E89
:1010E00000F370834EEA0100800740F06B83B25832
:1010F000F2509EF804300B719EF805304B71D8F811
:101100000430002B00F0CA82039A049BCBEB02014F
:10111000CAEB03035B00890003F10A055A18981D06
:1011200001EB050C02F1060E7545C8BF844506EBC0
:10113000000700F39C83014431440F43BF0740F094
:10114000968332443158C2F8061033449B7A937226
:10115000D8F80830002B00F0ED82039A049BCBEB0B
:101160000201CAEB03035B00890003F10F055A1863
:1011700003F10B0001EB050C02F10B0E7545C8BF26
:10118000844506EB000700F35C83014431440F43C0
:10119000BD0740F0568332443158C2F80B10334437
:1011A000DB7BD373D8F80C30002B00F0AD82039AB0
:1011B000049BCBEB0201CAEB03035B00890003F144
:1011C00014045A1803F1100004EB010E02F1100789
:1011D000BC42C8BF864506EB000500F30B83014403
:1011E00031440D43A90740F0058332443158116161
:1011F00033441B7D1375039B049ACBEB03039B00C5
:10120000CAEB020203EB42031E4400237375B3755D
:10121000AFE04FEACB034FEACA0201935B4402926C
:101220001B015244009903EBC203226A0B4412F0E3
:1012300001025B6B03D0BAF1010F00F01F81B3F51F
:10124000C87F80F2BF805C48191180FB0140DC1729
:10125000C4EB600404EB8400091A4FF0000EC3F3E2
:10126000810003F003031191109412901393F4463C
:101270007146019B02985B4450441B0103EBC00381
:1012800000980344DD6B022D00F02A81002001EB61
:101290004101484B014403EB810393F8201093F87C
:1012A0002100149193F8221093F82330179310AB78
:1012B000159016910B931AB1BAF1010F00F0F58059
:1012C00014AB0593019B029A5B4452441B0103EB50
:1012D000C203009A1344022DC3F864C000F0798160
:1012E0004FEA4B134FEA4A120393CBEB03030492EA
:1012F0009B00CAEB020203EB420309934FF0000884
:10130000013BCDF888B0DDF82CB00A934746B146D2
:10131000CDF88CA0059B5BF8275053F82760002E72
:1013200012DD099B0A9A434402EB0804013B344452
:1013300009EB030A4C4429460CA800F07FFC0AF88C
:10134000010FA245F7D1B0440137042FE2D1DDF8F7
:1013500088B0039BDDF88CA0049ACBEB03039B00C1
:10136000CAEB020203EB42034E461E440023B37550
:101370007375019B029A0899079C5B441B015244B8
:1013800003EBC202009B13441A460AEB4B0303F51E
:10139000FC73926A41F823200CA80699226800F099
:1013A000B7FC2368184400F007032360C01019B08D
:1013B000BDE8F08F806D0108676666660CA800F0D6
:1013C0003DFC4DE6B3F5FA7F41DB0199CC4C594425
:1013D00008010299A3F5FA73514400EBC10184FBA3
:1013E000030400980144A4EBE37404EB4405086C87
:1013F000109400215B1B119313911291002800F0AF
:10140000BE818E46129311944FF0010C022130E7F9
:10141000CAEB4A177F0007F1FF3907F10A08B14408
:10142000B04429460CA800F009FC09F8010FC14599
:10143000F7D107F10B05153735443E4421460CA87A
:1014400000F0FCFB05F8010BB542F7D191E7A3F5DD
:10145000C870AC49851081FB0531C417C4EB610429
:1014600004EB8403002100F00300EB1A8E46139175
:101470008C461094129011930121FAE65910B32969
:1014800003F0010E40F38081F32900F3C981B439E0
:101490000C11C1F38100002301F00301129110949B
:1014A000119013939C460421E3E61F460FCF14AF1F
:1014B00006F1FC080597059FC6F8FC00C8F8041063
:1014C000C8F80820C8F80C300FCFC6F8F8E0C6F806
:1014D0000C01C6F81011C6F81421C6F81831F1E64F
:1014E0001B6C002B0CBF01200220D0E61B6C002BD4
:1014F00000F03E814FEA4B124FEA4A131146049323
:101500000392CAEB0302CBEB010352009B0003EBF7
:101510000208073208F1FF381344B044F71829468F
:101520000CA800F08BFB08F8010FB845F7D1032396
:10153000049ACAEB0201039ACBEB02024900920023
:1015400002EB010803EB4303123103EB08090A44E1
:10155000B144B71829460CA800F070FB294689F859
:1015600017000CA800F06AFB294689F818000CA89F
:1015700000F064FB09F1030989F816004F45E9D131
:10158000B04421460CA800F059FB214688F82900F8
:101590000CA800F053FB214688F82A000CA800F0A4
:1015A0004DFB08F1030888F828004745E9D1039B63
:1015B000049ACBEB03039B00CAEB020203EB42034A
:1015C0001E44002386F83D3086F83C3086F83B30D8
:1015D000CFE61B6C002B00F0C3804FEA4B134FEAA1
:1015E0004A120393CBEB03039B00CAEB020503EB08
:1015F0004505013D04923544002721460CA800F022
:101600001DFB0137062F05F8010FF6D1039A4FF0A5
:10161000010803230B980499CDF888B04FEA880895
:101620004044CBEB020281460598CDF88CA0920095
:10163000CAEB0101404402EB41028046934658F850
:10164000047B59F8044B002F20DD1F4407EB4705AE
:1016500003EB43035B445D4406EB030A3544214638
:101660000CA800F0EBFA21468AF817000CA800F04D
:10167000E5FA21468AF818000CA800F0DFFA0AF112
:10168000030A8AF81600AA45E9D13B4614AA9145F7
:10169000D5D1DDF888B0DDF88CA088E7049B039AEB
:1016A000CAEB03035B00CBEB020903EB890909F1E9
:1016B0000509B144062729460CA800F0BFFA0137F6
:1016C0000B2F09F8010FF6D142E54FEA4B134FEA11
:1016D0004A120393CBEB03039B00CAEB020903EB13
:1016E000490909F1FF390492B14429460CA800F0D8
:1016F000A5FA0137062F09F8010FF6D1FFE400BF64
:101700005655555567666666049B039ACAEB0303F4
:101710005B00CBEB020703EB87070F37374410253D
:1017200021460CA800F08AFA0135152D07F8010FA3
:10173000F6D160E5049B039ACAEB03035B00CBEB95
:10174000020703EB87070A3737440B2521460CA80D
:1017500000F074FA0135102D07F8010FF6D121E5DC
:101760004FEA4A1204924FEA4B129846039251E70D
:101770004FEA4A1204924FEA4B120392D8E6864689
:101780004FF0010C022174E5444D4548DB1785FB01
:101790000154C3EBE40404EBC403A1EB830180FB1D
:1017A0000130A0EBE17000EB4003A1EB430300210B
:1017B00013918C46109411901293032159E54FF028
:1017C000FF30F4E5049B039ACAEB03035B00CBEB09
:1017D000020203EB8202F15CB15433443244597883
:1017E000517099789170D978D170197911715B79AC
:1017F000537184E4049B039ACAEB0303CBEB02010D
:101800005B00F21803EB81033344117C1974517CA3
:101810005974917C9974D17CD974127D1A75EAE45B
:10182000204CF43984FB0134A4EBE17404EB440351
:10183000C91A002311911094139312939C46052109
:1018400017E5049B039ACAEB0303CBEB02015B0091
:10185000F21803EB81033344D17AD972117B1973E7
:10186000517B5973917B9973D27BDA739AE4049B11
:10187000039ACAEB0303CBEB02015B00F21803EB04
:101880008103334491799971D179D971117A19729F
:10189000517A5972927A9A725AE400BF398EE338BB
:1018A000ABAAAA2A5655555530B5012185B0104C22
:1018B0004FF4001005F058FC0E4B00934FF480429B
:1018C0000023204669464BF6FF75ADF80430ADF8AD
:1018D0000830ADF80A30ADF80C20ADF806500DF028
:1018E0007FFF204601210DF0EFFF05B030BD00BFA6
:1018F00000540040A086010070B504460E4615460F
:101900004FF4003120460EF025F80028F8D10121CF
:1019100020460DF0E7FF114920460EF00DF8002893
:10192000F9D031462A4620460DF0F8FF15B1012DB9
:1019300007D070BD0A4920460DF0FEFF0028F9D0FF
:1019400070BD084920460DF0F7FF0028F1D1054988
:1019500020460DF0F1FF0028F3D0EAE70100030074
:10196000820007000200030010B504460DF0E2FFFC
:10197000034920460DF0E0FF0028F9D010BD00BF5C
:101980008400070001210DF0BBBF00BF2DE9F04F1F
:101990006A4C237885B0052B11D8DFE803F01F438C
:1019A000B21015030023184605B0BDE8F08FD9F832
:1019B00000006349039305F0CDF8039B6370012396
:1019C000184605B0BDE8F08F5E4B1B78002BF6D0B3
:1019D0005D480CF0C5FA00232370E4E701460122BC
:1019E00059480BF0EDFE03460028DBD15749584A11
:1019F0000B70012541F651634FF410515548536067
:101A000041F65066166008F085FD6570257005F09A
:101A100089F8514C514B524A52491E6020602B4666
:101A20001160C0E74A4D95E80C00934273D3637888
:101A3000002BC4D0494E376841F650639F426ED0A8
:101A4000C7F5F255103541F64F639D42DFF814A1FA
:101A500007DCC5F5F25244480AEB0501103211F0DB
:101A6000B9F9DFF80C8138482A460AEB07014346EA
:101A70000CF048FA3268D8F80010C2F5F25310336F
:101A80008B429CDC002A03DD3749364811F0A2F96D
:101A900041F650613160DFF8C8802E4D334F314838
:101AA000DFF8B490DFF8A4B0C8F800A005F5904ABC
:101AB00005F03AF8002231680092D8F80020D9F8F1
:101AC000003003939BF8003002EB000E091A002B44
:101AD00014BF3B462B4631600398204A2049C8F882
:101AE00000E005F5905505F061F8AA4507F5905717
:101AF0004FF000033FF45BAF194B1868174B1968A0
:101B0000D6E711480CF02CFA052323700023184661
:101B100005B0BDE8F08F02232370002343E72B1D9F
:101B2000104909480CF0EEF96A682B689A42FFF4F4
:101B300046AF3168DFF82CA0ADE700BF0000002001
:101B4000043F012088010020E03C0120801E01208C
:101B5000A80D0020C46B00202CB80020D83C012028
:101B6000DC3C0120841E012030B8002080D60020FB
:101B7000D43C0120114B1A78A2B1114A517889B98D
:101B800010B5104C19702378012151704FF4105189
:101B90004BB10D4808F0F8FC22780A4B52B10022F4
:101BA0001A7010BD7047094808F0EEFC2278054B0A
:101BB000002AF4D101221A7010BD00BF8801002054
:101BC00000000020801E012080D60020C46B002071
:101BD00038B54FF6FF7403E008F04AFF013C12D01D
:101BE00001220A490A480BF0BDFD0028F4D1022564
:101BF00001240122074908480BF0B4FD00280CBF5E
:101C00002846204638BD0125F3E700BFE86D0108EE
:101C1000F8B50020EC6D0108C4B30020024A034B64
:101C2000042111709860704700000020A80D00206A
:101C300000230260C160436083607047F0B4436872
:101C4000846801F01F0103FA01F2C1F11F05611A56
:101C5000EB40002942604FEA5303816002DB1846E3
:101C6000F0BC7047C668032EC1F100052EDC0022CF
:101C70004260002E48D00468621C02602278012E67
:101C80004FEA022242600CD0A71C076067783A43F3
:101C90001202022E426004D0E71C0760A47822439F
:101CA0001202C6F10304E40002FA04F401F1200276
:101CB00004FA05F524FA02F2002401EBC601C4601F
:101CC000134345608160F0BC18467047046827469E
:101CD000621C026017F8022B0760120642606778E8
:101CE00042EA0742E71C42600760A77842EA0722FF
:101CF000271D42600760E478043E2243203102FA47
:101D000005F5C660CA40DBE735463246D4E700BF7A
:101D100010B404688368611AC3EBC100801A10BC58
:101D2000704700BF30B1036823B15869003018BF55
:101D3000012070474FF0FF30704700BF002800F0CF
:101D4000E3800368002B00F0DF800A78FF2A40F070
:101D5000DB802DE9F04F4A7802F0E004E02C83B0FC
:101D600040F0CD80D20894071ABF02F0010282F041
:101D7000010202221A704D78C5F34105C5F104092C
:101D8000C3F804904E7806F0010686F001049C60CA
:101D90008F7800943F09DF608C78C4F381041C6164
:101DA00091F802C0CCF340065E6191F802E0019622
:101DB0000EF0010EC3F818E091F803E04FEA9E1E02
:101DC00083F81CE091F80380C8F30118C3F8208061
:101DD00091F80380C8F3C008C3F8248091F8038009
:101DE000C8F38008C3F8288091F80380032C08F01A
:101DF0000308C3F82C8000F08280B9F1040F7ED074
:101E00000F2F7CD04FF0DE0808FB02F84FF04A0B92
:101E1000DFF804A10BFB0488D044BEF1010FC3F826
:101E2000348006D04FF00008BEF1030FC3F82080C5
:101E300062D04FF0020A4FEA420C0CEB0208C5F1E7
:101E4000030508EB040BC0F8BCA7DFF8D0A0C0F86E
:101E5000D097002A08EB050980F8D4272C4A5AF8B5
:101E60002B6032F91920C0F8C0670CBF4FF0020A8E
:101E70004FF0010AC0F8C4A792FBFAF2C0F8C827D5
:101E800057B3C8EB0818C4EB041444443C44C5EBF6
:101E90000515BEF1030F0CBFE6460CF1010E1D4AFD
:101EA000DFF87C9032F9142039F91E40009E454439
:101EB0002F44DFF87080141B38F91720C2EB42154D
:101EC00002EB8502043C019DA4EB46042C44D200A5
:101ED000C0F8CC47C0F8B827009A22B904201A638A
:101EE00003B0BDE8F08F08794A7942EA0022062063
:101EF0001A6303B0BDE8F08F4FF0010A9BE74FF083
:101F0000FF3003B0BDE8F08F4FF0FF30704700BFE7
:101F1000B494010890930108F4900108D895010841
:101F2000A0940108C89401082DE9F04F89B00190F0
:101F3000002801F0A0810368002B01F09C81426819
:101F400006921546002A01F096811C7802940846F4
:101F5000002C00F0F7804D7810F8047BCA781E7FC3
:101F60008C782B0443EA07631343032E43EA0424CB
:101F70004FEA04220CBF1E231D23069E22FA03F300
:101F80004FEA530373604FEA14640BBF012102212F
:101F9000092311233546346002FA01F20CBF0525EE
:101FA0000D2507930CBF17271627019ED6F8C417D7
:101FB000002940F3C08000230593069CD6F8BC3767
:101FC0000394002B40F3AC80029B0399002B0BBFC2
:101FD0001B2316234FF0040E4FF0090E0493002626
:101FE000B7F10C034FEA12544FEA023C00F17E8233
:101FF00052054FEADC57B3F1090C8C6200F11D82E7
:10200000CF62BCF108074FEA02284FEA126200F1E2
:102010004482049B0A6328FA03F3B7EB0E074FEAE6
:10202000530208FA0EF800F1AE81B7F101094FEA48
:1020300048034FEAD8744A6300F1D6818C63002CC0
:1020400000F00281B9F102024FEA937C4FEA830863
:1020500000F13883DB004FEAD878571EC1F83CC046
:1020600000F171827A1F4FEA4314C1F840804FEAB1
:10207000D36300F19982571F4FEA441A4B644FEA29
:10208000D46400F1C3824FEACA094FEA5A730022AE
:10209000B7F1030A8C64CA6400F1C5834FEAC9072B
:1020A0004FEA5972BAF103090B6500F13683FB0060
:1020B0007F0FB9F103044A6500F1D782DA0F5B00A4
:1020C0008F65BCF1000F40F05681CF6DC1F82CC078
:1020D000C1F828C0C1F834C0C7F114070F66029FC9
:1020E000002F00F0E28017460022B4F101084A6692
:1020F00000F1E7808F66B8F101074FEA43024FEA2B
:10210000D37300F10D81CB66019BD3F8BC37013648
:10211000B34201F148013FF763AF0199D1F8C41709
:10212000059C039E013490368C4205940396FFF67D
:1021300048AF069B1C68019B0798C3F8D84709B0B5
:10214000BDE8F08F4E781F7F019B10F804EBCA7832
:10215000D3F8BCC78C78330443EA0E631343032FD0
:1021600043EA04244FEA44220CBF1A231C2322FA18
:1021700003F34FEA53034FEAD4546B600CBF0521BD
:1021800003212E462C600BBF112320230D251C2577
:102190000CBF12271427BCF1000F02FA01F20793BB
:1021A0007FF703AF314606EB0C1920E0BEF10107C3
:1021B000C1F808C04FEAD27C4FEA420200F117850D
:1021C0007B1E4FEAD278C1F80CC04FEA420200F100
:1021D000E2845F1E4FEAD276C1F810804FEA4202D5
:1021E00000F1AE844E61103189453FF4DEAEB7F1A7
:1021F000010E4FEAD27C4FEA4202D7D5032DCEF131
:10220000000200F35D86002D01F010800378012D9F
:102210004FEA032601F00080437890F802801E43C5
:1022200048EA0626C5F103033602DB0006FA03F38B
:102230001F37033023FA07F603FA02F20EEBC50E3E
:1022400000254CEA060CB1E7B9F10507CC630C6434
:102250004FEAD3624FEA431400F16A839B02E40E13
:10226000B7F1050C4A6400F10A838C64BCF10504E3
:102270004FEA43124FEAD36300F12F831701120F85
:10228000B4F10408CB6400F17382B8F103044FEA9F
:10229000C703CA654FEA577700F199820F66029F1C
:1022A000DA0F5B00002F7FF41EAF013C00F11C84AD
:1022B000B4F101084FEAD3774A664FEA43037FF54A
:1022C00019AF032DC8F1000200F35E83002D00F06A
:1022D0009D860378012D4FEA032C00F04D8690F87F
:1022E0000190837849EA0C0C43EA0C23C5F1030CF6
:1022F0001B024FEACC0A03FA0AFC0CFA02F204F1C0
:102300001F032CFA03FC0330D30F520008EBC5085F
:10231000002547EA0C078F66B8F101077FF5F3AE99
:10232000032DC7F1000200F37B83002D00F05286DD
:1023300090F800C0012D4FEA0C2400F0748690F84C
:10234000019090F802C049EA04044CEA0424C5F163
:10235000030924024FEAC90904FA09F908F11F0820
:10236000033029FA08FC09FA02F207EBC507002539
:1023700043EA0C03C7E6BCF1020F00F0AC83072769
:10238000CF650D27AAE6032DC7F1000300F32F83C5
:10239000002D00F01A8690F800C0012D4FEA0C24A1
:1023A00000F0F98590F8018090F802C048EA040432
:1023B0004CEA0428C5F103044FEA0828E40008FAAF
:1023C00004F404FA03F307F1200C24FA0CFC0330A4
:1023D000DC0F5B0007EBC507002542EA0C02B7F1F2
:1023E00001094A637FF52AAE032DC9F1000300F30A
:1023F0005C83002D00F0CB850278012D4FEA022C82
:1024000000F0098690F80180827848EA0C0C42EAD4
:102410000C2CC5F103084FEA0C2C4FEAC8080CFA43
:1024200008FC1F3703302CFA07F20CFA03F309EB10
:10243000C50700251443B94600E6032DCCF100087A
:1024400000F3BC82002D00F0C9850278012D4FEA0F
:10245000022400F0AD8590F80190827849EA0404E6
:1024600042EA0422C5F1030A12024FEACA0A02FA3A
:102470000AFA0AFA08F817334FEA186203302AFA00
:1024800003FA4FEA08280CEBC50C002547EA0A07B7
:10249000CF62BCF108077FF5BCAD032DC7F1000882
:1024A00000F3EE82002D00F0AD850378012D4FEA98
:1024B000032400F0988590F80190837849EA040499
:1024C00043EA0424C5F1030924024FEAC90904FAC6
:1024D00009F40CF1180C033024FA0CFC04FA08F887
:1024E00007EBC507002542EA0C0292E5032DC3F174
:1024F000000200F3AB82002D00F07F8590F800C051
:10250000012D4FEA0C2800F0998590F8019090F881
:1025100002C049EA08084CEA0828C5F1030C4FEA52
:1025200008284FEACC0A08FA0AFC0CFA02F214371F
:102530002CFA07FC0330D70D520203EBC50300252C
:1025400044EA0C0457E5032DC7F1000300F3778339
:10255000002D00F07F8590F80090012D4FEA0924AE
:1025600000F03C8690F801A090F802904AEA04043A
:1025700049EA0429C5F1030A4FEA09244FEACA0AC5
:1025800004FA0AF909FA03F41F32E30E033029FAB8
:1025900002FA640107EBC507002548EA0A087A1F1A
:1025A000C1F840807FF567AD032DC2F1000400F350
:1025B000BD83002D00F0808590F800A0012D4FEA2A
:1025C0000A2900F06B8590F801B090F802A04BEA60
:1025D00009094AEA092AC5F103094FEA0A2A4FEA1A
:1025E000C9090AFA09F909FA04FA1B374FEADA6449
:1025F000033029FA07F94FEA4A1A02EBC50200250F
:1026000043EA0903571F4B647FF53DAD032DC7F126
:10261000000300F35983002D00F0978590F800A087
:10262000012D4FEA0A2900F0828590F801B090F858
:1026300002A04BEA09094AEA0929C5F1030A4FEA4F
:1026400009294FEACA0A09FA0AFA0AFA03F91B32F7
:102650004FEA597303302AFA02FA4FEAC90907EB25
:10266000C507002544EA0A0411E5032DC4F100035F
:1026700000F3FC82002D00F0AC8590F800A0012D45
:102680004FEA0A2200F0988590F801B090F802A075
:102690004BEA02024AEA022AC5F103024FEA0A2A79
:1026A000D2000AFA02F202FA03F309F11D0922FA32
:1026B00009F90330DA0F5B0004EBC504002547EA93
:1026C0000907FDE4032DC2F1000300F37C83002D14
:1026D00000F06D850478012D4FEA042700F05B853A
:1026E00090F80180847848EA070844EA0828C5F190
:1026F00003044FEA0828E70008FA07F404FA03F392
:1027000009F11E074FEAD3780330FC405B0002EB6F
:10271000C50200254CEA040C9FE4032DC9F1000317
:1027200000F3ED82002D00F031850778012D4FEA8E
:10273000072400F01F8590F801B087784BEA040465
:1027400047EA0427C5F103043F02E40007FA04F452
:1027500004FA03F30AF11D0A5F0F033024FA0AFAA0
:10276000DB0009EBC504002542EA0A02A146A0E409
:10277000032DC8F1000300F35683002D00F0F5840B
:102780000778012D4FEA072C00F0E48490F80190BF
:10279000877849EA0C0A47EA0A2AC5F103074FEA93
:1027A0000A2A4FEAC70C0AFA0CF707FA03F31C349B
:1027B00027FA04FA03305F0FDB0008EBC508002599
:1027C00042EA0A02B8F10304CA657FF567AD032D3A
:1027D000C4F1000300F30F83002D00F0A3840278FE
:1027E000012D4FEA022C00F0918490F8019082783C
:1027F00049EA0C0942EA0929C5F103024FEA09290D
:102800004FEAC20C09FA0CF202FA03F308F11D08B0
:1028100022FA08F90330DA0F5B0004EBC504002547
:1028200047EA09075AE4032DCAF1000400F39A822B
:10283000002D00F0668490F80090012D4FEA0922E7
:1028400000F0508490F801B090F802904BEA020238
:1028500049EA0222C5F1030912024FEAC90902FA44
:1028600009F907F11D0209FA04F7033029FA02F405
:102870007A0FFF000AEBC50A0025234312E4032D5B
:10288000CCF1000300F3E982002D00F026840278E9
:10289000012D4FEA022800F0148490F8019082780C
:1028A00049EA080842EA0822C5F1030812024FEA81
:1028B000C80802FA08F808FA03F21B37D30E0330EF
:1028C00028FA07FA52010CEBC50C002544EA0A0469
:1028D0008C64BCF105047FF5D1AC032DC4F100027A
:1028E00000F35A82002D00F0D5830778012D4FEABE
:1028F000072800F0C38390F80190877849EA080818
:1029000047EA0827C5F103083F024FEAC80807FA5B
:1029100008F808FA02F70CF11B0C3A0F033028FAFA
:102920000CFA3F0104EBC504002543EA0A03A7E4BF
:10293000032DC7F1000300F3B081002D00F09A834E
:102940000478012D4FEA042C00F0898390F801806F
:10295000847848EA0C0A44EA0A2AC5F103044FEADB
:102960000A2A4FEAC40C0AFA0CF404FA03F309F138
:102970001B0924FA09FA0330DC0E5B0107EBC507DB
:10298000002542EA0A026BE4814690F8018019F8BA
:1029900004ABC37880784FEA084848EA0A6C4CEAEE
:1029A000030C4CEA002C0CFA02F204F11F08D30FBE
:1029B000043D2CFA08FC48465200AAE481464478BB
:1029C00019F804CBC2788078240444EA0C642243CA
:1029D00042EA002000FA08F803F1170C20FA0CFA7A
:1029E0004FEA1862043D48464FEA08284EE5804603
:1029F00090F801C018F8049BC47880784FEA0C4C1A
:102A00004CEA096C4CEA040C4CEA002000FA03F38F
:102A1000203720FA07FCDC0F043D40465B00DCE475
:102A20008146477819F804ABC47880783F0447EAB8
:102A30000A6747EA040C4CEA002C08F11F070CFA5D
:102A400002F2043D2CFA07FC484691E4804690F8D7
:102A500001C018F8049BC37880784FEA0C4C4CEA0C
:102A6000096C4CEA030C4CEA002000FA02F207F170
:102A7000140320FA03FCD70D043D404652025FE5E3
:102A80008146447819F8047BC3788078240444EAAA
:102A90000764234343EA00200CF1180700FA08F802
:102AA00020FA07FC043D48461DE5804690F801C029
:102AB00018F8049BC27880784FEA0C4C4CEA096CF9
:102AC0004CEA020242EA00221F3702FA03F3043DF5
:102AD000FA404046AEE4B8F1000F7FF450AC08274E
:102AE000CF650C27FFF7FABA032DC4F1000300F3FA
:102AF000CE81002D00F07E830778012D4FEA072C50
:102B000000F07C8390F80180877848EA0C0C47EA53
:102B10000C2CC5F103074FEA0C2CFF000CFA07F749
:102B200007FA03F304F1200C27FA0CFC0330DF0F43
:102B30005B0004EBC504002542EA0C02FFF7D5BA9E
:102B4000032DC7F1000200F3E781002D00F061833F
:102B500090F800E0012D4FEA0E2C00F06E8390F803
:102B6000018090F802E048EA0C0C4EEA0C2CC5F10A
:102B7000030E4FEA0C2C4FEACE0E0CFA0EFE1F335A
:102B800003302EFA03F30EFA02F207EBC507002515
:102B90001E43FFF727BB032DC3F1000200F3D481CE
:102BA000002D00F0478390F800E0012D4FEA0E263B
:102BB00000F0588390F801C090F802E04CEA060C4F
:102BC0004EEA0C2CC5F103064FEA0C2CF6000CFA69
:102BD00006F607F11F0E033026FA0EFE06FA02F281
:102BE00003EBC503002548EA0E08FFF7F2BA032DF0
:102BF000C7F1000200F37C81002D00F030830378E0
:102C0000012D4FEA032600F02183437890F80280DB
:102C10001E4348EA0626C5F103033602DB0006FA26
:102C200003F30EF11F0E033023FA0EF603FA02F23D
:102C300007EBC50700254CEA060CFFF7C1BA814631
:102C4000477819F804ABC47880783F0447EA0A67EC
:102C5000274347EA002000FA03F402F11F0720FA95
:102C600007FAE30E043D4846640196E48246447840
:102C70001AF804BBC2788078240444EA0B64144335
:102C800044EA002000FA03F309F11D0420FA04F9D4
:102C9000DA0F043D50465B0011E58046477818F88E
:102CA00004CBC47880783F0447EA0C673C4344EA8D
:102CB000002000FA03F309F11B0720FA07FADC0EE3
:102CC000043D40465B015CE6834690F801901BF8AA
:102CD00004ABC77880784FEA094949EA0A6949EAAA
:102CE000070949EA002002F11B0700FA03F220FA63
:102CF00007FA043D5846530F4FEAC209B2E483462F
:102D000047781BF8049BC47880783F0447EA09673A
:102D1000274347EA002000FA03F30AF11D0420FAD2
:102D200004FA5F0F043D5846DB001DE5824690F82B
:102D300001901AF804BBC27880784FEA094949EA41
:102D40000B6949EA020949EA002000FA04FB07F18D
:102D50001B0220FA02F9043D50464FEADB644FEAB9
:102D60004B1A4DE4834690F801901BF804ABC278EF
:102D700080784FEA094949EA0A6949EA020949EAB9
:102D8000002007F11D0A00FA04F77A0F20FA0AF46E
:102D9000043D5846FF0070E58146477819F8048BDA
:102DA000C47880783F0447EA08673C4344EA00203F
:102DB00000FA02F70CF11B0420FA04FA3A0F043D62
:102DC00048463F01B1E58046447818F8047BC27854
:102DD0008078240444EA0764144344EA002000FA9B
:102DE00003F309F11E0220FA02F4043D40464FEAC3
:102DF000D3785B008EE4844644781CF8049BC27848
:102E00008078240444EA096949EA020949EA002071
:102E100000FA03F308F11D0420FA04F9DA0F043D67
:102E200060465B00FCE4814690F801C019F8048B11
:102E3000C77880784FEA0C4C4CEA086C4CEA0707DC
:102E400047EA002000FA03F304F11C0820FA08FA0C
:102E50005F0F043D4846DB00B2E4804690F801C0B5
:102E600018F8049BC27880784FEA0C4C4CEA096C45
:102E70004CEA020242EA002000FA03F207F11B0CBE
:102E800020FA0CFAD30E043D404652011EE580465E
:102E900090F801C018F8049BC77880784FEA0C4C72
:102EA0004CEA096C4CEA070747EA002000FA03F3F2
:102EB000203420FA04FCDF0F043D40465B003BE673
:102EC000804690F801E018F804ABC37886784FEAA2
:102ED0000E4040EA0A60034343EA062607F11F0E4C
:102EE00006FA02F2043D26FA0EF64046FFF7A9B9AB
:102EF0008046477818F804ABC3788678380440EAEF
:102F00000A60034343EA06260EF11F0706FA02F29F
:102F1000043DFE4040468EE6864690F801C01EF80D
:102F200004ABC77890F802804FEA0C4C4CEA0A6078
:102F3000384340EA082003F11F0700FA02F220FAA2
:102F400007F3043D704623E6064690F801C016F8E4
:102F500004ABC37890F802E04FEA0C4040EA0A6004
:102F6000184340EA0E2E07F11F030EFA02F2043D49
:102F70002EFA03FE304636E61B0603FA02F21F3431
:102F800023FA04FC0130D30F5200FFF7BFB92B46E0
:102F90002A46FFF74CBA4FEA0C6404FA03F307F130
:102FA000200C24FA0CFC0130DC0F5B00FFF712BA96
:102FB000120602FA08F8173322FA03FA01304FEA30
:102FC00018624FEA0828FFF75EBA2B462C46AC463B
:102FD000FFF700BA2A46AC46FFF7C7B9A8462A460B
:102FE000AA46FFF750BA1B060CF1180C03FA08F8B2
:102FF00023FA0CFC0130FFF773BA2A462F46AC4681
:10300000FFF79BBAA846AC46FFF76ABA2A462B469A
:10301000AC46FFF77BB912061F3702FA03F3013003
:10302000FA40FFF704BA4FEA0C6C08F11F080CFADB
:1030300002F201302CFA08FCFFF797B94FEA0C6C4A
:103040000CFA02F214372CFA07FC0130D70D5202A9
:10305000FFF773BA2C462B46AA46FFF79BBA240605
:1030600004FA03F309F11B0924FA09FA0130DC0E12
:103070005B0183E42B462C46AA467FE44FEA0768AF
:1030800008FA02F70CF11B0C3A0F28FA0CFA01307F
:103090003F0147E42F462A46AA4643E44FEA0A691D
:1030A00009FA04FA1B374FEADA6429FA07F9013002
:1030B0004FEA4A1AFFF7A1BAAA462C46A946FFF7DB
:1030C0009CBA4FEA026808FA03F21B37D30E28FABB
:1030D00007FA01305201FFF7F6BB2A462B46AA46F3
:1030E000FFF7F1BB4FEA096909FA04FB07F11D0478
:1030F00029FA04F401304FEA5B724FEACB07FFF77D
:10310000B9BB2F462A462C46FFF7B4BB120602FA7B
:1031100003F308F11D0822FA08F90130DA0F5B0009
:10312000FFF77BBB2B462A46A946FFF776BB4FEA43
:103130000A6A0AFA03F91B324FEA59732AFA02FAA9
:1031400001304FEAC909FFF78ABAA9462B46AA46B9
:10315000FFF785BA3F0607FA03F31C3427FA04FA8F
:1031600001305F0FDB00FFF728BB2B462F46AA4636
:10317000FFF723BB3F0607FA03F30AF11D0A27FAFC
:103180000AFA01305F0FDB00FFF7EBBA2B462F4640
:10319000AA46FFF7E6BA240604FA03F309F11E076C
:1031A0004FEAD378FC4001305B00FFF7B0BA2B4602
:1031B000A8462C46FFF7ABBA4FEA0A6A0AFA03F3AD
:1031C00009F11D09DA0F2AFA09F901305B00FFF74E
:1031D00073BA2B462A46A946FFF76EBA4FEA096929
:1031E00009FA03F41F32E30E29FA02FA01306401EE
:1031F000FFF7D0B92B462F46AC469AE43F0607FAB4
:1032000003F304F1200C27FA0CFC0130DF0F5B0004
:103210008FE42A462B46B8E41B0607F11F0603FA83
:1032200002F223FA06F60130FFF708B82A462E46C6
:10323000FFF704B82A46AE46D2E44FEA0E6E1F33BB
:103240000EFA02F22EFA03F301309EE41B060EF191
:103250001F0603FA02F223FA06F60130E8E42A46D2
:103260002E46E5E44FEA0E6E1F370EFA02F20130E9
:103270002EFA07FEB4E44FF0FF30FEF760BF00BF48
:10328000002800F031812DE9F04FD0F800A08FB078
:10329000BAF1000F00F0258143680793002B00F07E
:1032A000208183680893002B00F01B81C568002DE6
:1032B00000F01781036906931A46002B00F0118174
:1032C000D0F8BC370A91002602F54672B3420D963B
:1032D0000C9609922FDD079B0B9501EBC10803EBC0
:1032E0000818089BC1EB411703EB8707099B05F5FD
:1032F000905908F12808AB4609F1040945461C46D7
:1033000080468DE8A00002945346A9F10402584675
:103310000699FDF73BFD49F8040FD8F8BC37013694
:10332000B34205F1480507F13E0704F118040BF517
:10333000106BE6DC0B9DDAF8200000286DD041F21E
:103340000823EB58002B40F3888041F20C23EB5804
:10335000002B40F38280430800F0C980C2070DD5DE
:10336000069AD2F83033002B40F0B080D2F84433C4
:10337000DAF83420013332F9131008E041F2042264
:1033800005F59053A9581B689942B8BF19460CAC73
:103390002846224607F07AFBDAF82000C30720D53A
:1033A00005F590539AF8002019680A9E002A37D133
:1033B000079B039406EBC60203EB0212C6EB46130F
:1033C000D2F888200292089A401002EB8303099AEF
:1033D0000190009228463E33524607F089FBDAF806
:1033E0002000D0B141F2042405F5905628593168E7
:1033F0000C9BB3FA83F341F2082E814241F20C2771
:10340000B8BF01465A1E0D9BB3FA83F3013B45F842
:103410000E20EB513160295100200FB0BDE8F08F34
:10342000079B049406EBC60203EB0212089CD2F839
:10343000882003922246F832C6EB461340100192D0
:1034400004EB8303099A0290009228463E335246C9
:1034500007F0FAFCDAF82000C3E705F590531C6882
:10346000002C16DD04F18044013C224905EB840464
:103470002B1F6FF0404602E09C42196009D053F8C0
:10348000042F8A42F8DBB2F1804FA8BF1E609C4235
:10349000F5D141F20423EB58002B7FF75CAF03F228
:1034A0003F2305EB8304134905F6FC036FF0404608
:1034B00003E019609C423FF44EAF53F8042F8A4258
:1034C000F7DBB2F1804FA8BF1E60F3E7D2F84023CC
:1034D000DAF8343003EB4203B3F9301001EB410169
:1034E00055E74FF0FF3098E74FF0FF30704701206D
:1034F0000CAC55E7010000C02DE9F041064684B050
:1035000015460C46A1B14B1E0B423FD0E70705D52F
:103510000121FFF7F1FF002840F0B780A00707D591
:103520002A4602213046FFF7E7FF002840F0AD8031
:10353000610700F1AE80220700F1B580E30600F1DB
:10354000BC80A70600F1C380600600F196802106CA
:1035500000F1C680E20500F1CD80A30500F1D58021
:10356000670500F1DD80200500F1E580E10400F150
:10357000FA80A20400F1EB80630400F10081E30B08
:1035800040F00981002004B0BDE8F081A24B1A6828
:103590000A427AD15B68194277D1802900F03181E3
:1035A00000F21281082900F0208100F2FE80022939
:1035B00000F02B81042900F02681012965D106271E
:1035C000012D00F0FF80002D14BF002202220023F5
:1035D0008DE80C0021461A4630460CF0C3FC20460C
:1035E0000CF08EFE5FFA80F830468C4E0CF094FEA4
:1035F000716C894B08F0FC0202F1804202F59C32AA
:1036000041F48041716408F00301966889004FF02D
:103610000F0E0EFA01FE26EA0E0696609668C0B2FC
:1036200000FA01F1314391601968E24311401960D9
:10363000596811405960196821431960D9681140CF
:10364000D9609968012D02EA01029A6000F0B68003
:1036500015B1DA682243DA609A6814439C600A2242
:10366000012303A88DF80C708DF80E808DF80D20C5
:103670008DF80F300CF040FA84E72A46402130469E
:10368000FFF73AFF00283FF462AF012004B0BDE825
:10369000F0812A4604213046FFF72EFF0028F4D19E
:1036A00022077FF54BAF2A4608213046FFF724FF5B
:1036B0000028EAD1E3067FF544AF2A4610213046C0
:1036C000FFF71AFF0028E0D1A7067FF53DAF2A4695
:1036D00020213046FFF710FF00283FF435AFD4E734
:1036E0002A4680213046FFF707FF0028CDD1E205AA
:1036F0007FF533AF2A464FF480713046FFF7FCFE6A
:103700000028C2D1A3057FF52BAF2A464FF40071E4
:103710003046FFF7F1FE0028B7D167057FF523AFEC
:103720002A464FF480613046FFF7E6FE0028ACD110
:1037300020057FF51BAF2A464FF400613046FFF7A6
:10374000DBFE0028A1D1E1047FF513AF0BE02A4690
:103750004FF400513046FFF7CFFE002895D16304A7
:103760007FF50DAF0BE02A464FF480513046FFF74E
:10377000C3FE002889D1A2047FF5FEAEE7E72A4602
:103780004FF480413046FFF7B7FE00287FF47DAF4D
:10379000E30B3FF4F7AE2A4630464FF40041FFF703
:1037A000ABFE00283FF4EEAE6FE7202929D0402978
:1037B00027D010297FF469AF0A2701E7DA6814439C
:1037C000DC604CE72A4602E7B1F5006F0BD00ED95A
:1037D000B1F5005F07D01AD9B1F5804F03D0B1F52C
:1037E000004F7FF452AF2827EAE60927E8E6B1F553
:1037F000007F06D0B1F5806FF5D0B1F5807F7FF402
:1038000044AF1727DCE60827DAE60727D8E6B1F544
:10381000805FE8D039E700BF003C0140003802403B
:1038200008B5044B5A69D20703D50120586105F049
:10383000A3FC08BD003C014008B5044B5A6992073F
:1038400003D50220586105F097FC08BD003C0140FB
:1038500008B5044B5A69520703D50420586105F096
:103860008BFC08BD003C014008B5044B5A691207A7
:1038700003D50820586105F07FFC08BD003C0140DD
:1038800008B5044B5A69D20603D51020586105F0DB
:1038900073FC08BD003C014008B5174B5A699106FE
:1038A00025D4154B5A6952061CD4134B5A6910067D
:1038B00013D4114B5A69D10509D40F4B5A6992059B
:1038C00004D54FF40070586105F056FC08BD4FF464
:1038D0008070586105F050FCEFE78020586105F0DA
:1038E0004BFCE6E74020586105F046FCDDE7202070
:1038F000586105F041FCD4E7003C014008B51E4B7F
:103900005A69500531D41C4B5A69110527D41A4BFA
:103910005A69D2041DD4184B5A69900413D4164B1B
:103920005A69510409D4144B5A69120404D54FF44E
:103930000040586105F020FC08BD4FF480405861FC
:1039400005F01AFCEFE74FF40050586105F014FC45
:10395000E5E74FF48050586105F00EFCDBE74FF4CB
:103960000060586105F008FCD1E74FF480605861B1
:1039700005F002FCC7E700BF003C0140F0B402EBD9
:10398000C202354E84681501AB199F6987FB042478
:103990008269AD5985FB026222440A604268DD6992
:1039A000144685FB0424C2695D6885FB02622244DB
:1039B0004A6002681D6A144685FB0424026A9D68F9
:1039C00085FB026222448A6002685D6A144685FBB8
:1039D0000424026ADD6885FB02622244CA604268F0
:1039E0009D6A144685FB0424C2691D6985FB026239
:1039F00022440A618268DD6A144685FB04248269D8
:103A00005D6985FB026222444A6142699C6984FBCC
:103A100002528A610269DC6984FB0252CA61C2688F
:103A20001C6A84FB02520A62C2685C6A84FB02520E
:103A30004A6202699C6A84FB02528A624269DB6ABA
:103A400083FB02020023CA624B640B64CB638B636B
:103A50004B630B63F0BC7047B09C01082DE9F04F3D
:103A6000864691B0B3BB12F0010030D0DEF880176B
:103A7000DEF88028DEF88001DEF88073DEF88064EE
:103A8000DEF88055DEF88046C0F1000CC1F1000977
:103A9000DEF88002CEF880C15142DEF88020CEF8F8
:103AA0008097C0F100087F4276426D4264425242E4
:103AB0001846CEF88082CEF88073CEF88064CEF8B7
:103AC0008055CEF88046CEF88018CEF8802011B010
:103AD000BDE8F08FD2078A4640F14582D0F88020B9
:103AE0000468C3F11F0B0121524201FA0BF101F1ED
:103AF000FF39E517D61789EA060089EA050142FA77
:103B00000BF744FA0BF8B74218BF0246A84514BF9A
:103B10008846A04608FA03F19A40CEF88020CEF8F5
:103B20000010DAF800000292C21740FA0BF4039179
:103B300089EA0201944214BF0A4602469A40CAF832
:103B40000020DEF88011DEF800014942CE17C417CC
:103B500089EA060289EA040741FA0BF540FA0BF8F4
:103B6000AE420CBF0D46154644450CBF8046B846D4
:103B700008FA03F805FA03F0CEF88001CEF80081C8
:103B8000DAF804200990D11789EA010042FA0BF40F
:103B9000A14218BF02469A40CAF80420DEF88012FB
:103BA000DEF800224942CD17D71789EA050442FA08
:103BB0000BFC41FA0BF689EA0700674508BF10467F
:103BC000B5420CBF0E46264606FA03F500FA03F48A
:103BD000CEF88052CEF80042DAF808200A94D117C5
:103BE00089EA010042FA0BF4A14218BF02469A404A
:103BF000CAF80820DEF80013DEF880230B95524245
:103C0000CD17D41789EA050641FA0BF7BD420CBF60
:103C10000F46374642FA0BFC89EA0400644508BFA8
:103C200010469F4000FA03FC3A46CEF880C3CEF817
:103C300000230C92DAF80C20CDF834C0D11789EAB1
:103C4000010042FA0BF4A14218BF02469A40CAF89A
:103C50000C20DEF88014DEF800044942CF17C417A8
:103C600041FA0BFC89EA0705674508BF0D4689EA5A
:103C7000040240FA0BF6B4420CBF0646164605FA9B
:103C800003FC624606FA03FCCEF800C4CEF880249A
:103C90000492DAF81020CDF804C0D11789EA0100A7
:103CA00042FA0BF4A14218BF02469A40CAF810200B
:103CB000DEF80025D11789EA010042FA0BF6B1427D
:103CC0000CBF16460646DEF880255242D11789EA17
:103CD000010042FA0BF4A14218BF024606FA03FCA7
:103CE000CEF800C5CDF838C002FA03FCCEF880C586
:103CF000DAF81420CDF83CC0D11789EA010042FA65
:103D00000BF4A14218BF02469A40CAF81420DEF80C
:103D10008026DEF800165242C817D41789EA040636
:103D200089EA000542FA0BF741FA0BFCBC4218BFC6
:103D3000324660450CBF8C46AC460CFA03FC02FAD6
:103D400003F1CEF88016CEF800C6DAF818200691F6
:103D5000D11789EA010042FA0BF4A14218BF0246CA
:103D60009A40CAF81820DEF88027DEF80017CDF850
:103D700014C05242D41789EA0405C81742FA0BFC52
:103D8000644518BF2A4689EA000641FA0BF7B84293
:103D900018BF314602FA03FC664601FA03FCCEF86E
:103DA0008067CEF800C7DAF81C400896E11744FA9D
:103DB0000BF589EA0100099ECDF81CC0A9420CBF91
:103DC000214601464FEAE87088EA000CF217C0EB82
:103DD0000C0C0A9886EA0205AA1AC5179940684091
:103DE000CAF81C10401B0B9DDEF88018EC1785EA02
:103DF00004060C9D361B0D9C4CEA020CEA1785EA62
:103E000002074CEA00054FEAE47C84EA0C00BF1A82
:103E10003543019C049ECCEB000045EA070CDEF81C
:103E20000058CDF824C0E217EF17F417049D019E47
:103E30000197564065402C1BB21A099E0D940F9CA9
:103E40000E9F494230430C904FEAE17CE51789EA26
:103E50000C0004950C9D0B90DEF8006841FA0BF005
:103E60002A430B9D0A904FEAE77846FA0BF609962B
:103E700087EA08062F460A9D0198AC4518BF3946C7
:103E8000DEF80058019FAC46099D80EA0900AF4268
:103E900008BF6046049D059F65400D9C0195C8EBD9
:103EA0000606069D2243059CFF173243069E994055
:103EB00098404FEAE57884EA070C019D049CCEF80F
:103EC0008018CEF8000886EA080E089E2D1B079C75
:103ED0002A43F517079EC7EB0C07E41786EA040C84
:103EE0003A43089FCDF804C087EA050C019FC8EB50
:103EF0000E083C1B42EA0802DAF82070C61722437B
:103F0000029C4FEAE77E7040039FE417801B039EEC
:103F10000194C5EB0C054FEAE77889EA0E0C2A43B9
:103F200088EA0609029D019EDAF82040CF17104367
:103F3000019A6E407940DAF82050C91B44FA0BF41C
:103F4000B71AC8EB0908A64518BF654640EA010242
:103F500047EA080705FA03F342EA0700CAF82030E7
:103F600011B0BDE8F08FC3F11F09DEF80010DEF8D4
:103F70008020012000FA09F000F1FF3BCC17D01798
:103F80008BEA04078BEA000541FA09FC42FA09F6BC
:103F9000644518BF3946B04218BF2A4699409A4036
:103FA000CEF80010CEF880200392DAF800200291BB
:103FB000D1178BEA010042FA09F4A14218BF024668
:103FC0009A40CAF80020DEF80041DEF88001E617CA
:103FD000C5178BEA060140FA09F744FA09F88BEA9B
:103FE000050246450CBFA0468846BD4208BF0246B2
:103FF00008FA03F802FA03F0CEF80081CEF8800147
:10400000DAF804200490D1178BEA010042FA09F48F
:10401000A14218BF02469A40CAF80420DEF80042C6
:10402000DEF88022E117D51744FA09FC8BEA050671
:104030008BEA010042FA09F761450CBF21460146AF
:10404000BD420CBF1746374601FA03F49F40CEF835
:104050000042CEF88072DAF808200894D1178BEA73
:10406000010042FA09F4A14218BF02469A40CAF878
:104070000820DEF80023DEF880130997D617CD1745
:1040800042FA09FC41FA09F78BEA06008BEA0504BB
:10409000BD4208BF0C46664508BF104600FA03F64D
:1040A00004FA03FCCEF80063CEF880C3DAF80C20E3
:1040B0000A96D1178BEA010042FA09F4A14218BF0F
:1040C00002469A40CAF80C20DEF80004CDF82CC055
:1040D000DEF88024C61740FA09F5D4178BEA0601EA
:1040E000AE4208BF01468BEA040742FA09FC644568
:1040F00018BF3A4601FA03FC614602FA03FCCEF807
:104100000014CEF880C4DAF810200191D1178BEAA0
:10411000010042FA09F4A14218BF02469A40CAF8C7
:104120001020DEF80025CDF830C0D11742FA09F48E
:104130008BEA0100A14208BF1046DEF88025D117A6
:1041400000FA03FC42FA09F78BEA0100B9420CBFFE
:1041500017460746CEF800C5CDF834C007FA03FC71
:10416000CEF880C5DAF81420CDF814C0D1178BEA48
:10417000010042FA09F4A14218BF02469A40CAF867
:104180001420DEF80016DEF88026CC178BEA040730
:10419000D01741FA09FC64450CBF8C46BC468BEA3B
:1041A000000542FA09F6B04218BF2A460CFA03FC91
:1041B000614602FA03FCCEF80016CEF880C6DAF8A3
:1041C00018200691D1178BEA010042FA09F4A142A6
:1041D00018BF02469A40CAF81820DEF80017DEF829
:1041E0008027CDF838C0CC178BEA0407D01741FAE6
:1041F00009FC644518BF39468BEA000542FA09F606
:10420000B04218BF2A4601FA03FC654602FA03FCD5
:10421000CEF80057CEF880C7DAF81C40CDF83CC085
:10422000E71744FA09FC8BEA0700674508BF2046F8
:10423000089F049A07954FEAE876FC1788EA06017A
:10424000D5178E1B87EA0401099F6A40521B091B80
:10425000FC1732436740019D0A9E3F1B1143984063
:1042600041EA0702019FCAF81C00ED1787EA050121
:10427000DEF800780B9C4FEAE6784FEAE77C86EAA6
:104280000800DEF88078C8EB0000E6170243FF174D
:104290000C98019774400D9F4FEAE078A41B4D1BCA
:1042A000FE1780EA08011443DEF8800804968CEAC1
:1042B0000B021646DEF8002840FA09F0099042FA8F
:1042C00009F2C8EB01013846B046049FDEF80068E9
:1042D000089278403746089E019AB44508BFB84610
:1042E000DEF88068019FC446B046099E8BEA020250
:1042F000B74208BF4246049E069F2C43801B059D83
:104300000C434FEAE7780699059F04430E98ED1792
:104310000CFA03F66F4081EA080CC1179A407D1B26
:104320004840079FCEF80068CEF88028411A2C43F9
:10433000079D0F984FEAE77EC8EB0C0785EA0E0849
:10434000C5176840401B029D3C43F717CEEB080E93
:1043500086EA070C0C43EE17019644EA0E04C7EBFD
:104360000C0C0443019F0298039EDAF8201080EAA7
:10437000070E0398F517DAF82060C91780EA0507D9
:10438000DAF8200046FA09F98BEA0106494518BF18
:1043900030464FEAE278019E82EA080244EA0C04C1
:1043A000C8EB0202C6EB0E0B7D1B22434BEA050550
:1043B00000FA03F342EA0500CAF8203011B0BDE864
:1043C000F08F00BF2DE9F04FC3B00D910C92002883
:1043D00001F072850368002B01F06E854468289413
:1043E0002546002C01F06885C4680E942646002CF2
:1043F00001F0628540690B90002801F05D85174649
:104400001A785B6BDFF8F8E20846C900002A2A91A7
:1044100001EB00024FEAC7010C4627914FEA021256
:104420000CBF08210621E01902EBC00233F911305C
:104430002A448EFB0315D917D36BC1EBA50109B232
:10444000022B249101F0228507F5906340F2262289
:1044500056F82330934240F3578506EB0023209310
:104460002023049340F236230F931F22A34BD968D5
:104470000091196901915969029199690391D9696A
:104480000591196A0691596AD86BD3F808B007915B
:1044900093E80050996ADF6A1E6B5D6B9C6B209BF2
:1044A000089102EBC20203EBC2020A9209905A6C15
:1044B000D3F8488011468CFB0191C1468EFB09A9B7
:1044C000C9EB0101490059648CFB08188EFB0212EC
:1044D00008EB02011A6CD3F84C804900996411462C
:1044E0008BFB0191C146009880FB09A9C9EB010132
:1044F000490019648BFB081880FB021208EB0201CB
:10450000DA6BD3F8508001984900D964114680FBDA
:104510000191C146029880FB09A9C9EB010149003C
:10452000D963019880FB0818029880FB021208EBFF
:1045300002019A6BD3F8548003984900196511461B
:1045400080FB0191C146059880FB09A9C9EB0101D7
:1045500049009963039880FB0818059880FB0212B4
:1045600008EB02015A6BD3F8588006984900596548
:10457000114680FB0191C146079880FB09A9C9EB50
:10458000010149005963069880FB0818079880FBD1
:10459000021208EB02011A6BD3F85C8008984900FC
:1045A0009965114680FB0191C14687FB09A9C9EBBA
:1045B00001014900196380FB081887FB021208EB10
:1045C0000201DA6AD3F860804900D965114686FB9A
:1045D0000191C14685FB09A9C9EB01014900D962D6
:1045E00086FB081885FB021208EB02019A6AD3F8D1
:1045F000648049001966114684FB0191C1460998FF
:1046000080FB09A9C9EB01014900996284FB0818E4
:1046100080FB0212424452005A660A9A483393427F
:104620007FF445AF0D9A2A9B0C991344279A1B01DE
:104630000A4403EBC203289A13441D6C0B460E9CDC
:104640002D9399000C4404F59056A0460B9C3368BA
:104650000D9A2A9F2E9261180C460F99284829948A
:104660009942B8BF1946BA1813010F462D9A2799D7
:104670003760114404F5D85C07F11102CDF8B0C0E1
:10468000002D41F2082E80FB02C04FEAE272249C0A
:104690000B9D08BF0024C2EBA00203EBC1032494CE
:1046A000029258F80E40289A169441F60837299C31
:1046B00041F61036283305EBC115D318A659E75932
:1046C0001F93A64605F590532C9C0B9D079605EB72
:1046D000012226680897229626932B920499002996
:1046E00041F3C9830021039106912099009201F1C1
:1046F000480A03F1240BD14621E300BF209B0108A7
:10470000398EE338A9F11404F0CC59F8043C59F877
:10471000180C59F8201C0191C3EB070ACAEB0606D6
:10472000AD1B59F81C2C0D93641B0B95019B59F87C
:10473000241C051B521B9B1A0D981393CB1A59F876
:10474000281C1295301ACD1A0E9059F82C1C099578
:10475000201A121A4D1B0F9059F8301C1092104657
:104760001B1A59F8342C19934E1BEB1A59F8381CA4
:104770001A93921B18468F1A59F83C3C121A11468C
:10478000119259F8402CDB1BC3EB020E59F8442C54
:104790005B1ACEEB020CC3EB0C08059359F8483CAE
:1047A000CCEB030C00230193139A0B9B09994FEA5E
:1047B000680409943446129E02EB0E054FEA6C0C15
:1047C00003EB0E0210467B1AC6EB0C020A92CAEBF0
:1047D00003021890C0EB05080C9239440AEB070657
:1047E000D24A204682FB0030139B1B90C3EB0E0085
:1047F0000B9BCE4AC3EB000E774682FB07373A4647
:104800000846CB4F87FB0030CA4C374684FB07373E
:10481000731A1E46C64C84FB0636C64C84FB013117
:1048200004F1705404F54C24C24604F2CB2484FBFA
:104830000A3AC14CDDF860E084FB0E3EA4F12F542F
:10484000A4F5EA24E93C84FB0535BB4C84FB08381D
:104850004B0012990CEB610C1B997F0007EB400792
:10486000C3EB46034E00C6EB0C00F91866444FEA52
:104870004E0404EB4A044FEA420E06EB070A421AC2
:10488000711A1E44C318189112930C990A9B139223
:1048900003EB610338440599109F7A180B920E9A26
:1048A000199F4FEA4808C8EB45055118139ADDF8DF
:1048B0006880C4EB050CCCEB0202761B1A921C96A6
:1048C000189A129E001B9444A244119A1E907519C6
:1048D0000C980A9ECDF84CA003EB0E0ACEEB030E0B
:1048E0000B9BCDF86CC01895C7EB020C119D0D9A6F
:1048F000CDF874E0301A1990581A3B469646CDF818
:1049000048A0C2EB0C0C2B442A46099D0F9EAE1BFF
:1049100072440A96854D85FB0848059C109EA61B8F
:104920000E9C361B85FB0646814F1D4687FB0545C1
:10493000804F144687FB04E47D4FD21A87FB02E2C6
:104940007C4F87FB03E307F1705707F54C2782463E
:1049500007F2CB2787FB0AEA774F87FB01E1059136
:104960000B9F764981FB07E7734981FB00E06400F8
:104970005B0004EB450EC3EB4202099D0F9B0599BA
:1049800005EB630440004FEA4803C0EB47074900CA
:10499000E01A234401EB4A0A03EB0E080EEB020176
:1049A000441AD044591A134402448644CDF8148062
:1049B0000A9802EB07080A9ACAEB0705760000EB93
:1049C0006C00DB1BCCEB02070A9787190997159F30
:1049D0000D93641B29440B940C91CAEB0E0A861BA1
:1049E000002F40F0A984149F002F40F0B282D646D9
:1049F000534B83FB0E2E1E9C5BF8245CDFF86CA1EE
:104A0000A0100EEB00026942C0EB0E004BF8242C04
:104A1000091A534681FB03234A4A00EB830381FBB7
:104A20000202C5EB8202D117DC1782EA0100401AAC
:104A3000009F83EA0401091B3B60C7F880280143FB
:104A4000414B83FB06261D9D5BF8204CAB10F218F2
:104A5000F01A65424BF8202C2D1A3C4B85FB0323A2
:104A60003B4A00EB830385FB0202C4EB8200DA17AA
:104A700083EA0205C417AA1A80EA04050A432C1B1C
:104A8000C7F88030C7F800080D9B324E224386FBE2
:104A900003131C9E5BF81C1C2F4CB6109D1948423A
:104AA0009B1B4BF81C5CC01A254680FB05652B4FF1
:104AB00003EB850380FB0757C1EB8707DE174FEA3F
:104AC000E77E83EA0601009D87EA0E008E1BCEEB8F
:104AD00000001643C5F80031AE46C5F880770C9942
:104AE0001F4B064383FB01211B9B5BF8182C1D4FBA
:104AF0009D104B195042491B4BF8183C401A3D463B
:104B000080FB0535184B01EB850580FB0313C2EBD9
:104B10008301EA174FEAE17C85EA02039A1A81EAE7
:104B20000C03CCEB0303164322E000BFA1EBD96ECC
:104B30008BBE0D627E1A3A16322E0E7E49DD46522B
:104B40005CEB270B2427E9C283FB2021281C31477B
:104B50009A615FC9EE5A1836EB8F864A8C9D85D0D4
:104B6000E2F36A49513B914CA03E24D88BCEAA4235
:104B7000CEF800171E43CEF880510A99D74B83FB1D
:104B80000121199B5BF8140CD54D9B10CA18C3EB7F
:104B9000010E43424BF8142CCEEB030383FB052597
:104BA0004FF060410EEB850583FB0121C0EB8100D6
:104BB000EB174FEAE07E85EA0302D31A80EA0E0182
:104BC000009ACEEB01011E43C2F880069646C2F859
:104BD00000520B98C34B0E4383FB00201A995BF8DD
:104BE000103C8A108118801A5A424BF8101C121A75
:104BF00082FB0717BC4900EB870782FB0101C3EB6F
:104C00008103F91787EA0102D817511A83EA0002D3
:104C10003143101ACEF80036CEF880720143474671
:104C2000B24B83FB0727189B5BF80C0C9B10FE18FC
:104C3000FF1A43424BF80C6CDB1B83FB0424AC4A89
:104C400007EB840783FB0242C0EB8202F81787EA76
:104C50000003D417181A82EA04031B1B08431843E5
:104C6000CEF88025CEF80073099DA24B83FB052565
:104C700012995BF8083C8E10AA195942AD1B4BF8EB
:104C8000082C491B9C4E81FB06269C4A05EB860698
:104C900081FB0242C3EB8202F317D71786EA0301B6
:104CA00082EA0705CB1AED1B0343CEF800257746B1
:104CB000CEF88063DDF81480914A2B4382FB0818FC
:104CC000139A5BF8041C921008EB0200C2EB080870
:104CD0004A424BF8040CC8EB020282FB0A0A8948DC
:104CE00008EB8A0682FB0040C1EB8000F21786EADF
:104CF0000204C117A21A80EA010E1343C1EB0E048D
:104D0000C7F88004C7F800641C43069E009D019B01
:104D1000179932462846FEF7A1FE039A2043024324
:104D200003922A46043233460092049A0133934296
:104D3000069309F148090BF1240B00F007831F9A31
:104D4000936952691492ABF1240117912BB1249B02
:104D500006998B42C8BF0022149206A90EC98A4246
:104D6000C8BF00231593169B062B3FF7CBAC5BF80F
:104D7000040C59F8044C59F8087C5BF8081C5BF8E3
:104D80000C2C1D46C5F10705019528414BF8040C74
:104D9000019859F80C6C59F8105C5BF8103C044110
:104DA000014107414BF8081CC4EB070A01460641C4
:104DB0000A410D410D94CAEB060659F8144C59F8F6
:104DC000180C4BF80C2CAA1B17460D460C41E41B83
:104DD0002B41284159F8201C5BF8147C0B9259F8A0
:104DE0001C2C4BF8103C031B2846864607410594B3
:104DF00070461C462A410141121B8C1A12935BF823
:104E0000181C59F8243C59F8285C4BF8147C0341D1
:104E10008C464CFA00F11B1B054159F82C7C59F8C3
:104E200030EC4BF8181CE91A139409910C4659F808
:104E3000345C5BF81C1C47FA00FC59F8387C0A9774
:104E400041FA00F807460D984BF81C8C361A059865
:104E50000E963146411A45FA07F838464EFA07F6DB
:104E6000521A5BF8207C0F911146C4EB0C0C47FAE8
:104E700000FE5B1A0A9F59F83C4C1092CCEB0606D8
:104E80001946C1EB0C01C6EB0802074159F8405C1A
:104E90004BF820ECBF1A521A44FA00FE1A911192F4
:104EA000114659F8442C5BF8244C1993C7EB0E0CAF
:104EB00059F8483C45FA00FECCEB0E0E42FA00F5DC
:104EC000CEEB0505C1EB0C02034104410592C2EB98
:104ED0000508C5EB030C4BF8244C65E49A79825A1B
:104EE000CC3C414D64F9D96861C1DBE7C1E4017490
:104EF00075627AEF1D75A37B281C3147679EA0F66B
:104F0000D04E837FDDD816FD07338EFB0324DB17DD
:104F1000C3EBA40303EBC3071A467F0001330493DA
:104F200007F108030F93279B0C9959180E9B002A31
:104F300003EB012320933FF799AA0D9A2A9B134470
:104F40001B01289A03EBC10313441D6C0C9BFFF754
:104F500076BB159BCE495BF8244C03EBC30301EBF6
:104F600003132546D3F88C20986C80FB057530958B
:104F700082FB040441945BF8204CD3F88820D86C61
:104F8000254680FB0575319582FB040440945BF84F
:104F90001C4CD3F88420186D254680FB057532958E
:104FA00082FB04043F945BF8184CD3F88020586DC2
:104FB000254680FB0575339582FB04043E945BF81F
:104FC000144CDA6F986D254680FB0575349582FB8D
:104FD00004043D945BF8104C9A6FD86D254680FB15
:104FE0000575359582FB04043C945BF80C4C5A6FB4
:104FF000186E254680FB0575369582FB04043B94AC
:105000005BF8084C1A6F586E254680FB057537957E
:1050100082FB04043A945BF8042CD86E9C6E134611
:1050200084FB0353389380FB02323992149B994AD4
:1050300003EBC3031B01CC1882FB0A0A1E9A9010D3
:105040000AEB00024BF8242CCB58CAEB000A8AFB6F
:1050500003233099626C0B449B008AFB0212419936
:1050600000988D4D03600A449200D717D81782EA42
:1050700007014340C91B009F1B1AC7F8802819432A
:1050800085FB06361D9B4FEAA30E06EB0E034BF87D
:10509000203C6368C6EB0E061A4686FB0232319B43
:1050A000256C13449A002B4686FB0303409DC7F8EA
:1050B00080201D44AD00D317EE175A40D31A85EA5D
:1050C000060E1943C6EB0E060D9BC7F80058314378
:1050D000724880FB03231C9886109A194BF81C2CED
:1050E000A268F31A104683FB0020329AE76B024451
:1050F0009200384683FB00503F9F009D684BC5F8E7
:1051000000210744BF00D61782EA0600FD17821B64
:1051100087EA0500009E0A43401B0C99C6F8807779
:10512000024383FB01011B9B4FEAA30C01EB0C0321
:105130004BF8183CE368C1EB0C011E4681FB0636B8
:10514000339BA06B33449B0081FB00503E9F009932
:10515000544DC1F880310744BF00D91783EA0106D6
:105160004FEAE77E731A87EA0E06CEEB060E009E24
:105170000A98C6F800771A434EEA020285FB00300F
:10518000199B991043184BF8143C23690D1A1946C2
:1051900085FB0131349B606B19448900034685FB14
:1051A00003033D98C6F8001218448000CB1781EA2B
:1051B00003054FEAE07CE91A80EA0C05CCEB050C0C
:1051C0000A43394F0B9DC6F880064CEA020287FB62
:1051D00005351A9B99106B184BF8103C63694D1BF1
:1051E000184685FB0030359B266B03449B003046F8
:1051F00085FB00103C9E009F2C49C7F88032064476
:10520000B600DD17F71783EA0500431B86EA07009F
:10521000009D43EA020CC01BC5F80066474640EA01
:105220000C0081FB0737189B9B10FA184BF80C2CCD
:10523000A169DF1B87FB0131369BE26A19448900B3
:1052400087FB02323B9EC5F800131644B600CA170E
:1052500081EA02054FEAE67EA91A86EA0E05CEEB40
:10526000050E009D124B099FC5F8806508434EEA64
:10527000000083FB0727129B9A10BB184BF8083CD1
:10528000E369D71B1A4687FB0232379B12E000BF47
:10529000B09C01085CEB270B83FB2021EE5A1836EB
:1052A000E2F36A499A79825A64F9D968C1E40174CF
:1052B0001D75A37BA66A13449A00334687FB03132C
:1052C0003A9EC5F880231E44B600D11782EA010336
:1052D0004FEAE67C5A1A86EA0C031043CCEB030330
:1052E0002E4FDDF81480C5F80065184387FB083899
:1052F000139B4FEAA30A08EB0A034BF8043C216A0C
:10530000C8EB0A0888FB0131389B626A0B449B009A
:1053100088FB02123999C5F8003411448900DA1764
:105320002F465340CD179B1A81EA05061843741B7C
:10533000C7F880140443E8E4022F7FF40AAE30A9D2
:105340003A461798FEF71AFB15496FE602EBC203BF
:10535000209A02EBC3022092269A02EB8303269343
:10536000029B049A1946914240F38E85169B2F9218
:10537000062BC3F107032593C8BF00232393269B65
:10538000DFF81C80209903F1240913462B9A02EBC5
:105390008303C24601F1480B9846DAE1D04E837F81
:1053A000B09C010803EBC3030AEB031359F8244C28
:1053B000D3F88C10986C224680FB0252309281FB0D
:1053C0000404419459F8204CD3F88810D86C254631
:1053D00080FB0565319581FB0404409459F81C4C11
:1053E000D3F88410186D254680FB0565329581FB46
:1053F00004043F9459F8184CD3F88010586D254692
:1054000080FB0565339581FB04043E9459F8144CE8
:10541000D96F986D254680FB0565349581FB0404A2
:105420003D9459F8104C996FD86D254680FB056561
:10543000359581FB04043C9459F80C4C596F186E57
:10544000254680FB0565369581FB04043B9459F89D
:10545000084C196F586E254680FB0565379581FB12
:1054600004043A9459F8041CD86E9C6E0B4684FBD5
:105470000353389380FB013139919200C8F8002022
:10548000339BDAF82041D1179B004FEAE37C4A4076
:10549000521AC8F8803183EA0C0300921A930B9ACF
:1054A00084FB0232369BDAF82C1102EB8303DA1705
:1054B00083EA0200801A1B90C8F800330C9881FB25
:1054C0000030399ADAF8383100EB8202D01782EADC
:1054D00000052D1AC8F880241C950A9883FB00202B
:1054E000019D84FB05353C9BDAF84421284400EB00
:1054F0008303D81783EA0004271AC8F800361D97DB
:10550000099B82FB0303069881FB00203F9ADAF88F
:105510002441199F034403EB8203C8F88037319A72
:105520009200C8F880203499D817254643408C0053
:105530001B1AE117D617C8F8004284EA010E724020
:105540001E933846199585FB0030379BDAF83041B9
:1055500000EB8303D817254683EA0004241AC8F811
:1055600080331F94209585FB07373A9CDAF83C017D
:1055700007EB8404E31784EA0305189FC8F8004585
:10558000EC1A21943C4680FB0434199B059D184677
:1055900080FB05353D98DAF848312C4404EB800057
:1055A000C41780EA04052D1BC8F88006189583FBF4
:1055B0000707059C209880FB0434409BDAF82801FB
:1055C0001990274407EB8307C8F80078329B1A9C90
:1055D0009B00C8F800313598921B8000CCEB040C7E
:1055E000DC17C1EB0E01C5174CEA020C6340FE1735
:1055F0004CEA010C1C1B80EA05035D1B4CEA040409
:1056000087EA060344EA050C9B1BDDF830E0C8F886
:105610008002CDF830C00593199F87FB0E3E389964
:105620000B9EDAF834210EEB8101CB1781EA0300DF
:10563000C31AC8F800140B9382FB06363B9B0999EA
:10564000DAF8400106EB8303DC1783EA04052E1B1E
:10565000C8F88035099680FB0131069D87FB05352A
:105660003E98DAF84C310A9E294401EB8000C117BC
:1056700080EA0105C8F80007681A069083FB061641
:10568000DDF804E082FB0E3E419B159F149D0D99B1
:1056900006EB0E0404EB8304179BC8F880484FEA1E
:1056A000A30C0E9B49F81CCC4FEAA30E0F9B49F8A4
:1056B00018ECBF100A979F10109B49F8147C9E109D
:1056C000119B49F8106C9810129BAD1014959A100C
:1056D000E517139B01956C40149D49F8245C9B10C1
:1056E0000A9D49F8205C09E90D00239B049A019D5D
:1056F0004046FEF7B3F90C9E009A1F991D9F049B2C
:105700003043641B40EA02051B98099E96461C9A8A
:10571000054315430D4321991E9A06980D430B9995
:105720000D4335433D431543189A1543059A1543D8
:105730000543039A2C4322430392029A01339A426F
:1057400004930BF1480B09F1240908F1040800F057
:105750007C81A9F124030D93079A089B04998A423E
:10576000C8BF00230093169B062B00F38480259965
:105770005BF8482C5BF8443C0A410B414BF8482C41
:105780004BF8443C59F8243C0B4149F8243C5BF865
:10579000402C5BF83C3C0A410B414BF8402C4BF849
:1057A0003C3C59F8203C0B4149F8203C5BF8382C34
:1057B0005BF8343C0A410B414BF8382C4BF8343C35
:1057C00059F81C3C0B4149F81C3C5BF8302C5BF849
:1057D0002C3C0A410B414BF8302C4BF82C3C59F82F
:1057E000183C0B4149F8183C5BF8282C5BF8243C2A
:1057F0000A410B414BF8282C4BF8243C59F8143C37
:105800000B4149F8143C5BF8203C0B414BF8203C21
:105810005BF81C3C0B414BF81C3C59F8103C0B410D
:1058200049F8103C5BF8182C5BF8143C0A410B411A
:105830004BF8182C4BF8143C59F80C3C0B4149F828
:105840000C3C5BF8102C5BF80C3C0A410B414BF80C
:10585000102C4BF80C3C59F8083C0B4149F8083C1B
:105860001BE90C000B410A410BE90C0059F8043C00
:105870000B4149F8043C5BF80C5C5BF8187C5BF866
:10588000241C5BF8300C5BF83C2C5BF8484C7A4EDF
:105890007F1BC91B401A131A491BE41A5B1A6410B8
:1058A0005B1086FB002004EB670C40000A4600EB0F
:1058B0000C01E71B0191C0EB0C0C86FB021252009D
:1058C00003EB650602EB060E6C4880FB0E1E6C486F
:1058D0005B1B4FEA8E0E80FB03139B00B61A0593E9
:1058E000684880FB06265BF8083C5BF8145C5BF8B4
:1058F000201C5BF82C0C5BF8382C5BF8444CED1A40
:10590000491BB600401AC91A0CEB06030A93C6EBF2
:105910000C03019E0B9306EB0E030993CEEB0603DB
:10592000059E0C93121ABB19A41A1893521ABB1B8A
:10593000641052101993504E86FB0030400004EB67
:10594000650C641B059400EB0C05C0EB0C0C86FB8E
:1059500001315BF8083C494F490002EB6303C8186A
:10596000064687FB06065BF8080C121AB000069084
:10597000434E86FB02029000C1EB030E414A82FBBC
:105980000E3E5BF8044C5BF8107C5BF81C1C5BF86B
:10599000282C5BF8343C5BF8406C3F1BC91B521A47
:1059A0009B1A091BF61A5B1A4FEA8E0E5B100CEB62
:1059B0000E040E93069B1794CEEB0C040194EC1886
:1059C0001494059CEB1A069323181593231A059338
:1059D0007610294B83FB020206EB67005200F61B90
:1059E000C2EB000E171883FB01015BF8043C0E9A12
:1059F000490002EB63040D19204B83FB05055BF89E
:105A0000043CAD00D31A1E4A82FB03031D4A611AEF
:105A10009B0082FB010189000EEB01021092C1EB99
:105A20000E0211927A190E927A1B1392F218F31A3F
:105A30001293009B0F92022B7FF4B4AC1A4630A94C
:105A40000D98FDF79BFF309A17E513462F9A9B1A86
:105A5000269A03EBC30302EB8303029A2693229B4D
:105A60001946914240F3CD81269B049203F1240A0A
:105A70002B9B03EB820BB5E1A1EBD96E1D75A37BCC
:105A80009A79825A83FB2021089B022B00F0B28175
:105A9000D34A5AF8244C03EBC30302EB0313214609
:105AA000D3F88C20986C80FB01513091204682FB0A
:105AB000004041905AF8205CD3F88800DC6C2A46FC
:105AC00084FB0262319280FB054540955AF81C5CCC
:105AD000D3F884001C6D2E4684FB0676329680FB3C
