:020000040800F2
:10000000680800202507000881070008810700080C
:100010008107000881070008810700080000000030
:100020000000000000000000000000008107000840
:100030008107000800000000810700088107000810
:100040008107000881070008810700088107000870
:1000500081070008810700083105000855050008E0
:10006000790500089D050008C10500088107000802
:100070008107000881070008810700088107000840
:100080008107000881070008810700088107000830
:10009000810700088107000881070008E5050008BE
:1000A0008107000881070008810700088107000810
:1000B0008107000881070008810700088107000800
:1000C00081070008810700088107000881070008F0
:1000D00081070008810700088107000881070008E0
:1000E00071060008810700088107000881070008E1
:1000F00081070008810700088107000881070008C0
:1001000081070008810700088107000881070008AF
:10011000810700088107000881070008810700089F
:10012000810700088107000881070008810700088F
:10013000810700088107000881070008810700087F
:10014000810700088107000881070008810700086F
:10015000810700088107000881070008810700085F
:10016000810700088107000881070008810700084F
:10017000810700088107000881070008810700083F
:10018000810700088107000880B584B000AF012115
:100190004FF4001000F048FC0D4B3B600023BB8087
:1001A0004BF6FF73FB8000233B8100237B814FF4E0
:1001B0008043BB813B461946064800F08FFF012172
:1001C000044801F04DF800BF1037BD4680BD00BFA8
:1001D000A08601000054004080B582B000AF786076
:1001E0000B46FB701346BB7000BF4FF400317868BC
:1001F00001F0F4F80346002BF7D10121786801F0F3
:100200004FF800BF1349786801F0B8F80346002B97
:10021000F8D0BA78FB781946786801F081F8BB7895
:10022000002B08D100BF0C49786801F0A7F80346FD
:10023000002BF8D00AE0BB78012B07D100BF07499B
:10024000786801F09BF80346002BF8D000BF083710
:10025000BD4680BD010003008200070002000300CC
:1002600080B582B000AF78600B46FB70FB78194612
:10027000786801F073F800BF0549786801F07EF8EE
:100280000346002BF8D000BF0837BD4680BD00BF35
:100290008400070080B582B000AF786001217868E3
:1002A00001F01EF800BF0837BD4680BD90B589B08B
:1002B00002AF78600B467B8013467B707B88002BF7
:1002C00005D07A887B88013B1340002B21D0002386
:1002D0007B7519E07A887B7D42FA03F303F0010312
:1002E000002B0ED07B7D012202FA03F39BB27A78B9
:1002F00019467868FFF7DAFF0346002B01D0012387
:100300000CE17B7D01337B757B7D0F2BE2D90023D4
:1003100004E1844B1A687B881340002B05D1814B84
:100320005A687B881340002B01D00123F6E07B88BC
:10033000802B43D0802B11DC082B39D0082B06DC16
:10034000022B2FD0042B30D0012B28D03CE0202BC7
:1003500034D0402B32D0102B2DD035E0B3F5006FC8
:100360002FD0B3F5006F09DCB3F5007F26D0B3F5CD
:10037000806F26D0B3F5807F20D025E0B3F5005FF5
:100380001FD0B3F5005F03DCB3F5805F19D01BE02D
:10039000B3F5804F15D0B3F5004F12D014E006230B
:1003A000BB7513E00723BB7510E00823BB750DE098
:1003B0000923BB750AE00A23BB7507E01723BB7549
:1003C00004E02823BB7501E00123A7E07B78012B23
:1003D00002D10123FB7507E07B78002B02D10223B9
:1003E000FB7501E00023FB75798800230193FB7DF9
:1003F000009300230022786801F082F87B88184679
:1004000001F0A2F803463B75786801F0B5F80346A1
:10041000FB74454A444B5B6C43F48043536443494B
:100420003B7D9B08DBB21C46404A3B7D9B08DBB210
:10043000023352F823303A7D02F0030292000F207B
:1004400000FA02F2D2431A40A31C41F82320374895
:100450003B7D9B08DBB21C46344A3B7D9B08DBB2EC
:10046000023352F82330F97C3A7D02F00302920005
:1004700001FA02F21A43A31C40F823202949294B10
:100480001B687A88D24313400B602649254B5B6872
:100490007A88D24313404B602249224B1A687B88EA
:1004A00013430B601F491F4BDB687A88D24313400C
:1004B000CB601C491B4B9B687A88D24313408B60EE
:1004C0007B78012B06D11749164BDA687B881343DA
:1004D000CB6015E07B78002B06D11249114B9A684E
:1004E0007B8813438B600BE00E490E4BDA687B88E8
:1004F0001343CB600B490B4B9A687B8813438B608B
:10050000BB7D3B730A237B733B7DBB730123FB7372
:1005100007F10C03184600F093FF002318461C3720
:10052000BD4690BD003C014000380240003801400B
:1005300080B500AF064B5B6903F00103002B05D0CB
:10054000034B01225A61012000F088F900BF80BDF1
:10055000003C014080B500AF064B5B6903F002032D
:10056000002B05D0034B02225A61022000F076F9DD
:1005700000BF80BD003C014080B500AF064B5B6909
:1005800003F00403002B05D0034B04225A6104201E
:1005900000F064F900BF80BD003C014080B500AFB1
:1005A000064B5B6903F00803002B05D0034B0822C0
:1005B0005A61082000F052F900BF80BD003C0140A4
:1005C00080B500AF064B5B6903F01003002B05D02C
:1005D000034B10225A61102000F040F900BF80BD8B
:1005E000003C014080B500AF204B5B6903F0200365
:1005F000002B05D01D4B20225A61202000F02EF93F
:100600001A4B5B6903F04003002B05D0174B4022C7
:100610005A61402000F022F9144B5B6903F080031B
:10062000002B05D0114B80225A61802000F016F972
:100630000E4B5B6903F48073002B07D00B4B4FF418
:1006400080725A614FF4807000F008F9074B5B69C3
:1006500003F40073002B07D0044B4FF400725A616F
:100660004FF4007000F0FAF800BF80BD003C01407C
:1006700080B500AF2A4B5B6903F48063002B07D081
:10068000274B4FF480625A614FF4806000F0E6F827
:10069000234B5B6903F40063002B07D0204B4FF41E
:1006A00000625A614FF4006000F0D8F81C4B5B699F
:1006B00003F48053002B07D0194B4FF480525A613A
:1006C0004FF4805000F0CAF8154B5B6903F40053F7
:1006D000002B07D0124B4FF400525A614FF40050D8
:1006E00000F0BCF80E4B5B6903F48043002B07D08D
:1006F0000B4B4FF480425A614FF4804000F0AEF84B
:10070000074B5B6903F40043002B07D0044B4FF405
:1007100000425A614FF4004000F0A0F800BF80BDD5
:10072000003C014080B582B000AF104B7B60104BA5
:100730003B6007E03B681A1D3A607A68111D7960DA
:1007400012681A603B680B4A9342F3D30A480B497C
:100750004FF000028842B8BF40F8042BFADB00F0EB
:1007600013F800BF0837BD4680BD00BFD41600088F
:10077000000000201400002014000020640000206D
:1007800080B400AFFEE700BF80B582B002AF00F0DA
:100790005BFB00F01BFA00F0FFFB2B4B1B781846AD
:1007A00000F00EFC1421052000F020FC03210120A4
:1007B00000F03AFC0F2000F055FC0A2000F070FC1D
:1007C0002248FFF767FD4FF400430093204B4FF49E
:1007D00000521F491F4800F045F91E4800F07EF9FD
:1007E00003461A461C4B1A701A4B5B68002B13DD2C
:1007F000002288211548FFF7EFFC134B1B780133CB
:10080000DAB2114B1A70104B1B78184600F0D8FB67
:100810000E48FFF73FFDE0E70E4B5B68002BDCDA8C
:10082000002288210948FFF7D7FC074B1B78013BC2
:10083000DAB2054B1A70044B1B78184600F0C0FB67
:100840000248FFF727FDC8E70000002000540040E1
:10085000000802402C0000200100002080B582B07A
:1008600000AF0346FB800A4B1B8BFA889A4202D1E9
:10087000074800F05DF9074B1B8BFA889A4202D1BA
:10088000044800F055F900BF0837BD4680BD00BFE1
:100890002C0000204800002080B489B000AF7860B0
:1008A0000023BB6100237B610023FB6102233B61CA
:1008B0000023FB600223BB60484B9B6803F00C03E2
:1008C000BB61BB69042B07D0082B09D0002B3FD19B
:1008D0007B68434A1A603FE07B68424A1A603BE00B
:1008E0003E4B5B6803F480039B0DFB603B4B5B68F6
:1008F00003F03F03BB60FB68002B0DD0394ABB6897
:10090000B2FBF3F2354B596847F6C0730B409B09B5
:1009100003FB02F3FB610CE0314ABB68B2FBF3F26C
:100920002E4B596847F6C0730B409B0903FB02F33B
:10093000FB612A4B5B6803F440331B0C01335B0003
:100940003B61FA693B69B2FBF3F27B681A6003E032
:100950007B68234A1A6000BF204B9B6803F0F003BA
:10096000BB61BB691B09BB611F4ABB6913441B7890
:10097000DBB27B617B681A687B69DA407B685A600E
:10098000164B9B6803F4E053BB61BB699B0ABB61D8
:10099000154ABB6913441B78DBB27B617B685A68DC
:1009A0007B69DA407B689A600C4B9B6803F4604378
:1009B000BB61BB695B0BBB610B4ABB6913441B7812
:1009C000DBB27B617B685A687B69DA407B68DA60FE
:1009D00000BF2437BD4680BC704700BF00380240CE
:1009E0000024F40000127A000400002080B483B0D8
:1009F00000AF78600B46FB70FB78002B06D00949EE
:100A0000084B1A6B7B6813430B6306E00549054BE3
:100A10001A6B7B68DB4313400B6300BF0C37BD468A
:100A200080BC70470038024080B483B000AF78606B
:100A30000B46FB70FB78002B06D00949084B1A6C5B
:100A40007B6813430B6406E00549054B1A6C7B6811
:100A5000DB4313400B6400BF0C37BD4680BC7047BE
:100A60000038024080B586B002AFF860B9603B60E4
:100A70001346FB80FB68BA681A61FB683A685A61E2
:100A8000FB68FA881A83FB683A8B5A83FB681869FB
:100A9000FB681B8B02221946FFF708FCFB685869AC
:100AA000FB68598B0023019301230093002300224C
:100AB00000F026FDFB6800225A72FB680022DA6013
:100AC000FB6800225A60FB6800221A60FB68012262
:100AD0009A7200BF1037BD4680BD00BF80B483B09E
:100AE00000AF78607B68DA687B681B68D21A7B6825
:100AF0005A607B68DA687B681A607B68DB68002B69
:100B000004DA7B6801221A7201230CE07B68DB683F
:100B1000002B04DD7B6800221A72002303E07B684F
:100B200002221A72022318460C37BD4680BC704759
:100B300080B485B000AF78607B681B691B697A68F8
:100B4000128B1340002B14BF01230023DBB2FB7375
:100B50007B685B691B697A68528B1340002B14BF5A
:100B600001230023DBB2BB737B689B7AFA7B9A423A
:100B700027D07B68FA7B9A727B689B7A002B20D106
:100B80007B685B7A002B0ED1BB7B012B05D17B6888
:100B9000DB685A1E7B68DA6013E07B68DB685A1CEE
:100BA0007B68DA600DE0BB7B012B05D17B68DB68DD
:100BB0005A1C7B68DA6004E07B68DB685A1E7B683D
:100BC000DA6000BF1437BD4680BC704780B586B080
:100BD00000AF01210220FFF709FF01210420FFF7E8
:100BE00005FFC0233B6102233B7500237B75012376
:100BF000BB750023FB7507F110031946194800F077
:100C000035F82023BB6001233B7300237B73002353
:100C1000BB730023FB7307F108031946114800F06A
:100C200025F84FF480433B6000233B7100237B7128
:100C30000023FB713B4619460B4800F017F80122D0
:100C40002021084800F0A0F804220621054800F001
:100C5000B3F804220721034800F0AEF800BF1837AC
:100C6000BD4680BD000402400008024080B487B049
:100C700000AF7860396000237B6100233B61002373
:100C8000FB6000237B6176E001227B6902FA03F3BB
:100C90003B613B681A683B691340FB60FA683B693B
:100CA0009A4265D17B681A687B695B00032101FA6F
:100CB00003F3DB431A407B681A607B681A683B6861
:100CC0001B7919467B695B0001FA03F31A437B68C1
:100CD0001A603B681B79012B03D03B681B79022B00
:100CE0002ED17B689A687B695B00032101FA03F3CC
:100CF000DB431A407B689A607B689A683B685B7943
:100D000019467B695B0001FA03F31A437B689A601A
:100D10007B685A687B699BB2194601238B40DB4391
:100D20001A407B685A607B685B683A689279114622
:100D30007A6992B201FA02F292B21A437B685A605F
:100D40007B68DA687B699BB25B00032101FA03F3DD
:100D5000DB431A407B68DA607B68DA683B68DB79E2
:100D600019467B695B0001FA03F31A437B68DA607A
:100D70007B6901337B617B690F2B85D900BF1C37F1
:100D8000BD4680BC704700BF80B483B000AF7860C0
:100D90000B467B8013467B707B78002B03D07B68EF
:100DA0007A881A8302E07B687A885A8300BF0C37FE
:100DB000BD4680BC704700BF80B485B000AF78608E
:100DC0000B467B8013467B700023FB600023BB60D7
:100DD0007A787B8803F007039B0002FA03F3FB6039
:100DE0007B88DB089BB218467B88DB089BB21A46DF
:100DF0007B68083253F822207B8803F007039B00AE
:100E00000F2101FA03F3DB4302EA03017B6800F1DF
:100E1000080243F822107B88DB089BB21A467B68E5
:100E2000083253F82220FB681343BB607B88DB0841
:100E30009BB21A467B680832B96843F8221000BF9B
:100E40001437BD4680BC704780B500AF124A124BC4
:100E50001B6843F0010313600F4B00229A600E4A97
:100E60000D4B1B6823F0847323F4803313600A4B0B
:100E70000A4A5A60084A084B1B6823F4802313600F
:100E8000054B0022DA6000F00DF8054B4FF00062D0
:100E90009A6000BF80BD00BF0038024010300024BF
:100EA00000ED00E080B483B000AF00237B6000233E
:100EB0003B60354A344B1B6843F480331360324B3C
:100EC0001B6803F400333B607B6801337B603B6845
:100ED000002B03D17B68B3F5A06FF0D12A4B1B68C0
:100EE00003F40033002B02D001233B6001E0002318
:100EF0003B603B68012B42D1234A234B1B6C43F0E0
:100F000080531364214A214B1B6843F480431360D0
:100F10001D4A1D4B9B6893601B4A1B4B9B6843F407
:100F200000439360184A184B9B6843F4A0539360A6
:100F3000154B174A5A60144A134B1B6843F08073D1
:100F4000136000BF104B1B6803F00073002BF9D037
:100F5000104B40F205621A600B4A0B4B9B6823F062
:100F600003039360084A084B9B6843F002039360B5
:100F700000BF054B9B6803F00C03082BF9D100BFA1
:100F80000C37BD4680BC70470038024000700040FE
:100F900019544007003C024080B500AFFFF7F4F859
:100FA000012220210448FFF7EFFE00228821034898
:100FB000FFF712F900BF80BD00040240005400405A
:100FC00080B582B000AF0346FB71FB79132B07D9C4
:100FD000FB793F2B04D8FB7919460348FFF740F90A
:100FE00000BF0837BD4680BD0054004080B582B0C8
:100FF00000AF03460A46FB711346BB71BB791F2B3A
:101000000BD8FB795B015AB297F9063013435BB2F8
:10101000DBB219460348FFF723F900BF0837BD4686
:1010200080BD00BF0054004080B582B000AF0346D1
:101030000A46FB711346BB71BB79032B0CD8BB79F5
:10104000DB00DAB2FB791343DBB243F04003DBB2DF
:1010500019460348FFF704F900BF0837BD4680BDB5
:101060000054004080B582B000AF0346FB71FB79AD
:101070000F2B0ED8FB79072B03D9FB79C3F117038C
:10108000FB71FB7943F06003DBB219460348FFF7BD
:10109000E7F800BF0837BD4680BD00BF00540040E0
:1010A00080B582B000AF0346FB71FB790F2B0ED8E1
:1010B000FB79072B03D9FB79C3F11703FB71FB798C
:1010C00043F07003DBB219460348FFF7C9F800BFCD
:1010D0000837BD4680BD00BF0054004080B58AB0CF
:1010E00000AF786039600023FB8400237B840423F5
:1010F000BB84574BFB617B689B88FB84FB8C23F094
:101100003F03FB8407F10C031846FFF7C5FB7B691F
:10111000FB61FB694F4AA2FB03239B0C7B84FA8C87
:101120007B8C1343FB847B68FA8C9A807B681B88DA
:101130009BB223F001039AB27B681A800023FB84E0
:101140003B681B68444A934215D83B681B685B00A8
:10115000FA69B2FBF3F3BB84BB8C032B01D80423E5
:10116000BB84FA8CBB8C1343FB847B8C01339AB217
:101170007B681A8440E03B68DB884BF6FF72934241
:1011800009D13B681A6813465B001344FA69B2FB45
:10119000F3F3BB840EE03B681A6813469B001344CC
:1011A0009A001344FA69B2FBF3F3BB84BB8C43F49B
:1011B0008043BB84BB8CC3F30B03002B03D1BB8CDC
:1011C00043F00103BB84BA8CFB8C13439BB26FEAE0
:1011D00043436FEA5343FB847B8C4FF4967202FBCC
:1011E00003F31E4A82FB03129211DB17D31A9BB240
:1011F00001339AB27B681A847B68FA8C9A837B6885
:101200001B889BB243F001039AB27B681A807B680B
:101210001B88FB84FB8C23F4816323F00203FB8493
:101220003B689A883B685B8913439AB2FB8C1343F3
:10123000FB847B68FA8C1A803B689A893B681B891F
:1012400013439AB27B681A8100BF2837BD4680BD20
:1012500000127A0083DE1B43A0860100D34D62108A
:1012600080B483B000AF78600B46FB70FB78002B36
:1012700008D07B681B889BB243F001039AB27B685D
:101280001A8007E07B681B889BB223F001039AB2A7
:101290007B681A8000BF0C37BD4680BC704700BF1A
:1012A00080B483B000AF78600B46FB70FB78002BF6
:1012B00008D07B681B889BB243F480739AB27B682A
:1012C0001A8007E07B681B889BB223F480739AB274
:1012D0007B681A8000BF0C37BD4680BC704700BFDA
:1012E00080B483B000AF78600B46FB70FB78002BB6
:1012F00008D07B681B889BB243F400739AB27B686A
:101300001A8007E07B681B889BB223F400739AB2B3
:101310007B681A8000BF0C37BD4680BC704700BF99
:1013200080B483B000AF78600B46FB701346BB708F
:10133000BB78002B04D0FB7843F00103FB7003E083
:10134000FB7823F00103FB70FB789AB27B681A826A
:1013500000BF0C37BD4680BC704700BF80B483B06F
:1013600000AF78600B46FB70FB789AB27B681A82FC
:1013700000BF0C37BD4680BC704700BF80B487B04B
:1013800000AF7860396000233B610023FB600023DD
:10139000BB600023FB757B689B8A9BB2FB607B680C
:1013A0001B8B9BB2BB60BB681B04BB60FA68BB684D
:1013B000134323F07F433B613A693B681A403B6823
:1013C0009A4202D10123FB7501E00023FB75FB7DEE
:1013D00018461C37BD4680BC704700BF80B487B03C
:1013E00000AF786039600023FB7500233B61002368
:1013F000FB607B68FB603B681B0F3B613B6823F035
:101400007F433B603B69002B03D0FB681433FB60D8
:1014100005E03B681B0C3B60FB681833FB60FB6816
:101420001A683B681340002B02D00123FB7501E0D2
:101430000023FB75FB7D18461C37BD4680BC7047FA
:1014400080B485B000AF78600023FB730023BB73CA
:101450000F237B737B68DB78002B38D0264BDB684F
:10146000DB4303F4E0631B0AFB73FB7BC3F1040360
:10147000BB737A7BFB7B42FA03F37B737B685B78FD
:101480001A46BB7B02FA03F3FB737B689A787B7B7B
:101490001340DAB2FB7B1343FB73FB7B1B01FB7333
:1014A000164A7B681B781344FA7B83F80023134A9F
:1014B0007B681B785B09DBB218467B681B7803F0FE
:1014C0001F03012101FA03F342F820300FE00B491A
:1014D0007B681B785B09DBB218467B681B7803F0DE
:1014E0001F0301229A4000F1200341F8232000BF8E
:1014F0001437BD4680BC704700ED00E000E100E01D
:1015000080B584B002AF7860084611461A4603469B
:101510007B800B467B7013463B707B88002B0ED084
:10152000786800F039F838787A7879883B7D0193CB
:101530003B7C00930346786800F046F800E000BF6B
:101540000837BD4680BD00BF80B485B000AF0346FC
:10155000FB800023FB8105E0FB890133FB81FB88D5
:101560005B08FB80FB88012BF6D8FB8918461437F3
:10157000BD4680BC704700BF80B483B000AF7860C8
:101580007B6803F13F4303F57E039B0A9BB2184639
:101590000C37BD4680BC704780B582B000AF786024
:1015A0007868FFF7E9FF03461A46012303FA02F1C0
:1015B000044A044B1B6B0B43136300BF0837BD4643
:1015C00080BD00BF0038024080B584B000AF7860B5
:1015D000084611461A4603467B800B467B7013462D
:1015E0003B707868FFF7C8FF0346BB730023FB73AB
:1015F00067E07A88FB7B42FA03F303F00103002BD8
:101600005BD0BB7BBA7B324931F8122011B2FA7B36
:10161000012000FA02F212B20A4312B291B22C4A2D
:1016200022F813107B68DB68FA7B5200032101FA71
:1016300002F2D2431340397EFA7B520001FA02F2E1
:101640001A437B68DA607B681A68FB7B5B000321C6
:1016500001FA03F3DB4313407978FA7B520001FA75
:1016600002F21A437B681A607B78012B02D07B78E8
:10167000022B23D17B685B68FA7B012101FA02F21D
:1016800092B2D24313403978FA7B01FA02F292B255
:101690001A437B685A607B689A68FB7B5B00032176
:1016A00001FA03F3DB431340397FFA7B520001FA5E
:1016B00002F21A437B689A6000E000BFFB7B0133B3
:1016C000FB73FB7B0F2B94D900BF1037BD4680BD49
:0416D00014000020E2
:1016D4001E020000000000000102030401020304D2
:0416E40006070809E4
:0400000508000000EF
:00000001FF
