:020000040800F2
:1000000038710020B52700081128000811280008C1
:10001000112800081128000811280008000000001D
:10002000000000000000000000000000112800088F
:100030001128000800000000112800089D4F00084A
:1000400011280008112800081128000811280008AC
:100050001128000811280008C1160008E51600083C
:10006000091700082D17000851170008112800086B
:10007000112800081128000811280008112800087C
:10008000112800081128000811280008112800086C
:100090001128000811280008112800087517000809
:1000A000112800081128000811280008112800084C
:1000B000F154000811280008112800081128000830
:1000C000112800081128000811280008112800082C
:1000D00011280008B1340008E13400081135000887
:1000E000011800081128000811280008112800082C
:1000F0001128000811280008112800089569000837
:1001000011280008112800081128000811280008EB
:100110004135000871350008112800081128000831
:1001200011280008112800081128000811280008CB
:1001300011280008112800081128000811280008BB
:10014000112800081128000811280008297000084B
:10015000112800081128000811280008A1350008FE
:10016000112800081128000811280008112800088B
:10017000112800081128000811280008112800087B
:10018000112800081128000880B485B000AF7860FD
:100190000023FB607B68DB684FF0FF325A607B68AE
:1001A000DB686FF080425A61FB7B43F08003FB7396
:1001B0007B7B43F008037B737B68DB68FA689A619A
:1001C00000BF1437BD4680BC704700BF80B586B005
:1001D00000AF78600023FB7400237B610023FB6089
:1001E000032006F0EFFE7B68DB681B69FB607B6920
:1001F00001337B617B69184A934201D9002326E0D1
:10020000FB68C3F3C073DBB2002BE9D000237B6132
:10021000FB6843F00103FB607B68DB68FA681A61E6
:100220007B68DB681B69FB607B6901337B617B69F1
:10023000094A934206D8FB68C3F30003DBB2012BE3
:10024000EED000E000BF032006F0BCFEFB7C1846A9
:100250001837BD4680BD00BF400D030080B489B093
:1002600000AFF860B96011461A460B46FB711346A1
:10027000BB800023FB76FB68DB78002B22D10023B8
:100280007B610023FB61BB880333002B00DA03335F
:100290009B107B61FB79FA6832339B0013449B68A7
:1002A0003B610023FB6109E0BB681A683B691A6087
:1002B000FB690133FB61BB680433BB60FA697B698E
:1002C0009A42F1D3FB7E18462437BD4680BC704766
:1002D00080B489B000AFF860B9601346FB8000239A
:1002E000FB61FB880333002B00DA03339B10BB61F7
:1002F000FB68D3F8D0307B610023FB6109E07B69A8
:100300001A68BB681A60FB690133FB61BB68043380
:10031000BB60FA69BB699A42F1D3BB6818462437BF
:10032000BD4680BC704700BF80B487B000AF786026
:100330000B46FB7000233B610023FB737B680022AC
:10034000DA707B6801229A707B6840229A80FB7881
:10035000012B13D14FF0A0433B617B680122DA727D
:100360007B6808221A707B6804225A707B684FF4FD
:10037000A072DA807B6802221A7211E0FB78002BEF
:100380000ED1454B3B617B680022DA727B680C2200
:100390001A707B6806225A707B684FF4A062DA807C
:1003A0003A697B68DA603B6903F500631A467B684B
:1003B0001A6100237B611CE07B695A013B6913448D
:1003C00003F5106319467A687B6904339B00134474
:1003D00099607B695A013B69134403F53063194600
:1003E0007A687B6914339B00134459607B6901333D
:1003F0007B617B685B781A467B699A42DCD83B69F3
:1004000003F580631A467B685A613B6903F588638C
:100410001A467B68C3F8CC2000237B610FE07B6920
:100420005A013B69134403F5A06319467A687B6956
:1004300022339B00134499607B6901337B617B68A5
:100440001B781A467B699A42E9D800237B610FE04A
:100450007B691A033B69134403F5805319467A6894
:100460007B6932339B00134499607B6901337B6164
:100470007B681B781A467B699A42E9D83B6903F589
:1004800060631A467B68C3F80C21FB7B18461C3757
:10049000BD4680BC704700BF0000044080B586B0F8
:1004A00000AF78600023FB7500233B610023FB60F5
:1004B0000023BB607B681B7A012B42D17B68DB6821
:1004C0009B6BFB60BB7B6FF30003BB737B685B7A4A
:1004D000002B03D0BB7B43F01003BB737B68DB684E
:1004E000FA689A6300233B617B68DB68DB683B61E9
:1004F0003B7C6FF386133B74BB7C6FF38613BB743A
:10050000BB7C6FF34103BB74BB7C6FF3C303BB7451
:100510007B68DB683A69DA607868FFF757FE7B68CA
:10052000DB78012B3DD13B7A052262F344033B7219
:100530003B7A43F020033B727B68DB68BA689A60C1
:100540002FE07B68DB68DB683B613B7C43F040036A
:100550003B747B68DB683A69DA607868FFF736FEDF
:100560000023FB60BB7B43F00103BB73BB7B43F009
:100570000403BB73BB7B43F00803BB73BB7B43F03B
:100580002003BB737B685B7A002B03D0BB7B43F0FB
:100590001003BB737B68DB68FA689A63142006F06B
:1005A00033FD7B68DB78012B10D17B68DB689B68AF
:1005B000BB603B7A052262F344033B723B7A43F013
:1005C00020033B727B68DB68BA689A60FB7D184643
:1005D0001837BD4680BD00BF80B485B000AF7860DD
:1005E0000023FB730023BB603B7A43F001033B72A3
:1005F0007B68DB687A68D2689168BA680A439A6057
:10060000FB7B18461437BD4680BC704780B485B06C
:1006100000AF78600023FB730023BB603B7A43F09C
:1006200001033B727B68DB687A68D2689168BA68BC
:10063000D2430A409A60FB7B18461437BD4680BC03
:10064000704700BF80B586B000AF78603960002386
:10065000FB7400237B610023FB60FB6843F02003F5
:10066000FB603B68DBB203F01F03DAB2FB6862F3A6
:100670008A13FB607B68DB68FA681A617B68DB6859
:100680001B69FB607B6901337B617B69094A93428B
:1006900006D8FB68C3F34013DBB2012BEED000E0B9
:1006A00000BF032006F08EFCFB7C18461837BD46C1
:1006B00080BD00BF400D030080B586B000AF7860FC
:1006C0000023FB7400237B610023FB60FB6843F085
:1006D0001003FB607B68DB68FA681A617B68DB6883
:1006E0001B69FB607B6901337B617B69094A93422B
:1006F00006D8FB68C3F30013DBB2012BEED000E099
:1007000000BF032006F05EFCFB7C18461837BD4690
:1007100080BD00BF400D030080B584B000AF78609D
:100720000B46FB700023FB737B68DB68DB68BB60F8
:10073000FB7A6FF34513FB72FB7A6FF38613FB7240
:10074000FB78012B04D1FB7A43F02003FB7206E017
:10075000FB78002B03D1FB7A43F04003FB727B68EC
:10076000DB68BA68DA60322006F04EFCFB7B184684
:100770001037BD4680BD00BF80B483B000AF786045
:100780007B68DB685B6903F0010318460C37BD46E4
:1007900080BC704780B582B000AF78607868FFF7A2
:1007A000EBFF0346012B0CBF01230023DBB21846ED
:1007B0000837BD4680BD00BF80B485B000AF78600B
:1007C0000023FB607B68DB685B69FB607B68DB6840
:1007D0009B69FA681340FB60FB6818461437BD46F6
:1007E00080BC704780B588B000AF78600023FB768E
:1007F0000023FB6100237B6100233B610023FB603E
:10080000786806F0B7FB7B68D3F80C3100221A60D9
:100810007B681B7A012B04D10021786800F0F0F886
:1008200003E00121786800F0EBF8786800F030F917
:100830007B685B691B68FB603B7B6FF382033B73E8
:100840007B685B69FA681A607B68DB7A012B14D1DC
:100850007B68DB6880225A628023BB826023FB8234
:100860007B68DB687A699A62E0233B8260237B8243
:100870007B68DB683A69C3F8002110217868FFF7CC
:10088000E1FE7868FFF718FF0023FB6113E07A6848
:10089000FB6922339B0013449B684FF0FF329A6040
:1008A0007A68FB6922339B0013449B680022DA605C
:1008B000FB690133FB617B681B781A46FB699A422E
:1008C000E5D80121786800F01DF8786800F058F844
:1008D000FB7E18462037BD4680BD00BF80B483B084
:1008E00000AF78607B685B699B6803F00103002BB5
:1008F0000CBF01230023DBB218460C37BD4680BC79
:10090000704700BF80B584B000AF78600B46FB70C5
:100910000023FB60FB781946786806F011FB7868C5
:1009200000F08AF80346FB607B7B03F01003DBB228
:10093000002B0BD1FB78012B08D17B7B43F01003FC
:100940007B737B68D3F8CC30FA681A607B7B03F04A
:100950001003DBB2002B0BD0FB78002B08D17B7B84
:100960006FF304137B737B68D3F8CC30FA681A609A
:10097000C82006F049FB00BF1037BD4680BD00BF50
:1009800080B584B000AF78600023FB730023BB60A8
:100990007B68DB6800229A617B68DB684FF0FF327E
:1009A0005A617868FFF7F0FB7B68DB78002B03D196
:1009B0003B7A43F010033B72FB7A43F00103FB7276
:1009C000FB7A43F00203FB72FB7A43F02003FB72D5
:1009D0003B7A43F008033B72BB7A43F02003BB72BF
:1009E0007B68DB687A68D2689169BA68D243114043
:1009F000BA680A439A61FB7B18461037BD4680BD32
:100A000080B485B000AF78600B46FB707B685B6993
:100A10001B68FB60FB7803F00303DAB23B7B62F3F5
:100A200001033B737B685B69FA681A6000BF143787
:100A3000BD4680BC704700BF80B485B000AF786011
:100A40007B68D3F8CC301B68FB603B7B6FF3820381
:100A50003B733B7B6FF341033B733B7B6FF3C30300
:100A60003B733B7B6FF345133B73FB6818461437AE
:100A7000BD4680BC704700BF80B483B000AF7860D3
:100A80007B685B695B6918460C37BD4680BC704764
:100A900080B584B000AF78607868FFF7CDFF03467B
:100AA000FB607B7B43F001037B737B68D3F8CC3026
:100AB000FA681A600A2006F0A7FA7B7B6FF300033E
:100AC0007B737B68D3F8CC30FA681A60142006F088
:100AD0009BFA012318461037BD4680BD80B489B00B
:100AE00000AF78600B46FB700023FB770023BB61EF
:100AF00000233B6100237B610023FB604FF0FF3349
:100B0000BB60FB787A6822339B0013449B68BA6809
:100B10009A6000237B617B68DB78012B03D13B7DEE
:100B200043F004033B75FB787A685B01134403F2DE
:100B3000B1331B78032B00F2888001A252F823F016
:100B4000510B0008050C0008510B0008B90B0008F8
:100B50003B7D43F001033B753B7D43F008033B7550
:100B60003B7D43F080033B757B7D43F004037B7545
:100B70003B7D43F010033B75FB787A685B011344BF
:100B800003F2AE331B78002B04D07B7D43F00103CE
:100B90007B7555E03B7D43F040033B75FB787A68FD
:100BA0005B01134403F56C731B78002B48D03B7D2D
:100BB00043F020033B7543E03B7D43F001033B756D
:100BC0003B7D43F010033B753B7D43F008033B75D1
:100BD0003B7D43F080033B757B7D43F004037B75D5
:100BE0007B7D43F002037B75FB787A685B011344DD
:100BF00003F2AE331B78002B24D07B7D43F001033E
:100C00007B751FE03B7D43F001033B757B7D43F02B
:100C100002037B753B7D43F020033B75FB787A68CC
:100C20005B01134403F2AE331B78002B0CD03B7DE9
:100C300043F080033B757B7D43F001037B7503E04C
:100C400000BF02E000BF00E000BFFB787A682233FB
:100C50009B0013449B687A69DA60FB78012202FAF0
:100C600003F3BB617B685B697A6852699169BA6911
:100C70000A439A61FB7C43F00203FB747B68DB68E8
:100C80007A68D26891693A690A439A610023FB60E5
:100C9000FB787A685B01134403F56B731B7803F0F0
:100CA0007F03DAB2FB8962F38C13FB81FB787A68ED
:100CB0005B01134403F2AD331B7803F00F03DAB288
:100CC0007B7B62F3C6037B73FB787A685B0113441A
:100CD00003F2AE331B7803F00103DAB27B7B62F3DD
:100CE000C7137B73FB787A685B01134403F2AF335D
:100CF0001B78022B0CBF01230023DAB2BB7B62F30B
:100D00004103BB73FB787A685B01134403F2B13390
:100D10001B7803F00303DAB2BB7B62F38303BB737C
:100D2000FB787A685B01134403F2B2331B88C3F388
:100D30000A039AB2BB8962F30A03BB81FB787A6823
:100D40005B01134403F2B1331B78032B03D1FB7B0C
:100D500043F02003FB73FB787A6822339B00134433
:100D60009B68FA681A60FB7F18462437BD4680BC32
:100D7000704700BF80B58CB000AF78600B46FB7049
:100D8000002387F82D3000237B854FF480733B854B
:100D900000233B6200237B620023BB60FB787A6800
:100DA0005B01134403F56F731B68002B32D0FB7893
:100DB0007A685B01134403F56F731B68FA787968EE
:100DC00052010A4402F2B23212881344013BFA780B
:100DD000796852010A4402F2B2321288B3FBF2F38C
:100DE000FB85FA8D3B8D9A4216D93B8DFB85FB78AE
:100DF000FA8DF97878684901014401F2B231098825
:100E000001FB02F211467A685B01134403F56F732C
:100E1000196001E00123FB85FB787A685B011344CC
:100E200003F2AE331B78002B11D0FB78FA8DF978E2
:100E300078684901014401F2B231098801FB02F2EC
:100E400011467A685B01134403F56F731960FB78F0
:100E50007A685B01134403F56F731B68C3F31202D6
:100E60003B6A62F312033B62FB8DC3F309039AB240
:100E70007B8C62F3CC037B84FB787A6815335B014F
:100E8000134403F58A731B7803F00303DAB297F86F
:100E9000233062F3461387F82330FB787A682233D5
:100EA0009B0013449B683A6A1A617B68DB78012BCC
:100EB0000ED1FB787A6822339B0013449B68FA7842
:100EC0007968153252010A4402F58C7212685A612F
:100ED000FB787A6822339B0013449B681B687B6213
:100EE0007868FFF7FBFC034603F00103DAB297F8DA
:100EF000273062F3451387F8273097F8273043F0FF
:100F0000800387F8273097F827306FF3861387F828
:100F10002730FB787A6822339B0013449B687A6AF7
:100F20001A607B68DB78002B7DD1FB787A685B01E7
:100F3000134403F2AE331B78002B74D1FB787A682C
:100F40005B01134403F56F731B68002B6BD0FB78B8
:100F50007A685B01134403F2B1331B78032B49D841
:100F600001A252F823F000BF790F0008B70F000864
:100F7000790F0008B70F00087B68DB68DB6A7B61CC
:100F8000FB787A685B01134403F56F731B680333C6
:100F90009B087B85BB8A7A8D9A422DD93B7A43F098
:100FA00020033B727B68DB687A68D2689169BA6813
:100FB0000A439A6120E07B685B691B69FB60FB78F0
:100FC0007A685B01134403F56F731B6803339B0856
:100FD0007B85BB897A8D9A4210D9FB7A43F0040352
:100FE000FB727B68DB687A68D2689169BA680A43E9
:100FF0009A6103E000BF02E000BF00E000BFFB78A1
:101000007A6815335B01134403F58C731968FB7818
:101010007A685B01134403F56F731B689BB2FA781F
:101020007868FFF71BF997F82D3018463037BD4622
:1010300080BD00BF80B48BB000AF78600B46FB7002
:10104000002387F827300023BB6100233B61FB7836
:101050007A6822339B0013449B681B68FB60FB7B10
:1010600043F08003FB73FB7B43F04003FB73BB7BCC
:1010700003F00C03DBB2002B05D0BB7B03F00C03A9
:10108000DBB2082B0BD17B68DB68DB6ABB61BB7E04
:10109000002B0FD1FB7B6FF3C713FB730AE07B6858
:1010A0005B691B693B61BB7C002B03D1FB7B6FF34E
:1010B000C713FB73FB787A6822339B0013449B6849
:1010C000FA681A6097F8273018462C37BD4680BC5E
:1010D000704700BF80B487B000AF78600B46FB70EC
:1010E0000023FB750023FB60FB7B43F08003FB7355
:1010F000FB89012262F3CC03FB81FB787A682233FF
:101100009B0013449B68FA681A61FB787A68223363
:101110009B0013449B681B683B61FB7C43F080038E
:10112000FB74FB7C6FF38613FB74FB787A682233C5
:101130009B0013449B683A691A60FB7D18461C3774
:10114000BD4680BC704700BF80B586B000AF7860F8
:101150000B46FB700023FB75FB78012B02D131237A
:101160003B7201E030233B723A237B7278680AF0CD
:1011700087FF024607F108030233796818460AF030
:1011800087FE78680AF07CFF0346023307F11802F5
:101190001344002203F8102C07F10803012219461A
:1011A000074807F04DFD0346002B04D10123FB75D2
:1011B000044B00221A70FB7D18461837BD4680BDCF
:1011C000EC560020F803002080B582B000AF012368
:1011D000FB712D4B1B78002B17D12C4B00221A7062
:1011E0002B4B4FF420521A60294B1B680133294ABC
:1011F00013604FF4A051284805F072FB274B0122E1
:101200001A70214B01221A7039E01F4B1B78012BF9
:1012100035D1204B1A681E4B1B689A4227D304F025
:1012200051F90346002B07D01D4808F029F8164B4A
:1012300002221A700023FB71184B1B78002B1ED062
:10124000124B1B78002B07D1114B1A68114B124916
:10125000134807F035FE06E00D4B1A680D4B114997
:101260000F4807F02DFE0D4B00221A7007E00C48C6
:1012700008F006F8044B02221A700023FB71FB7978
:1012800018460837BD4680BDF8030020E92E00202F
:10129000FC03002000040020E806002000000020DD
:1012A000EC560020EC2E002080B500AF154B1B78CB
:1012B000DBB2002B23D0144B1B78002B1FD1114B1A
:1012C00000221A70104B01221A70104B1B78002B51
:1012D00005D14FF4A0510E4805F044FB04E04FF453
:1012E000A0510C4805F03EFB084B1B78002B03D1A6
:1012F000064B01221A7002E0044B00221A7000BF54
:1013000080BD00BF8001002000000020E92E0020E9
:10131000E8060020EC2E002080B584B000AF01214B
:101320004FF4001001F024FD0D4B3B600023BB8007
:101330004BF6FF73FB8000233B8100237B814FF43E
:101340008043BB813B461946064808F0B1FB0121AA
:10135000044808F06FFC00BF1037BD4680BD00BFD9
:10136000A08601000054004080B582B000AF7860D4
:101370000B46FB701346BB7000BF4FF4003178681A
:1013800008F016FD0346002BF7D10121786808F01C
:1013900071FC00BF1349786808F0DAFC0346002BA3
:1013A000F8D0BA78FB781946786808F0A3FCBB78C7
:1013B000002B08D100BF0C49786808F0C9FC03462F
:1013C000002BF8D00AE0BB78012B07D100BF0749FA
:1013D000786808F0BDFC0346002BF8D000BF083742
:1013E000BD4680BD0100030082000700020003002B
:1013F00080B582B000AF78600B46FB70FB78194671
:10140000786808F095FC00BF0549786808F0A0FCF2
:101410000346002BF8D000BF0837BD4680BD00BF93
:101420008400070080B582B000AF78600121786841
:1014300008F040FC00BF0837BD4680BD90B589B0BC
:1014400002AF78600B467B8013467B707B88002B55
:1014500005D07A887B88013B1340002B21D00023E4
:101460007B7519E07A887B7D42FA03F303F0010370
:10147000002B0ED07B7D012202FA03F39BB27A7817
:1014800019467868FFF7DAFF0346002B01D00123E5
:101490000CE17B7D01337B757B7D0F2BE2D9002333
:1014A00004E1844B1A687B881340002B05D1814BE3
:1014B0005A687B881340002B01D00123F6E07B881B
:1014C000802B43D0802B11DC082B39D0082B06DC75
:1014D000022B2FD0042B30D0012B28D03CE0202B26
:1014E00034D0402B32D0102B2DD035E0B3F5006F27
:1014F0002FD0B3F5006F09DCB3F5007F26D0B3F52C
:10150000806F26D0B3F5807F20D025E0B3F5005F53
:101510001FD0B3F5005F03DCB3F5805F19D01BE08B
:10152000B3F5804F15D0B3F5004F12D014E0062369
:10153000BB7513E00723BB7510E00823BB750DE0F6
:101540000923BB750AE00A23BB7507E01723BB75A7
:1015500004E02823BB7501E00123A7E07B78012B81
:1015600002D10123FB7507E07B78002B02D1022317
:10157000FB7501E00023FB75798800230193FB7D57
:10158000009300230022786808F0EEFF7B8818465D
:1015900009F062F803463B75786809F075F8034670
:1015A000FB74454A444B5B6C43F4804353644349AA
:1015B0003B7D9B08DBB21C46404A3B7D9B08DBB26F
:1015C000023352F823303A7D02F0030292000F20DA
:1015D00000FA02F2D2431A40A31C41F823203748F4
:1015E0003B7D9B08DBB21C46344A3B7D9B08DBB24B
:1015F000023352F82330F97C3A7D02F00302920064
:1016000001FA02F21A43A31C40F823202949294B6E
:101610001B687A88D24313400B602649254B5B68D0
:101620007A88D24313404B602249224B1A687B8848
:1016300013430B601F491F4BDB687A88D24313406A
:10164000CB601C491B4B9B687A88D24313408B604C
:101650007B78012B06D11749164BDA687B88134338
:10166000CB6015E07B78002B06D11249114B9A68AC
:101670007B8813438B600BE00E490E4BDA687B8846
:101680001343CB600B490B4B9A687B8813438B60E9
:10169000BB7D3B730A237B733B7DBB730123FB73D1
:1016A00007F10C03184608F07DFD002318461C378F
:1016B000BD4690BD003C014000380240003801406A
:1016C00080B500AF064B5B6903F00103002B05D02A
:1016D000034B01225A61012003F0DAFE00BF80BDF6
:1016E000003C014080B500AF064B5B6903F002038C
:1016F000002B05D0034B02225A61022003F0C8FEE2
:1017000000BF80BD003C014080B500AF064B5B6967
:1017100003F00403002B05D0034B04225A6104207C
:1017200003F0B6FE00BF80BD003C014080B500AFB5
:10173000064B5B6903F00803002B05D0034B08221E
:101740005A61082003F0A4FE00BF80BD003C0140A8
:1017500080B500AF064B5B6903F01003002B05D08A
:10176000034B10225A61102003F092FE00BF80BD8F
:10177000003C014080B500AF204B5B6903F02003C3
:10178000002B05D01D4B20225A61202003F080FE43
:101790001A4B5B6903F04003002B05D0174B402226
:1017A0005A61402003F074FE144B5B6903F0800320
:1017B000002B05D0114B80225A61802003F068FE77
:1017C0000E4B5B6903F48073002B07D00B4B4FF477
:1017D00080725A614FF4807003F05AFE074B5B69C8
:1017E00003F40073002B07D0044B4FF400725A61CE
:1017F0004FF4007003F04CFE00BF80BD003C014080
:1018000080B500AF2A4B5B6903F48063002B07D0DF
:10181000274B4FF480625A614FF4806003F038FE2A
:10182000234B5B6903F40063002B07D0204B4FF47C
:1018300000625A614FF4006003F02AFE1C4B5B69A2
:1018400003F48053002B07D0194B4FF480525A6198
:101850004FF4805003F01CFE154B5B6903F40053FA
:10186000002B07D0124B4FF400525A614FF4005036
:1018700003F00EFE0E4B5B6903F48043002B07D090
:101880000B4B4FF480425A614FF4804003F000FE4E
:10189000074B5B6903F40043002B07D0044B4FF464
:1018A00000425A614FF4004003F0F2FD00BF80BDDA
:1018B000003C014080B586B000AF0346FB800121AB
:1018C000012001F055FA4AF21043BB810023FB814D
:1018D000FB883B610023BB820023BB7507F10C032F
:1018E00019464FF0804008F07DFF1C233B72002317
:1018F0007B720023BB720123FB7207F108031846B9
:1019000008F050FC00BF1837BD4680BD80B500AF61
:1019100001214FF0804008F0EFFF012201214FF03C
:10192000804009F0ABF800BF80BD00BF80B500AFBC
:10193000002201214FF0804009F0A0F800214FF073
:10194000804008F0D9FF00BF80BD00BF80B58AB0DD
:1019500000AF78600121022001F00AFA9523BB83D1
:1019600040F65F133B620023BB840023FB8307F137
:101970001C031946104808F035FF60233B81002303
:10198000BB827B683B6101237B8107F10803194619
:10199000094808F0D1FF0821074809F053F8012150
:1019A000054808F089FF0121034808F0A5FF00BFA2
:1019B0002837BD4680BD00BF0004004080B582B01E
:1019C00000AF7860084611461A460346FB700B4686
:1019D000BB7013467B70F978FB787A6803F5317336
:1019E0005B0013449B88DBB203F07F03D8B27A68B4
:1019F0004B01134403F2AD3302461A70F978FB78B9
:101A00007A6803F531735B0013449B8803F080030D
:101A1000002B14BF01230023DBB218467A684B0168
:101A2000134403F2AE3302461A70FB787A685B0106
:101A3000134403F56B73BA781A70FB787A685B010C
:101A4000134403F2B1333A7C1A70FB787A685B0175
:101A5000134403F2B233BA8A1A80FB787A685B01C6
:101A6000134403F2AF337A781A70FB787A681E3326
:101A70005B011344043300221A70FB787A681E332A
:101A80005B011344053300221A707B78002B07D1C9
:101A9000FB787A685B01134403F56C7301221A70BA
:101AA000FB7819467868FFF719F8002318460837BD
:101AB000BD4680BD80B582B000AF78600846114653
:101AC0001A460346FB700B46BB7013467B70BB780F
:101AD000002B07D0FB787A685B01134403F56B7326
:101AE000BA781A70FB787A685B01134403F2B23358
:101AF0001B88BA8A9A420AD0BB8A002B07D0FB788F
:101B00007A685B01134403F2B233BA8A1A80FB7815
:101B10007A685B01134403F2AF331B787A789A42F8
:101B20000AD07B78002B07D0FB787A685B011344DE
:101B300003F2AF337A781A70FB7819467868FEF7AB
:101B4000CDFF002318460837BD4680BD80B584B060
:101B500000AF78600B46FB70786800F05BF80346D6
:101B6000FB81FB894FF6FF7293420ED0F989FB7817
:101B70009BB26FEA43436FEA534398B27A6801F528
:101B800031735B00134402469A80FB89DBB218462E
:101B90001037BD4680BD00BF80B483B000AF786011
:101BA0000B46FB70FB78072B11D8F978FB787A6825
:101BB00003F531735B0013449B88C3F30E0398B2A3
:101BC0007A6801F531735B00134402469A80002362
:101BD00018460C37BD4680BC704700BF80B485B046
:101BE00000AF78600223FB730AE0FB7B7A6803F5A1
:101BF00031735B00134400229A80FB7B0133FB733B
:101C0000FB7B072BF1D9002318461437BD4680BC57
:101C1000704700BF80B485B000AF78600023FB73CD
:101C20000023FB730FE0FB7B7A6803F531735B00E5
:101C300013449B881BB2002B02DBFB7B9BB207E0AB
:101C4000FB7B0133FB73FB7B072BECD94FF6FF7358
:101C500018461437BD4680BC704700BF80B582B0BF
:101C600000AF78607B682C4A934208D10121102094
:101C700001F0D8F80021102001F0D4F847E07B688B
:101C8000264A93420AD101214FF4003001F0ACF80A
:101C900000214FF4003001F0A7F838E07B68204ABB
:101CA00093420AD101214FF4802001F09DF80021D8
:101CB0004FF4802001F098F829E07B68194A93429C
:101CC0000AD101214FF4002001F08EF800214FF4D9
:101CD000002001F089F81AE07B68134A93420AD188
:101CE00001214FF4801001F07FF800214FF48010A3
:101CF00001F07AF80BE07B680C4A934207D101218E
:101D0000202001F08FF80021202001F08BF800BF87
:101D10000837BD4680BD00BF0010014000440040B0
:101D200000480040004C00400050004000140140BA
:101D300080B58AB000AF7860396000237B620023F1
:101D40003B620023FB610023BB617B681B8A9BB263
:101D50007B627B6A23F440537B623B68DB881A46D4
:101D60007B6A13437B627B6A9AB27B681A827B68C8
:101D70009B899BB27B627B6A23F4B05323F00C03F4
:101D80007B623B689A883B681B8913439AB23B6825
:101D90005B8913439BB21A467B6A13437B627B6A5F
:101DA0009AB27B689A817B689B8A9BB27B627B6AD2
:101DB00023F440737B623B689B891A467B6A13431A
:101DC0007B627B6A9AB27B689A8207F108031846A5
:101DD00000F0E8FE7B68304A934203D07B682F4ACC
:101DE000934202D17B693B6201E03B693B627B68C5
:101DF0009B899BB21BB2002B0CDA3A6A13469B00FC
:101E000013449A001A443B681B685B00B2FBF3F36F
:101E1000FB610BE03A6A13469B0013449A001A4494
:101E20003B681B689B00B2FBF3F3FB61FB691C4A38
:101E3000A2FB03235B091B017B627B6A1B096422F3
:101E400002FB03F3FA69D31ABB617B689B899BB2DF
:101E50001BB2002B0CDABB69DB003233104AA2FB49
:101E600003235B0903F007037A6A13437B620BE0E9
:101E7000BB691B0132330A4AA2FB03235B0903F04F
:101E80000F037A6A13437B627B6A9AB27B681A817A
:101E900000BF2837BD4680BD00100140001401403E
:101EA0001F85EB5180B588B002AFF860B96013466A
:101EB000FB71FB6803F58873FA7992B20192009383
:101EC0004FF480730022B968F86800F085F8034683
:101ED000FB75FB7D002B0AD1BB6803F12200FB6878
:101EE00003F58873FA7992B2194600F029F9FB7D5F
:101EF00018461837BD4680BD90B589B002AFF8606E
:101F0000B9601346FB800023FB82FB6803F58873EE
:101F1000FA88019200934FF400730022B968F868C0
:101F200000F05AF803467B757B7D002B20D10AE038
:101F3000FB8AFA8AF9680A4492F810110F4AD154C0
:101F4000FB8A0133FB82FA8AFB889A42F0D3BB6892
:101F500003F13400BB6803F13E01BB6803F16C027E
:101F6000FB6803F58874FB880093234600F058F95A
:101F70007B7D18461C37BD4690BD00BF1059002020
:101F800080B588B002AFF860B9603B601346FB7162
:101F9000FB799BB243F4407399B2FB6803F58873F5
:101FA0003A8C019200930B460022B968F86800F061
:101FB00013F80346FB75FB7D002B07D1FB6803F587
:101FC00088733A8C3968184600F06AFAFB7D184627
:101FD0001837BD4680BD00BF80B584B000AFF86043
:101FE000B96011461A460B46FB711346BB80FB795C
:101FF00063F07F03DAB2BB681A75BB6806225A75B4
:10200000BB68BA88DA82BB8803F47F43B3F5407FAC
:1020100004D1BB6840F209421A8302E0BB68002287
:102020001A83BB68BA8B5A83BB8BBA69B968F868E4
:1020300007F0F0FE034618461037BD4680BD00BFCE
:1020400080B584B000AFF860B9601346FB71BB681F
:1020500000221A75BB6805225A75FB799AB2BB68D3
:10206000DA82BB6800221A83BB6800225A830023ED
:102070000022B968F86807F0CDFE0346184610370D
:10208000BD4680BD80B584B000AFF860B96013462E
:10209000FB80BB6800221A75BB6809225A75BB68B1
:1020A000FA88DA82BB6800221A83BB6800225A834E
:1020B00000230022B968F86807F0ACFE0346184612
:1020C0001037BD4680BD00BF80B584B000AFF8605A
:1020D000B96011461A460B46FB711346BB71BB68CB
:1020E00002221A75BB6801225A75BB680022DA8287
:1020F000FB799AB2BB681A83BB6800225A8397F9AE
:102100000730002B08DABB79FA681E335B011344F1
:10211000043300221A7007E0BB79FA681E335B01B2
:102120001344053300221A7000230022B968F868AE
:1021300007F070FE034618461037BD4680BD00BF4D
:1021400080B485B000AFF860B9601346FB80BB680F
:102150001A78FB681A70BB685A78FB685A70BB68BB
:1021600002331B789AB2BB6803331B789BB21B0205
:102170009BB213449AB2FB685A80BB681A79FB6819
:102180001A71BB685A79FB685A71BB689A79FB6807
:102190009A71BB68DA79FB68DA71FB88082B39D948
:1021A000BB6808331B789AB2BB6809331B789BB2B3
:1021B0001B029BB213449AB2FB681A81BB680A33B4
:1021C0001B789AB2BB680B331B789BB21B029BB285
:1021D00013449AB2FB685A81BB680C331B789AB2DD
:1021E000BB680D331B789BB21B029BB213449AB29F
:1021F000FB689A81BB689A7BFB689A73BB68DA7B41
:10220000FB68DA73BB681A7CFB681A74BB685A7C7B
:10221000FB685A7400BF1437BD4680BC704700BFCE
:1022200080B58CB000AFF860B9607A603B603B6805
:10223000FB62002387F82A30002387F82B303B68A5
:10224000FB623B681A78FB681A703B685A78FB6837
:102250005A703B6802331B789AB23B6803331B7891
:102260009BB21B029BB213449AB2FB685A803B6834
:102270001A79FB681A713B685A79FB685A713B6896
:102280009A79FB689A713B68DA79FB68DA713B6886
:102290001A7AFB681A723B8F092B40F29E80092341
:1022A0007B82FB681B79052B00F2918000237B6207
:1022B00087E007F112031946F86A00F023F9F86283
:1022C000FB6A5B78042B7CD1FB6A02331B7887F8AE
:1022D0002A3097F92A201346DB001344BA681344C6
:1022E0007B62FB6A03331B78022B6AD807F1140365
:1022F000F96A184600F07AF8002387F82B303B7E05
:10230000052B5ED858E007F112031946F86A00F071
:10231000F9F8F862FB6A5B78052B4DD197F92A2012
:1023200013469B001344DB001A467B681A4497F956
:102330002B30DB0013443B622A4B1B781A4697F97B
:102340002A309A420AD097F82A20264B1A7007F1B1
:1023500014031946786A00F049F814E0224B1B88F0
:102360001A46FB6A04331B781946FB6A05331B784F
:102370001B020B449A4200DD23E007F114031946C7
:10238000786A00F033F8F96A386A00F05DF8FB6AA1
:1023900004331B789AB2FB6A05331B789BB21B028D
:1023A0009BB213449AB2104B1A8097F92B30DBB2D0
:1023B0000133DBB287F82B3097F92B303A7E93420A
:1023C000A1DBFB685A887B8A9A423FF672AF064BC4
:1023D00000221A80034B00221A7000BF3037BD461E
:1023E00080BD00BF040400200604002080B483B038
:1023F00000AF786039603B681A787B681A703B6878
:102400005A787B685A703B689A787B689A703B6808
:10241000DA787B68DA703B681A797B681A713B68F6
:102420005A797B685A713B689A797B689A713B68E4
:10243000DA797B68DA713B681A7A7B681A7200BFB6
:102440000C37BD4680BC704780B483B000AF786065
:1024500039603B681A787B681A703B685A787B68E9
:102460005A703B689A787B689A703B68DA787B6828
:10247000DA703B6804331B789AB23B6805331B78EB
:102480009BB21B029BB213449AB27B689A803B6852
:102490009A797B689A7100BF0C37BD4680BC704743
:1024A00080B487B000AFF860B9601346FB80FB686A
:1024B00001331B78032B20D1FB681B789A1EFB8805
:1024C0009342A8BF1346BB82FB680233FB60002324
:1024D000FB820BE0FB8AFA6813441A78BB681A7017
:1024E000BB680133BB60FB8A0233FB82FA8ABB8A7A
:1024F0009A42EFD3BB6800221A7000BF1C37BD465A
:1025000080BC704780B485B000AF786039603B68AC
:102510001A887B681B789BB213449AB23B681A8076
:102520007B681B781A467B681344FB60FB6818467F
:102530001437BD4680BC704780B582B000AF0346FB
:10254000FB71FA790C4913469B0013449B000B4422
:102550001B68002B0AD0FA79074913469B001344E5
:102560009B000B441B689847034600E00423184671
:102570000837BD4680BD00BF0400002080B582B092
:1025800000AF0346FB71FA790D4913469B001344D3
:102590009B000B4404331B68002B0BD0FA790849CD
:1025A00013469B0013449B000B4404331B6898475D
:1025B000034600E0042318460837BD4680BD00BF2F
:1025C0000400002080B584B000AFB9607A603B6041
:1025D0000346FB733B68002B01D104231AE0FA7B0E
:1025E0000E4913469B0013449B000B4410331B6899
:1025F000002B0ED0FA7B094913469B0013449B0025
:102600000B4410331B683A687968B86898470346EA
:1026100000E0042318461037BD4680BD04000020AA
:1026200080B584B000AFB9607A603B600346FB734D
:102630003B68002B01D104231AE0FA7B0E491346B4
:102640009B0013449B000B440C331B68002B0ED0E3
:10265000FA7B094913469B0013449B000B440C333F
:102660001B683A687968B8689847034600E0042315
:1026700018461037BD4680BD0400002080B582B0EA
:1026800000AF03463A60FB710B46BB71FA790F4904
:1026900013469B0013449B000B4408331B68002B1C
:1026A0000ED0FA79094913469B0013449B000B4452
:1026B00008331B68BA79396810469847034600E02A
:1026C000042318460837BD4680BD00BF0400002023
:1026D00080B400AF024B1846BD4680BC704700BFB7
:1026E0000000FC4280B400AF01231846BD4680BC08
:1026F000704700BF80B400AF01231846BD4680BCC0
:10270000704700BF80B400AF01231846BD4680BCAF
:10271000704700BF80B400AF01231846BD4680BC9F
:10272000704700BF80B483B000AF03463960FB71CF
:10273000012318460C37BD4680BC704780B483B077
:1027400000AF03463960FB71012318460C37BD46C4
:1027500080BC704780B485B000AFF860B9607A6023
:10276000012318461437BD4680BC704780B485B03D
:1027700000AFF860B9607A60012318461437BD468F
:1027800080BC704780B485B000AFF860B9607A60F3
:10279000012318461437BD4680BC704780B485B00D
:1027A00000AFF860B9607A60012318461437BD465F
:1027B00080BC704780B582B000AF104B7B60104B7F
:1027C0003B6007E03B681A1D3A607A68111D79602A
:1027D00012681A603B680B4A9342F3D30A480B49CC
:1027E0004FF000028842B8BF40F8042BFADB00F03B
:1027F00023F900BF0837BD4680BD00BFEAC200080C
:1028000000000020F8030020F803002034690020B5
:1028100080B400AFFEE700BF80B500AF0F4806F000
:10282000AFFD0346002B0CD00D4B1B78012B08D1BC
:102830000C4B1B78DBB223F00103DAB2094B1A70A0
:1028400007E0084B1B78DBB243F00103DAB2054B1B
:102850001A70044B1B78DBB2184680BDFC61002067
:10286000A8670020B800002080B400AF034B1B789D
:10287000DBB21846BD4680BC704700BFB8000020E0
:1028800080B586B000AFF860B9607A600023FB7550
:102890007B68002B01D1042330E01A4B1B78DBB29C
:1028A00003F00103002B01D0032327E0164806F0B4
:1028B00067FD0346002B1BD0144B1B78012B17D14F
:1028C0007B685B02BA68F9680F4803F0CDFE0346E7
:1028D000FB750F490C4806F0D9FD0B4806F050FD7A
:1028E0000346002B01D1012308E0FB7D032BE7D039
:1028F000FB7D002B01D1002300E00123184618378F
:10290000BD4680BDB8000020FC610020A867002003
:10291000AC67002080B586B000AFF860B9607A601F
:102920000023FB757B68002B01D1042336E01D4B8F
:102930001B78DBB203F00103002B01D003232DE051
:10294000194B1B78042B01D1022327E0174806F00E
:1029500017FD0346002B1BD0134B1B78012B17D1FF
:102960007B685B02BA68F968104803F0FDFD034616
:10297000FB750F490D4806F089FD0C4806F000FD77
:102980000346002B01D1012308E0FB7D032BE7D098
:10299000FB7D002B01D1002300E0012318461837EE
:1029A000BD4680BDB8000020A8670020FC61002063
:1029B000AC67002080B485B000AF03463960FB717E
:1029C0000023FB731A4B1B78DBB203F00103002BCF
:1029D00001D0032327E0FB79032B21D801A252F871
:1029E00023F000BFF5290008FB290008092A000888
:1029F000172A00080023FB7314E00E4B1A683B688B
:102A00001A600023FB730DE03B684FF400721A80DC
:102A10000023FB7306E03B684FF400721A6001E08C
:102A20000423FB73FB7B18461437BD4680BC7047FC
:102A3000B8000020EC5F002080B5ADF5167D00AF3A
:102A4000002387F852320023C7F84C32002387F85E
:102A50004B3203F09DFE02F0BBF904F039FB4FF45A
:102A6000E1320021494800F0FBF902F0A3FC04F038
:102A7000E3F902F027FB04F0E1FA4FF4FA60FEF705
:102A800065FF07F011FC04F0FFFA02F07DF902F097
:102A9000A9FCD7F84C320133C7F84C32D7F84C2296
:102AA0003B4BA3FB02139B094FF47A7101FB03F329
:102AB000D31A002B2DD13B4614220021184609F0D1
:102AC00081FA97F84B325A1C87F84B221A463B463C
:102AD0003049184601F0E0F80023C7F8543214E0FA
:102AE000D7F85432DBB21A4600212B4807F0A8FC75
:102AF000D7F85432DAB23B460021184607F0A0FC62
:102B0000D7F854320133C7F85432D7F85432072B70
:102B1000E6DD04F0CBFA0346012BB4D197F852322C
:102B2000002B20D107F1140301221C49184606F09E
:102B300043F80346002BA6D101211948FEF704FBF8
:102B40000346012B06D1012387F85332012387F86E
:102B5000523298E701221149002006F02DF8002397
:102B600087F853328FE797F85332002B8BD0FEF75C
:102B70002BFB0346002B86D1002387F8533201221A
:102B80000649002006F018F87DE700BF004C004021
:102B9000D34D62105CC1000864C1000870C1000818
:102BA00074C1000880B489B000AF78600023BB61B5
:102BB00000237B610023FB6102233B610023FB6058
:102BC0000223BB60484B9B6803F00C03BB61BB69ED
:102BD000042B07D0082B09D0002B3FD17B68434A38
:102BE0001A603FE07B68424A1A603BE03E4B5B68FC
:102BF00003F480039B0DFB603B4B5B6803F03F03DA
:102C0000BB60FB68002B0DD0394ABB68B2FBF3F206
:102C1000354B596847F6C0730B409B0903FB02F321
:102C2000FB610CE0314ABB68B2FBF3F22E4B5968F2
:102C300047F6C0730B409B0903FB02F3FB612A4B71
:102C40005B6803F440331B0C01335B003B61FA69A2
:102C50003B69B2FBF3F27B681A6003E07B68234AAE
:102C60001A6000BF204B9B6803F0F003BB61BB6997
:102C70001B09BB611F4ABB6913441B78DBB27B6134
:102C80007B681A687B69DA407B685A60164B9B68E0
:102C900003F4E053BB61BB699B0ABB61154ABB6986
:102CA00013441B78DBB27B617B685A687B69DA402E
:102CB0007B689A600C4B9B6803F46043BB61BB6903
:102CC0005B0BBB610B4ABB6913441B78DBB27B61B6
:102CD0007B685A687B69DA407B68DA6000BF24371A
:102CE000BD4680BC704700BF003802400024F4009D
:102CF00000127A00BC00002080B483B000AF78607E
:102D00000B46FB70FB78002B06D00949084B1A6B69
:102D10007B6813430B6306E00549054B1A6B7B6820
:102D2000DB4313400B6300BF0C37BD4680BC7047CC
:102D30000038024080B483B000AF78600B46FB706F
:102D4000FB78002B06D00949084B5A6B7B6813436C
:102D50004B6306E00549054B5A6B7B68DB43134028
:102D60004B6300BF0C37BD4680BC70470038024043
:102D700080B483B000AF78600B46FB70FB78002B0B
:102D800006D00949084B1A6C7B6813430B6406E0B4
:102D90000549054B1A6C7B68DB4313400B6400BF8D
:102DA0000C37BD4680BC70470038024080B483B009
:102DB00000AF78600B46FB70FB78002B06D009490A
:102DC000084B5A6C7B6813434B6406E00549054B7E
:102DD0005A6C7B68DB4313404B6400BF0C37BD4625
:102DE00080BC70470038024080B483B000AF786088
:102DF0000B46FB70FB78002B06D00949084B1A6A7A
:102E00007B6813430B6206E00549054B1A6A7B6831
:102E1000DB4313400B6200BF0C37BD4680BC7047DC
:102E20000038024080B483B000AF78600B46FB707E
:102E3000FB78002B06D00949084B5A6A7B6813437C
:102E40004B6206E00549054B5A6A7B68DB43134039
:102E50004B6200BF0C37BD4680BC70470038024053
:102E600080B588B004AFF8600B467A60FB72FB68EF
:102E7000374A93420DD1F97A00230393002302933A
:102E8000002301930C23009300237A68304800F05C
:102E90009FFBFB682F4A93420DD1F97A00230393DD
:102EA00000230293002301930C23009300237A68EC
:102EB000284800F08DFBFB68274A93420DD1F97A30
:102EC0000023039300230293002301930C23009318
:102ED00000237A68204800F07BFBFB681F4A93427E
:102EE0000DD1F97A00230393002302930023019369
:102EF0000C23009300237A68184800F069FBFB68F4
:102F0000174A93420DD1F97A0023039300230293C9
:102F1000002301930C23009300237A68104800F0EB
:102F200057FBFB680F4A93420DD1F97A00230393B4
:102F300000230293002301930C23009300237A685B
:102F4000084800F045FB00BF1037BD4680BD00BFFC
:102F5000001001400044004000480040004C004088
:102F6000005000400014014080B584B000AF78608C
:102F70000023FB73786800F0E5F8B860BB68DB8875
:102F8000002B05D1BB681A89BB685B899A421FD0A8
:102F9000BB685A89BB689B889A4202D1BB680022F1
:102FA0005A81BB681B68BA68528913441B78FB734B
:102FB000BB685B8901339AB2BB685A81BB68DB8806
:102FC000002B05D0BB68DB88013B9AB2BB68DA8076
:102FD000FB7B18461037BD4680BD00BF90B587B05B
:102FE00000AFF860B9601346FB800023FB82F868ED
:102FF00000F0A8F838613B69DB88002B0ED03B69F4
:103000005B7B1946F86800F033F80346002B1AD1B1
:103010003B69DA883B699B889A4214D0002322E0FE
:10302000FB8ABA68D418F868FFF79EFF034623703E
:10303000FB8ABA6813441A783B695B7B9A4208D0D2
:10304000FB8A0133FB82FA8AFB88013B9A42E7DB69
:1030500000E000BFFB8A0133FB82FB8ABA6813449D
:1030600000221A70FB8A18461C37BD4690BD00BF6F
:1030700080B584B000AF78600B46FB70786800F0D4
:1030800061F8B860BB68DB88FB81BB685B89BB818A
:1030900016E0BB689B88BA899A4201D10023BB81A4
:1030A000BB681A68BB8913441B78FA789A4201D12D
:1030B000012309E0BB890133BB81FB89013BFB8113
:1030C000FB89002BE5D1002318461037BD4680BD93
:1030D00080B483B000AF78600B46FB707B68DA8801
:1030E0007B689B889A421BD27B681A897B689B8885
:1030F0009A4202D17B6800221A817B681B687A6839
:1031000012891344FA781A707B681B8901339AB2CA
:103110007B681A817B68DB8801339AB27B68DA802E
:1031200000BF0C37BD4680BC704700BF80B483B081
:1031300000AF78600B467B8000BF0C37BD4680BC7B
:10314000704700BF80B485B000AF78607B68144AD8
:10315000934201D1134BFB607B68134A934201D128
:10316000124BFB607B68124A934201D1114BFB600A
:103170007B68114A934201D1104BFB607B68104A77
:10318000934201D10F4BFB607B680F4A934201D100
:103190000E4BFB60FB6818461437BD4680BC704779
:1031A00000100140CC00002000440040DC00002062
:1031B00000480040EC000020004C0040FC000020D3
:1031C000005000400C010020001401401C010020B0
:1031D00080B485B000AF78607B68144A934201D117
:1031E0000023FB737B68124A934201D10123FB73D6
:1031F0007B68104A934201D10223FB737B680E4A1D
:10320000934201D10423FB737B680C4A934201D1A2
:103210000523FB737B680A4A934201D10623FB73A3
:10322000FB7B18461437BD4680BC70470010014038
:103230000044004000480040004C00400050004066
:103240000014014080B584B002AF0346FB71FB79E6
:10325000002B0AD1072301930323009301230022AB
:103260004FF4C0610D4807F0A3F9FB79012B09D198
:10327000072301930323009301230022C021084860
:1032800007F096F9FB79032B03D107210548FFF7D7
:103290004DFF00BF0837BD4680BD00BF00000240A3
:1032A000000402400010014080B584B002AF034624
:1032B000FB71FB79002B09D10723019303230093B2
:1032C000012300220C210D4807F072F9FB79012B34
:1032D00009D10723019303230093012300226021D6
:1032E000074807F065F9FB79032B03D1072105484F
:1032F000FFF71CFF00BF0837BD4680BD000002403D
:10330000000C02400044004080B584B002AF034688
:10331000FB71FB79002B0AD1072301930323009350
:10332000012300224FF44061144807F041F9FB7972
:10333000012B0AD1072301930323009301230022C9
:103340004FF440610E4807F033F9FB79022B0AD1A4
:103350000723019303230093012300224FF44071BC
:10336000084807F025F9FB79032B03D1072106480C
:10337000FFF7DCFE00BF0837BD4680BD00040240F9
:1033800000080240000C02400048004080B584B0B4
:1033900002AF0346FB71FB79002B09D1082301938F
:1033A000032300930123002203210E4807F000F9B4
:1033B000FB79012B0AD108230193032300930123F6
:1033C00000224FF44061084807F0F2F8FB79032B24
:1033D00003D108210548FFF7A9FE00BF0837BD4605
:1033E00080BD00BF0000024000080240004C0040C9
:1033F00080B584B002AF0346FB71FB79002B14D17A
:103400000823019303230093012300224FF48051EA
:103410000B4807F0CDF80823019303230093012301
:1034200000220421074807F0C3F8FB79032B03D1DE
:1034300008210548FFF77AFE00BF0837BD4680BD6A
:1034400000080240000C02400050004080B584B0EB
:1034500002AF0346FB71FB79002B09D108230193CE
:103460000323009301230022C0210E4807F0A0F897
:10347000FB79012B0AD10823019303230093012335
:1034800000224FF48441084807F092F8FB79032B9F
:1034900003D108210548FFF749FE00BF0837BD46A4
:1034A00080BD00BF00080240001802400014014027
:1034B00080B500AF084B1B889BB203F02003002BA4
:1034C00007D0054B9B889BB2DBB219460348FFF738
:1034D000FFFD00BF80BD00BF00100140CC000020F8
:1034E00080B500AF084B1B889BB203F02003002B74
:1034F00007D0054B9B889BB2DBB219460348FFF708
:10350000E7FD00BF80BD00BF00440040DC0000209C
:1035100080B500AF084B1B889BB203F02003002B43
:1035200007D0054B9B889BB2DBB219460348FFF7D7
:10353000CFFD00BF80BD00BF00480040EC00002070
:1035400080B500AF084B1B889BB203F02003002B13
:1035500007D0054B9B889BB2DBB219460348FFF7A7
:10356000B7FD00BF80BD00BF004C0040FC00002044
:1035700080B500AF084B1B889BB203F02003002BE3
:1035800007D0054B9B889BB2DBB219460348FFF777
:103590009FFD00BF80BD00BF005000400C01002017
:1035A00080B500AF084B1B889BB203F02003002BB3
:1035B00007D0054B9B889BB2DBB219460348FFF747
:1035C00087FD00BF80BD00BF001401401C0100202A
:1035D00080B58CB000AFF8607A601A460B46FB727B
:1035E00013463B81F868FFF7ADFDF8627B68FB612D
:1035F000FB68534A93420BD1524A524B5B6C43F0E7
:1036000010035364FB7A1846FFF71CFE25233B7614
:10361000FB684D4A93420BD14A4A4A4B1B6C43F418
:1036200000331364FB7A1846FFF73EFE26233B76F1
:10363000FB68464A93420BD1424A424B1B6C43F40F
:1036400080231364FB7A1846FFF75EFE27233B7640
:10365000FB683F4A93420BD13A4A3A4B1B6C43F406
:1036600000231364FB7A1846FFF790FE34233B7661
:10367000FB68384A93420BD1324A324B1B6C43F4FD
:1036800080131364FB7A1846FFF7B2FE35233B76AE
:10369000FB68314A93420BD12A4A2A4B5B6C43F0B8
:1036A00020035364FB7A1846FFF7D0FE47233B768E
:1036B000F868FEF7D3FA0123FB7606237B76F868D9
:1036C000FFF786FD0346BB7607F11803184606F0A0
:1036D00069FD3B893B85BB6B9BB2FB84FB6B9BB25B
:1036E000BB843B6C9BB27B847B6C9BB23B84FB6A50
:1036F00000221A7340F6FF737B6100BF7B695A1E7C
:103700007A61002BFAD107F11C031946F868FEF71D
:103710000FFBFB689B899BB243F020039AB2FB68C6
:103720009A81FB6A01221A73FB689B899BB243F45E
:1037300000539AB2FB689A8100BF3037BD4680BD06
:1037400000100140003802400044004000480040A2
:10375000004C0040005000400014014080B483B091
:1037600000AF78600B46FB707B68FA781A70012313
:1037700018460C37BD4680BC704700BF80B485B08A
:1037800000AF786039600023FB600AE07B685A1C58
:103790007A603A68511C396012781A70FB680133FC
:1037A000FB603B681B78002BF0D1FB681846143790
:1037B000BD4680BC704700BF80B586B000AFF860E2
:1037C0007A603B600B46FB7200237B617B68013BA8
:1037D0007B603B68092B1DD93B681D4AA2FB032374
:1037E000DB08F97A7A68F868FFF7E6FF78617B69A9
:1037F000FA681344FB6010E0FB7A1946F868FFF79B
:10380000ADFFFB680133FB607B6901337B617B6843
:10381000013B7B607B68002BEEDC39680C4BA3FB23
:103820000123DA0813469B0013445B00CA1AD3B283
:103830003033DBB21946F868FFF790FF02467B6928
:1038400013447B617B6918461837BD4680BD00BFB5
:10385000CDCCCCCC80B586B000AFF8607A603B6050
:103860000B46FB7200237B613B68002B03DA3B684D
:103870005B423B6101E03B683B617B68013B7B60F5
:103880003B69092B1FD93B68002B0CDA3B692E4A98
:10389000A2FB0323DB085B42F97A7A68F868FFF73A
:1038A000D9FF78610AE03B69274AA2FB0323DB08C2
:1038B000F97A7A68F868FFF7CDFF78617B69FA6872
:1038C0001344FB6025E03B68002B11DA7B68013B69
:1038D0007B600DE0FB7A1946F868FFF73FFFFB6855
:1038E0000133FB607B6901337B617B68013B7B605B
:1038F0007B68002BEEDC3B68002B0ADA2D21F86890
:10390000FFF72CFF02467B6913447B61FB680133A0
:10391000FB6039690C4BA3FB0123DA0813469B00BB
:1039200013445B00CA1AD3B23033DBB21946F868CD
:10393000FFF714FF02467B6913447B617B691846DD
:103940001837BD4680BD00BFCDCCCCCC80B588B08B
:1039500002AFF8607A601A460B46FB721346BB72E0
:1039600000237B617B68013B7B603B6A1B09002B6A
:1039700020D03B6A1B09BA7AF97A009313467A6819
:10398000F868FFF7E3FF02467B6913447B617B69BC
:10399000FA681344FB6010E0FB7A1946F868FFF7F9
:1039A000DDFEFB680133FB607B6901337B617B6873
:1039B000013B7B607B68002BEEDC3B6A03F00F036E
:1039C000092B0BD83B6ADBB203F00F03DBB23033B9
:1039D000DBB21946F868FFF7C1FE19E0BB7A002B8D
:1039E0000BD03B6ADBB203F00F03DBB23733DBB241
:1039F0001946F868FFF7B2FE0AE03B6ADBB203F053
:103A00000F03DBB25733DBB21946F868FFF7A6FEA7
:103A10007B6901337B617B6918461837BD4680BDE1
:103A200080B58AB002AFF860B9607A603B6000236D
:103A3000BB6100237B61FB68002B00F0FC80FB680E
:103A400000221A70F7E07B681B78252B0BD0FB68EF
:103A50005A1CFA607A68511C796012781A707B6976
:103A600001337B61E7E07B6801331B78252B0BD1A9
:103A7000FB685A1CFA6025221A707B6802337B604F
:103A80007B6901337B61D6E02023FB770023BB7782
:103A90007B6801337B607B681B78302B14D130232B
:103AA000FB777B6801337B600EE0BB7F1A46920098
:103AB00013445B00DAB27B681B781344DBB2303B03
:103AC000BB777B6801337B607B681B782F2B03D926
:103AD0007B681B78392BE8D9BA7F7B6913441A4677
:103AE000BB689A4205D9BB68DAB27B69DBB2D31AEC
:103AF000BB777B681B78583B202B00F28E8001A29D
:103B000052F823F0D53B00081B3C00081B3C000882
:103B10001B3C00081B3C00081B3C00081B3C000829
:103B20001B3C00081B3C00081B3C00081B3C000819
:103B3000053C0008893B00081B3C00081B3C0008B2
:103B40001B3C00081B3C0008893B00081B3C00088C
:103B50001B3C00081B3C00081B3C00081B3C0008E9
:103B60001B3C00081B3C00081B3C00081B3C0008D9
:103B7000F13B00081B3C0008A13B00081B3C00086F
:103B80001B3C0008B93B0008B87F3B681A1D3A602F
:103B90001B68F97F0246F868FFF75CFEB8613FE0FA
:103BA000B87F3B681A1D3A601B68F97F0246F868C7
:103BB000FFF702FEB86133E0B87F3B681A1D3A6038
:103BC0001B68F97F009300230246F868FFF7BEFEEA
:103BD000B86125E0B87F3B681A1D3A601B68F97F21
:103BE000009301230246F868FFF7B0FEB86117E0C2
:103BF0003B681A1D3A601B681946F868FFF7BEFD5E
:103C0000B8610DE03B681A1D3A601B68DBB21946CB
:103C1000F868FFF7A3FDB86102E04FF0FF3325E03D
:103C20007B6801337B60BB69FA681344FB607A6987
:103C3000BB6913447B617B681B78002B04D07A69D5
:103C4000BB689A42FFF4FFAE7A69BB689A4203D21E
:103C5000FB6800221A7008E0FB68013BFB60FB6810
:103C600000221A707B69013B7B617B691846203713
:103C7000BD4680BD80B584B000AFF860B9607A60A1
:103C80007B68BA686421F868FFF7CAFE03461846E5
:103C90001037BD4680BD00BF0EB480B585B000AF03
:103CA000786007F12003BB60BA68F9697868FFF7AC
:103CB000E1FFF860FB6818461437BD46BDE8804058
:103CC00003B0704780B586B002AFF860B9603B6062
:103CD0001346FB80FB68BA681A61FB683A685A6150
:103CE000FB68FA881A83FB683A8B5A83FB68186969
:103CF000FB681B8B02221946FDF7A0FBFB68586985
:103D0000FB68598B002301930123009300230022B9
:103D100006F02AFCFB6800225A72FB680022DA6077
:103D2000FB6800225A60FB6800221A60FB680122CF
:103D30009A7200BF1037BD4680BD00BF80B483B00B
:103D400000AF78607B68DA687B681B68D21A7B6892
:103D50005A607B68DA687B681A607B68DB68002BD6
:103D600004DA7B6801221A7201230CE07B68DB68AD
:103D7000002B04DD7B6800221A72002303E07B68BD
:103D800002221A72022318460C37BD4680BC7047C7
:103D900080B485B000AF78607B681B691B697A6866
:103DA000128B1340002B14BF01230023DBB2FB73E3
:103DB0007B685B691B697A68528B1340002B14BFC8
:103DC00001230023DBB2BB737B689B7AFA7B9A42A8
:103DD00027D07B68FA7B9A727B689B7A002B20D174
:103DE0007B685B7A002B0ED1BB7B012B05D17B68F6
:103DF000DB685A1E7B68DA6013E07B68DB685A1C5C
:103E00007B68DA600DE0BB7B012B05D17B68DB684A
:103E10005A1C7B68DA6004E07B68DB685A1E7B68AA
:103E2000DA6000BF1437BD4680BC704780B483B0F1
:103E300000AF78600B46FB707B681B889BB203F079
:103E40004003002B01D1002325E000BF7B681B89C4
:103E50009BB203F00303002BF8D07B681B899BB255
:103E600003F08003002BF1D1FB789AB27B689A8132
:103E700000BF7B681B899BB203F00303002BF8D0C3
:103E80007B681B899BB203F08003002BF1D17B6818
:103E90009B899BB2DBB218460C37BD4680BC70478D
:103EA00080B485B000AF7860114B1B68BB60EFF346
:103EB0000583FB60FB68002B11D100BF0C4B1A6817
:103EC000BB68D21A7B689A42F8D30BE0094B1B6897
:103ED00003F48033002B02D07B68013B7B607B685E
:103EE000002BF3D100BF1437BD4680BC704700BF24
:103EF0001404002010E000E080B500AF01F0E2F80B
:103F00000021064801F006F9054B4FF480721A8330
:103F10000A20FFF7C5FF00BF80BD00BF0030014091
:103F20000008024080B582B000AF786039603B681D
:103F3000FF227968034801F04DF900BF0837BD46FC
:103F400080BD00BF0030014080B582B000AF786016
:103F500039603A687968034801F0F8F800BF08371B
:103F6000BD4680BD0030014080B584B000AF7860B0
:103F70000C4A7B681360FF210B48FFF757FF03468D
:103F8000FB73FB7BFF2B03D0064B1B68002BF2D18E
:103F9000FB7BFF2B0CBF01230023DBB2184610373D
:103FA000BD4680BD180400200030014080B500AF40
:103FB000044B4FF480721A83FF210348FFF736FF4A
:103FC00000BF80BD000802400030014080B500AF56
:103FD0000A4B4FF480725A83FF210948FFF726FFEE
:103FE0004FF4FA70FFF7C0FF0346002B01D0012306
:103FF00002E0FFF7DBFF0023184680BD0008024007
:104000000030014080B584B000AF78603960134B58
:10401000C8221A60FF211248FFF708FF0346FB730E
:10402000FB7BFF2B03D10D4B1B68002BF2D1FB7BDD
:10403000FE2B01D000230CE039687868FFF772FF8F
:10404000FF210748FFF7F2FEFF210548FFF7EEFECC
:10405000012318461037BD4680BD00BF180400205C
:104060000030014080B584B000AF78600B46FB7033
:104070004FF4FA70FFF778FF0346002B01D10023BD
:1040800022E0FB7819461248FFF7D0FEFB78FD2BA3
:1040900019D04FF400717868FFF756FFFF210C48E4
:1040A000FFF7C4FEFF210A48FFF7C0FEFF210848C2
:1040B000FFF7BCFE0346FB73FB7B03F01F03052BDE
:1040C00001D0002300E0012318461037BD4680BD13
:1040D0000030014080B584B000AF03463960FB7109
:1040E00097F90730002B0EDAFB7903F07F03FB71A1
:1040F00000213720FFF7EEFF0346BB73BB7B012B8C
:1041000001D9BB7B59E0FB790C2B08D0FFF74EFFA0
:10411000FFF75CFF0346002B01D1FF234DE0FB7945
:1041200043F04003DBB219462648FFF77FFE3B68A9
:104130001B0EDBB219462348FFF778FE3B681B0CC9
:10414000DBB219461F48FFF771FE3B681B0ADBB262
:1041500019461C48FFF76AFE3B68DBB2194619484E
:10416000FFF764FE0123FB73FB79002B01D195233C
:10417000FB73FB79082B01D18723FB73FB7B19466B
:104180001048FFF753FEFB790C2B03D1FF210D489C
:10419000FFF74CFE0A23FB73FF210A48FFF746FE98
:1041A0000346BB7397F90E30002B05DAFB7B013B0E
:1041B000FB73FB7B002BEFD1BB7B18461037BD4652
:1041C00080BD00BF0030014080B582B002AF002347
:1041D000019300230093002301224FF480710348D0
:1041E00006F0C2F900BFBD4680BD00BF0008024016
:1041F00080B400AF01231846BD4680BC704700BFA5
:1042000080B400AF01231846BD4680BC704700BF94
:1042100090B583B000AFFFF7D7FFFFF76DFEFFF754
:10422000E7FF0346002B01D10223CCE00A23FB71F8
:1042300006E0FF216648FFF7F9FDFB79013BFB71C2
:10424000FB79002BF5D100237B7100210020FFF7C3
:1042500041FF0346012B40F089805E4B4FF47A7298
:104260001A604FF4D5710820FFF734FF0346012B85
:1042700051D10023FB710EE0FC79FF215448FFF778
:10428000D5FD03461A4607F10803234403F8082C1A
:10429000FB790133FB71FB79032BEDD9BB78012B43
:1042A00064D1FB78AA2B61D100BF4A4B1B68002B5D
:1042B00007D04FF08041A920FFF70CFF0346002BE9
:1042C000F3D1444B1B68002B50D000213A20FFF75C
:1042D00001FF0346002B49D10023FB710EE0FC795E
:1042E000FF213B48FFF7A2FD03461A4607F10803EA
:1042F000234403F8082CFB790133FB71FB79032B72
:10430000EDD93B7803F04003002B01D00C2300E0F3
:1043100004237B712AE00021A920FFF7DBFE03467E
:10432000012B04D802237B71A923BB7103E0012375
:104330007B710123BB7100BF264B1B68002B07D08C
:10434000BB7900211846FFF7C5FE0346002BF3D1C9
:10435000204B1B68002B07D14FF400711020FFF792
:10436000B9FE0346002B01D000237B711A4A7B79EA
:104370001370FFF71BFE7B79002B08D0174B1B78BF
:10438000DBB223F00103DAB2144B1A7002E0134BD4
:1043900001221A70FFF734FF0346002B08D10F4BA0
:1043A0001B78DBB243F00403DAB20C4B1A7007E05F
:1043B0000A4B1B78DBB223F00403DAB2074B1A7006
:1043C000064B1B78DBB218460C37BD4690BD00BFCC
:1043D0000030014018040020080400202C010020B7
:1043E00080B500AFFFF704FF0346002B01D1012386
:1043F00018E0FFF705FF0346002B08D10A4B1B7896
:10440000DBB243F00403DAB2074B1A7007E0064B45
:104410001B78DBB223F00403DAB2034B1A70024BB1
:104420001B78DBB2184680BD2C01002080B584B01B
:1044300000AFF860B9607A60FFF7DAFE0346002B40
:1044400006D0294B1B78DBB203F00103002B01D00F
:10445000032344E0254B1B7803F00803002B02D113
:10446000BB685B02BB607B68012B11D1B96811206E
:10447000FFF730FE0346002B29D14FF40071F86896
:10448000FFF7C0FD0346002B21D000237B601EE018
:10449000B9681220FFF71EFE0346002B17D14FF418
:1044A0000071F868FFF7AEFD0346002B0AD0FB68E9
:1044B00003F50073FB607B68013B7B607B68002B2E
:1044C000EDD100E000BF00210C20FFF703FEFFF755
:1044D0006DFD7B68002B14BF01230023DBB218465F
:1044E0001037BD4680BD00BF2C010020080400200D
:1044F00080B584B000AFF860B9607A60FFF778FEED
:104500000346002B01D101236AE0FFF779FE034641
:10451000002B01D1022363E0334B1B78DBB203F0A5
:104520000103002B01D003235AE02F4B1B78DBB291
:1045300003F00403002B01D0022351E02B4B1B7826
:1045400003F00803002B02D1BB685B02BB607B68F1
:10455000012B10D1B9681820FFF7BCFD0346002BD2
:1045600036D1FE21F868FFF77DFD0346002B2FD0E2
:1045700000237B602CE01D4B1B7803F00603002B0F
:1045800003D079689720FFF7A5FDB9681920FFF7D8
:10459000A1FD0346002B1BD1FC21F868FFF762FD4B
:1045A0000346002B0AD0FB6803F50073FB607B68B1
:1045B000013B7B607B68002BEED100E000BFFD215A
:1045C0000020FFF74FFD0346002B01D101237B6044
:1045D000FFF7ECFC7B68002B14BF01230023DBB248
:1045E00018461037BD4680BD2C010020080400206D
:1045F00080B58CB000AF03463960FB71B34B1B78BC
:10460000DBB203F00103002B01D0032359E1FFF7D4
:10461000EFFD0346002B01D1032352E1012387F86C
:104620002F30FB79042B00F2378101A252F823F0DE
:104630004546000859460008994800080547000803
:10464000FF470008FFF7C2FC0346002B00F028815B
:10465000002387F82F3023E100210920FFF73AFDDE
:104660000346002B40F01E8107F10C031021184671
:10467000FFF7C8FC0346002B00F014813B7B9B092D
:10468000DBB2012B11D17B7D1A463B7D1B0213440B
:104690001A46FB7C1B0403F47C13134401333B6276
:1046A0003B6A9A023B681A6028E07B7C03F00F03A8
:1046B000DAB2BB7DDB09DBB21344DAB27B7D5B008F
:1046C000DBB203F00603DBB21344DBB2023387F83C
:1046D0002E303B7D9B09DBB21A46FB7C9B001A44C3
:1046E000BB7C9B0203F44063134401333B6297F8A5
:1046F0002E30093B3A6A9A403B681A60002387F8DB
:104700002F30CFE0724B1B7803F00403002B33D023
:1047100000218D20FFF7DEFC0346002B40F0C48013
:10472000FF216C48FFF782FB07F10C0310211846AC
:10473000FFF768FC0346002B00F0B680302387F8B3
:104740002E3008E0FF216348FFF770FB97F82E300A
:10475000013B87F82E3097F82E30002BF2D1BB7D2D
:104760001B09DBB21A46102303FA02F23B681A60F7
:10477000002387F82F3097E000210920FFF7AAFCDB
:104780000346002B40F0908007F10C0310211846DF
:10479000FFF738FC0346002B00F086804C4B1B785B
:1047A00003F00203002B12D0BB7D5B0003F07E03FD
:1047B000FA7DD209D2B213445A1C7B7E9B09DBB22C
:1047C000013B02FA03F31A463B681A6013E0BB7D13
:1047D0009B109BB203F01F030133FA7DD20002F05D
:1047E0001802F97D4909C9B20A44013202FB03F3F8
:1047F0001A463B681A60002387F82F3054E0344B88
:104800001B7803F00603002B50D007F10C03194668
:104810000B20FFF7EDFE0346002B49D13B7B9B09A4
:10482000DBB2002B04D1BB7D03F04003002B41D051
:104830003B68FB61FB691B68BB62FB695B687B6271
:10484000234B1B7803F00803002B05D1BB6A5B02E6
:10485000BB627B6A5B027B62B96A2020FFF73AFC8D
:104860000346002B28D1796A2120FFF733FC034649
:10487000002B21D100212620FFF72CFC0346002B22
:104880001AD147F23050FFF76FFB0346002B13D0CD
:10489000002387F82F300FE0042387F82F300CE037
:1048A00000BF0AE000BF08E000BF06E000BF04E070
:1048B00000BF02E000BF00E000BFFFF777FB97F802
:1048C0002F3018463037BD4680BD00BF2C01002078
:1048D000080400200030014080B586B002AF786047
:1048E00039603B68FB60FB6893F84330082B71D15B
:1048F000FB6893F84530502B6CD1FB6893F86E3011
:104900005BB2002B0ADAFB6893F86E20364BDA7044
:10491000FB68B3F87020344B9A8009E0FB6893F889
:104920006E20314B9A70FB68B3F870202E4BDA8002
:10493000FB6893F876305BB2002B0ADAFB6893F8D9
:104940007620294BDA70FB68B3F87820264B9A80E2
:1049500009E0FB6893F87620234B9A70FB68B3F864
:104960007820214BDA80204B9B7819467868FDF738
:10497000EDF803461A461C4B5A701B4BDB78194660
:104980007868FDF7E3F803461A46174B1A70164B82
:104990005978FB6893F82020FB6893F82100124BAC
:1049A000DB8801930223009303467868FDF706F83D
:1049B0000D4B1978FB6893F82020FB6893F82100D1
:1049C000094B9B8801930223009303467868FCF708
:1049D000F5FF04E0FB68D3F844311B6C98470023D3
:1049E00018461037BD4680BDD05B002080B582B030
:1049F00000AF78603960154B5B78002B0ED0134BFD
:104A00005B7819467868FCF715FB104B5B78194604
:104A10007868FDF7C1F80D4B00225A700B4B1B78DC
:104A2000002B0ED0094B1B7819467868FCF702FB67
:104A3000064B1B7819467868FDF7AEF8034B002249
:104A40001A7000BF0837BD4680BD00BFD05B002094
:104A500080B485B000AF786039600023FB73044BED
:104A600000221A70FB7B18461437BD4680BC704785
:104A70000469002080B586B000AF786039603B687B
:104A80003B610123FB750323FB730023BB73786831
:104A900004F076FC0346002B00F0FB807F4B1B7874
:104AA0000A2B00F2ED8001A252F823F0D94A000847
:104AB000E74A0008154B00089D4B0008C94B000849
:104AC000F54B0008214C0008494C0008534C0008E5
:104AD000714B00087B4C0008786804F0ABFC6F4B0E
:104AE00001221A70D5E03968786800F0DFF80346D3
:104AF000FB75FB7D002B02D1684B02221A70FB7DF7
:104B0000032B40F0BF80654B02225A70634B092291
:104B10001A70B7E03968786800F0E8F80346FB756A
:104B2000FB7D002B19D15E4B1A7A5D4B83F808226E
:104B30005B4B93F80832002B0CD05A4B1B78002BA0
:104B400008D1584B01221A703B69D3F844311B6CD1
:104B500098479EE0514B03221A70FB7D032B40F0D7
:104B600093804E4B03225A704C4B09221A708BE0F3
:104B70003B695B79002239687868FDF7A5FA03463E
:104B8000FB75FB7D002B40F08180454B002283F8B4
:104B90000822424B5A78414B1A7077E0786801F04E
:104BA000D7FA0346FB73FB7B002B08D13B4B042257
:104BB0001A703D4B00221A700023FB7569E0FB7BE5
:104BC000184600F0B5F864E0786801F02FFB034662
:104BD000FB73FB7B002B08D1304B05221A70324B44
:104BE00000221A700023FB7553E0FB7B184600F08F
:104BF0009FF84EE0786801F0A9FB0346FB73FB7B4E
:104C0000002B08D1254B08221A70274B00221A705E
:104C10000023FB753DE0FB7B184600F089F838E087
:104C2000786801F013FC0346FB73FB7B002B06D175
:104C30001A4B5A78194B1A700023FB7529E0FB7B3D
:104C4000184600F075F824E03968786804F01EFC16
:104C50001FE03B69D3F84431DB6B98470346BB73D5
:104C6000BB7B002B03D10D4B08221A7010E0BB7BDD
:104C7000012B0DD10623FB750AE00423FB7508E028
:104C800000BF06E000BF04E000BF02E000BF00E09C
:104C900000BFFB7D18461837BD4680BD0469002063
:104CA000D05B00200A0400200904002080B582B0F7
:104CB00000AF786039603B6821221A753B68FF229B
:104CC0005A753B680022DA823B6800221A833B68EF
:104CD00000225A83002300223968786805F09AF888
:104CE000034618460837BD4680BD00BF80B582B078
:104CF00000AF786039603B68A1221A753B68FE22DC
:104D00005A753B680022DA823B6800221A833B68AE
:104D100001225A830123054A3968786805F07AF838
:104D2000034618460837BD4680BD00BFD85B00204B
:104D300080B483B000AF0346FB71FB79012B14D123
:104D40000F4B1B780133DAB20D4B1A700C4B1B78EA
:104D5000092B06D80B4B06221A700A4B0122DA7077
:104D600009E0084B0A221A7005E0FB79022B02D1F8
:104D7000044B0A221A7000BF0C37BD4680BC704736
:104D8000090400200469002080B582B000AF3B1DFB
:104D9000022219460B48FEF721F90346002B0DD0DD
:104DA0003B79642B06D0752B00D007E0064B01221F
:104DB0001A7003E0054B01221A7000BF00BF0837CC
:104DC000BD4680BD004C00400B0400200C040020B8
:104DD00080B58CB000AF01210120FDF78DFF0121CE
:104DE0000220FDF789FF01210420FDF785FFC02384
:104DF000BB62022387F82C30002387F82D30012373
:104E000087F82E30002387F82F3007F12803194642
:104E10003A4801F079F820233B62012387F82430D7
:104E2000002387F82530002387F82630002387F8F1
:104E3000273007F120031946304801F065F84FF498
:104E40008043BB6100233B7700237B770023FB7704
:104E500007F1180319462A4801F056F801224FF4C9
:104E600080412748FCF7EAFA01222021234801F07B
:104E70000FF904220621214801F022F9042207211A
:104E80001E4801F01DF94FF60B433B6101233B75B2
:104E900003237B750023BB750023FB7507F110030B
:104EA0001946164801F030F87E23BB6001233B739E
:104EB00003237B730023BB730023FB7307F10803F9
:104EC00019460F4801F020F8022209210C4801F090
:104ED000F7F84FF400733B6002233B7102237B71B0
:104EE0000023BB710023FB713B461946044801F0C7
:104EF0000BF800BF3037BD4680BD00BF0004024044
:104F00000008024080B483B000AF03463960FB71F3
:104F100097F90730002B0BDA0D49FB7903F00F03EB
:104F2000043B3A68D2B21201D2B20B441A7609E0BD
:104F3000084997F907303A68D2B21201D2B20B444D
:104F400083F8002300BF0C37BD4680BC704700BF0C
:104F500000ED00E000E100E080B582B000AF7860D5
:104F60007B68B3F1807F01D3012311E00A4A7B689B
:104F700023F07F43013B53600F214FF0FF30FFF7D9
:104F8000C1FF054B00229A60034B07221A600023E1
:104F900018460837BD4680BD10E000E080B582B0FD
:104FA00000AF434B1B680133414A1360FCF77CF9A7
:104FB000404B1B68002B04D03E4B1B68013B3D4A15
:104FC00013603B4B1B68B3F57A7F6DD1384B0022E1
:104FD0001A60394B1B680133374A1360374B1B6823
:104FE000002B04D0354B1B68013B344A1360AFF3F0
:104FF00000800023FB7152E0FB79314A9B0013448F
:105000005B68002B48D0FB792D4A9B0013445B68FA
:105010001B7B002B40D0FB79294A9B0013445B6823
:105020009B68002B38D0FB79254A9B0013445B68B2
:105030009A68013A9A60FB79214A9B0013445B68A5
:105040009B68002B28D1FB791D4A9B0013445B68A9
:105050001A69FB791A499B000B445B685B69184627
:105060009047FB79164A9B0013445A68FB79144910
:105070009B000B445B681B689360FB79104A9B00A4
:1050800013445B685B68002B06D1FB790C4A9B00DC
:1050900013445B6800221A73FB790133FB71084BE0
:1050A0001B78FA799A42A7D300BF0837BD4680BD66
:1050B00020040020E45D00201404002018040020D7
:1050C0002404002080B500AF0D4B1B680D4AA2FBE5
:1050D00003239B0C1846FFF73FFF0346002B00D02D
:1050E000FEE7074B1B689B09074AA2FB03239B0AA9
:1050F000064A1360064B01221A7000BF80BD00BF34
:105100006C01002083DE1B4317916502E85D0020DF
:105110001C04002080B584B002AF78600B46FB70A1
:105120007B68094A93420AD1F978002301934FF42E
:105130008273009300230022034800F0A1F800BF0F
:105140000837BD4680BD00BF0030014080B487B045
:1051500000AFF860B9607A60FB681B889BB203F00F
:105160004003002B31D000BFFB681B899BB203F0CA
:105170000303002BF8D0FB681B899BB203F080036C
:10518000002BF1D100237B611AE0BA687B691344DC
:105190001B789AB2FB689A8100BFFB681B899BB29F
:1051A00003F00303002BF8D0FB681B899BB203F0CC
:1051B0008003002BF1D1FB689B897B6901337B6104
:1051C0007A697B689A42E0D300E000BF1C37BD4695
:1051D00080BC704780B487B000AFF860B9603B60B6
:1051E0001346FB71FB681B889BB203F04003002B46
:1051F00034D000BFFB681B899BB203F00303002B74
:10520000F8D0FB681B899BB203F08003002BF1D11F
:1052100000237B611DE0FB799AB2FB689A8100BF95
:10522000FB681B899BB203F00303002BF8D0FB68DB
:105230001B899BB203F08003002BF1D1BA687B6914
:105240001344FA68928992B2D2B21A707B69013320
:105250007B617A693B689A42DDD300E000BF1C376E
:10526000BD4680BC704700BF80B483B000AF78609B
:105270000B467B8000BF0C37BD4680BC704700BF2B
:1052800080B588B000AF7860084611461A460346DC
:10529000FB700B46BB7013463B8007F10C031846AE
:1052A00004F0BEFB7B68294A93420BD1284A284B65
:1052B0005B6C43F480535364FB78184600F04AF863
:1052C00000233B823B883B830023BB81BB8D7B83D8
:1052D0003B8DFB814FF40073FB82BB78002B04D124
:1052E00000237B820023BB8216E0BB78012B04D114
:1052F00000237B820123BB820EE0BB78022B04D10A
:1053000002237B820023BB8206E0BB78032B03D100
:1053100002237B820123BB827B681B889BB223F024
:1053200040039AB27B681A8007F10C03194678682B
:1053300004F032FB7B681B889BB243F040039AB2B7
:105340007B681A8000BF2037BD4680BD0030014019
:105350000038024080B584B002AF0346FB71FB7990
:10536000002B09D10523019303230093002300227E
:10537000E0210D4805F01CF9FB79012B09D105232B
:10538000019303230093002300223821074805F0EE
:105390000FF9FB79032B03D105210548FFF764FFC3
:1053A00000BF0837BD4680BD000002400004024037
:1053B0000030014080B582B002AF4FF4004300934B
:1053C000064B4FF4005205490548FEF77BFC2820A8
:1053D000FCF770FA00BFBD4680BD00BF0008024068
:1053E0003C04002080B500AF2448FEF7A7FC00F085
:1053F00069F80346002B0CD0214B1B780133DAB23D
:105400001F4B1A701E4B1B78032B02D11C4B002222
:105410001A701A4B5B68002B15DD194B1B78194A63
:10542000DB0013445B68164A1278D20015490A441F
:10543000022110469847144B1B78012B1CD1124BAC
:1054400000221A7018E00D4B5B68002B14DA0C4B2D
:105450001B780C4ADB0013445B68094A1278D200BF
:1054600008490A44012110469847084B1B78012B34
:1054700002D1064B00221A7000BF80BD3C04002000
:1054800059040020400100200C0400200B040020DF
:1054900080B582B000AF0346FB80094B1B8BFA88B6
:1054A0009A4202D10648FEF773FCFB88B3F5804FA1
:1054B00001D1FCF72BFA00BF0837BD4680BD00BF05
:1054C0003C04002080B483B000AF084B1B78FB7114
:1054D000064B1B78002B02D0044B00221A70FB797C
:1054E00018460C37BD4680BC704700BF58040020EA
:1054F00080B500AF01214FF0804005F0E3FA03468C
:10550000002B11D001214FF0804005F005FB4FF436
:105510008041064800F086FD0346002B02D1044B73
:1055200001221A70FCF702FA00BF80BD0008024099
:105530005804002080B483B000AF78607B680122FB
:10554000C3F81023002318460C37BD4680BC7047B3
:1055500080B483B000AF78607B680022C3F810236A
:10556000002318460C37BD4680BC704780B483B01A
:1055700000AF7860002318460C37BD4680BC7047EA
:1055800080B584B000AFF8607A603B600B46FB7278
:10559000F86801F07FFC002001F0ECFC7968F86805
:1055A00000F01AF87B683A68C3F840217B68BA6952
:1055B000C3F84421FB7A1946F86803F07DFE7B6846
:1055C000D3F844311B689847F86801F09FFC00BF8E
:1055D0001037BD4680BD00BF80B582B000AF786097
:1055E00039603B6800221A703B6800225A703B68A1
:1055F00000229A703B680122DA703B6801221A7718
:105600003B6840229A713B68002283F820203B6867
:10561000012283F821203B681B7919467868FCF742
:10562000BBFA3B685B7919467868FCF7B5FA00234A
:1056300018460837BD4680BD80B586B002AF786099
:1056400039600223FB73786803F09AFE0346002B4F
:105650000AD13B681B78002B06D03B681B78022BD5
:1056600002D03B6802221A703B681B780A2B00F2BA
:10567000068101A252F823F0A5560008C156000881
:10568000435800087F58000875570008C3570008A2
:10569000F357000813580008975700087F58000870
:1056A0001D580008786803F06BFE0346002B00F0DD
:1056B000E8803B6801221A70642001F0A5FCE0E05C
:1056C0003B68D3F844319B68984700217868FCF721
:1056D0003DFA03461A463B685A7180217868FCF708
:1056E00035FA03461A463B681A71786803F03CFEA7
:1056F0000346002B40F0C7803B68D3F84431DB6899
:105700009847786803F01EFE0346DAB23B6883F8D8
:1057100021203B6804221A703B68D3F844319B690E
:105720003A6892F82120104698473B6819793B68FF
:1057300093F820203B6893F821003B689B799BB24B
:1057400001930023009303467868FCF737F93B6820
:1057500059793B6893F820203B6893F821003B6817
:105760009B799BB201930023009303467868FCF772
:1057700025F988E03968786800F0B2F80346002B14
:1057800040F083803B68D3F844315B6B98473B68BB
:1057900008221A7079E03B68D3F844319B6B984734
:1057A0000346012B73D13B68D3F840311B6839683D
:1057B000786898470346002B69D13B6805221A7028
:1057C00065E03B68D3F840319B6839687868984752
:1057D0000346FB73FB7BDBB2002B03D13B68062245
:1057E0001A7055E0FB7BDBB21946386800F054F8BC
:1057F0004EE03B68D3F84031DB68396878689847F9
:105800000346FB73FB7BDBB21946386800F044F8B3
:105810003EE03968786800F0D5F939E03968786891
:10582000FFF7DAFE3B68D3F844315B6898473B6882
:10583000D3F840315B683A6820321146786898475F
:1058400026E03B68D3F844311B699847396878688B
:10585000FFF7C2FE3B68D3F844315B6898473B686A
:10586000D3F840315B683A6820321146786898472F
:105870007868FCF7B3F93B6800221A7008E000BFB3
:1058800006E000BF04E000BF02E000BF00E000BF90
:1058900000BF1037BD4680BD80B582B000AF7860D4
:1058A0000B46FB70FB78052B02D0FB78042B08D14C
:1058B0007B68D3F844315B6C98477B680A221A7086
:1058C0000AE0FB78062B07D17B680A221A707B68F6
:1058D000D3F844311B68984700BF0837BD4680BDE8
:1058E00080B596B002AF78603960012387F84F30F9
:1058F0003B689B78092B00F24A8101A252F823F001
:105900002959000887590008B1590008175A00089A
:10591000315A0008695A0008BF5A0008135B000892
:10592000675B0008875B0008082239687868FCF725
:10593000B9FA0346002B40F02C813B6893F82920EC
:105940003B689A71786803F00FFD3B6801229A70FA
:105950003B6859793B689B799BB201930023009384
:10596000002300227868FCF7A5F83B6819793B68AA
:105970009B799BB201930023009300230022786857
:10598000FCF798F805E1122239687868FCF78AFA82
:105990000346002B40F0FF803B68D3F84431DB69BD
:1059A0003A682232104698473B6802229A70F2E029
:1059B000012239687868FCF743FB0346002B40F06E
:1059C000EC80022001F020FB3B68012283F82020BC
:1059D0003B68D3F844311B6A98473B6803229A70AE
:1059E0003B6819793B6893F820200023019300233A
:1059F000009300237868FCF75DF83B6859793B68B1
:105A000093F820200023019300230093002378685B
:105A1000FCF750F8C1E0092239687868FCF76CFAA5
:105A20000346002B40F0BB803B6804229A70B6E02E
:105A30003B68DB8E1A4639687868FCF75DFA0346E6
:105A4000002B40F0AE803B68D3F844315B6A3A6883
:105A500002F134003A6802F13E013A686C3298472C
:105A60003B6805229A709CE03B6893F83030002B2D
:105A70001BD03B6893F8302007F10C01FF23009303
:105A80000B4639687868FCF77BFA0346002B40F038
:105A90008A803B68D3F844319B6A07F10C021046B8
:105AA00098473B6806229A707DE03B68D3F8443102
:105AB0009B6A434898473B6806229A7073E03B68AC
:105AC00093F83130002B1AD03B6893F8312007F15E
:105AD0000C01FF2300930B4639687868FCF750FAF5
