:020000040800F2
:1000000010080020AD0200080903000809030008D9
:1000100009030008090300080903000800000000A4
:1000200000000000000000000000000009030008BC
:100030000903000800000000090300080903000884
:100040000903000809030008090300080903000860
:100050000903000809030008090300080903000850
:100060000903000809030008090300080903000840
:100070000903000809030008090300080903000830
:100080000903000809030008090300080903000820
:100090000903000809030008090300080903000810
:1000A0000903000809030008090300080903000800
:1000B00009030008090300080903000809030008F0
:1000C00009030008090300080903000809030008E0
:1000D00009030008090300080903000809030008D0
:1000E00009030008090300080903000809030008C0
:1000F00009030008090300080903000809030008B0
:10010000090300080903000809030008090300089F
:10011000090300080903000809030008090300088F
:10012000090300080903000809030008090300087F
:10013000090300080903000809030008090300086F
:10014000090300080903000809030008090300085F
:10015000090300080903000809030008090300084F
:10016000090300080903000809030008090300083F
:10017000090300080903000809030008090300082F
:10018000090300080903000880B584B000AF01210D
:100190004FF4001000F0A4F90D4B3B600023BB802E
:1001A0004BF6FF73FB8000233B8100237B814FF4E0
:1001B0008043BB813B461946064800F021FC0121E3
:1001C000044800F0DFFC00BF1037BD4680BD00BF13
:1001D000A08601000054004080B582B000AF786076
:1001E0000B46FB701346BB7000BF4FF400317868BC
:1001F00000F086FD0346002BF7D10121786800F05E
:10020000E1FC00BF1349786800F04AFD0346002B6B
:10021000F8D0BA78FB781946786800F013FDBB78FF
:10022000002B08D100BF0C49786800F039FD034667
:10023000002BF8D00AE0BB78012B07D100BF07499B
:10024000786800F02DFD0346002BF8D000BF08377A
:10025000BD4680BD010003008200070002000300CC
:1002600080B582B000AF78600B46FB70FB78194612
:10027000786800F005FD00BF0549786800F010FDC2
:100280000346002BF8D000BF0837BD4680BD00BF35
:100290008400070080B582B000AF786001217868E3
:1002A00000F0B0FC00BF0837BD4680BD80B582B00D
:1002B00000AF104B7B60104B3B6007E03B681A1DA2
:1002C0003A607A68111D796012681A603B680B4ABF
:1002D0009342F3D30A480B494FF000028842B8BF5B
:1002E00040F8042BFADB00F013F800BF0837BD46D6
:1002F00080BD00BF640D0008000000201000002039
:10030000100000201000002080B400AFFEE700BF06
:1003100080B500AF00F02CFA00F000F900F0D0FA40
:100320001E2000F0E1FA1421052000F0F1FA03216B
:10033000012000F00BFB0F2000F026FB0F2000F047
:1003400041FB0248FFF7A6FFFEE700BF0054004054
:1003500080B489B000AF78600023BB6100237B616B
:100360000023FB6102233B610023FB600223BB608F
:10037000484B9B6803F00C03BB61BB69042B07D09F
:10038000082B09D0002B3FD17B68434A1A603FE01D
:100390007B68424A1A603BE03E4B5B6803F4800393
:1003A0009B0DFB603B4B5B6803F03F03BB60FB684E
:1003B000002B0DD0394ABB68B2FBF3F2354B5968BC
:1003C00047F6C0730B409B0903FB02F3FB610CE093
:1003D000314ABB68B2FBF3F22E4B596847F6C07343
:1003E0000B409B0903FB02F3FB612A4B5B6803F4A0
:1003F00040331B0C01335B003B61FA693B69B2FB84
:10040000F3F27B681A6003E07B68234A1A6000BF3E
:10041000204B9B6803F0F003BB61BB691B09BB6108
:100420001F4ABB6913441B78DBB27B617B681A6887
:100430007B69DA407B685A60164B9B6803F4E05393
:10044000BB61BB699B0ABB61154ABB6913441B783E
:10045000DBB27B617B685A687B69DA407B689A60B3
:100460000C4B9B6803F46043BB61BB695B0BBB61D6
:100470000B4ABB6913441B78DBB27B617B685A680B
:100480007B69DA407B68DA6000BF2437BD4680BCF8
:10049000704700BF003802400024F40000127A00C8
:1004A0000000002080B483B000AF78600B46FB7082
:1004B000FB78002B06D00949084B1A6B7B68134365
:1004C0000B6306E00549054B1A6B7B68DB43134061
:1004D0000B6300BF0C37BD4680BC7047003802403C
:1004E00080B483B000AF78600B46FB70FB78002BC4
:1004F00006D00949084B1A6C7B6813430B6406E06D
:100500000549054B1A6C7B68DB4313400B6400BF45
:100510000C37BD4680BC70470038024080B584B0BF
:1005200000AF01210220FFF7BDFFC023BB60022303
:100530003B7300237B730123BB730023FB7307F121
:1005400008031946124800F025F820233B600123D8
:100550003B7100237B710023BB710023FB713B4681
:1005600019460B4800F016F801222021084800F037
:100570009FF804220621064800F0B2F80422072161
:10058000034800F0ADF800BF1037BD4680BD00BF86
:100590000004024080B487B000AF78603960002367
:1005A0007B6100233B610023FB6000237B6176E0DD
:1005B00001227B6902FA03F33B613B681A683B69DD
:1005C0001340FB60FA683B699A4265D17B681A6800
:1005D0007B695B00032101FA03F3DB431A407B686C
:1005E0001A607B681A683B681B7919467B695B0057
:1005F00001FA03F31A437B681A603B681B79012BED
:1006000003D03B681B79022B2ED17B689A687B69EB
:100610005B00032101FA03F3DB431A407B689A6015
:100620007B689A683B685B7919467B695B0001FAD5
:1006300003F31A437B689A607B685A687B699BB2B4
:10064000194601238B40DB431A407B685A607B6864
:100650005B683A68927911467A6992B201FA02F2BD
:1006600092B21A437B685A607B68DA687B699BB2F6
:100670005B00032101FA03F3DB431A407B68DA6075
:100680007B68DA683B68DB7919467B695B0001FAB5
:1006900003F31A437B68DA607B6901337B617B6912
:1006A0000F2B85D900BF1C37BD4680BC704700BFEB
:1006B00080B483B000AF78600B467B8013467B70BC
:1006C0007B78002B03D07B687A881A8302E07B68F2
:1006D0007A885A8300BF0C37BD4680BC704700BF84
:1006E00080B485B000AF78600B467B8013467B708A
:1006F0000023FB600023BB607A787B8803F007034C
:100700009B0002FA03F3FB607B88DB089BB2184670
:100710007B88DB089BB21A467B68083253F822209C
:100720007B8803F007039B000F2101FA03F3DB43EF
:1007300002EA03017B6800F1080243F822107B887B
:10074000DB089BB21A467B68083253F82220FB680C
:100750001343BB607B88DB089BB21A467B68083278
:10076000B96843F8221000BF1437BD4680BC7047FB
:1007700080B500AF124A124B1B6843F001031360AF
:100780000F4B00229A600E4A0D4B1B6823F08473B6
:1007900023F4803313600A4B0A4A5A60084A084B14
:1007A0001B6823F480231360054B0022DA6000F0FD
:1007B0000DF8054B4FF000629A6000BF80BD00BF8E
:1007C000003802401030002400ED00E080B483B017
:1007D00000AF00237B6000233B60354A344B1B682D
:1007E00043F480331360324B1B6803F400333B60E7
:1007F0007B6801337B603B68002B03D17B68B3F5DA
:10080000A06FF0D12A4B1B6803F40033002B02D0F9
:1008100001233B6001E000233B603B68012B42D198
:10082000234A234B1B6C43F080531364214A214B12
:100830001B6843F4804313601D4A1D4B9B68936003
:100840001B4A1B4B9B6843F400439360184A184BA8
:100850009B6843F4A0539360154B174A5A60144A9F
:10086000134B1B6843F08073136000BF104B1B6871
:1008700003F00073002BF9D0104B40F205621A60B0
:100880000B4A0B4B9B6823F003039360084A084B09
:100890009B6843F00203936000BF054B9B6803F025
:1008A0000C03082BF9D100BF0C37BD4680BC704744
:1008B000003802400070004019544007003C0240DC
:1008C00080B500AFFFF760FC012220210448FFF74C
:1008D000EFFE002288210348FFF77EFC00BF80BDA9
:1008E000000402400054004080B582B000AF0346CF
:1008F000FB71FB793F2B04D8FB7919460348FFF7BE
:10090000AFFC00BF0837BD4680BD00BF00540040AB
:1009100080B582B000AF03460A46FB711346BB7137
:10092000BB791F2B0BD8FB795B015AB297F90630C4
:1009300013435BB2DBB219460348FFF791FC00BFDB
:100940000837BD4680BD00BF0054004080B582B06E
:1009500000AF03460A46FB711346BB71BB79032BFC
:100960000CD8BB79DB00DAB2FB791343DBB243F07E
:100970004003DBB219460348FFF772FC00BF08379B
:10098000BD4680BD0054004080B582B000AF034634
:10099000FB71FB790F2B0ED8FB79072B03D9FB7961
:1009A000C3F11703FB71FB7943F06003DBB2194617
:1009B0000348FFF755FC00BF0837BD4680BD00BFA8
:1009C0000054004080B582B000AF0346FB71FB7954
:1009D0000F2B0ED8FB79072B03D9FB79C3F1170333
:1009E000FB71FB7943F07003DBB219460348FFF754
:1009F00037FC00BF0837BD4680BD00BF0054004033
:100A000080B58AB000AF786039600023FB84002392
:100A10007B840423BB84574BFB617B689B88FB84EE
:100A2000FB8C23F03F03FB8407F10C031846FFF710
:100A30008FFC7B69FB61FB694F4AA2FB03239B0C84
:100A40007B84FA8C7B8C1343FB847B68FA8C9A80C2
:100A50007B681B889BB223F001039AB27B681A80E3
:100A60000023FB843B681B68444A934215D83B68CB
:100A70001B685B00FA69B2FBF3F3BB84BB8C032BEE
:100A800001D80423BB84FA8CBB8C1343FB847B8C7E
:100A900001339AB27B681A8440E03B68DB884BF6EE
:100AA000FF72934209D13B681A6813465B001344F6
:100AB000FA69B2FBF3F3BB840EE03B681A68134695
:100AC0009B0013449A001344FA69B2FBF3F3BB840E
:100AD000BB8C43F48043BB84BB8CC3F30B03002B60
:100AE00003D1BB8C43F00103BB84BA8CFB8C134352
:100AF0009BB26FEA43436FEA5343FB847B8C4FF412
:100B0000967202FB03F31E4A82FB03129211DB175B
:100B1000D31A9BB201339AB27B681A847B68FA8C31
:100B20009A837B681B889BB243F001039AB27B686F
:100B30001A807B681B88FB84FB8C23F4816323F081
:100B40000203FB843B689A883B685B8913439AB233
:100B5000FB8C1343FB847B68FA8C1A803B689A8970
:100B60003B681B8913439AB27B681A8100BF283700
:100B7000BD4680BD00127A0083DE1B43A0860100C3
:100B8000D34D621080B483B000AF78600B46FB7029
:100B9000FB78002B08D07B681B889BB243F00103D5
:100BA0009AB27B681A8007E07B681B889BB223F0AF
:100BB00001039AB27B681A8000BF0C37BD4680BC27
:100BC000704700BF80B483B000AF78600B46FB7005
:100BD000FB78002B08D07B681B889BB243F48073A2
:100BE0009AB27B681A8007E07B681B889BB223F46B
:100BF00080739AB27B681A8000BF0C37BD4680BCF8
:100C0000704700BF80B483B000AF78600B46FB70C4
:100C1000FB78002B08D07B681B889BB243F40073E1
:100C20009AB27B681A8007E07B681B889BB223F42A
:100C300000739AB27B681A8000BF0C37BD4680BC37
:100C4000704700BF80B483B000AF78600B46FB7084
:100C50001346BB70BB78002B04D0FB7843F0010334
:100C6000FB7003E0FB7823F00103FB70FB789AB282
:100C70007B681A8200BF0C37BD4680BC704700BF3E
:100C800080B483B000AF78600B46FB70FB789AB2FB
:100C90007B681A8200BF0C37BD4680BC704700BF1E
:100CA00080B487B000AF7860396000233B610023D7
:100CB000FB600023BB600023FB757B689B8A9BB2B3
:100CC000FB607B681B8B9BB2BB60BB681B04BB607B
:100CD000FA68BB68134323F07F433B613A693B6882
:100CE0001A403B689A4202D10123FB7501E00023C0
:100CF000FB75FB7D18461C37BD4680BC704700BFA6
:100D000080B487B000AF786039600023FB750023A2
:100D10003B610023FB607B68FB603B681B0F3B6112
:100D20003B6823F07F433B603B69002B03D0FB68AB
:100D30001433FB6005E03B681B0C3B60FB68183319
:100D4000FB60FB681A683B681340002B02D001234C
:100D5000FB7501E00023FB75FB7D18461C37BD4683
:040D600080BC70479C
:100D6400000000000102030401020304060708094D
:0400000508000000EF
:00000001FF
