:020000040800F2
:1000000060570120893C0008853C0008853C0008B9
:10001000853C0008853C0008853C00080000000085
:10002000000000000000000000000000853C000807
:10003000853C000800000000853C0008CD5C0008FD
:10004000853C0008853C0008853C0008853C00088C
:10005000853C0008853C00081D2100083921000866
:1000600055210008712100088D210008853C0008F9
:10007000853C0008853C0008853C0008853C00085C
:10008000853C0008853C0008853C0008853C00084C
:10009000853C0008853C0008853C0008A921000833
:1000A000853C0008853C0008853C0008853C00082C
:1000B00045610008853C000881610008853C000816
:1000C000853C0008853C0008853C0008853C00080C
:1000D000853C0008CD4A0008F14A0008154B00088D
:1000E00019220008853C0008853C0008853C000872
:1000F000853C0008853C0008853C000841770008E5
:10010000853C0008853C0008853C0008853C0008CB
:10011000394B00085D4B0008853C0008853C000811
:10012000853C0008853C0008853C0008853C0008AB
:10013000853C0008853C0008853C0008853C00089B
:10014000853C0008853C0008853C0008C17B000810
:10015000853C0008853C0008853C0008814B000870
:10016000853C0008853C0008853C0008853C00086B
:10017000853C0008853C0008853C0008853C00085B
:10018000853C0008853C000870B582B00546002318
:100190000193032007F0D0FCEB681A690192134C1D
:1001A000032607E0304607F0C7FCEB681A690192A6
:1001B000013C18D0019A002AF4DA019A42F00102B7
:1001C0000192019A1A61E9680B690193074B03E0F8
:1001D0000A690192013B03D0019A12F0010FF7D195
:1001E000032007F0A9FC002002B070BD400D030001
:1001F00010B4C4786CB9033300EB8200D0F8D0405F
:100200009B1006D0002251F8040B2060013293426B
:10021000F9D1002010BC704770B40332D0F8D06020
:10022000921009D00C460023356844F8045B013372
:100230009A42F9D101EB8201084670BC704700BFB9
:1002400070B40023C370012383704023838001298D
:100250000DD10123C37208230370042343704FF4AC
:10026000A073C380022303724FF0A0460CE051B983
:100270000023C3720C230370062343704FF4A06362
:10028000C380234E00E00026C66006F500630361CC
:10029000457895B106F5106300F1140100F15002A4
:1002A00006EB451505F5106541F8043F03F50074AC
:1002B00042F8044F2033AB42F6D106F58063436128
:1002C00006F58863C0F8CC300178D1B106F5A0639B
:1002D00000F18C0206EB411404F5A06442F8043FDF
:1002E0002033A342FAD106F5805300F1CC0206EB8D
:1002F000013101F5805142F8043F03F580539942E2
:10030000F9D106F56066C0F80C61002070BC70473A
:100310000000044038B50446037A012B22D10025A1
:10032000C268936B6FF31043417A09B143F48013B1
:100330009363E268D3686FF386136FF396536FF39A
:1003400051436FF3D343D3602046FFF71DFFE3789B
:10035000012B25D1052363F3440545F02005E3680F
:100360009D6012E0C268D36843F04003D360FFF79A
:100370000BFF637A002B0CBF4FF434134FF474134C
:10038000E2689363142007F013FCE378012B07D194
:10039000E3689D68052262F3440545F020059D60F1
:1003A000002038BDC268936843F0010393600020C9
:1003B000704700BFC268936823F001039360002078
:1003C000704700BF00B583B000230193019B43F049
:1003D00020030193019B61F38A130193C368019A7F
:1003E0001A61C1680B690193084B03E00A69019225
:1003F000013B03D0019A12F0200FF7D1032007F040
:100400009BFB002003B05DF804FB00BF400D030020
:1004100000B583B000230193019B43F010030193C7
:10042000C368019A1A61C1680B690193084B03E024
:100430000A690192013B03D0019A12F0100FF7D123
:10044000032007F079FB002003B05DF804FB00BF38
:10045000400D030008B5C268D3686FF35D736FF396
:100460009E73012902D143F0005302E009B943F021
:100470008043D360322007F09BFB002008BD00BF03
:10048000C368586900F00100704700BFC36858692D
:100490009B691840704700BF4369986880F001006D
:1004A00000F00100704700BF0023C2689361C1687B
:1004B0004FF0FF324A61C1684A60C2686FF0804104
:1004C0005161C26808499161C2789A4208BF1023FD
:1004D00043F00C5343F4001343F00803C1688A69E6
:1004E00013438B6100207047000800804269136845
:1004F00061F3010313607047D0F8CC30186820F026
:100500002E00704738B504460D4607F005FB20461F
:10051000FFF7F2FF10F4805F10D1012D0AD140F4F3
:100520008050D4F8CC30186004E06FF30C30D4F86D
:10053000CC301860C82007F03BFB38BD002DF4D04C
:10054000F8E700BF43695869704700BF38B50546F2
:10055000FFF7D2FF40F48074D5F8CC301C600A203D
:1005600007F026FB6FF30824D5F8CC301C6014206C
:1005700007F01EFB012038BD70B5044600252E464D
:1005800007F0F0FAD4F80C311D60237A012B0CBF70
:10059000294601212046FFF7A9FF2046FFF7D6FF95
:1005A000626913686FF382031360E37A012B11D140
:1005B000E2688023536263F30F05602363F31F45F2
:1005C000E2689562E02262F30F0663F31F46E36878
:1005D000C3F8006110212046FFF7F4FE2046FFF724
:1005E00017FF237873B104F18C0200234FF0FF351D
:1005F000184652F8041F8D601168C86001332178D5
:100600009942F6D801212046FFF77CFF2046FFF7EC
:100610004BFF002070BD00BF70B4002300EB8104CD
:10062000D4F890204FF0FF359560C278012A14BFAE
:100630001A46042200EB411595F8B153032D30D82A
:10064000DFE805F00224021842F4936242F001024E
:1006500000EB411595F8AE5315B142F4807220E0DD
:1006600042F0400200EB411595F8B053CDB142F095
:10067000200216E042F4D36242F0010200EB411581
:1006800095F8AE536DB142F480720AE042F40872FC
:1006900042F0010200EB411595F8AE530DB142F462
:1006A000C072D4F89050EA604669B56901228A4068
:1006B0002A43B261C568AA6942F00072AA6100EBE0
:1006C000411090F8AC2362F39C5390F8AD2362F391
:1006D000CE2390F8AE2362F3CF3390F8AF23022AF3
:1006E00014BF0022012262F3514390F8B12362F358
:1006F0009343B0F8B21361F30A03032A08BF43F02F
:100700000053D4F890201360002070BC704700BFE5
:100710002DE9F04186B004460D460022164600EB56
:100720004113D3F8BC339BB100EB4111B1F8B213C4
:10073000013B0B44B3FBF1F39BB2B3F5807F08D9C7
:1007400000EB45130902C3F8BC134FF4807300E0BB
:10075000012304EB451191F8AE1339B104EB4510B8
:10076000B0F8B21303FB01F1C0F8BC1304EB451160
:10077000D1F8BC1361F3120263F3DC4204EB4513BE
:1007800093F8B43363F35E7204EB8508D8F89030C5
:100790001A61E378012B06D1D8F8903004EB4512AA
:1007A000D2F8B8235A61D8F890301F682046FFF776
:1007B00073FE60F35D7747F000476FF39E77D8F8DC
:1007C00090301F60E378002B3ED104EB451393F883
:1007D000AE33002B38D104EB4513D3F8BC33002BD8
:1007E00032D004EB451292F8B123032A21D8DFE876
:1007F00002F002110211E168CA6A0392033392B255
:10080000C3F38F039A4214D246F020068B691E432D
:100810008E610EE0626912690192033392B2C3F3F2
:100820008F039A4205D246F08066E26893691E43C0
:10083000966104EB45131946B3F8BC332A46D1F848
:10084000B8132046FFF7D4FC002006B0BDE8F081C5
:1008500086B000EB8101D1F89020136843F040434B
:1008600013F4802F07D1C168C96AC1F3074149B9A0
:100870006FF3DF7306E041690969C1F3074109B904
:100880006FF3DF731360002006B0704710B40022CE
:100890004FF00043012464F3DC4300EB8101D1F805
:1008A00090000361D1F890100B6843F0004362F3AD
:1008B0009E730B60104610BC704700BF2DE9F04FCF
:1008C00087B0064603F00304534800F1280C0CEBF4
:1008D000841C00EB8400D0F8280100909B101F2B93
:1008E000A8BF1F23DC1C84F3050400200290DCF861
:1008F000045025410395DCF8085025410495DCF8A7
:100900000C5045FA04F405940439DFF80C915C426C
:10091000019456F8045B25F00044032C05DC06AF77
:1009200007EB840454F8104C6AE00F2C07DC5CF8E9
:100930002440002BBABF019FBC401C4160E03F2C0B
:1009400008DC09EB8404D4F8F870009C87FB04E40D
:10095000DF1E46E06404B4F1006FBABF24014FF01B
:10096000040E4FF0000EB4F1005FBCBFA4000EF106
:10097000020EB4F1804FBCBF64000EF1010E274F90
:10098000BC4207DC07F14F4707F5F21707F582670E
:10099000C84602E0224F09F11408A24687FB0ABAB2
:1009A000D8F804705744A24687FB0ABAD8F80870F2
:1009B0005744A24687FB0ABAD8F80C70574487FB05
:1009C00004A4D8F810703C4409EB8E0EDEF8F871E0
:1009D00084FB0787FF00009C87FB0484DEF8187205
:1009E000DF1B002F08DA7F426FF0004E4EFA07FE41
:1009F000744503DCBC4003E03C4101E06FF000447F
:100A00002043002DB8BF644241F8044F013A80D121
:100A100007B0BDE8F08F00BF341D01089979825AF4
:100A2000632185102DE9F04F91B0069007910B924C
:100A30000A931A9B5B69022B40F01E811A9B9B69EB
:100A4000002B00F005810A9B1B7803220392002BE8
:100A50000CBF4FF008094FF0060911E11B9B5F1E08
:100A60004FF0000B5D46DA46089BC3F1D208CDF883
:100A70001090DDF82890CDF80880DDF82C806E1CF1
:100A8000D9F8343003EB4502B2F9024033F915309E
:100A9000E41A17F8013F1A9AD26B1AB1814A32440C
:100AA00012F8012C069901EB8A001344019A02996D
:100AB00002FB031322460146FFF700FFA244034650
:100AC00000B10D954BEA030BD8F800309A4508DACF
:100AD0003546049B9E42D2DB03E0002303939B46F2
:100AE0009A4600231C9A13600D9A1C994A61CB60A8
:100AF0008B604B600B61039B0B2B03DDBBFA8BF010
:100B00000138CCE0039B0D930E930F930C2B70DCFC
:100B100003EB430317331B9AD3180593089BC3F1C8
:100B2000D2030493CDF808A0DA46039A13460133A2
:100B300009930A9B5B6B03EB4203B3F93060B3F993
:100B40002E30F61A1A9B03F1240BB500069B029A6D
:100B500003EB8204DDF81C90A046059B0027089457
:100B60001C4614F8012B5BF8043F049901EBC30306
:100B7000019901FB0233324649464046FFF79EFE8B
:100B8000034618B10DAA039942F827104AEA030A4E
:100B90000137A844A944032FE3D1089C06EB460380
:100BA000029A1A440292002E11DD07990A1F0D4481
:100BB00001EBC6031E4652F8041F216055F8041BC2
:100BC000616053F8041BA1600C34B542F3D10B9B58
:100BD0001B68029A9A4209DA059B03330593099B25
:100BE00003930D2BA1D1D346924602E0D346DDF804
:100BF00008A00B9BC3F800A01A9B9B69002B14BF95
:100C0000022301231C9A13600D99134651600E9A1A
:100C10009A600F9B1C98C3608A42B8BF0A469342F1
:100C2000B8BF13460361BBFA8BF0013837E0089B6D
:100C30000233089300231C9A13600D9A1C994A6191
:100C4000CB608B604B600B6103939B469A4659E7E0
:100C500000230D931A9B1B6C01335B0001931A9BBD
:100C60009B6808930A9B1B6A5B087FF436AFDEE73C
:100C7000089B02330893F1E60D2303934FF0160906
:100C800000230D931A9B1B6C01335B0001931A9B8D
:100C90009B6808930A9B1B6A5B08E9D0DEE611B0EB
:100CA000BDE8F08F6C1F01082DE9F04F93B01C9F39
:100CB000DDF87480002800F0388305460468002CB5
:100CC00000F0368340680090002800F03483D5F8A7
:100CD00008B0BBF1000F00F0318310680344073304
:100CE00048BF073303951546029201910A46D91071
:100CF0000EA800F055FD296811B10EA800F056FDB0
:100D00002378002B40F0598108EBC80207EBC7039A
:100D10001B0103EBC203009A1344596BC84A12F833
:100D200011A002EB41025478DB6B022B64D108EB7B
:100D3000C80207EBC7031B0103EBC203009A13446D
:100D40001B6C002B00F0FD82C8EB48125200C7EB71
:100D500047139B009D18013D5D44073213440BEB84
:100D6000030651460EA800F021FD05F8010FAE4222
:100D7000F7D10325E6E251460EA800F017FDF07505
:100D800051460EA800F012FD307651460EA800F034
:100D90000DFD707601350336052DECDD0B2D1BDCCA
:100DA00005EB4505049B1D445D4409F12406059BA4
:100DB0001E445E4421460EA800F0F8FCE87521466A
:100DC0000EA800F0F3FC287621460EA800F0EEFCF9
:100DD00068760335AE42EDD1C8EB4812C7EB471336
:100DE0009B0003EB42035B44002283F83D2083F821
:100DF0003C2083F83B207AE2EFB9C8EB4816760036
:100E0000751E5D4406F10A09D94451460EA800F04A
:100E1000CDFC05F8010F4D45F7D106F10B055D44FA
:100E200015365E4421460EA800F0C0FC05F8010B03
:100E3000B542F7D15BE24FEA08130833009901EBA2
:100E40000309CB58A3B1C8EB481149004B1E5B44C2
:100E5000C7EB471201EB8202013A5A4405310BEB12
:100E6000010013F8011F02F8011F8342F9D112E0BB
:100E7000C8EB4815C7EB47139B0003EB4505013D45
:100E80005D44002651460EA800F090FC05F8010FC5
:100E90000136062EF6D1D9F80430ABB1C8EB4811B3
:100EA00049008A1D0BEB0203C7EB471002EB8002DF
:100EB000013A5A440B310BEB010013F8011B02F805
:100EC000011F8342F9D112E0C8EB48135B00C7EB66
:100ED000471603EB860605365E44062551460EA8E6
:100EE00000F064FC06F8010F01350B2DF6D1D9F89E
:100EF0000830B3B1C8EB4811490001F10B020BEB0C
:100F00000203C7EB471002EB8002013A5A4410314A
:100F10000BEB010013F8011B02F8011F8342F9D10A
:100F200012E0C8EB48135B00C7EB471603EB8606DD
:100F30000A365E440B2521460EA800F037FC06F861
:100F4000010F0135102DF6D1D9F80C30B3B1C8EB33
:100F50004811490001F110020BEB0203C7EB4710E7
:100F600002EB8002013A5A4415310BEB010013F8F1
:100F7000011B02F8011F8342F9D112E0C8EB4813AC
:100F80005B00C7EB471603EB86060F365E44102561
:100F900021460EA800F00AFC06F8010F0135152DB8
:100FA000F6D1C8EB4812C7EB47139B0003EB420393
:100FB0005B4400225A759A7599E108EBC80207EB69
:100FC000C7031B0103EBC203009A13445B6B216A46
:100FD00011F0010102D0B8F1010F56D0B3F5C87F6E
:100FE00015DA1811174A82FB0024DA17C2EB6402E3
:100FF000069202EB8202821A0792C3F381020892E0
:1010000003F0030309930020024604467FE0B3F592
:10101000FA7F19DAA3F5C87398100A4A82FB0024F4
:10102000DA17C2EB6402069202EB8202821A07927E
:1010300003F003030893002209921046012466E09E
:10104000841F010867666666A3F5FA73C54A82FBCA
:101050000302A2EBE372069202EB4200181A079019
:1010600000230993089308EBC80407EBC7031B018F
:1010700003EBC403009C23441B6C002B44D008905A
:10108000079200200122022441E003F001005B10DE
:10109000B32B19DCB44A82FB0324DA17C2EBE40257
:1010A000069202EBC202A3EB8203B04A82FB034228
:1010B000A2EBE372079202EB4202A3EB4203089316
:1010C00000220992032422E0F32B0DDCB43BC3F38E
:1010D00001120692C3F38102079203F003030893FF
:1010E00000220992042412E0F43B9E4A82FB034250
:1010F000A2EBE372069202EB42029B1A07930022D4
:1011000009920892052402E000200122022408EB43
:10111000C80507EBC7031B0103EBC503009D2B4468
:10112000DB6B022B0ED108EBC80507EBC7031B01D5
:1011300003EBC503009D2B441B6C002B14BF022343
:10114000012300E0002304EB44041C44884B03EB20
:10115000840393F820400A9493F821400B9493F869
:1011600022400C9493F823300D93B1B1B8F1010FE4
:1011700013D10BF1F8040BF58471002306AD55F87B
:10118000235044F8045F0AAD55F8235041F8045F3A
:101190000133042BF2D1CBF8F80008EBC80107EBC0
:1011A000C7031B0103EBC10300990B445A66DB6BB9
:1011B000022B5ED108EBC80207EBC7031B0103EB50
:1011C000C2030B441B6C002B00F0D480069EC8EBBE
:1011D0004814C7EB47139B0003EB4404013C5C44F9
:1011E000002531460EA800F0E1FA04F8010F0135A0
:1011F000062DF6D14FF0010A4FF00309BDE058F873
:10120000045B59F8043B002B1BDD07EB47040499F2
:101210000C445C441F4407EB47060E445E442946D9
:101220000EA800F0C3FAE07529460EA800F0BEFA39
:10123000207629460EA800F0B9FA60760334B4424D
:10124000EDD10AF1010ABAF1030FD8DD1C9FDDF8D8
:101250007480C8EB4812C7EB47139B0003EB4203B3
:101260005B44002283F83D2083F83C2083F83B2038
:101270003DE0C8EB4812C7EB47139B0003EB42036A
:101280001946002399464A1E04921C97CDF8748093
:10129000884606AA52F829600AAA52F82970002F37
:1012A00012DD9A4608EB0304013C5C44049AD5180D
:1012B0003D445D4431460EA800F078FA04F8010F71
:1012C000AC42F7D10AEB070309F10109B9F1040FA8
:1012D000DFD11C9FDDF87480C8EB4812C7EB4713C1
:1012E0009B0003EB42035B4400229A755A7508EB9E
:1012F000C80207EBC7031B0103EBC203009A1A44A1
:10130000936A08EB470707F5FC77039A42F8273002
:10131000029C226801990EA800F0A2FA23680344F7
:10132000D81003F0070323603EE04FF0FF303BE0AE
:101330004FF0FF3038E04FF0FF3035E04FF0FF3036
:1013400032E00025C8EB48194FEA4909C7EB4713BB
:101350009B0005934B44049305EB45061E445E44F5
:1013600009E500BF56555555398EE338ABAAAA2A70
:10137000841F01084FF0000AD1464FEA8A0306AAEB
:101380001A4411460AAAD3181846C8EB4812C7EBEC
:1013900047139B0003EB420304931C974F4681467F
:1013A000CDF8748088462AE713B0BDE8F08F00BFFF
:1013B00010B584B001214FF4001003F041F80E4B3A
:1013C00000930023ADF804304BF6FF72ADF8062011
:1013D000ADF80830ADF80A304FF48043ADF80C306A
:1013E000064C6946204609F019FD0121204609F006
:1013F00085FD04B010BD00BFA08601000054004070
:10140000F8B504460F4616464FF4003529462046E7
:1014100009F0B8FD0028F9D10121204609F07CFD32
:101420000F4D2946204609F09FFD0028F9D032468D
:101430003946204609F08CFD3EB90A4D2946204622
:1014400009F092FD0028F9D0F8BD012E06D1064D15
:101450002946204609F088FD0028F9D0F8BD00BFD4
:1014600001000300820007000200030038B50546B2
:1014700009F078FD034C2146284609F075FD002847
:10148000F9D038BD8400070008B5012109F052FDEC
:1014900008BD00BF00B583B001220146074808F02F
:1014A0001FFC8DF807009DF8073013F0FF0F0CBFED
:1014B0000120002003B05DF804FB00BFF03C0120D8
:1014C000F0B583B0664B1B78052B00F2BC80DFE8DB
:1014D00003F00528A603AE030020BFE0FFF7DAFF04
:1014E000012840F0B28000225E4B1A705E4B41F63C
:1014F00050651D6041F651625A604FF410515B48CF
:1015000006F0DAF8564B01245C701C7002F0DEFC29
:10151000574B1860574A584B1A60584B1D6020466D
:101520009CE0514B1A685B68934273D34C4B5B78D9
:10153000002B00F08C80514B196841F650639942A2
:101540000AD1494C231D4B494D4808F087FC62687D
:1015500023689A422FD27CE0C1F5F252103241F654
:101560004F639A4209DC474B13444748474D13F8F1
:10157000014F00F8014FAB42F9D1454C23463D489D
:1015800001443F4808F06AFC3C4B1868C0F5F25330
:101590001033226893425EDC002808DD3A4B394A5A
:1015A000184413F8011F02F8011F9842F9D141F6BF
:1015B0005062324B1A602F4A2F4B1A6000262F4D73
:1015C0001C462B4F2968206802F084FC2B681B1AEC
:1015D0002B602368184420603868224B1B7813B9AD
:1015E000224B334401E02B4B3344002200922A4625
:1015F000214602F0BDFC06F59056B6F5904FE1D1BC
:1016000025491B4B186802F07FFC0022144B5A70CE
:10161000012023E00222124B1A7000201EE018481D
:1016200008F02EFD05220E4B1A70002016E01B4B11
:101630001B7813F0FF0F10D0114808F021FD002097
:10164000074B18700AE0012008E0002006E00120A6
:1016500004E0012002E0012000E0012003B0F0BD21
:1016600000000020901E0120B00D0020D46B00204F
:101670003CB80020941E0120EC3C0120E83C0120F5
:10168000F03C0120931E01203FB80020E33C0120E4
:10169000E43C012090D60020143F01208C01002062
:1016A00008B5134B1B7813F0FF0F20D0114B5B785C
:1016B000EBB900220E4B1A7001220E4B5A700E4BE2
:1016C0001B782BB94FF410510C4806F02FF804E0AA
:1016D0004FF410510A4806F029F8074B1B781BB944
:1016E0000122054B1A7008BD0022034B1A7008BD79
:1016F0008C01002000000020901E0120D46B0020EF
:1017000090D60020F8B54FF6FF740D4F0D4E012511
:101710002A463946304608F0AFFA28B106F058FAA2
:10172000013CF5D1002400E00124012206490748CC
:1017300008F0A2FA08B90134E4B22046F8BD00BFAF
:10174000EC1F010808B60020F01F0108D4B30020E8
:101750000422034B1A70034B986001221A737047DE
:1017600000000020B00D00200322014B1A707047CA
:1017700000000020064B1B78032B03D10122044BF1
:101780001A707047052B02D10022014B1A70704766
:1017900000000020014B9868704700BFB00D00208A
:1017A0000260002343608360C1607047034601F01C
:1017B0001F014268C1F11F0022FA00F040088A4070
:1017C0005A609A68511A9960002948DAF0B44F4279
:1017D000DE68032E1CDD1C68621C1A60254615F8A5
:1017E000022B12065A601D60657842EA05425A6073
:1017F000E51C1D60A57842EA05225A60251D1D6082
:10180000E47822435A6020229A60043EDE6019E0A8
:1018100000225A60741E5EB11A68551C1D6015784E
:101820005A682A4312025A60013CB4F1FF3FF3D1D7
:10183000C6F10302D4005A68A2405A60F6009E60C6
:101840000022DA605A6801F1200422FA04F42043ED
:101850009C682144996002FA07F75F60F0BC70470A
:101860000368591A8368C3EBC100801A704700BF30
:1018700030B103683BB15869003018BF0120704790
:101880004FF0FF3070474FF0FF307047002800F0F6
:10189000D880F0B504460368002B00F0D5800A78A4
:1018A000FF2A40F0D4804A7802F0E000E02840F0BF
:1018B000D180D20812F0030F1ABF82F0010202F0A9
:1018C0000100022018704D78C5F34105C5F10405EB
:1018D0005D604A7882F0010202F001029A608F781E
:1018E0003F09DF608A78C2F381021A618E78C6F3FD
:1018F00040065E618E7806F001069E61CE78B609DC
:101900001E7791F803E0CEF3011EC3F820E091F8B2
:1019100003E0CEF3C00EC3F824E091F803E0CEF369
:10192000800EC3F828E091F803E00EF0030EC3F830
:101930002CE0032A00F09180042D00F091800F2FFD
:1019400000F09180DE2505FB00F04A2505FB020230
:10195000464802445A63012E06D000221A62032E22
:101960000CBF0122022200E00222C4F8BC271A7830
:1019700002EB4202186902443D4850F82220C4F8A4
:10198000C0271A78002A0CBF02250125C4F8C457C5
:101990001A7802EB42005A68013A0244354830F99D
:1019A000122092FBF5F2C4F8C8275A68C4F8D02771
:1019B0001A7884F8D427D868002835D05D68013DAE
:1019C0001A78C5EB051502EB4202C2EB02122A445B
:1019D0000244294830F912004FF47A7202FB00F2F7
:1019E000C4F8B8271A781869C0EB001550000244F3
:1019F000C2EB02122A44DD682A44204D35F9122038
:101A00001D7F032D18BF01301D4D35F91000121A2E
:101A1000101F9A68002A18BF02225D69821A002DE1
:101A200018BF0132C4F8CC279A6832B108794A79D4
:101A300042EA00221A630620F0BD00221A63042045
:101A4000F0BD4FF0FF3070474FF0FF30F0BD4FF06A
:101A5000FF30F0BD4FF0FF30F0BD4FF0FF30F0BD74
:101A60004FF0FF30F0BD4FF0FF30F0BD6443010890
:101A70004848010824470108384701080046010882
:101A800010470108002800F01A812DE9F04F87B0B7
:101A90008046D0F80090B9F1000F00F01381436840
:101AA0001C460093002B00F0108199F80030002BA9
:101AB00034D199F81C30032B0CBF112320231A4674
:101AC000019302910023039304930592092102A834
:101AD000FFF76CFE206099F81C30032B0CBF05212A
:101AE000032102A8FFF762FE6060D8F8BC37002B24
:101AF00032DD0834002701260DE0314602A8FFF749
:101B000055FE44F8040BAC42F7D101372C46D8F807
:101B1000BC37BB4220DD04F11005EEE799F81C301C
:101B2000032B0CBF092311231A46019302910023B2
:101B300003930493059208210DEB0100FFF736FE95
:101B4000009C206099F81C30032B0CBF012102215E
:101B500002A8FFF72BFE6060D8F8C437002B40F3D3
:101B6000A880DDF800B04FF0000A9CE05C4600273A
:101B700001260C2102A8FFF719FE2546A0620921C3
:101B800002A8FFF713FEE06208210DEB0100FFF74A
:101B90000DFE206399F80030002B0CBF04210921B1
:101BA00002A8FFF703FE6063314602A8FFF7FEFDBF
:101BB000A063002838D0022102A8FFF7F7FDE063F8
:101BC000314602A8FFF7F2FD2064052102A8FFF7C5
:101BD000EDFD6064052102A8FFF7E8FDA064002385
:101BE000E364032102A8FFF7E1FD2065032102A8B9
:101BF000FFF7DCFD6065032102A8FFF7D7FDA065B4
:101C0000E36B1BB9E362A362636308E0022B04D1B8
:101C1000236C13B90823E36501E00723EB65EB6D43
:101C2000C3F114032B661BE00023E3632364052147
:101C300002A8FFF7BBFD6064052102A8FFF7B6FD0F
:101C4000A064052102A8FFF7B1FDE064042102A809
:101C5000FFF7ACFDE065032102A8FFF7A7FD2066B2
:101C600099F8003023B9314602A8FFF79FFD00E044
:101C700000206866314602A8FFF798FDA866314645
:101C800002A8FFF793FDE86601374834D8F8BC375F
:101C9000BB423FF76EAF0AF1010A0BF1900BD8F887
:101CA000C437534505DDD8F8BC37002B3FF75EAF8E
:101CB000F1E7009B1B68C8F8D837019807E04FF0A0
:101CC000FF3070474FF0FF3001E04FF0FF3007B0BA
:101CD000BDE8F08F002800F022812DE9F04F8FB091
:101CE00004460768002F00F01D8143681A460893D8
:101CF000002B00F01A81836818460993002B00F02E
:101D00001781E568002D00F0168123690693002BEA
:101D100000F014810E46079103F5467319460A93A5
:101D200000230D930C93D4F8BC37002B2EDD06EB6B
:101D3000C60602EB06162836079BC3EB431900EBD9
:101D4000890905F5905808F104084FF0000A0B9531
:101D500023464C46B9460F469B460297019400968F
:101D60004B46A8F1040206992846FEF75BFE48F8A8
:101D7000040F0AF1010A05F5106548363E3418379C
:101D8000DBF8BC375345E8DC4F460B9D3B6A002B24
:101D900000F0A88041F20823EB58002B05DC05F584
:101DA00090531C68002C06DC1AE041F20C23EB581F
:101DB000002B2FDCF3E72B1F04F18044013C05EBE3
:101DC000840461496FF0404604331A688A4201DA9C
:101DD000196003E0B2F1804FA8BF1E60A342F3D1A7
:101DE00041F20423EA58002A14DD05F6FC0302F24E
:101DF0003F2205EB820454496FF0404604331A68D1
:101E00008A4201DA196003E0B2F1804FA8BF1E6078
:101E10009C42F3D13B6A5A0825D013F0010F15D02C
:101E20000699D1F8303333B97A6BD1F844330133A2
:101E300032F9131013E07B6B069AD2F8402303EBC0
:101E40004203B3F9301001EB410108E005F590536E
:101E500041F20422A9581B689942B8BF19460CAA3E
:101E6000284605F0F5FE386A10F0010F3AD005F566
:101E7000905319683B78CBB9079CC4EB4413099A7B
:101E800002EB83030CAA039204EBC402089C04EB4C
:101E90000212D2F888200292401001900A9A009211
:101EA0003E333A46284605F007FF1BE0079CC4EB8B
:101EB0004413099E06EB83030CAA049204EBC402AC
:101EC000089C04EB0212D2F8882003924010029082
:101ED0003246F83201920A9A00923E333A46284638
:101EE00006F082F8386A58B30C9BB3FA83F3013BCF
:101EF00041F20822AB500D9BB3FA83F3013B41F250
:101F00000C22AB5041F2042205F59051A8580B6801
:101F10008342B8BF03460B60AB50002010E04FF087
:101F2000FF3070474FF0FF300AE04FF0FF3007E01E
:101F30004FF0FF3004E04FF0FF3001E04FF0FF3092
:101F40000FB0BDE8F08F00BF010000C02DE9F041E7
:101F500084B0074616460D4621B14B1E0B4218D0E1
:101F6000002400E000244FF0010845FA04F313F0C8
:101F7000010F09D008FA04F1324689B23846FFF75A
:101F8000E5FF002840F0BB800134102CEDD100208B
:101F9000BCE0604B1B680B4240F0B3805D4B5B685C
:101FA000194240F0B08080293CD011D8082933D0A4
:101FB00007D802292AD004292BD0012940F0A58076
:101FC00036E020292ED040292CD0102927D09CE0A3
:101FD000B1F5006F29D00AD8B1F5007F22D0B1F554
:101FE000806F22D0B1F5807F40F08F801AE0B1F58C
:101FF000005F1AD003D8B1F5805F16D085E0B1F547
:10200000804F12D0B1F5004F0FD07EE04FF007089F
:1020100010E04FF008080DE04FF009080AE04FF01B
:102020000A0807E04FF0170804E04FF0280801E025
:102030004FF00608012E04D0002E0CBF022300230F
:1020400000E00123002201920093134629463846FE
:1020500009F030FA284609F0B7F9C4B2384609F059
:10206000BFF92D4A536C43F48043536404F0FC03DE
:1020700003F1804303F59C33996804F00302920056
:102080000F27974021EA070199609968C0B200FACA
:1020900002F2114399601F4B1968EA43114019601D
:1020A000596811405960196829431960D96811406D
:1020B000D96099680A409A60012E04D11A46DB68FB
:1020C0001D43D5600CE026B9124A93681D43956004
:1020D00006E0104BDA682A43DA609A6815439D607F
:1020E0008DF80C800A238DF80D308DF80E400123F9
:1020F0008DF80F3003A809F029F8002006E0012030
:1021000004E0012002E0012000E0012004B0BDE86D
:10211000F08100BF003C01400038024008B5054B8B
:102120005B6913F0010F04D00120024B586103F0EA
:10213000DFFF08BD003C014008B5054B5B6913F0AB
:10214000020F04D00220024B586103F0D1FF08BDFA
:10215000003C014008B5054B5B6913F0040F04D047
:102160000420024B586103F0C3FF08BD003C01404E
:1021700008B5054B5B6913F0080F04D00820024B2B
:10218000586103F0B5FF08BD003C014008B5054BA0
:102190005B6913F0100F04D01020024B586103F05C
:1021A000A7FF08BD003C014008B51A4B5B6913F05E
:1021B000200F04D02020174B586103F099FF154BD6
:1021C0005B6913F0400F04D04020124B586103F0BC
:1021D0008FFF104B5B6913F0800F04D080200D4BF4
:1021E000586103F085FF0B4B5B6913F4807F05D0CA
:1021F0004FF48070074B586103F07AFF054B5B6921
:1022000013F4007F05D04FF40070024B586103F0C7
:102210006FFF08BD003C014008B5214B5B6913F41A
:10222000806F05D04FF480601D4B586103F060FF54
:102230001B4B5B6913F4006F05D04FF40060184B23
:10224000586103F055FF164B5B6913F4805F05D0AE
:102250004FF48050124B586103F04AFF104B5B69FA
:1022600013F4005F05D04FF400500D4B586103F09C
:102270003FFF0B4B5B6913F4804F05D04FF4804058
:10228000074B586103F034FF054B5B6913F4004FB3
:1022900005D04FF40040024B586103F029FF08BD00
:1022A000003C01402DE9F043022A6BD1464BD3F8A4
:1022B00038E182688EFB0242D3F82051846985FBA5
:1022C000046422440A60D3F83C61426886FB0242FF
:1022D000D3F82451C46985FB047422444A60D3F8BE
:1022E0004051026885FB0242D3F82841076A84FB0B
:1022F00007C73A448A60D3F84441026884FB0272FB
:10230000D3F82C71D0F820C087FB0C8C6244CA60D3
:10231000D3F848C142688CFB0272D3F83071D0F810
:102320001C8087FB089842440A61D3F84C7182688C
:1023300087FB0282D3F83481836988FB03931A44B4
:102340004A6143698EFB03238B61036986FB032388
:10235000CB61C36885FB03230B62C36884FB032343
:102360004B6203698CFB03238B62436987FB032366
:10237000CB6200234B640B64CB638B634B630B63B7
:10238000BDE8F08302EBC20C0F4B03EB0C1C0CF10D
:1023900048040CF18C0E01F1440704380CF16C0C6C
:1023A00050F8043F5EF8045954F8046B1A4686FB53
:1023B000028241F8042B85FB032347F80439A44526
:1023C000EED1BDE8F08300BF2C4F01082DE9F043AA
:1023D00086469BBB12F0010000F0C180DEF88071E0
:1023E000DEF88062DEF88053DEF88044DEF8801587
:1023F000DEF88026DEF88037DEF880004042CEF836
:1024000080007F42CEF880717642CEF880626D42C5
:10241000CEF880536442CEF880444942CEF880150D
:102420005242CEF880265B42CEF88037DEF8803804
:102430005B42CEF880380020BDE8F0831C4612F0E5
:10244000010F47D0C3F11F050126AE40013E00F148
:10245000800200F51067002052F8803C4FEAE37CD0
:1024600043FA05F9CC4518BF8CEA0603A34042F8AD
:10247000803C4FEAE37C83EA0C03CCEB030CDEF8F0
:1024800080305B424FEAE37843FA05F9C84518BF4C
:1024900086EA0803A340CEF880304FEAE37888EA62
:1024A0000303C8EB030343EA0C0318430EF5807ED5
:1024B0000B684FEAE37C43FA05F8C44518BF86EA87
:1024C0000C03A34041F8043B02F580727745C3D169
:1024D000BDE8F083C3F11F050126AE40013E00F1C7
:1024E000800200F51067002052F8803C4FEAE37C40
:1024F00043FA05F9CC4518BF8CEA0603A34042F81D
:10250000803C4FEAE37C83EA0C03CCEB030CDEF85F
:1025100080304FEAE37843FA05F9C84518BF86EAE8
:102520000803A340CEF880304FEAE37883EA08033B
:10253000C8EB030343EA0C0318430EF5807E0B68D7
:102540004FEAE37C43FA05F8C44518BF86EA0C035A
:10255000A34041F8043B02F580727745C4D1BDE841
:10256000F08300BF2DE9F04FC3B00D910A9200280F
:1025700000F075860E46154603460268002A00F0F4
:10258000718640681890002800F06F86DC680B9414
:10259000002C00F06D865B690E93002B00F06B86BB
:1025A000516B1378002B00F06986B1F90C30224A88
:1025B00082FB0312DB17C3EBA2031BB2169305EBDE
:1025C000C50306EBC602120102EBC3030344DB6B37
:1025D000022B14D00A9B03F590630B9A52F8233018
:1025E0000733154A82FB0312DB17C3EBA203013347
:1025F000202BA8BF20230893013B0C931EE00A9BCD
:1026000003EBC3020D9B03EBC3031B0103EBC203EC
:10261000189A13441B6C23B1169A531E0C930892FC
:102620000CE00A9B03EBC3030B9A02EB032B002382
:1026300008930C93FAE000BF398EE3380A9B03EB52
:10264000C3030B9A02EB032B0C9A002A40F3EE8093
:10265000BA4BD3F800A05968009199680191D968E4
:102660000291196903915969049199690591D96990
:102670000691196A0791D3F824E09F6ADE6A1D6B00
:102680005C6B986BD96B5B46CDF83CB00991944676
:102690005A6C90468AFB0898D3F84890009981FBC1
:1026A00009B9C9EB08084FEA4808C3F84480D3F8D1
:1026B00048808AFB089881FB0292424452009A6447
:1026C0001A6C9046019981FB0898D3F84C900299B6
:1026D00081FB09B9C9EB08084FEA4808C3F84080F4
:1026E000D3F84C80019981FB0898029981FB0292F2
:1026F00042445200DA64DA6B9046039981FB0898F1
:10270000D3F85090049981FB09B9C9EB08084FEA46
:102710004808C3F83C80D3F85080039981FB08989F
:10272000049981FB0292424452001A659A6B9046CA
:10273000059981FB0898D3F85490069981FB09B953
:10274000C9EB08084FEA4808C3F83880D3F854802A
:10275000059981FB0898069981FB02924244520038
:102760005A655A6B9046079981FB0898D3F85890A0
:102770008EFB09B9C9EB08084FEA4808C3F8348052
:10278000D3F8588081FB08988EFB02924244520095
:102790009A651A6B904687FB0898D3F85C9086FB85
:1027A00009B9C9EB08084FEA4808C3F83080D3F8E4
:1027B0005C8087FB089886FB029242445200DA65EF
:1027C000DA6A904685FB0898D3F8609084FB09B9D3
:1027D000C9EB08084FEA4808C3F82C80D3F860809A
:1027E00085FB089884FB0292424452001A669A6A5A
:1027F000904680FB0898D3F86490099981FB09B949
:10280000C9EB08084FEA4808C3F82880D3F8648069
:1028100080FB089881FB0292424452005A6648337A
:10282000BCF1010C7FF434AFDDF83CB00A9B1D46CF
:102830001C930D9A16461B9298000B9B0344194655
:102840000C9B03EBC3035B00083301F59054226833
:102850009342B8BF134623601133394A82FB0342C7
:10286000DB17C3EBA20312930E9C234603441846C6
:102870001A9303F5D8531B68139341F60833C358D2
:102880000C9341F61033C3580D93284605EBC5024F
:10289000354606EBC6031B0103EBC203189F3B44FE
:1028A0001B6C002B169B08BF0023169341F20823D4
:1028B000CB581E460F93C30001461A1804EBC212F0
:1028C00002F590520B920A460B4404EB0321084692
:1028D00019910899002940F35982C6F107010C4665
:1028E0001791062E2146D4BF2146002114910B9B3F
:1028F0002433039301900BF13C03049300230993C9
:10290000029302EBC20305EBC502120102EBC30303
:10291000FB181593CDF874B0039B243B0793159ACD
:10292000D36B19460A93136C63B10B46169A02993E
:102930008A42C8BF00230A9304E000BF9C4D0108EF
:10294000398EE3380C9B0D9A02998A42C8BF002346
:102950000E93019B00930F9B062B21DC30AF27AE1B
:102960000499A1F1480E039C254600200346DDF89A
:102970005CC08A6842FA0CF2D31A181A4A6842FA02
:102980000CF2D31A47F8040D46F8043D54F8042D10
:1029900042FA0CF245F8042D08397145E9D111E0ED
:1029A00030AC0499A1F14805002003468A68D31A87
:1029B000181A4A68D31A44F8040D44F8243C08391C
:1029C000A942F3D1279E731005931E9A4FEA620E17
:1029D0001F98209DDDF888A0DDF88C90DDF89480AC
:1029E000269E2499C1EB0E0C00EB090205EB0A07A9
:1029F000A91900EB0803D41A1094CAEB0505AD1B06
:102A00000695219DA44E86FB05A5C9EB0000C8EBE9
:102A1000000A5646A04C84FB060638469F4C84FBB1
:102A200000808B469E4C84FB0B8BC91B89469B4CBC
:102A300084FB091939469A4C84FB01711191DDF828
:102A40004080C24604F1705404F54C2404F2CB24B7
:102A500084FB0A7A934C84FB03731746A4F12F542A
:102A6000A4F5EA24E93C84FB072744468D4981FB11
:102A7000042424990EEB61026D0002EB0508551B3E
:102A8000069A0CEB620E4FEA4B0B0BEB4000119ACF
:102A90005100C1EB490100EB01095B0003EB4A0364
:102AA0006200C2EB4702D41A08EB00071F441E97CE
:102AB0004FEA460A0EEB0A071F976F181744209734
:102AC000C9EB05073F1B2197069EC6EB0C06229615
:102AD000C9EB08094C4423944144891A2491CAEB58
:102AE0000E0225922844C31A2693289B29982B9FCF
:102AF000DDF8B0C0DDF8B8E02F9E059A2D99C1EB46
:102B0000020803EB0C0200EB0709811903EB0E042A
:102B1000151BC71BB81B06902A985F4F064687FBFC
:102B200006061096CCEB0303CEEB030E77465A480D
:102B300080FB07374B46594E86FB03030846584E29
:102B400086FB00E0C9EB01018A46544E86FB0A1A57
:102B50004946534E86FB01E1AB4606F1705606F539
:102B60004C2606F2CB2686FB0BEB4E4E86FB04E48E
:102B70009646A6F12F56A6F5EA26E93E86FB0E2ECE
:102B8000484E86FB0525059A2D9E02EB660C109A91
:102B900052000CEB0209C2EB0C06069A08EB620C21
:102BA000400000EB43004900C1EB4A0100EB010A81
:102BB000630003EB4B036A00C2EB4E02D41A09EB2D
:102BC00000051D4427954FEA470E0CEB0E0528958E
:102BD000751815442995CAEB06052D1B2A95069DE7
:102BE000C5EB08072B97CAEB090A54442C944944B7
:102BF000891A2D91CEEB0C022E923044C31A2F93DA
:102C00000E9B002B52D10A9B002B4FD1264B03F178
:102C10002C06DDF804C0DDF81CE00024254626AFB4
:102C200003F1200800987A6A57F8043958F8041913
:102C300081FB02924FEAA309DEF80030C9EB0201E2
:102C40004A444EF8042B5A42C1EB020956F8082CAC
:102C500089FB02A201EB820156F8042C89FB02A237
:102C6000C3EB82030151CCF880384FEAE17A81EA64
:102C70000A014FEAE37983EA0902CAEB0101C9EBD1
:102C800002030B431D4308368034ACF1800CB4F5CD
:102C9000906FC8D152E000BFA1EBD96E8BBE0D6220
:102CA0007E1A3A16322E0E7EF84201080E9A30A98C
:102CB000DDF81C804046FFF7F5FA0A9B03EBC30ED4
:102CC000514B03EB0E1E0DF1BC0BAEF1040A0DF5DA
:102CD00084790EF1480E019F0024254626AEDFF8C8
:102CE0002CC1736A56F804295CF8041981FB0303AC
:102CF0009210D11A1A4448F8042B5AF8042F81FB79
:102D000002325BF8043F1A4492005EF8043D81FBF6
:102D1000030359F8041D0B449B0000990A51C7F89E
:102D20008038D0174240D9174B40121A5B1A134310
:102D30001D438034803FB4F5906FD2D1149B029C28
:102D4000224607990098FFF741FB2843099A02435E
:102D50000992234601330293039A24320392019A83
:102D600004320192049A48320492089A9A427FF4FB
:102D7000D3ADDDF874B01146D3009A180BEBC20B3B
:102D80000B440B9A02EB83030B9302E0002309939D
:102D90000893129B1946089A1346914240F3CC813E
:102DA0001592199A02EB83030A930B9B07930F9BCF
:102DB000C3F1070314935D4600E007940C9B0D9A42
:102DC00008998A42C8BF002398460A9B0E930F9B1E
:102DD000062B1DDC149E109628462A1D079B03F126
:102DE000240452F8041C314142F8041C416831416A
:102DF000416053F8041B314143F8041C0830083289
:102E0000A342EED106E000BF2C4F01081843010891
:102E1000002310932868EB68A9696A6A2C6BEE6B33
:102E2000A41B121B891A921B5B1AC01A9B1A401012
:102E30004FEA6309BB4B83FB0171490000EB640758
:102E4000041B01EB070E7F1A83FB02124FEA420AB2
:102E500009EB66010AEB0100B34B83FB00C0800065
:102E6000C6EB0903B14A82FB03639B00CAEB010274
:102E7000AF4E86FB021292000EEB00011E91E1188C
:102E80001F91B9182091BA1A2192E31A2293C0EB2C
:102E90000E00239068682B69E969AA6A6C6B2E6C36
:102EA000A41B121B891A921B5B1AC01A9B1A401092
:102EB0004FEA63099B4B83FB0171490000EB6407F8
:102EC000041B01EB070E7F1A83FB02124FEA420A32
:102ED00009EB66010AEB0100934B83FB00C0800005
:102EE000C6EB0903914A82FB03639B00CAEB010214
:102EF0008F4E86FB021292000EEB00012491E11826
:102F00002591B9182691BA1A2792E31A2893C0EB93
:102F10000E002990A8686B69296AEA6AAC6B6E6C2E
:102F2000A41B121B891A921B5B1AC01A9B1A401011
:102F30004FEA63097B4B83FB0171490000EB640797
:102F4000041B01EB070E7F1A83FB02124FEA420AB1
:102F500009EB66010AEB0100734B83FB00C08000A4
:102F6000C6EB0903714A82FB03639B00CAEB0102B3
:102F70006F4E86FB021292000EEB00012A91E118BF
:102F80002B91B9182C91BA1A2D92E31A2E93C0EBFB
:102F90000E002F90424630A90798FFF783F930A919
:102FA000DFF890B11EAA96460A9E00230093019373
:102FB00011950B689B004FEAE37A83EA0A000290BE
:102FC0003360CB689B00DD1783EA05040394C6F8E1
:102FD0008031DBF82031DEF80C0083FB00408B6988
:102FE00000EB8303D81783EA00070497C6F8003381
:102FF000DBF82C31546983FB04744B6A04EB8304C3
:10300000E317059384EA03070697C6F88044DBF8C4
:103010003841976884FB07C7DBF82041DEF824C0FD
:1030200084FB0C8C0C6B674407EB84044FEAE47858
:1030300084EA080CC6F80046DBF844415EF8047BDD
:1030400084FB0797D2F82C90DBF82C41234683FBB6
:103050000949CC6B4F4407EB84044FEAE47984EAD6
:103060000907029BCAEB030A039B5D1B4AEA05059D
:10307000049B181A0543069B05981B1A1D43C8EBB1
:103080000C0C45EA0C05C9EB07072F43009B3B439B
:103090000093C6F88047019B0133019304318036C9
:1030A0000BF1040B043A032B83D1119D23A907983C
:1030B000021F083051F8043F9B1042F8043F904231
:1030C000F8D129A9079800F10C0200F12404204648
:1030D00051F8043F9B1042F8043B9042F8D1109BFA
:1030E000089E324607990E98FFF770F9009A02433E
:1030F0001046099A02430992483533460133089332
:103100000A9A04320A92129A9A423FF756AE13462E
:10311000159A9B1A03EBC3030B9A02EB83030B93E1
:103120000CE000BFA1EBD96E1D75A37B9A79825A82
:1031300083FB20212C4F0108089B1293139B1946F7
:10314000129A914252DD199B194601EB82051646EF
:1031500000240095099D01920C9B0D99B142C8BFB6
:1031600000231A4630A9DDF82C804046FFF79AF874
:1031700046F3000A31AFA8F1040C0DF586790098EA
:103180004FF0000E06F0010857F8042C9200026080
:103190004FEAE27B82EA0B0157F8083B8AEA830395
:1031A00043441A434EEA020EC0F88030DA17534007
:1031B000CBEB01019B1A19430D434CF8044F00F56A
:1031C00080704F45E0D10B9B24330B93019BBEF1E4
:1031D000000F18BF334601930136009B0433009360
:1031E000139BB342B8DC0995019E02E0129B1E4678
:1031F0001393139B1F2B11DC199A114601EB8302C9
:103200000021184608E0D1508033B3F5106FFAD191
:1032100001300432202801D00023F4E7099BB3FADF
:1032200083F01A9C04F5D8531E601C9B03EBC30269
:103230001B9B03EBC3010B0103EBC203189A1A4457
:10324000D26B41F608332146E25041F61033169C0A
:10325000CC50431E41F618328B50002029E04FF02D
:10326000FF3026E04FF0FF3023E04FF0FF3020E04A
:103270004FF0FF301DE04FF0FF301AE0B1F9103091
:103280000D4A82FB0312DB17C3EBA2031BB216939A
:103290000A9B03EBC3030D9A02EBC202120102EB7D
:1032A000C303189A1344DB6B022B7FF493A9FFF737
:1032B000A6B943B0BDE8F08F398EE33830B585B09C
:1032C00005460121084601F0BBF84AF21043ADF86B
:1032D00004300024ADF806400295ADF80C408DF89E
:1032E0000E4001A94FF0804008F044FD1C238DF8EA
:1032F000003005238DF801308DF8024001238DF850
:103300000330684607F022FF05B030BD08B5012143
:103310004FF0804008F072FD012211464FF08040CE
:1033200008F07AFD08BD00BF10B5054C012120460C
:1033300008F064FD01221146204608F06DFD10BD25
:103340000008004008B5002201214FF0804008F03D
:1033500063FD00214FF0804008F050FD08BD00BF24
:1033600010B5054C00220121204608F055FD002132
:10337000204608F043FD10BD0008004030B585B080
:1033800005460121042001F05BF84AF21043ADF834
:1033900004300024ADF806400295ADF80C408DF8DD
:1033A0000E4001A9094808F0E5FC1E238DF8003005
:1033B00004238DF801308DF8024001238DF803308D
:1033C000684607F0C3FE05B030BD00BF00080040EE
:1033D00070B500EB4104B4F88C5500EB411405F0D6
:1033E0007F0684F8AD63C5F3C01584F8AE5384F846
:1033F000AC239DF8102084F8B123BDF81420A4F864
:10340000B22384F8AF33002284F8C42384F8C523A0
:1034100013B9012284F8B023FDF7FEF8002070BD37
:1034200038B5BDF8144022B1154600EB411282F8C0
:10343000AC5300EB4112B2F8B223A24204D01CB14B
:1034400000EB4112A2F8B24300EB411292F8AF2315
:103450009A4204D01BB100EB411282F8AF33FDF762
:10346000DBF8002038BD00BF10B4B0F98C35002B5C
:1034700007DA00F28C52012332F9024F002C0BDBE9
:1034800000E000239AB200EB43036FEA41416FEA88
:103490005141A3F88C1505E00133DBB2082BEBD1C9
:1034A0004FF6FF72D0B210BC704700BF072907D893
:1034B00000EB4100B0F88C35C3F30E03A0F88C3557
:1034C000002070470023A0F89035A0F89235A0F8AE
:1034D0009435A0F89635A0F89835A0F89A35184696
:1034E000704700BF08B5284B984208D10121102031
:1034F00000F0D0FF0021102000F0CCFF08BD234BCE
:1035000098420AD101214FF4003000F0B5FF0021AC
:103510004FF4003000F0B0FF08BD1D4B98420AD1B7
:1035200001214FF4802000F0A7FF00214FF48020FC
:1035300000F0A2FF08BD174B98420AD101214FF4B9
:10354000002000F099FF00214FF4002000F094FFCC
:1035500008BD114B98420AD101214FF4801000F0B0
:103560008BFF00214FF4801000F086FF08BD0B4B4D
:10357000984207D10121202000F08CFF002120205B
:1035800000F088FF08BD00BF00100140004400406B
:1035900000480040004C0040005000400014014032
:1035A00030B585B004460D46038A9BB223F44053E0
:1035B000CA881343038283899BB223F4B05323F058
:1035C0000C0289882B890B4369890B439BB21343F7
:1035D0008381838A9BB223F44073AA891343838235
:1035E000684600F0BFFE1C4B9C4203D003F580638D
:1035F0009C4201D1039B00E0029BA28912F4004F80
:1036000003EB830303EB8303296814BF490089009C
:10361000B3FBF1F1114BA3FB01235809050164230E
:1036200000FB1313A28912F4004F09D0D9003231E4
:103630000A4AA2FB0131C1F3421242EA050307E044
:103640001B013233054AA2FB0323C3F343132B436D
:103650009BB2238105B030BD001001401F85EB51A6
:1036600010B5BDF80C4062F07F020A7506224A755B
:10367000CB8203F47F42B2F5407F0CBF40F2094396
:1036800000230B834C832346029A07F097FC10BD5E
:1036900070B582B004460D461646019200F5887357
:1036A00000934FF480730022FFF7DAFF03460028EF
:1036B00045D194F8102185F8222094F8112185F83D
:1036C000232094F8131194F8122102EB0122AA840A
:1036D00094F8142185F8262094F8152185F82720E0
:1036E00094F8162185F8282094F8172185F82920C8
:1036F000082E24D994F8191194F8182102EB01220C
:103700006A8594F81B1194F81A2102EB0122AA850C
:1037100094F81D1194F81C2102EB0122EA8594F81B
:103720001E2185F8302094F81F2185F8312094F867
:10373000202185F8322094F8212185F8332018467D
:1037400002B070BDF0B583B007461D46BDF82040FD
:1037500000F588760194009642F440730022FFF74A
:103760007FFF0146B0B997F81131032B12D197F8BA
:103770001031023B9C42A8BF1C46A4B244B10023B6
:10378000F218927805F8012B02339BB29C42F7D8CD
:1037900000232B70084603B0F0BD00BF2DE9F04FA9
:1037A0008FB004468946154600F588770192009748
:1037B0004FF400730022FFF753FF0390002840F0FE
:1037C000D9806DB104F20F136C4A681E80B200F507
:1037D0008870204413F8011F02F8011F8342F9D1B9
:1037E00094F8103189F8343094F8113189F8353073
:1037F00094F8132194F8123103EB0223A9F8363020
:1038000094F8143189F8383094F8152189F8392062
:1038100094F8162189F83A2094F8172189F83B206A
:1038200094F8182189F83C20092D40F2A380052B3B
:1038300000F29C80524B1C8893F802B00023049342
:103840004FF0090A09F13E030D9309F16C084FF09E
:10385000040C86E03B789A441FFA8AFA1F447B786E
:10386000042B7ED1FE78022E7BD83D79052D78D8A9
:10387000BB78194605934FFA83FE0EEBCE030D9AE3
:1038800013443A7807927A790892BA790992FA79C8
:103890000A923A7A0B920EEB8E02D2000692002226
:1038A0000C915CE039788A441FFA8AFA0F447978DF
:1038B000052954D1F3451AD09DF81C10197083F8CE
:1038C00001C09DF814109970DE701D719DF82010D4
:1038D00059719DF8241099719DF82810D9719DF89F
:1038E0002C101972DDF830B0012104911BE07879B9
:1038F000397901EB00218C4233DC9DF81C101970E2
:1039000083F801C09DF814109970DE701D719DF848
:10391000201059719DF8241099719DF82810D971C3
:103920009DF82C1019723C78069901EBC20008EB47
:10393000000108F8004078784870B8788870F87806
:10394000C8707C79387900EB04208880B879887158
:103950007C79397901EB0424A4B2013252B2AA4233
:10396000A0DBB9F8363053453FF674AF044B002264
:103970001A809A7003980FB0BDE8F08F2F3F012096
:10398000D00D002038B500240C7505254D75CA8270
:103990000C834C832346224607F010FB38BD00BF42
:1039A00038B500240C7509254D75CA820C834C83EB
:1039B0002346224607F002FB38BD00BF10B50224A3
:1039C0000C7501244C750024CC820A834C8312F0C0
:1039D000800F03F11E0300EB431319BF22461A7137
:1039E00000225A7100231A4607F0E8FA10BD00BF02
:1039F00003787BB10A787AB193420FD101E0934208
:103A00000ED110F8013F6BB111F8012F002AF6D149
:103A10000120704701207047012070470020704747
:103A200000207047012070470346027832B1002021
:103A3000013013F8012F002AFAD170470020704797
:103A400003782BB101F8013B10F8013F002BF9D1AD
:103A500000230B70704700BF10B4044630B10B4612
:103A60000818202203F8012B8342FBD100230B55B9
:103A700010BC7047002800F081802DE9F04F85B020
:103A80000D46C368002B7CD04369002B7CD086692F
:103A9000002E7CD0D0F8BC27022A3FD1994603F5EE
:103AA000106203924FF0000A03F5D85B0BF1180B7C
:103AB00003F5D85808F11C080AF0010706F5085468
:103AC0002268DBF8003000933B463146484606F05A
:103AD0006BFE2268D8F8003000933B4606F1800167
:103AE00009F5106006F060FE39013944236803EBE4
:103AF0008111294A06EB8101284607F085FE2368DB
:103B0000DF1B07F00707276080350AF1010A09F17A
:103B10008009039B9945CFD100203AE09A464FF0A7
:103B2000000906F5085703F5D85808F11808DFF81A
:103B300068B009F001043A68D8F8003000932346D1
:103B40003146504606F030FE210121443B6803EB2C
:103B500081115A4606EB8101284607F0F7FC3B68C5
:103B60001C1B04F007043C60403509F101090AF10F
:103B7000800AB9F1120FDCD100200AE04FF0FF30CB
:103B800070474FF0FF3004E04FF0FF3001E04FF09E
:103B9000FF3005B0BDE8F08F0049010801207047F3
:103BA00001207047012070470120704701207047B5
:103BB00001207047012070470120704701207047A5
:103BC0000120704708B500EB8000044B53F820300B
:103BD0000BB1984708BD042008BD00BF04000020B9
:103BE00008B500EB8000044B03EB800043680BB189
:103BF000984708BD042008BD040000207BB138B5FB
:103C00001C4600EB8000084B03EB8000056945B1C2
:103C10002346144608461A462146A84738BD0420C4
:103C20007047042038BD00BF040000207BB138B5C8
:103C30001C4600EB8000084B03EB8000C56845B1D3
:103C40002346144608461A462146A84738BD042094
:103C50007047042038BD00BF0400002008B500EB09
:103C60008000054B03EB80039B681BB1084611469F
:103C7000984708BD042008BD040000200048704794
:103C80000000FC42FEE700BF08B50E4B0E4A9A4208
:103C90000CD2581E801A20F0030004300B4B18443D
:103CA00053F8041B42F8041B8342F9D10848094920
:103CB0004FF000028842B8BF40F8042BFADB00F056
:103CC0000BFB08BDB00D0020000000202C560108A1
:103CD000B00D00205C4F012008B50B4806F040FBFA
:103CE00048B10A4B1B78012B05D1094A137803F020
:103CF000FE03137004E0064A137843F001031370C7
:103D0000034B187808BD00BF1C480120C84D012096
:103D1000B8000020014B1878704700BFB8000020A1
:103D20008AB32DE9F84313461B4A127812F0010FAB
:103D30002BD11D460F460646184806F011FBD0B1A0
:103D4000174B1B78012B18D16D02DFF85080DFF87C
:103D500054902B463A463146404603F0C1FB044698
:103D60004946404606F08CFB404606F0F9FA78B129
:103D7000032CEED002E0002400E00024201C18BF39
:103D80000120BDE8F883042070470320BDE8F883D4
:103D90000120BDE8F88300BFB80000201C480120C6
:103DA000C84D0120CC4D0120AAB32DE9F84313469C
:103DB0001E4A127812F0010F2FD11D4A1278042AE0
:103DC0002ED01D460F4606461A4806F0C9FAD0B155
:103DD000174B1B78012B18D16D02DFF85880DFF8E4
:103DE00058902B463A463146404603F019FB0446AC
:103DF0004946404606F044FB404606F0B1FA90B111
:103E0000032CEED002E0002400E00024201C18BFA8
:103E10000120BDE8F883042070470320BDE8F88343
:103E20000220BDE8F8830120BDE8F883B800002037
:103E3000C84D01201C480120CC4D01200F4B1B78A0
:103E400013F0010F16D1032803D8DFE800F01504A2
:103E5000090E042070470A4B1B680B600020704756
:103E60004FF400730B80002070474FF400730B6019
:103E7000002070470320704700207047B8000020E2
:103E80000C46012000B330B40446D0F8C427D0F863
:103E9000C83703FB02F2D0F8BC3703FB02F3002B58
:103EA00011DD02390020054621F8025F0130D4F807
:103EB000C427D4F8C83703FB02F2D4F8BC3703FB9D
:103EC00002F38342F0DC30BC704700BF08B504F059
:103ED000ABFE08BD4B1E002B10DD1946002310F869
:103EE000012BFF2A04D1027802F0E002E02A08D078
:103EF00001338B42F3D14FF0FF3070474FF0FF306A
:103F000070471846704700BF034618B1D0F8D02755
:103F1000032A08D000230B604B608B60CB600B61E1
:103F20004B618B617047D0F8B8270A60D0F8BC2786
:103F30004A60D0F8C0278A601022CA6090F8D4275F
:103F400002EB4200D3F8D027013A0244074830F987
:103F50001200D3F8BC2702FB00F20A61D3F8D02785
:103F60004A6193F8D4378B61704700BF244701083A
:103F7000002800F09F812DE9F04F87B0044603939D
:103F8000914688460968FDF781FCB0F1000BC0F24C
:103F90009481D8F800105944C8F800102046FDF765
:103FA00071FDB0F1000A06DA03992046FFF76AFFB7
:103FB0006FF006008DE1D8F800305344C8F80030A7
:103FC0000BEB0A02D9F800309B1AC9F80030D4F87C
:103FD000B83723B1D4F8B037002B4FD156E0D4F81E
:103FE000B037002B4AD10123C4F8B037D8F80030DD
:103FF00002930BEB0A07DF1BD9F800601D46314620
:104000002846FFF767FF2B180028C0F25D81295C66
:104010003A78914215D159787A78914211D1B9788C
:104020009A784A4012F0FC0F0BD111F0020F18BF22
:1040300003F1FF33029A9B1AC4F8B437002B0BDA52
:1040400003E0DD1C0330361AD9E703992046FFF759
:1040500019FF6FF002003CE19B44D344D4F8C03711
:1040600003FB0BFB4FEACB0BD4F8C427D4F8C837BB
:1040700003FB02F39BFBF3F3C4F8B837D4F8B4574F
:104080002046FDF7F5FB2844C4F8CC07109BF3B19C
:10409000D9F80030C4F8CC37D4F8D8270AB9002BA7
:1040A00006DC03992046FFF7EDFE6FF0050010E1F6
:1040B000C4F8DC37D8F800703B44C8F80030D9F8B1
:1040C0000030D4F8CC279B1AC9F8003058E0D4F857
:1040D000CC17D9F80030994206DD03992046FFF746
:1040E000D1FE4FF0FF30F4E0D4F8DC37D4F8D82715
:1040F000934223DB04F11C07991A3944384609F02E
:10410000F7FFD4F8D807D4F8CC27D8F800103844F3
:1041100009F054FFD4F8CC37D4F8D8271A44C4F89F
:10412000DC27D8F800201344C8F80030D9F8003054
:10413000D4F8CC279B1AC9F8003021E004F11C0008
:104140000A46D8F80010184409F038FFD4F8CC37E4
:10415000D4F8DC271A44C4F8DC27D8F8002013442C
:10416000C8F80030D9F80030D4F8CC279B1AC9F829
:10417000003003992046FFF785FE6FF00100A8E0AC
:1041800000230593D4F8DC57ED00D4F8C437002B96
:1041900040F3968004F5FC6302934FF00009A046BB
:1041A00082E0DDF808A00024DDF814B00194CDF819
:1041B00000902B4605AA39464046FCF775FD059E42
:1041C000CBEBC00232445AF8043B9B1A0744AD1AA9
:1041D000002801DBAB4206DD03994046FFF752FEA3
:1041E0006FF0070075E00194CDF8009005AA3946FC
:1041F000404604F051F8002806DA03994046FFF7DC
:1042000041FE6FF0080064E00744C6EBC006059A63
:104210001644AD1B0134D8F8BC37A342C4DC494670
:104220004046FDF757FD002806DBD8F8BC37002BC9
:10423000C8BF002407DC19E003994046FFF722FEBF
:104240006FF0090045E0224649464046FEF78AF9EC
:10425000002806DA03994046FFF714FE6FF00A00C3
:1042600037E00134D8F8BC37A342ECDCD8F8C827D3
:1042700002FB09F203FB02F1039B03EB4101404601
:10428000FFF7F8FB002806DA03994046FFF7FAFD2E
:104290006FF00B001DE009F10109029B0833029346
:1042A000D8F8C4374B450DDDD8F8BC37002B3FF7A5
:1042B00078AFB4E76FF0040070476FF0050008E0D6
:1042C000002006E0002004E04FF0FF33C4F8B437CC
:1042D000BBE607B0BDE8F08F08B503F073F901F055
:1042E0005FFC04F047FC4FF4E1320021174800F076
:1042F00083FB01F0DDFE03F09FFB01F02FFD03F0D7
:1043000083FC06F0EDFFFDF7FDF9114801F064FDB7
:10431000104801F061FD104BDB780BB9FDF72AFA6C
:104320000E4D0F4C03F064FC0128FBD103F050FC50
:1043300001F01AFC02F004FA2368C3EBC300C3EBDC
:10434000C00328681844FDF7BBF8EBE7004C0040B9
:10435000F01F0108EC1F0108144F0120C80D0020B8
:10436000B80D002010B4244B9B6803F00C03042B01
:1043700005D0082B06D00BBB204B036020E0204B60
:1043800003601DE01C4B5A685B6803F03F0312F4A6
:10439000800F194A5268C2F3881214BF184917498E
:1043A000B1FBF3F303FB02F2134B5B68C3F301436E
:1043B00001335B00B2FBF3F3036001E00F4B0360DA
:1043C0000D4CA368C3F303130E49CB5CDAB2036848
:1043D000D3404360A268C2F382228A5CD2B223FA3D
:1043E00002F28260A268C2F342328A5CD2B2D34047
:1043F000C36010BC704700BF003802400024F400C6
:1044000000127A00BC00002021B1054B1A6B10434A
:1044100018637047024A136B23EA00001063704769
:104420000038024021B1054B5A6B10435863704766
:10443000024A536B23EA0000506370470038024081
:1044400021B1054B1A6C104318647047024A136C73
:1044500023EA0000106470470038024021B1054B88
:104460005A6C104358647047024A536C23EA0000A8
:10447000506470470038024021B1054B1A6A10435E
:1044800018627047024A136A23EA000010627047FC
:104490000038024021B1054B5A6A104358627047F8
:1044A000024A536A23EA0000506270470038024013
:1044B0008388C2889A420DD202899A4204BF00239F
:1044C000038103890268D154038901330381C388BE
:1044D0000133C380704700BF704700BF03460E4AD8
:1044E000904209D002F5806290420AD002F58062C3
:1044F00090420DD0094800E009480A4A934201D190
:1045000008E00948094A9342094B08BF184670471A
:10451000084870470848704700440040CC0000201D
:10452000DC00002000500040EC000020001401409E
:10453000FC0000201C0100200C01002008B5FFF742
:10454000CDFFC2886AB942890389934213D10023FF
:1045500024E0013AC28021E003685B5601314181C9
:10456000F7E7418983888B42F6D108E003689B56C0
:104570000132428112E083889342F7D107E00023A1
:104580004381036893F9003001214181E1E7002371
:104590004381036893F9003001224281D8B208BDFB
:1045A00038B50C46FFF79AFFC28843897AB18588EF
:1045B00000689D4208BF0023C15CA14209D00133BD
:1045C0009BB2013A92B2002AF3D1002038BD0020FC
:1045D00038BD012038BD00BF2DE9F04107460D462A
:1045E0009046FFF77BFFC4881CB30646417B3846E4
:1045F000FFF7D6FF38B108F1FF38B8F1000FD8BF88
:10460000002410DD03E0B388A34211D1F3E70024B6
:104610003846FFF793FF2855737B834203D001345C
:10462000A4B24445F4DB0134A4B200232B5500E0CE
:1046300000242046BDE8F0810D4B98420DD003F5D3
:10464000806398420FD0A3F50063984214BF002303
:104650000123084A904201D107E00223064A904212
:1046600008BF062302E0042300E005231846704734
:1046700000480040005000400014014000B583B0E5
:1046800058B90723019303230093012300224FF419
:10469000C0610D4806F026FF12E001280AD1072369
:1046A00001930323009301230022C021074806F051
:1046B00019FF05E0032803D107210548FFF70CFF88
:1046C00003B05DF804FB00BF00000240000402409C
:1046D0000010014000B583B050B9072301930323B4
:1046E0000093012300220C210C4806F0FBFE12E08F
:1046F00001280AD1072301930323009301230022F9
:104700006021074806F0EEFE05E0032803D10721EB
:104710000448FFF7E1FE03B05DF804FB000002402F
:10472000000C02400044004010B582B0044670B94D
:104730000723019303230093012300224FF44061D8
:1047400000F1804000F5013006F0CCFE1BE00128AE
:104750000BD10723019303230093012300224FF47D
:1047600040610D4806F0BEFE13E002280BD107237E
:10477000019303230093012300224FF44071074863
:1047800006F0B0FE05E0032C03D107210448FFF733
:10479000A3FE02B010BD00BF00080240000C0240A2
:1047A0000048004000B583B048B9082301930321B5
:1047B0000091012300220D4806F094FE13E0012829
:1047C0000BD10823019303230093012300224FF40C
:1047D0004061074806F086FE05E0032803D1082162
:1047E0000448FFF779FE03B05DF804FB00000240C7
:1047F00000080240004C004030B583B0B0B9082535
:10480000019503240094012300224FF4805100F10C
:10481000804000F5023006F065FE0195009401230A
:1048200000220421054806F05DFE05E0032803D1BF
:1048300008210348FFF750FE03B030BD000C0240D2
:104840000050004000B583B068B9082301930323EA
:10485000009301230022C02100F1804000F50230C6
:1048600006F040FE13E001280BD108230193032337
:104870000093012300224FF48441064806F032FEE3
:1048800005E0032803D108210348FFF725FE03B004
:104890005DF804FB00180240001401402DE9F041CE
:1048A00086B00446884617461E46FFF717FE0546A3
:1048B00002974A4B9C420BD1494A536C43F0100378
:1048C00053644046FFF7DAFE25238DF804301DE0DF
:1048D000444B9C420BD1424A136C43F400331364A3
:1048E0004046FFF7F7FE26238DF804301DE03E4BCF
:1048F0009C420BD13A4A136C43F480231364404624
:10490000FFF712FF27238DF804301DE0374B9C4240
:104910000BD1334A136C43F4002313644046FFF772
:1049200041FF34238DF804301CE0314B9C420BD105
:104930002B4A136C43F4801313644046FFF75CFF6B
:1049400035238DF804300DE02A4B9C420AD1244ACD
:10495000536C43F0200353644046FFF773FF472333
:104960008DF804302046FEF7BDFD01238DF8073099
:1049700006238DF805302046FFF75EFE8DF8060011
:1049800001A806F0E3FBADF814600C9BADF8123003
:104990000D9BADF810300E9BADF80E300F9BADF8AF
:1049A0000C3000232B7340F6FF730093009B5A1EBC
:1049B0000092002BFAD102A92046FEF7F1FDA3894F
:1049C0009BB243F02003A38101232B73A3899BB2E5
:1049D00043F40053A38106B0BDE8F081001001400C
:1049E000003802400044004000480040004C0040B5
:1049F000005000400014014070B584B004460D46DC
:104A000016462C4B98420AD100230393029301933C
:104A10000C22009232462748FFF740FF1BE0264B4E
:104A200098420AD100230393029301930C2200922F
:104A300032462148FFF732FF1CE0204B98420AD152
:104A400000230393029301930C22009232461B48E9
:104A5000FFF724FF1DE01A4B9C420BD10023039368
:104A6000029301930C220092324629461448FFF724
:104A700015FF1CE0134B9C420BD1002303930293C0
:104A800001930C220092324629460E48FFF706FF9A
:104A90000DE00D4B9C420AD1002303930293019336
:104AA0000C220092324629460748FFF7F7FE04B071
:104AB00070BD00BF001001400044004000480040AD
:104AC000004C0040005000400014014008B5064B67
:104AD0001B8803F020039BB22BB1034B9988C9B20A
:104AE0000248FFF7E5FC08BD00100140CC000020A3
:104AF00008B5064B1B8803F020039BB22BB1034B78
:104B00009988C9B20248FFF7D3FC08BD00440040B1
:104B1000DC00002008B5064B1B8803F020039BB285
:104B20002BB1034B9988C9B20248FFF7C1FC08BDFD
:104B300000480040EC00002008B5064B1B8803F03D
:104B400020039BB22BB1034B9988C9B20248FFF7EF
:104B5000AFFC08BD004C00401C01002008B5064B0E
:104B60001B8803F020039BB22BB1034B9988C9B279
:104B70000248FFF79DFC08BD005000400C010020DA
:104B800008B5064B1B8803F020039BB22BB1034BE7
:104B90009988C9B20248FFF78BFC08BD0014014098
:104BA000FC00002070B582B0044608461146206122
:104BB00063612283BDF8183063830222FDF7C6F9D2
:104BC000618B00250195012600962B462A466069D7
:104BD00006F070FC6572E56065602560A67202B043
:104BE00070BD00BFC36802689A1A42600360002B60
:104BF00003DA0123037218467047002BCCBF002351
:104C0000022303721846704710B403691A69038BB4
:104C1000134014BF0122002241690969847A944239
:104C200016D0448B82729BB92140437A43B919B1A3
:104C3000C368013BC3600BE0C3680133C36007E096
:104C400019B1C3680133C36002E0C368013BC360AC
:104C500010BC704730B4174B1860174BFF24002569
:104C600014491A8802F0400292B2CAB11A8912F0AD
:104C7000030FFBD01A8902F0800292B2002AF5D10C
:104C80009C811A8912F0030FFBD01A8902F080026E
:104C900092B2002AF5D19889C0B2FF2801D103E071
:104CA00028460A68002ADCD1FF2814BF0020012012
:104CB00030BC7047E00D0020003001404FF480729E
:104CC000124B1A83A3F558431B8803F040039BB291
:104CD000D3B10F4A138913F0030FFBD0138903F0EC
:104CE00080039BB2002BF5D1FF22094B9A811A4613
:104CF000138913F0030FFBD0138903F080039BB2D9
:104D0000002BF5D1024B9B89704700BF0008024081
:104D10000030014010B54FF48072184B5A83A3F550
:104D200058431B8803F040039BB2D3B1144A138944
:104D300013F0030FFBD0138903F080039BB2002B09
:104D4000F5D1FF220E4B9A811A46138913F0030FF7
:104D5000FBD0138903F080039BB2002BF5D1084BE5
:104D60009B894FF4FA70FFF775FF044610B9FFF7FF
:104D7000A5FF00E00124204610BD00BF000802404E
:104D80000030014038B505460C464FF4FA70FFF785
:104D900061FF0346002800F096804C4B1B8803F00F
:104DA00040039BB2CBB1494A138913F0030FFBD0E8
:104DB000138903F080039BB2002BF5D1A3B2434AC1
:104DC0009381138913F0030FFBD0138903F0800341
:104DD0009BB2002BF5D13D4B9B89FD2C72D03B4CF7
:104DE0004FF400722946204601F078F8238803F03A
:104DF00040039BB2D3B12246138913F0030FFBD0BB
:104E0000138903F080039BB2002BF5D1FF222F4BB7
:104E10009A811A46138913F0030FFBD0138903F00C
:104E200080039BB2002BF5D1284B9B89274B1B8815
:104E300003F040039BB2D3B1244A138913F0030F4C
:104E4000FBD0138903F080039BB2002BF5D1FF2226
:104E50001E4B9A811A46138913F0030FFBD0138956
:104E600003F080039BB2002BF5D1184B9B89174BA5
:104E70001B8803F040039BB2E3B1144A138913F07B
:104E8000030FFBD0138903F080039BB2002BF5D1F5
:104E9000FF220E4B9A811A46138913F0030FFBD0A1
:104EA000138903F080039BB2002BF5D1074B9B893C
:104EB000DBB200E0002303F01F03052B14BF002327
:104EC000012300E00123184638BD00BF0030014037
:104ED00038B5C8223C4B1A603C4BFF253A4C1A8827
:104EE00002F0400292B2EAB11A8912F0030FFBD02D
:104EF0001A8902F0800292B2002AF5D19D811A89A6
:104F000012F0030FFBD01A8902F0800292B2002A3D
:104F1000F5D19A89D2B2FF2A05D12268002ADED1C2
:104F2000002038BD0022FE2A49D10B460146274CFD
:104F3000FF22204600F0F8FF238803F040039BB2D5
:104F4000D3B12246138913F0030FFBD0138903F06A
:104F500080039BB2002BF5D1FF221C4B9A811A468D
:104F6000138913F0030FFBD0138903F080039BB266
:104F7000002BF5D1154B9B89144B1B8803F0400384
:104F80009BB2F3B1114A138913F0030FFBD01389BD
:104F900003F080039BB2002BF5D1FF220B4B9A81CB
:104FA0001A46138913F0030FFBD0138903F0800313
:104FB0009BB2002BF5D1054B9B89012038BD002009
:104FC00038BD012038BD00BFE00D00200030014099
:104FD00038B504460D4610F0800F08D00021372068
:104FE000FFF7F6FF012800F2368104F07F040C2C55
:104FF00006D0FFF763FEFFF78DFE002800F0158155
:10500000954B1B8803F040039BB2D3B1924A13899E
:1050100013F0030FFBD0138903F080039BB2002B26
:10502000F5D144F040038C4A9381138913F0030FA8
:10503000FBD0138903F080039BB2002BF5D1864B84
:105040009B89854B1B8803F040039BB2CBB1824AFE
:10505000138913F0030FFBD0138903F080039BB275
:10506000002BF5D12B0E7C4A9381138913F0030F8B
:10507000FBD0138903F080039BB2002BF5D1764B54
:105080009B89754B1B8803F040039BB2D3B1724AD6
:10509000138913F0030FFBD0138903F080039BB235
:1050A000002BF5D1C5F307436B4A9381138913F0A5
:1050B000030FFBD0138903F080039BB2002BF5D1C3
:1050C000654B9B89644B1B8803F040039BB2D3B1B3
:1050D000614A138913F0030FFBD0138903F0800397
:1050E0009BB2002BF5D1C5F307235B4A938113894B
:1050F00013F0030FFBD0138903F080039BB2002B46
:10510000F5D1554B9B89544B1B8803F040039BB250
:10511000D3B1514A138913F0030FFBD0138903F065
:1051200080039BB2002BF5D1EDB24B4B9D811A460B
:10513000138913F0030FFBD0138903F080039BB294
:10514000002BF5D1444B9B89002C7BD0082C70D0D0
:10515000414B1B8803F040039BB2DBB101213E4A67
:10516000138913F0030FFBD0138903F080039BB264
:10517000002BF5D189B2384B99811A46138913F067
:10518000030FFBD0138903F080039BB2002BF5D1F2
:10519000314B9B890C2C20D12F4B1B8803F04003F3
:1051A0009BB2D3B12C4A138913F0030FFBD01389A0
:1051B00003F080039BB2002BF5D1FF22264B9A818E
:1051C0001A46138913F0030FFBD0138903F08003F1
:1051D0009BB2002BF5D1204B9B890A211E4BFF244B
:1051E0001A8802F0400292B20AB31A8912F0030F31
:1051F000FBD01A8902F0800292B2002AF5D19C817C
:105200001A8912F0030FFBD01A8902F0800292B2C1
:10521000002AF5D19A8992B2D0B212F0800F1AD03A
:10522000013911F0FF01DBD138BDFF2038BD00206E
:1052300038BD094B1B8803F040039BB2002BCCD038
:1052400087218CE7044B1B8803F040039BB2002BA3
:10525000C3D0952183E738BD0030014000B583B04D
:1052600000230193009301224FF48071024806F05D
:1052700021F903B05DF804FB000802402DE9F0417C
:1052800082B0FFF7EBFF00F069FD0021884800F0D5
:10529000FBFE4FF48072874B1A83874B1B68009389
:1052A000EFF3058393B984490B68009A9B1A092B85
:1052B000FAD90A2412E0136813F4803F03D10029BD
:1052C000F9D10A240AE0013902D106E00A217B4A19
:1052D000136813F4803FF6D1EDE70A24744BFF21E5
:1052E0001A8802F0400292B2AAB11A8912F0030F92
:1052F000FBD01A8902F0800292B2002AF5D199817E
:105300001A8912F0030FFBD01A8902F0800292B2C0
:10531000002AF5D19A89013C14F0FF04E0D1002164
:105320000846FFF755FE012840F0B1804FF47A722D
:10533000634B1A604FF4D5710820FFF749FE01282E
:1053400079D101AD02AE2946594BFF201A8802F0EF
:10535000400292B2BAB11A8912F0030FFBD01A8937
:1053600002F0800292B2002AF5D198811A8912F0D7
:10537000030FFBD01A8902F0800292B2002AF5D105
:105380009A89D2B200E0224601F8012B8E42DDD18B
:105390009DF80630012B7AD19DF80730AA2B76D1E3
:1053A000DFF81C814FF08047A924D8F800302BB1DA
:1053B00039462046FFF70CFE0028F6D1404B1B680B
:1053C000002B64D000213A20FFF702FE014600289E
:1053D0005DD1374BFF201A8802F0400292B2BAB179
:1053E0001A8912F0030FFBD01A8902F0800292B2E0
:1053F000002AF5D198811A8912F0030FFBD01A897F
:1054000002F0800292B2002AF5D19A89D2B200E06D
:105410000A4605F8012BAE42DDD19DF8043003F0B9
:105420004003DBB2002B14BF0C220422254B1A7060
:10543000FFF744FC21E00021A920FFF7C9FD012866
:1054400087BF012425460224A9251D4F00263B685D
:105450002BB131462846FFF7BBFD0028F7D1184B8A
:105460001B68A3B94FF400711020FFF7B1FD70B9AC
:10547000144B1C70FFF722FC2CB1134A137803F075
:10548000FE03137009E001220F4B1A7005E00022A1
:105490000C4B1A70FFF712FCF5E70B4B1A7802F071
:1054A000FB021A701878C0B202B0BDE8F08100BFEC
:1054B0000030014000080240DC0D002010E000E058
:1054C000E00D0020D30D00202C010020034B1A78A2
:1054D00002F0FB021A701878704700BF2C01002000
:1054E0001B4B1B7813F0010F30D170B505461446E5
:1054F000184B1B7813F0080F08BF4902012A0CD182
:105500001120FFF765FDD8B94FF400712846FFF769
:10551000DFFCB0FA80F4640912E01220FFF758FDB6
:1055200070B94FF4007631462846FFF7D1FC18B128
:1055300005F50075013CF6D100210C20FFF748FD70
:10554000FFF7BCFB201C18BF012070BD0320704773
:105550002C010020D30D0020244B1B7813F0010FE9
:1055600040D170B505460E461446204B1B7813F00B
:10557000040F39D11E4B1B7813F0080F08BF4E02E1
:10558000012A0CD131461820FFF722FD20BBFE2155
:105590002846FFF7F7FBB0FA80F464091CE013F02B
:1055A000060F03D011469720FFF712FD3146192050
:1055B000FFF70EFD80B9FC2631462846FFF7E2FBD7
:1055C00018B105F50075013CF6D1FD210020FFF76B
:1055D000D9FB002808BF0124FFF770FB201C18BF6F
:1055E000012070BD03207047022070BD2C010020F7
:1055F000D30D0020A24B1B7813F0010F40F03B812C
:1056000010B584B00C46042800F21881DFE810F0D1
:1056100005000B0016015200E400FFF77BFBB0FA17
:1056200080F4640923E100210920FFF7D1FC002860
:1056300040F0068110216846FFF74AFC002800F080
:1056400001819DF800309B09012B10D19DF80820A5
:105650009DF8093003EB02229DF807301B0403F488
:105660007C13013313449B0223600024FFE09DF868
:1056700008209DF807309B0003EB92129DF806303E
:105680009B0203F44063134401339DF8052002F0AC
:105690000F029DF80A1002EBD112911C9DF809200F
:1056A000520002F006020A44D2B2093A9340236043
:1056B0000024DCE0734B1B7813F0040F58D000215A
:1056C0008D20FFF785FC002840F0BE806E4B1B88C4
:1056D00003F040039BB2D3B16B4A138913F0030F5D
:1056E000FBD0138903F080039BB2002BF5D1FF227E
:1056F000654B9A811A46138913F0030FFBD0138967
:1057000003F080039BB2002BF5D15F4B9B891021E6
:105710006846FFF7DDFB002800F0988030215A4BE7
:10572000FF201A8802F0400292B2AAB11A8912F040
:10573000030FFBD01A8902F0800292B2002AF5D141
:1057400098811A8912F0030FFBD01A8902F08002A7
:1057500092B2002AF5D19A89013911F0FF01E0D106
:105760009DF80A301A0910239340236000247EE03C
:1057700000210920FFF72CFC002869D11021684680
:10578000FFF7A6FB002865D03E4B1B7813F0020FF5
:1057900011D09DF80A305B0003F07E039DF80B20CA
:1057A00003EBD21301339DF80D209209013A934087
:1057B000236000245BE09DF80B10CB0003F018037E
:1057C00003EB51119DF80A20C2F38402531C01FB24
:1057D0000333236000244AE02A4B1B7813F0060FA2
:1057E0003AD069460B20FFF705FFB8BB9DF80030A3
:1057F0009B0904D19DF80A3013F0400F30D0216886
:105800006468204B1B7813F0080F04BF4902640240
:105810002020FFF7DDFB28BB21462120FFF7D8FB26
:1058200010BB00212620FFF7D3FBF8B947F2305018
:10583000FFF710FAB0FA80F4640918E0042416E0C7
:10584000012414E0012412E0012410E001240EE000
:1058500001240CE001240AE0012408E0012406E010
:10586000012404E0012402E0012400E00124FFF708
:1058700025FA204601E00320704704B010BD00BFA8
:105880002C010020D30D0020003001400020014BEE
:1058900018707047284F012038B504460C4B5978D2
:1058A00041B1FAF7D5FF0A4D69782046FDF7FEFDB4
:1058B00000236B70064B197849B12046FAF7C8FFF0
:1058C000034D29782046FDF7F1FD00232B7038BDEC
:1058D000F0410120F0B583B00C4691F84330082B1D
:1058E00047D1054691F84530502B42D191F86E30A2
:1058F00013F0800F05D0224AD370B1F87030938036
:1059000004E01F4A9370B1F87030D38094F8763079
:1059100013F0800F05D01A4AD370B4F87830938012
:1059200004E0174A9370B4F87830D380144EB178FD
:105930002846FDF799FD7070F1782846FDF794FD33
:10594000307094F8213094F820207178F08801901C
:10595000022700972846FDF73BFD94F8213094F884
:1059600020203178B088019000972846FDF730FD5F
:1059700003E0D4F844311B6C9847002003B0F0BD1D
:10598000F0410120012810D10B4A13780133DBB21A
:105990001370092B05D8094B06221A700122DA7000
:1059A00070470A22054B1A707047022802D10A225A
:1059B000024B1A70704700BFD40D0020284F012001
:1059C00038B504460D4604F0CBFC002800F0BF803B
:1059D000614B1B780A2B00F2BC80DFE803F0080F54
:1059E0002B68778695A2A85706000424B2E02046CB
:1059F00004F0D2FC0124584B1C70ABE021232B7522
:105A0000FF236B750022EA822A836A8313462946A4
:105A1000204605F0D3FA044618B902224E4B1A70FC
:105A200098E0032840F096804B4B02225A700922DE
:105A30001A708FE0A1232B75FE236B750023EB8278
:105A40002B8301236B83454A2946204605F0B6FA8D
:105A5000044698B9424A137A82F8083253B1414B4E
:105A60005B783BB901223F4B5A70D5F844311B6C2F
:105A700098476FE00322384B1A706BE0032869D116
:105A8000354B03225A7009221A7063E06B790022A9
:105A900029462046FDF792FF044600285AD10022ED
:105AA0002F4B83F808222C4B5A781A7052E020466C
:105AB00001F04CFB30B90422274B1A700024294B0B
:105AC0001C7047E0FFF75EFF012443E0204601F031
:105AD0008DFB30B90522204B1A700024214B1C701D
