:020000040800F2
:10000000A80A0020E90C0008450D0008450D00086D
:10001000450D0008450D0008450D000800000000D2
:10002000000000000000000000000000450D000876
:10003000450D000800000000450D000805260008D9
:10004000450D0008450D0008450D0008450D000848
:10005000450D0008450D000831050008550500084C
:10006000790500089D050008C1050008450D000838
:10007000450D0008450D0008450D0008450D000818
:10008000450D0008450D0008450D0008450D000808
:10009000450D0008450D0008450D0008E505000860
:1000A000450D0008450D0008450D0008450D0008E8
:1000B000D52B0008450D0008450D0008450D00082A
:1000C000450D0008450D0008450D0008450D0008C8
:1000D000450D00086516000895160008C5160008AD
:1000E00071060008450D0008450D0008450D000883
:1000F000450D0008450D0008450D0008450D000898
:10010000450D0008450D0008450D0008450D000887
:10011000F516000825170008450D0008450D0008D4
:10012000450D0008450D0008450D0008450D000867
:10013000450D0008450D0008450D0008450D000857
:10014000450D0008450D0008450D0008450D000847
:10015000450D0008450D0008450D0008551700081D
:10016000450D0008450D0008450D0008450D000827
:10017000450D0008450D0008450D0008450D000817
:10018000450D0008450D000880B584B000AF012181
:100190004FF4001000F0E4FE0D4B3B600023BB80E9
:1001A0004BF6FF73FB8000233B8100237B814FF4E0
:1001B0008043BB813B461946064805F0E5F801211E
:1001C000044805F0A3F900BF1037BD4680BD00BF4D
:1001D000A08601000054004080B582B000AF786076
:1001E0000B46FB701346BB7000BF4FF400317868BC
:1001F00005F04AFA0346002BF7D10121786805F093
:10020000A5F900BF1349786805F00EFA0346002BE4
:10021000F8D0BA78FB781946786805F0D7F9BB783A
:10022000002B08D100BF0C49786805F0FDF90346A2
:10023000002BF8D00AE0BB78012B07D100BF07499B
:10024000786805F0F1F90346002BF8D000BF0837B5
:10025000BD4680BD010003008200070002000300CC
:1002600080B582B000AF78600B46FB70FB78194612
:10027000786805F0C9F900BF0549786805F0D4F938
:100280000346002BF8D000BF0837BD4680BD00BF35
:100290008400070080B582B000AF786001217868E3
:1002A00005F074F900BF0837BD4680BD90B589B030
:1002B00002AF78600B467B8013467B707B88002BF7
:1002C00005D07A887B88013B1340002B21D0002386
:1002D0007B7519E07A887B7D42FA03F303F0010312
:1002E000002B0ED07B7D012202FA03F39BB27A78B9
:1002F00019467868FFF7DAFF0346002B01D0012387
:100300000CE17B7D01337B757B7D0F2BE2D90023D4
:1003100004E1844B1A687B881340002B05D1814B84
:100320005A687B881340002B01D00123F6E07B88BC
:10033000802B43D0802B11DC082B39D0082B06DC16
:10034000022B2FD0042B30D0012B28D03CE0202BC7
:1003500034D0402B32D0102B2DD035E0B3F5006FC8
:100360002FD0B3F5006F09DCB3F5007F26D0B3F5CD
:10037000806F26D0B3F5807F20D025E0B3F5005FF5
:100380001FD0B3F5005F03DCB3F5805F19D01BE02D
:10039000B3F5804F15D0B3F5004F12D014E006230B
:1003A000BB7513E00723BB7510E00823BB750DE098
:1003B0000923BB750AE00A23BB7507E01723BB7549
:1003C00004E02823BB7501E00123A7E07B78012B23
:1003D00002D10123FB7507E07B78002B02D10223B9
:1003E000FB7501E00023FB75798800230193FB7DF9
:1003F000009300230022786805F0D8F97B8818461E
:1004000005F04CFA03463B75786805F05FFA034641
:10041000FB74454A444B5B6C43F48043536443494B
:100420003B7D9B08DBB21C46404A3B7D9B08DBB210
:10043000023352F823303A7D02F0030292000F207B
:1004400000FA02F2D2431A40A31C41F82320374895
:100450003B7D9B08DBB21C46344A3B7D9B08DBB2EC
:10046000023352F82330F97C3A7D02F00302920005
:1004700001FA02F21A43A31C40F823202949294B10
:100480001B687A88D24313400B602649254B5B6872
:100490007A88D24313404B602249224B1A687B88EA
:1004A00013430B601F491F4BDB687A88D24313400C
:1004B000CB601C491B4B9B687A88D24313408B60EE
:1004C0007B78012B06D11749164BDA687B881343DA
:1004D000CB6015E07B78002B06D11249114B9A684E
:1004E0007B8813438B600BE00E490E4BDA687B88E8
:1004F0001343CB600B490B4B9A687B8813438B608B
:10050000BB7D3B730A237B733B7DBB730123FB7372
:1005100007F10C03184605F0E9F8002318461C37CC
:10052000BD4690BD003C014000380240003801400B
:1005300080B500AF064B5B6903F00103002B05D0CB
:10054000034B01225A61012002F014FB00BF80BD61
:10055000003C014080B500AF064B5B6903F002032D
:10056000002B05D0034B02225A61022002F002FB4D
:1005700000BF80BD003C014080B500AF064B5B6909
:1005800003F00403002B05D0034B04225A6104201E
:1005900002F0F0FA00BF80BD003C014080B500AF22
:1005A000064B5B6903F00803002B05D0034B0822C0
:1005B0005A61082002F0DEFA00BF80BD003C014015
:1005C00080B500AF064B5B6903F01003002B05D02C
:1005D000034B10225A61102002F0CCFA00BF80BDFC
:1005E000003C014080B500AF204B5B6903F0200365
:1005F000002B05D01D4B20225A61202002F0BAFAB0
:100600001A4B5B6903F04003002B05D0174B4022C7
:100610005A61402002F0AEFA144B5B6903F080038C
:10062000002B05D0114B80225A61802002F0A2FAE3
:100630000E4B5B6903F48073002B07D00B4B4FF418
:1006400080725A614FF4807002F094FA074B5B6934
:1006500003F40073002B07D0044B4FF400725A616F
:100660004FF4007002F086FA00BF80BD003C0140EC
:1006700080B500AF2A4B5B6903F48063002B07D081
:10068000274B4FF480625A614FF4806002F072FA97
:10069000234B5B6903F40063002B07D0204B4FF41E
:1006A00000625A614FF4006002F064FA1C4B5B690F
:1006B00003F48053002B07D0194B4FF480525A613A
:1006C0004FF4805002F056FA154B5B6903F4005367
:1006D000002B07D0124B4FF400525A614FF40050D8
:1006E00002F048FA0E4B5B6903F48043002B07D0FD
:1006F0000B4B4FF480425A614FF4804002F03AFABB
:10070000074B5B6903F40043002B07D0044B4FF405
:1007100000425A614FF4004002F02CFA00BF80BD45
:10072000003C014080B586B000AF0346FB8001214C
:10073000012000F015FC4AF21043BB810023FB812D
:10074000FB883B610023BB820023BB7507F10C03D0
:1007500019464FF0804005F067F91C233B720023D7
:100760007B720123BB720123FB7207F10803184659
:1007700004F0BCFF00BF1837BD4680BD80B500AF98
:1007800001214FF0804005F0B9F9012201214FF01D
:10079000804005F0D3F900BF80BD00BF80B500AF39
:1007A000002201214FF0804005F0C8F900214FF0F0
:1007B000804005F0A3F900BF80BD00BF80B582B0C6
:1007C00000AF78607B682C4A934208D10121102049
:1007D00000F002FC0021102000F0FEFB47E07B68E7
:1007E000264A93420AD101214FF4003000F0D6FB93
:1007F00000214FF4003000F0D1FB38E07B68204A44
:1008000093420AD101214FF4802000F0C7FB002160
:100810004FF4802000F0C2FB29E07B68194A934224
:100820000AD101214FF4002000F0B8FB00214FF461
:10083000002000F0B3FB1AE07B68134A93420AD110
:1008400001214FF4801000F0A9FB00214FF480102B
:1008500000F0A4FB0BE07B680C4A934207D1012116
:10086000202000F0B9FB0021202000F0B5FB00BFE4
:100870000837BD4680BD00BF001001400044004065
:1008800000480040004C004000500040001401406F
:1008900080B58AB000AF7860396000237B620023A6
:1008A0003B620023FB610023BB617B681B8A9BB218
:1008B0007B627B6A23F440537B623B68DB881A4689
:1008C0007B6A13437B627B6A9AB27B681A827B687D
:1008D0009B899BB27B627B6A23F4B05323F00C03A9
:1008E0007B623B689A883B681B8913439AB23B68DA
:1008F0005B8913439BB21A467B6A13437B627B6A14
:100900009AB27B689A817B689B8A9BB27B627B6A86
:1009100023F440737B623B689B891A467B6A1343CE
:100920007B627B6A9AB27B689A8207F10803184659
:1009300000F04EFA7B68304A934203D07B682F4A1E
:10094000934202D17B693B6201E03B693B627B6879
:100950009B899BB21BB2002B0CDA3A6A13469B00B0
:1009600013449A001A443B681B685B00B2FBF3F324
:10097000FB610BE03A6A13469B0013449A001A4449
:100980003B681B689B00B2FBF3F3FB61FB691C4AED
:10099000A2FB03235B091B017B627B6A1B096422A8
:1009A00002FB03F3FA69D31ABB617B689B899BB294
:1009B0001BB2002B0CDABB69DB003233104AA2FBFE
:1009C00003235B0903F007037A6A13437B620BE09E
:1009D000BB691B0132330A4AA2FB03235B0903F004
:1009E0000F037A6A13437B627B6A9AB27B681A812F
:1009F00000BF2837BD4680BD0010014000140140F3
:100A00001F85EB5180B582B000AF0346FB71FA79C8
:100A10000C4913469B0013449B000B441B68002B9E
:100A20000AD0FA79074913469B0013449B000B44F4
:100A30001B689847034600E0042318460837BD4664
:100A400080BD00BF0000002080B582B000AF03462B
:100A5000FB71FA790D4913469B0013449B000B442C
:100A600004331B68002B0BD0FA79084913469B000E
:100A700013449B000B4404331B689847034600E073
:100A8000042318460837BD4680BD00BF0000002083
:100A900080B584B000AFB9607A603B600346FB73F9
:100AA0003B68002B01D104231AE0FA7B0E49134660
:100AB0009B0013449B000B4410331B68002B0ED08B
:100AC000FA7B094913469B0013449B000B441033E7
:100AD0001B683A687968B8689847034600E00423C1
:100AE00018461037BD4680BD0000002080B584B098
:100AF00000AFB9607A603B600346FB733B68002B34
:100B000001D104231AE0FA7B0E4913469B001344DB
:100B10009B000B440C331B68002B0ED0FA7B094959
:100B200013469B0013449B000B440C331B683A682C
:100B30007968B8689847034600E0042318461037E0
:100B4000BD4680BD0000002080B582B000AF0346E6
:100B50003A60FB710B46BB71FA790F4913469B0053
:100B600013449B000B4408331B68002B0ED0FA790A
:100B7000094913469B0013449B000B4408331B6830
:100B8000BA79396810469847034600E004231846AE
:100B90000837BD4680BD00BF0000002080B400AF14
:100BA000024B1846BD4680BC704700BF0000FC42A7
:100BB00080B400AF01231846BD4680BC704700BF1B
:100BC00080B400AF01231846BD4680BC704700BF0B
:100BD00080B400AF01231846BD4680BC704700BFFB
:100BE00080B400AF01231846BD4680BC704700BFEB
:100BF00080B400AF01231846BD4680BC704700BFDB
:100C000080B400AF01231846BD4680BC704700BFCA
:100C100080B483B000AF03463960FB7101231846EE
:100C20000C37BD4680BC704780B483B000AF03462C
:100C30003960FB71012318460C37BD4680BC7047F4
:100C400080B483B000AF03463960FB7101231846BE
:100C50000C37BD4680BC704780B485B000AFF860EB
:100C6000B9607A60012318461437BD4680BC7047CE
:100C700080B485B000AFF860B9607A60012318468F
:100C80001437BD4680BC704780B485B000AFF860B3
:100C9000B9607A60012318461437BD4680BC70479E
:100CA00080B485B000AFF860B9607A60012318465F
:100CB0001437BD4680BC704780B485B000AFF86083
:100CC000B9607A60012318461437BD4680BC70476E
:100CD00080B485B000AFF860B9607A60012318462F
:100CE0001437BD4680BC704780B582B000AF104B52
:100CF0007B60104B3B6007E03B681A1D3A607A68E6
:100D0000111D796012681A603B680B4A9342F3D355
:100D10000A480B494FF000028842B8BF40F8042B44
:100D2000FADB00F013F800BF0837BD4680BD00BFF6
:100D30008A5D0008000000205401002054010020BA
:100D4000A402002080B400AFFEE700BF80B5ADF57F
:100D50008B6D00AF02F068F801F0F4FC02F00CF9C2
:100D60004FF4E1320021164800F054F901F094FEEE
:100D700001F0C0FC07F5097301221249184603F07F
:100D80006FFE0346002B16D13B4613220E49184630
:100D900003F0AAFE0346002B08D13B4619460B4838
:100DA00004F050FA3B46184604F0F2F901220549D6
:100DB000002003F055FE01F0B5FB01F085FEFAE7D7
:100DC000004C0040F85B0008FC5B0008045C000875
:100DD00080B489B000AF78600023BB6100237B61E1
:100DE0000023FB6102233B610023FB600223BB6005
:100DF000484B9B6803F00C03BB61BB69042B07D015
:100E0000082B09D0002B3FD17B68434A1A603FE092
:100E10007B68424A1A603BE03E4B5B6803F4800308
:100E20009B0DFB603B4B5B6803F03F03BB60FB68C3
:100E3000002B0DD0394ABB68B2FBF3F2354B596831
:100E400047F6C0730B409B0903FB02F3FB610CE008
:100E5000314ABB68B2FBF3F22E4B596847F6C073B8
:100E60000B409B0903FB02F3FB612A4B5B6803F415
:100E700040331B0C01335B003B61FA693B69B2FBF9
:100E8000F3F27B681A6003E07B68234A1A6000BFB4
:100E9000204B9B6803F0F003BB61BB691B09BB617E
:100EA0001F4ABB6913441B78DBB27B617B681A68FD
:100EB0007B69DA407B685A60164B9B6803F4E05309
:100EC000BB61BB699B0ABB61154ABB6913441B78B4
:100ED000DBB27B617B685A687B69DA407B689A6029
:100EE0000C4B9B6803F46043BB61BB695B0BBB614C
:100EF0000B4ABB6913441B78DBB27B617B685A6881
:100F00007B69DA407B68DA6000BF2437BD4680BC6D
:100F1000704700BF003802400024F40000127A003D
:100F2000B400002080B483B000AF78600B46FB7043
:100F3000FB78002B06D00949084B1A6B7B681343DA
:100F40000B6306E00549054B1A6B7B68DB431340D6
:100F50000B6300BF0C37BD4680BC704700380240B1
:100F600080B483B000AF78600B46FB70FB78002B39
:100F700006D00949084B1A6C7B6813430B6406E0E2
:100F80000549054B1A6C7B68DB4313400B6400BFBB
:100F90000C37BD4680BC70470038024080B483B037
:100FA00000AF78600B46FB70FB78002B06D0094938
:100FB000084B1A6A7B6813430B6206E00549054B30
:100FC0001A6A7B68DB4313400B6200BF0C37BD46D7
:100FD00080BC70470038024080B483B000AF7860B6
:100FE0000B46FB70FB78002B06D00949084B5A6A68
:100FF0007B6813434B6206E00549054B5A6A7B68E0
:10100000DB4313404B6200BF0C37BD4680BC7047CA
:101010000038024080B588B004AFF8600B467A60B3
:10102000FB72FB68374A93420DD1F97A0023039390
:1010300000230293002301930C23009300237A687A
:10104000304800F09FFBFB682F4A93420DD1F97A9C
:101050000023039300230293002301930C230093A6
:1010600000237A68284800F08DFBFB68274A9342EA
:101070000DD1F97A002303930023029300230193F7
:101080000C23009300237A68204800F07BFBFB6868
:101090001F4A93420DD1F97A002303930023029350
:1010A000002301930C23009300237A68184800F072
:1010B00069FBFB68174A93420DD1F97A0023039329
:1010C00000230293002301930C23009300237A68EA
:1010D000104800F057FBFB680F4A93420DD1F97A94
:1010E0000023039300230293002301930C23009316
:1010F00000237A68084800F045FB00BF1037BD4662
:1011000080BD00BF00100140004400400048004086
:10111000004C0040005000400014014080B584B0F5
:1011200000AF78600023FB73786800F0E5F8B860E2
:10113000BB68DB88002B05D1BB681A89BB685B895B
:101140009A421FD0BB685A89BB689B889A4202D1D9
:10115000BB6800225A81BB681B68BA685289134475
:101160001B78FB73BB685B8901339AB2BB685A81F9
:10117000BB68DB88002B05D0BB68DB88013B9AB2DB
:10118000BB68DA80FB7B18461037BD4680BD00BFC8
:1011900090B587B000AFF860B9601346FB800023BC
:1011A000FB82F86800F0A8F838613B69DB88002B07
:1011B0000ED03B695B7B1946F86800F033F80346B4
:1011C000002B1AD13B69DA883B699B889A4214D07C
:1011D000002322E0FB8ABA68D418F868FFF79EFF64
:1011E00003462370FB8ABA6813441A783B695B7B19
:1011F0009A4208D0FB8A0133FB82FA8AFB88013BC2
:101200009A42E7DB00E000BFFB8A0133FB82FB8AE6
:10121000BA68134400221A70FB8A18461C37BD4670
:1012200090BD00BF80B584B000AF78600B46FB7006
:10123000786800F061F8B860BB68DB88FB81BB6848
:101240005B89BB8116E0BB689B88BA899A4201D151
:101250000023BB81BB681A68BB8913441B78FA78EA
:101260009A4201D1012309E0BB890133BB81FB898B
:10127000013BFB81FB89002BE5D100231846103789
:10128000BD4680BD80B483B000AF78600B46FB7074
:101290007B68DA887B689B889A421BD27B681A89B4
:1012A0007B689B889A4202D17B6800221A817B6806
:1012B0001B687A6812891344FA781A707B681B8954
:1012C00001339AB27B681A817B68DB8801339AB25A
:1012D0007B68DA8000BF0C37BD4680BC704700BF1A
:1012E00080B483B000AF78600B467B8000BF0C37C2
:1012F000BD4680BC704700BF80B485B000AF786049
:101300007B68144A934201D1134BFB607B68134AFC
:10131000934201D1124BFB607B68124A934201D188
:10132000114BFB607B68114A934201D1104BFB606B
:101330007B68104A934201D10F4BFB607B680F4AD8
:10134000934201D10E4BFB60FB6818461437BD4633
:1013500080BC704700100140C400002000440040E1
:10136000D400002000480040E4000020004C004071
:10137000F40000200050004004010020001401404F
:101380001401002080B485B000AF78607B68144AF7
:10139000934201D10023FB737B68124A934201D12F
:1013A0000123FB737B68104A934201D10223FB7334
:1013B0007B680E4A934201D10423FB737B680C4A7D
:1013C000934201D10523FB737B680A4A934201D102
:1013D0000623FB73FB7B18461437BD4680BC704761
:1013E000001001400044004000480040004C004014
:1013F000005000400014014080B584B002AF0346A5
:10140000FB71FB79002B0AD107230193032300937F
:10141000012300224FF4C0610D4804F0EBF9FB7981
:10142000012B09D1072301930323009301230022F9
:10143000C021084804F0DEF9FB79032B03D1072112
:101440000548FFF74DFF00BF0837BD4680BD00BF10
:1014500000000240000402400010014080B584B04A
:1014600002AF0346FB71FB79002B09D107230193DF
:1014700003230093012300220C210D4804F0BAF944
:10148000FB79012B09D10723019303230093012347
:1014900000226021074804F0ADF9FB79032B03D14A
:1014A00007210548FFF71CFF00BF0837BD4680BD78
:1014B00000000240000C02400044004080B584B0AF
:1014C00002AF0346FB71FB79002B0AD1072301937E
:1014D00003230093012300224FF44061144804F0D9
:1014E00089F9FB79012B0AD1072301930323009388
:1014F000012300224FF440610E4804F07BF9FB7990
:10150000022B0AD107230193032300930123002216
:101510004FF44071084804F06DF9FB79032B03D1B7
:1015200007210648FFF7DCFE00BF0837BD4680BD37
:101530000004024000080240000C02400048004045
:1015400080B584B002AF0346FB71FB79002B09D153
:1015500008230193032300930123002203210E4853
:1015600004F048F9FB79012B0AD1082301930323E6
:101570000093012300224FF44061084804F03AF937
:10158000FB79032B03D108210548FFF7A9FE00BF13
:101590000837BD4680BD00BF000002400008024081
:1015A000004C004080B584B002AF0346FB71FB796C
:1015B000002B14D10823019303230093012300225D
:1015C0004FF480510B4804F015F9082301930323CD
:1015D0000093012300220421074804F00BF9FB7952
:1015E000032B03D108210548FFF77AFE00BF083717
:1015F000BD4680BD00080240000C02400050004083
:1016000080B584B002AF0346FB71FB79002B09D192
:10161000082301930323009301230022C0210E48D5
:1016200004F0E8F8FB79012B0AD108230193032386
:101630000093012300224FF48441084804F0DAF8B3
:10164000FB79032B03D108210548FFF749FE00BFB2
:101650000837BD4680BD00BF0008024000180240A8
:101660000014014080B500AF084B1B889BB203F00B
:101670002003002B07D0054B9B889BB2DBB2194699
:101680000348FFF7FFFD00BF80BD00BF0010014011
:10169000C400002080B500AF084B1B889BB203F04C
:1016A0002003002B07D0054B9B889BB2DBB2194669
:1016B0000348FFF7E7FD00BF80BD00BF00440040C6
:1016C000D400002080B500AF084B1B889BB203F00C
:1016D0002003002B07D0054B9B889BB2DBB2194639
:1016E0000348FFF7CFFD00BF80BD00BF00480040AA
:1016F000E400002080B500AF084B1B889BB203F0CC
:101700002003002B07D0054B9B889BB2DBB2194608
:101710000348FFF7B7FD00BF80BD00BF004C00408D
:10172000F400002080B500AF084B1B889BB203F08B
:101730002003002B07D0054B9B889BB2DBB21946D8
:101740000348FFF79FFD00BF80BD00BF0050004071
:101750000401002080B500AF084B1B889BB203F04A
:101760002003002B07D0054B9B889BB2DBB21946A8
:101770000348FFF787FD00BF80BD00BF0014014094
:101780001401002080B58CB000AFF8607A601A4672
:101790000B46FB7213463B81F868FFF7ADFDF8621C
:1017A0007B68FB61FB68534A93420BD1524A524B10
:1017B0005B6C43F010035364FB7A1846FFF71CFE82
:1017C00025233B76FB684D4A93420BD14A4A4A4B4C
:1017D0001B6C43F400331364FB7A1846FFF73EFE9C
:1017E00026233B76FB68464A93420BD1424A424B42
:1017F0001B6C43F480231364FB7A1846FFF75EFEEC
:1018000027233B76FB683F4A93420BD13A4A3A4B37
:101810001B6C43F400231364FB7A1846FFF790FE19
:1018200034233B76FB68384A93420BD1324A324B21
:101830001B6C43F480131364FB7A1846FFF7B2FE67
:1018400035233B76FB68314A93420BD12A4A2A4B17
:101850005B6C43F020035364FB7A1846FFF7D0FE1D
:1018600047233B76F868FEF7A9FF0123FB760623A2
:101870007B76F868FFF786FD0346BB7607F1180311
:10188000184603F033FF3B893B85BB6B9BB2FB845F
:10189000FB6B9BB2BB843B6C9BB27B847B6C9BB22F
:1018A0003B84FB6A00221A7340F6FF737B6100BF22
:1018B0007B695A1E7A61002BFAD107F11C03194685
:1018C000F868FEF7E5FFFB689B899BB243F02003B5
:1018D0009AB2FB689A81FB6A01221A73FB689B89A2
:1018E0009BB243F400539AB2FB689A8100BF303731
:1018F000BD4680BD00100140003802400044004059
:1019000000480040004C00400050004000140140DE
:1019100080B586B002AFF860B9603B601346FB80CB
:10192000FB68BA681A61FB683A685A61FB68FA8812
:101930001A83FB683A8B5A83FB681869FB681B8B18
:1019400002221946FEF7B2FCFB685869FB68598B06
:1019500000230193012300930023002203F026FFBC
:10196000FB6800225A72FB680022DA60FB680022E2
:101970005A60FB6800221A60FB6801229A7200BF5D
:101980001037BD4680BD00BF80B483B000AF786023
:101990007B68DA687B681B68D21A7B685A607B6850
:1019A000DA687B681A607B68DB68002B04DA7B6886
:1019B00001221A7201230CE07B68DB68002B04DD36
:1019C0007B6800221A72002303E07B6802221A72ED
:1019D000022318460C37BD4680BC704780B485B0E2
:1019E00000AF78607B681B691B697A68128B1340B3
:1019F000002B14BF01230023DBB2FB737B685B6900
:101A00001B697A68528B1340002B14BF01230023FB
:101A1000DBB2BB737B689B7AFA7B9A4227D07B68E8
:101A2000FA7B9A727B689B7A002B20D17B685B7A69
:101A3000002B0ED1BB7B012B05D17B68DB685A1EC6
:101A40007B68DA6013E07B68DB685A1C7B68DA60CD
:101A50000DE0BB7B012B05D17B68DB685A1C7B68E2
:101A6000DA6004E07B68DB685A1E7B68DA6000BFDE
:101A70001437BD4680BC704780B483B000AF786037
:101A80000B46FB707B681B889BB203F04003002B66
:101A900001D1002325E000BF7B681B899BB203F0C6
:101AA0000303002BF8D07B681B899BB203F08003F3
:101AB000002BF1D1FB789AB27B689A8100BF7B68DA
:101AC0001B899BB203F00303002BF8D07B681B89B2
:101AD0009BB203F08003002BF1D17B689B899BB202
:101AE000DBB218460C37BD4680BC704780B485B069
:101AF00000AF7860114B1B68BB60EFF30583FB60A0
:101B0000FB68002B11D100BF0C4B1A68BB68D21ABE
:101B10007B689A42F8D30BE0094B1B6803F48033CF
:101B2000002B02D07B68013B7B607B68002BF3D1EC
:101B300000BF1437BD4680BC704700BF5C01002069
:101B400010E000E080B500AF00F0D4FD00210648B1
:101B500000F052FE054B4FF480721A830A20FFF703
:101B6000C5FF00BF80BD00BF00300140000802403B
:101B700080B582B000AF786039603B68FF22796839
:101B8000034800F099FE00BF0837BD4680BD00BF86
:101B90000030014080B582B000AF786039603A68AB
:101BA0007968034800F044FE00BF0837BD4680BD99
:101BB0000030014080B584B000AF78600C4A7B688B
:101BC0001360FF210B48FFF757FF0346FB73FB7BB6
:101BD000FF2B03D0064B1B68002BF2D1FB7BFF2BA6
:101BE0000CBF01230023DBB218461037BD4680BD71
:101BF000600100200030014080B500AF044B4FF47D
:101C000080721A83FF210348FFF736FF00BF80BDB3
:101C1000000802400030014080B500AF0A4B4FF48D
:101C200080725A83FF210948FFF726FF4FF4FA70AC
:101C3000FFF7C0FF0346002B01D0012302E0FFF7AE
:101C4000DBFF0023184680BD000802400030014041
:101C500080B584B000AF78603960134BC8221A6039
:101C6000FF211248FFF708FF0346FB73FB7BFF2BA6
:101C700003D10D4B1B68002BF2D1FB7BFE2B01D057
:101C800000230CE039687868FFF772FFFF210748EE
:101C9000FFF7F2FEFF210548FFF7EEFE012318468D
:101CA0001037BD4680BD00BF6001002000300140FC
:101CB00080B584B000AF78600B46FB704FF4FA70CB
:101CC000FFF778FF0346002B01D1002322E0FB78C9
:101CD00019461248FFF7D0FEFB78FD2B19D04FF4C0
:101CE00000717868FFF756FFFF210C48FFF7C4FE2C
:101CF000FF210A48FFF7C0FEFF210848FFF7BCFE9E
:101D00000346FB73FB7B03F01F03052B01D000236D
:101D100000E0012318461037BD4680BD0030014069
:101D200080B584B000AF03463960FB7197F9073086
:101D3000002B0EDAFB7903F07F03FB7100213720C3
:101D4000FFF7EEFF0346BB73BB7B012B01D9BB7BC7
:101D500059E0FB790C2B08D0FFF74EFFFFF75CFF33
:101D60000346002B01D1FF234DE0FB7943F04003F4
:101D7000DBB219462648FFF77FFE3B681B0EDBB23D
:101D800019462348FFF778FE3B681B0CDBB2194667
:101D90001F48FFF771FE3B681B0ADBB219461C485F
:101DA000FFF76AFE3B68DBB219461948FFF764FE8D
:101DB0000123FB73FB79002B01D19523FB73FB7986
:101DC000082B01D18723FB73FB7B19461048FFF7D3
:101DD00053FEFB790C2B03D1FF210D48FFF74CFE7E
:101DE0000A23FB73FF210A48FFF746FE0346BB7335
:101DF00097F90E30002B05DAFB7B013BFB73FB7B75
:101E0000002BEFD1BB7B18461037BD4680BD00BF0D
:101E10000030014080B582B002AF0023019300235F
:101E20000093002301224FF48071034803F0BEFCAD
:101E300000BFBD4680BD00BF0008024080B400AFB7
:101E400001231846BD4680BC704700BF80B400AF78
:101E500001231846BD4680BC704700BF90B583B0D3
:101E600000AFFFF7D7FFFFF76DFEFFF7E7FF034671
:101E7000002B01D10223CCE00A23FB7106E0FF21F5
:101E80006648FFF7F9FDFB79013BFB71FB79002BFD
:101E9000F5D100237B7100210020FFF741FF0346AD
:101EA000012B40F089805E4B4FF47A721A604FF438
:101EB000D5710820FFF734FF0346012B51D10023D1
:101EC000FB710EE0FC79FF215448FFF7D5FD034676
:101ED0001A4607F10803234403F8082CFB79013361
:101EE000FB71FB79032BEDD9BB78012B64D1FB7817
:101EF000AA2B61D100BF4A4B1B68002B07D04FF0C3
:101F00008041A920FFF70CFF0346002BF3D1444B7F
:101F10001B68002B50D000213A20FFF701FF034639
:101F2000002B49D10023FB710EE0FC79FF213B48D7
:101F3000FFF7A2FD03461A4607F10803234403F8FE
:101F4000082CFB790133FB71FB79032BEDD93B782E
:101F500003F04003002B01D00C2300E004237B712D
:101F60002AE00021A920FFF7DBFE0346012B04D85D
:101F700002237B71A923BB7103E001237B71012341
:101F8000BB7100BF264B1B68002B07D0BB7900211B
:101F90001846FFF7C5FE0346002BF3D1204B1B6804
:101FA000002B07D14FF400711020FFF7B9FE034654
:101FB000002B01D000237B711A4A7B791370FFF745
:101FC0001BFE7B79002B08D0174B1B78DBB223F06C
:101FD0000103DAB2144B1A7002E0134B01221A709B
:101FE000FFF734FF0346002B08D10F4B1B78DBB201
:101FF00043F00403DAB20C4B1A7007E00A4B1B786B
:10200000DBB223F00403DAB2074B1A70064B1B78DD
:10201000DBB218460C37BD4690BD00BF0030014012
:1020200060010020540100202401002080B500AF91
:10203000FFF704FF0346002B01D1012318E0FFF74F
:1020400005FF0346002B08D10A4B1B78DBB243F097
:102050000403DAB2074B1A7007E0064B1B78DBB2B9
:1020600023F00403DAB2034B1A70024B1B78DBB285
:10207000184680BD2401002080B584B000AFF86010
:10208000B9607A60FFF7DAFE0346002B06D0294BD1
:102090001B78DBB203F00103002B01D0032344E0E3
:1020A000254B1B7803F00803002B02D1BB685B02B1
:1020B000BB607B68012B11D1B9681120FFF730FE9E
:1020C0000346002B29D14FF40071F868FFF7C0FDDB
:1020D0000346002B21D000237B601EE0B96812204C
:1020E000FFF71EFE0346002B17D14FF40071F8686E
:1020F000FFF7AEFD0346002B0AD0FB6803F5007323
:10210000FB607B68013B7B607B68002BEDD100E0CE
:1021100000BF00210C20FFF703FEFFF76DFD7B6879
:10212000002B14BF01230023DBB218461037BD4635
:1021300080BD00BF240100205401002080B584B080
:1021400000AFF860B9607A60FFF778FE0346002BB5
:1021500001D101236AE0FFF779FE0346002B01D18C
:10216000022363E0334B1B78DBB203F00103002B47
:1021700001D003235AE02F4B1B78DBB203F004039A
:10218000002B01D0022351E02B4B1B7803F00803F6
:10219000002B02D1BB685B02BB607B68012B10D1B6
:1021A000B9681820FFF7BCFD0346002B36D1FE218D
:1021B000F868FFF77DFD0346002B2FD000237B60DE
:1021C0002CE01D4B1B7803F00603002B03D079682D
:1021D0009720FFF7A5FDB9681920FFF7A1FD034679
:1021E000002B1BD1FC21F868FFF762FD0346002B92
:1021F0000AD0FB6803F50073FB607B68013B7B60E2
:102200007B68002BEED100E000BFFD210020FFF72E
:102210004FFD0346002B01D101237B60FFF7ECFC4F
:102220007B68002B14BF01230023DBB21846103754
:10223000BD4680BD240100205401002080B58CB033
:1022400000AF03463960FB71B34B1B78DBB203F080
:102250000103002B01D0032359E1FFF7EFFD0346F3
:10226000002B01D1032352E1012387F82F30FB79A2
:10227000042B00F2378101A252F823F091220008CA
:10228000A5220008E5240008512300084B2400087B
:10229000FFF7C2FC0346002B00F02881002387F8DB
:1022A0002F3023E100210920FFF73AFD0346002BE0
:1022B00040F01E8107F10C0310211846FFF7C8FCFF
:1022C0000346002B00F014813B7B9B09DBB2012B02
:1022D00011D17B7D1A463B7D1B0213441A46FB7CC1
:1022E0001B0403F47C13134401333B623B6A9A02E0
:1022F0003B681A6028E07B7C03F00F03DAB2BB7DF9
:10230000DB09DBB21344DAB27B7D5B00DBB203F0A6
:102310000603DBB21344DBB2023387F82E303B7D79
:102320009B09DBB21A46FB7C9B001A44BB7C9B02D8
:1023300003F44063134401333B6297F82E30093BAA
:102340003A6A9A403B681A60002387F82F30CFE042
:10235000724B1B7803F00403002B33D000218D2037
:10236000FFF7DEFC0346002B40F0C480FF216C48E1
:10237000FFF782FB07F10C0310211846FFF768FCFA
:102380000346002B00F0B680302387F82E3008E09B
:10239000FF216348FFF770FB97F82E30013B87F869
:1023A0002E3097F82E30002BF2D1BB7D1B09DBB20B
:1023B0001A46102303FA02F23B681A60002387F8DA
:1023C0002F3097E000210920FFF7AAFC0346002BDD
:1023D00040F0908007F10C0310211846FFF738FCFD
:1023E0000346002B00F086804C4B1B7803F0020361
:1023F000002B12D0BB7D5B0003F07E03FA7DD20977
:10240000D2B213445A1C7B7E9B09DBB2013B02FA19
:1024100003F31A463B681A6013E0BB7D9B109BB226
:1024200003F01F030133FA7DD20002F01802F97D98
:102430004909C9B20A44013202FB03F31A463B6858
:102440001A60002387F82F3054E0344B1B7803F0D8
:102450000603002B50D007F10C0319460B20FFF7A1
:10246000EDFE0346002B49D13B7B9B09DBB2002BE1
:1024700004D1BB7D03F04003002B41D03B68FB61DE
:10248000FB691B68BB62FB695B687B62234B1B7843
:1024900003F00803002B05D1BB6A5B02BB627B6AB9
:1024A0005B027B62B96A2020FFF73AFC0346002BEF
:1024B00028D1796A2120FFF733FC0346002B21D174
:1024C00000212620FFF72CFC0346002B1AD147F2EF
:1024D0003050FFF76FFB0346002B13D0002387F823
:1024E0002F300FE0042387F82F300CE000BF0AE004
:1024F00000BF08E000BF06E000BF04E000BF02E04C
:1025000000BF00E000BFFFF777FB97F82F301846B9
:102510003037BD4680BD00BF24010020540100209B
:102520000030014080B582B000AF3B1D0222194649
:102530000B48FEF72DFE0346002B0DD03B79642B94
:1025400006D0752B00D007E0064B01221A7003E07D
:10255000054B01221A7000BF00BF0837BD4680BD81
:10256000004C0040550100205601002080B483B08B
:1025700000AF03463960FB7197F90730002B0BDA87
:102580000D49FB7903F00F03043B3A68D2B2120104
:10259000D2B20B441A7609E0084997F907303A6835
:1025A000D2B21201D2B20B4483F8002300BF0C3721
:1025B000BD4680BC704700BF00ED00E000E100E0D8
:1025C00080B582B000AF78607B68B3F1807F01D3C3
:1025D000012311E00A4A7B6823F07F43013B5360EB
:1025E0000F214FF0FF30FFF7C1FF054B00229A602B
:1025F000034B07221A60002318460837BD4680BDEA
:1026000010E000E080B582B000AF374B1B680133AB
:10261000354A1360354B1B68002B04D0334B1B68C5
:10262000013B324A1360AFF300800023FB7152E09C
:10263000FB792F4A9B0013445B68002B48D0FB7941
:102640002B4A9B0013445B681B7B002B40D0FB791B
:10265000274A9B0013445B689B68002B38D0FB79AA
:10266000234A9B0013445B689A68013A9A60FB799D
:102670001F4A9B0013445B689B68002B28D1FB79A1
:102680001B4A9B0013445B681A69FB7918499B003D
:102690000B445B685B6918469047FB79144A9B00C2
:1026A00013445A68FB7912499B000B445B681B6812
:1026B0009360FB790E4A9B0013445B685B68002BB8
:1026C00006D1FB790A4A9B0013445B6800221A7307
:1026D000FB790133FB71064B1B78FA799A42A7D339
:1026E00000BF0837BD4680BD5C01002060010020AE
:1026F0006801002080B500AF0D4B1B680D4AA2FB9E
:1027000003239B091846FFF75BFF0346002B00D00D
:10271000FEE7074B1B689B09074AA2FB03239B0AA2
:10272000064A1360064B01221A7000BF80BD00BF2D
:1027300040010020D34D621017916502A0020020D5
:102740006401002080B586B000AF01210120FEF7B2
:10275000E9FB01210220FEF7E5FB01210420FEF741
:10276000E1FBC0233B6102233B7500237B75012302
:10277000BB750023FB7507F1100319461C4800F0D8
:102780004BFA2023BB6001233B7300237B730023A0
:10279000BB730023FB7307F108031946144800F0CC
:1027A0003BFA4FF480433B6000233B7100237B7175
:1027B0000023FB713B4619460E4800F02DFA01221A
:1027C0004FF480410B48FDF771FD0122202108489C
:1027D00000F0CAFA04220621054800F0DDFA0422BE
:1027E0000721034800F0D8FA00BF1837BD4680BD66
:1027F000000402400008024080B584B002AF786057
:102800000B46FB707B68094A93420AD1F978002392
:1028100001934FF48273009320230022034800F0B9
:10282000A1F800BF0837BD4680BD00BF00300140A1
:1028300080B487B000AFF860B9607A60FB681B882D
:102840009BB203F04003002B31D000BFFB681B8913
:102850009BB203F00303002BF8D0FB681B899BB2EB
:1028600003F08003002BF1D100237B611AE0BA68EA
:102870007B6913441B789AB2FB689A8100BFFB689E
:102880001B899BB203F00303002BF8D0FB681B8964
:102890009BB203F08003002BF1D1FB689B897B691D
:1028A00001337B617A697B689A42E0D300E000BF24
:1028B0001C37BD4680BC704780B487B000AFF8605D
:1028C000B9603B601346FB71FB681B889BB203F049
:1028D0004003002B34D000BFFB681B899BB203F080
:1028E0000303002BF8D0FB681B899BB203F0800325
:1028F000002BF1D100237B611DE0FB799AB2FB68CC
:102900009A8100BFFB681B899BB203F00303002B75
:10291000F8D0FB681B899BB203F08003002BF1D138
:10292000BA687B691344FA68928992B2D2B21A707B
:102930007B6901337B617A693B689A42DDD300E0B1
:1029400000BF1C37BD4680BC704700BF80B483B059
:1029500000AF78600B467B8000BF0C37BD4680BC63
:10296000704700BF80B588B000AF78600846114658
:102970001A460346FB700B46BB7013463B8007F1BB
:102980000C03184602F0DCFC7B68294A93420BD109
:10299000284A284B5B6C43F480535364FB781846F9
:1029A00000F04AF800233B823B883B830023BB8135
:1029B000BB8D7B833B8DFB814FF40073FB82BB7827
:1029C000002B04D100237B820023BB8216E0BB785E
:1029D000012B04D100237B820123BB820EE0BB7854
:1029E000022B04D102237B820023BB8206E0BB784A
:1029F000032B03D102237B820123BB827B681B88CC
:102A00009BB223F040039AB27B681A8007F10C0353
:102A10001946786802F050FC7B681B889BB243F033
:102A200040039AB27B681A8000BF2037BD4680BD44
:102A3000003001400038024080B584B002AF034648
:102A4000FB71FB79002B09D105230193032300932C
:102A500000230022E0210D4802F0CCFEFB79012B7F
:102A600009D1052301930323009300230022382179
:102A7000074802F0BFFEFB79032B03D1052105486F
:102A8000FFF764FF00BF0837BD4680BD000002406D
:102A9000000402400030014080B582B002AF4FF424
:102AA00000430093064B4FF4005205490548FEF7DA
:102AB0002FFF2820FDF736FE00BFBD4680BD00BFBA
:102AC000000802408001002080B500AF2448FEF7D6
:102AD0005BFF00F069F80346002B0CD0214B1B78FC
:102AE0000133DAB21F4B1A701E4B1B78032B02D135
:102AF0001C4B00221A701A4B5B68002B15DD194B1A
:102B00001B78194ADB0013445B68164A1278D2001E
:102B100015490A44022110469847144B1B78012B93
:102B20001CD1124B00221A7018E00D4B5B68002B71
:102B300014DA0C4B1B780C4ADB0013445B68094A1F
:102B40001278D20008490A44012110469847084BE0
:102B50001B78012B02D1064B00221A7000BF80BDEA
:102B6000800100209D010020280100205601002046
:102B70005501002080B582B000AF0346FB80094BB1
:102B80001B8BFA889A4202D10648FEF727FFFB8882
:102B9000B3F5804F01D1FDF7F1FD00BF0837BD4609
:102BA00080BD00BF8001002080B483B000AF084B1F
:102BB0001B78FB71064B1B78002B02D0044B0022C4
:102BC0001A70FB7918460C37BD4680BC704700BFB1
:102BD0009C01002080B500AF01214FF0804002F041
:102BE000D1FF0346002B11D001214FF0804002F0AD
:102BF000F3FF4FF48041064800F09CF80346002B99
:102C000002D1044B01221A70FDF7C8FD00BF80BD40
:102C1000000802409C01002080B487B000AF7860BB
:102C2000396000237B6100233B610023FB600023AC
:102C30007B6176E001227B6902FA03F33B613B682A
:102C40001A683B691340FB60FA683B699A4265D198
:102C50007B681A687B695B00032101FA03F3DB439D
:102C60001A407B681A607B681A683B681B791946B2
:102C70007B695B0001FA03F31A437B681A603B68C7
:102C80001B79012B03D03B681B79022B2ED17B686B
:102C90009A687B695B00032101FA03F3DB431A4066
:102CA0007B689A607B689A683B685B7919467B69A8
:102CB0005B0001FA03F31A437B689A607B685A68E9
:102CC0007B699BB2194601238B40DB431A407B682A
:102CD0005A607B685B683A68927911467A6992B269
:102CE00001FA02F292B21A437B685A607B68DA6892
:102CF0007B699BB25B00032101FA03F3DB431A40BB
:102D00007B68DA607B68DA683B68DB7919467B6947
:102D10005B0001FA03F31A437B68DA607B690133D5
:102D20007B617B690F2B85D900BF1C37BD4680BCFA
:102D3000704700BF80B485B000AF78600B467B80E1
:102D40000023FB737B681A697B881340002B02D039
:102D50000123FB7301E00023FB73FB7B1846143750
:102D6000BD4680BC704700BF80B483B000AF7860C0
:102D70000B467B8013467B707B78002B03D07B68EF
:102D80007A881A8302E07B687A885A8300BF0C37FE
:102D9000BD4680BC704700BF80B485B000AF78608E
:102DA0000B467B8013467B700023FB600023BB60D7
:102DB0007A787B8803F007039B0002FA03F3FB6039
:102DC0007B88DB089BB218467B88DB089BB21A46DF
:102DD0007B68083253F822207B8803F007039B00AE
:102DE0000F2101FA03F3DB4302EA03017B6800F1E0
:102DF000080243F822107B88DB089BB21A467B68E6
:102E0000083253F82220FB681343BB607B88DB0841
:102E10009BB21A467B680832B96843F8221000BF9B
:102E20001437BD4680BC704780B500AF124A124BC4
:102E30001B6843F0010313600F4B00229A600E4A97
:102E40000D4B1B6823F0847323F4803313600A4B0B
:102E50000A4A5A60084A084B1B6823F4802313600F
:102E6000054B0022DA6000F00DF8054B4FF00062D0
:102E70009A6000BF80BD00BF0038024010300024BF
:102E800000ED00E080B483B000AF00237B6000233E
:102E90003B60354A344B1B6843F480331360324B3C
:102EA0001B6803F400333B607B6801337B603B6845
:102EB000002B03D17B68B3F5A06FF0D12A4B1B68C0
:102EC00003F40033002B02D001233B6001E0002318
:102ED0003B603B68012B42D1234A234B1B6C43F0E0
:102EE00080531364214A214B1B6843F480431360D1
:102EF0001D4A1D4B9B6893601B4A1B4B9B6843F408
:102F000000439360184A184B9B6843F4A0539360A6
:102F1000154B174A5A60144A134B1B6843F08073D1
:102F2000136000BF104B1B6803F00073002BF9D037
:102F3000104B40F205621A600B4A0B4B9B6823F062
:102F400003039360084A084B9B6843F002039360B5
:102F500000BF054B9B6803F00C03082BF9D100BFA1
:102F60000C37BD4680BC70470038024000700040FE
:102F700008544007003C024080B582B000AF2D23CA
:102F8000FB710F23BB710A237B71FDF7FDF8012252
:102F900020210F48FFF7E8FEFB1D0021184600F036
:102FA00019F80A21052000F05DF80021022000F048
:102FB0007FF8BB1D0021184600F0A0F87B1D002102
:102FC000184600F0EFF800BF0837BD4680BD00BFCF
:102FD0000004024080B584B000AF78600B46FB70FF
:102FE0000023FB73FB78002B06D17B681B783F2BFB
:102FF00021D80123FB731EE0FB78012B0CD17B68E9
:103000001B78002B17D00123FB737B681B78013BD7
:10301000DAB27B681A700EE0FB78022B0BD17B686A
:103020001B783E2B07D80123FB737B681B78013389
:10303000DAB27B681A70FB7B012B0DD1002288214C
:103040000748FDF7C9F87B681B7819460448FDF767
:1030500007F90348FDF71EF900BF1037BD4680BDD4
:103060000054004080B582B000AF03460A46FB71B1
:103070001346BB71BB791F2B13D8002288210B4844
:10308000FDF7AAF8FB795B015AB297F906301343B2
:103090005BB2DBB219460548FDF7E2F80348FDF7DD
:1030A000F9F800BF0837BD4680BD00BF005400409E
:1030B00080B582B000AF03460A46FB711346BB7170
:1030C000BB79032B14D8002288210B48FDF784F824
:1030D000BB79DB00DAB2FB791343DBB243F0400388
:1030E000DBB219460448FDF7BBF80348FDF7D2F8F8
:1030F00000BF0837BD4680BD0054004080B584B095
:1031000000AF78600B46FB700023FB73FB78002B4D
:1031100006D17B681B780F2B21D80123FB731EE09F
:10312000FB78012B0CD17B681B780E2B17D8012361
:10313000FB737B681B780133DAB27B681A700EE090
:10314000FB78022B0BD17B681B78002B07D0012367
:10315000FB737B681B78013BDAB27B681A70FB7BE0
:10316000012B18D17B681B78072B04D97B681B784F
:10317000C3F11703BB73002288210948FDF72CF81F
:10318000BB7B43F06003DBB219460548FDF768F8E6
:103190000348FDF77FF800BF1037BD4680BD00BF74
:1031A0000054004080B584B000AF78600B46FB70DF
:1031B0000023FB73FB78002B06D17B681B780F2B59
:1031C00021D80123FB731EE0FB78012B0CD17B6817
:1031D0001B780E2B17D80123FB737B681B780133F8
:1031E000DAB27B681A700EE0FB78022B0BD17B6899
:1031F0001B78002B07D00123FB737B681B78013BF6
:10320000DAB27B681A70FB7B012B18D17B681B78C4
:10321000072B04D97B681B78C3F11703BB7300220B
:1032200088210948FCF7D8FFBB7B43F07003DBB271
:1032300019460548FDF714F80348FDF72BF800BFC1
:103240001037BD4680BD00BF0054004080B487B039
:1032500000AFF860B9607A60FB687B61BB683B6176
:1032600007E07B695A1C7A613A69511C396112780E
:103270001A707B685A1E7A60002BF2D100BF1C378F
:10328000BD4680BC704700BF80B487B000AFF86017
:10329000B9607A60FB687B6105E07B695A1C7A61E2
:1032A000BA68D2B21A707B685A1E7A60002BF4D1C9
:1032B00000BF1C37BD4680BC704700BF80B489B0DA
:1032C00000AFF860B9607A60FB68FB61BB68BB6106
:1032D00000237B6100BF7B685A1E7A60002B0DD0F3
:1032E000FB695A1CFA611B781946BB695A1CBA6102
:1032F0001B78CB1A7B617B69002BECD07B6918466D
:103300002437BD4680BC704780B483B000AF78607E
:10331000396002E07B6801337B607B681B78002B9F
:1033200005D07B681B781A463B689A42F2D17B68CD
:103330001B7818460C37BD4680BC704780B586B0F8
:1033400000AF78600023FB737B681B79002B34D0BF
:103350007B681B6B7B617B6858787B6803F1340169
:1033600001237A69FDF7C2FB0346002B02D001233B
:10337000FB7322E07B6800221A717B685B6A7A69C2
:10338000D21A7B68DB699A4217D27B68DB783B6193
:1033900010E07B68DB697A6913447B617B6858784D
:1033A0007B6803F1340101237A69FDF79FFB3B69D8
:1033B000013B3B613B69012BEBD8FB7B184618377F
:1033C000BD4680BD80B584B000AF78603960002311
:1033D000FB737B681A6B3B689A421BD07868FFF7D7
:1033E000ADFF0346FB73FB7B002B13D17B68587842
:1033F0007B6803F1340101233A68FDF749FB03467A
:10340000002B04D04FF0FF333B600123FB737B683C
:103410003A681A63FB7B18461037BD4680BD00BF73
:1034200080B584B000AF78607868FFF787FF034607
:10343000FB73FB7B002B40F090807B681B78032B99
:103440007FD17B685B79012B7BD17B6834334FF470
:10345000007200211846FFF717FF7B68552283F89A
:1034600032227B68AA2283F833227B68522283F8B7
:1034700034207B68522283F835207B68612283F8F0
:1034800036207B68412283F837207B68722283F8DC
:1034900018227B68722283F819227B68412283F804
:1034A0001A227B68612283F81B227B681B69DAB2CF
:1034B0007B6883F81C227B681B699BB21B0A9BB24A
:1034C000DAB27B6883F81D227B681B691B0CDAB2B9
:1034D0007B6883F81E227B681B691B0EDAB27B684F
:1034E00083F81F227B68DB68DAB27B6883F82022CE
:1034F0007B68DB689BB21B0A9BB2DAB27B6883F8FD
:1035000021227B68DB681B0CDAB27B6883F82222FD
:103510007B68DB681B0EDAB27B6883F823227B684A
:103520001B6A5A1C7B681A637B6858787B6803F1B6
:1035300034017B681A6B0123FDF7D8FA7B680022FF
:103540005A717B685B78002200211846FDF7FCFA6F
:103550000346002B01D00123FB73FB7B1846103779
:10356000BD4680BD80B483B000AF786039603B68F1
:10357000023B3B607B689B699A1E3B689A4201D87C
:10358000002308E07B689B781A463B6803FB02F245
:103590007B68DB6A134418460C37BD4680BC704715
:1035A00080B586B000AF786039603B68012B04D9E4
:1035B0007B689A693B689A4202D801237B61A3E049
:1035C0004FF0FF337B617B681B78022B46D0032BC7
:1035D00066D0012B40F08E803B683B613B695B0805
:1035E0003A6913443B617B685A6A3B695B0A13443E
:1035F00019467868FFF7E6FE0346002B7DD13B694C
:103600005A1C3A61C3F308037A68134493F83430C0
:10361000FB607B685A6A3B695B0A13441946786809
:10362000FFF7D0FE0346002B69D13B69C3F30803C3
:103630007A68134493F834301B021A46FB6813432C
:10364000FB603B6803F00103002B02D0FB681B0901
:1036500002E0FB68C3F30B037B6155E07B685A6AA9
:103660003B681B0A134419467868FFF7ABFE034614
:10367000002B46D13B685B0003F4FF7330337A685C
:1036800013440433BB60BB6801331B781B021AB2BE
:10369000BB681B781BB213431BB29BB27B6133E048
:1036A0007B685A6A3B68DB09134419467868FFF760
:1036B00089FE0346002B26D13B689B0003F4FE7372
:1036C00030337A6813440433BB60BB6803331B7820
:1036D0001A06BB6802331B781B041343BA68013215
:1036E000127812021343BA681278134323F070431E
:1036F0007B6109E001237B6106E000BF04E000BFBD
:1037000002E000BF00E000BF7B6918461837BD46E5
:1037100080BD00BF80B588B000AFF860B9607A6046
:10372000BB68012B04D9FB689A69BB689A4202D82E
:103730000223FB77F2E0FB681B78022B74D0032B8B
:1037400000F09980012B40F0DF80BB68BB61BB6952
:103750005B08BA691344BB61FB685A6ABB695B0AC0
:1037600013441946F868FFF72DFE0346FB77FB7FED
:10377000002B40F0CC80BB695A1CBA61C3F308032C
:103780003033FA68134404337B61BB6803F00103F0
:10379000002B0DD07B691B785BB203F00F035AB28C
:1037A0007B68DBB21B015BB213435BB2DBB201E0AF
:1037B0007B68DBB27A691370FB6801221A71FB68BF
:1037C0005A6ABB695B0A13441946F868FFF7FAFDA9
:1037D0000346FB77FB7F002B40F09B80BB69C3F364
:1037E00008033033FA68134404337B61BB6803F089
:1037F0000103002B03D07B681B09DBB20EE07B6961
:103800001B785BB223F00F035AB27B681B0A5BB2D2
:1038100003F00F035BB213435BB2DBB27A69137040
:10382000FB6801221A7179E0FB685A6ABB681B0ABF
:1038300013441946F868FFF7C5FD0346FB77FB7F85
:10384000002B68D1BB685B0003F4FF733033FA6868
:10385000134404337B617B68DAB27B691A707B693D
:1038600001337A6892B2120A92B2D2B21A70FB682D
:1038700001221A7152E0FB685A6ABB68DB091344E3
:103880001946F868FFF79EFD0346FB77FB7F002B88
:1038900043D1BB689B0003F4FE733033FA681344D2
:1038A00004337B617B6903331B781A067B6902331F
:1038B0001B781B0413437A690132127812021343F6
:1038C0007A691278134303F070437A6813437B607C
:1038D0007B68DAB27B691A707B6901337A6892B2CD
:1038E000120A92B2D2B21A707B6902337A68120C51
:1038F000D2B21A707B6903337A68120ED2B21A7090
:10390000FB6801221A7109E00223FB7706E000BF81
:1039100004E000BF02E000BF00E000BFFB7F1846EC
:103920002037BD4680BD00BF80B584B000AF786051
:1039300039603B68012B04D97B689A693B689A42DD
:1039400002D80223FB733DE00023FB7331E03968AA
:103950007868FFF725FEB860BB68002B2FD0BB68E6
:10396000012B02D10223FB732CE0BB68B3F1FF3FB4
:1039700002D10123FB7325E0002239687868FFF744
:10398000C9FE0346FB73FB7B002B1AD17B681B69C6
:10399000B3F1FF3F0BD07B681B695A1C7B681A612F
:1039A0007B685B7943F00103DAB27B685A71BB68CC
:1039B0003B607B689A693B689A42C8D802E000BFC6
:1039C00000E000BFFB7B18461037BD4680BD00BF3E
:1039D00080B586B000AF786039603B68002B0DD1B0
:1039E0007B68DB683B613B69002B04D07B689A698C
:1039F0003B699A421BD801233B6118E0396878681B
:103A0000FFF7CEFDB860BB68012B01D801236EE043
:103A1000BB68B3F1FF3F01D1BB6868E07B689A697E
:103A2000BB689A4201D9BB6861E03B683B613B6976
:103A30007B617B6901337B617B689A697B699A4210
:103A400007D802237B617A693B699A4201D9002336
:103A50004DE079697868FFF7A3FDB860BB68002B7B
:103A60000ED0BB68B3F1FF3F02D0BB68012B01D180
:103A7000BB683CE07A693B699A42DAD1002336E0C0
:103A800000BF6FF0704279697868FFF743FE034624
:103A9000FB73FB7B002B09D13B68002B06D07A69B6
:103AA00039687868FFF736FE0346FB73FB7B002B13
:103AB00014D17B687A69DA607B681B69B3F1FF3FD8
:103AC00014D07B681B695A1E7B681A617B685B791E
:103AD00043F00103DAB27B685A7107E0FB7B012BEC
:103AE00002D14FF0FF3300E001237B617B69184670
:103AF0001837BD4680BD00BF80B586B000AF786086
:103B000039603B689AB27B68DA807B689B687B612E
:103B10007B69012B05D07B681B689A697B699A4297
:103B200001D8022363E07B69002B08D17B681B6806
:103B30001B78032B03D17B681B689B6A7B617B69C5
:103B4000002B0DD17B681B681B891A463B689A4283
:103B500001D802234BE07B681B689B6A3B612CE029
:103B60007B681B689B781B01FB601BE07B681B6804
:103B700079691846FFF714FD78617B69B3F1FF3F5F
:103B800001D1012333E07B69012B05D97B681B68D8
:103B90009A697B699A4201D8022328E03A68FB6857
:103BA000D31A3B603A68FB689A42DFD27B681B6895
:103BB00079691846FFF7D6FC38617B687A69DA6064
:103BC0003B69002B01D1022311E03B681A093B69D4
:103BD0001A447B681A617B681B6803F134023B68F6
:103BE00003F00F035B011A447B685A6100231846F7
:103BF0001837BD4680BD00BF90B587B000AF786074
:103C000039607B68DB880133FB60FB689BB2002B6B
:103C100003D07B681B69002B01D10423BBE0FB6848
:103C200003F00F03002B40F0A6807B681B695A1C31
:103C30007B681A617B68DB68002B09D17B681B6895
:103C40001B891A46FB689A4200F295800423A2E081
:103C5000FB681B097A6812689278013A1340002BBE
:103C600040F089807B681A687B68DB6819461046DB
:103C7000FFF796FC78617B69012B01D802238AE06B
:103C80007B69B3F1FF3F01D1012384E07B681B68AE
:103C90009A697B699A4262D83B68002B01D1042360
:103CA00079E07B681A687B68DB6819461046FFF785
:103CB0008FFE78617B69002B01D107236BE07B6964
:103CC000012B01D1022366E07B69B3F1FF3F01D1F3
:103CD000012360E07B681B681846FFF72FFB034653
:103CE000002B01D0012356E07B681B6834334FF46E
:103CF000007200211846FFF7C7FA7B681C687B68D2
:103D00001B6879691846FFF72DFC034623630023DF
:103D10003B6115E07B681B6801221A717B681B6898
:103D20001846FFF70BFB0346002B01D0012332E0BE
:103D30007B681B681A6B01321A633B6901333B6174
:103D40007B681B689B781A463B699A42E2D87B687D
:103D50001B687A681268116B3A698A1A1A637B6861
:103D60007A69DA607B681B6879691846FFF7FAFBA5
:103D700002467B681A61FB689AB27B68DA807B68CE
:103D80001B6803F13402FB6803F00F035B011A4464
:103D90007B685A61002318461C37BD4690BD00BFA2
:103DA00080B584B000AF7860396000217868FFF793
:103DB000A3FE0346FB73FB7B002B2DD10023BB60CE
:103DC0007B681A687B681B6919461046FFF7FAFA88
:103DD0000346FB73FB7B002B1DD17B685B691B7863
:103DE000E52B04D07B685B691B78002B07D1BB688F
:103DF0000133BB60BA683B689A4202D10CE00023F1
:103E0000BB6001217868FFF7F7FE0346FB73FB7B7D
:103E1000002BD5D000E000BFFB7B042B01D1072392
:103E2000FB73FB7B18461037BD4680BD80B485B060
:103E300000AF786039603B681B331B781B021AB2F5
:103E40003B681A331B781BB213431BB29BB2FB6057
:103E50007B681B78032B0FD13B6815331B781B0243
:103E60001AB23B6814331B781BB213431BB29BB2CC
:103E70001B04FA681343FB60FB6818461437BD4601
:103E800080BC704780B483B000AF786039607B68D5
:103E90001A333A68D2B21A707B681B333A6892B20E
:103EA000120A92B2D2B21A707B6814333A68120CBA
:103EB000D2B21A707B6815333A68120C92B2120AA9
:103EC00092B2D2B21A7000BF0C37BD4680BC7047A8
:103ED00080B586B000AF786000217868FFF70CFEEF
:103EE0000346FB75FB7D002B01D0FB7D37E07B6833
:103EF0001A687B681B6919461046FFF763FA034688
:103F0000FB75FB7D002B26D17B685B693B613B69C0
:103F10001B78FB73FB7B002B02D10423FB751DE098
:103F20003B690B331B7803F00803002B09D17B6836
:103F30009B690B2219463869FFF7C0F90346002B2D
:103F40000BD000217868FFF757FE0346FB75FB7D19
:103F5000002BCCD002E000BF00E000BFFB7D184684
:103F60001837BD4680BD00BF80B584B000AF786013
:103F700001217868FFF714FF0346FB73FB7B002BDE
:103F80001FD17B681A687B681B6919461046FFF7CA
:103F900019FA0346FB73FB7B002B12D17B685B692C
:103FA000202200211846FFF76FF97B6858697B686B
:103FB0009B690B221946FFF749F97B681B680122B0
:103FC0001A71FB7B18461037BD4680BD80B588B09E
:103FD00000AF786039603B681B68FB6002E0FB68FB
:103FE0000133FB60FB681B782F2BF8D0FB681B7834
:103FF0005C2BF4D07B689B69BB600B222021B868E6
:10400000FFF742F90023FB7700233B613B697B61AB
:104010000823BB61FA687B6913441B782E2B2FD1D0
:104020007B695A1C7A61FA6813441B78BB77BB7FA3
:104030002E2B0AD17B69022B07D83B695A1C3A61A7
:10404000BA681344BA7F1A70EAE7BB7F2F2B07D0F8
:10405000BB7F5C2B04D0BB7F202B01D90623A2E0C1
:10406000FA687B691A443B681A60BB680B33BA7FF5
:10407000202A01D8242200E020221A70002392E096
:104080007B695A1C7A61FA6813441B78BB77BB7F43
:10409000202B53D9BB7F2F2B50D0BB7F5C2B4DD017
:1040A000BB7F2E2B03D03A69BB699A420FD3BB6901
:1040B000082B02D1BB7F2E2B01D0062373E00823EF
:1040C0003B610B23BB61FB7F9B00FB7735E097F9DE
:1040D0001E30002B08DAFB7F43F00303FB77BB7F26
:1040E000803B334AD35CBB77BB7F19463148FFF72F
:1040F0000BF90346002B01D0062354E0BB7F402B75
:1041000007D9BB7F5A2B04D8FB7F43F00203FB7710
:104110000CE0BB7F602B09D9BB7F7A2B06D8FB7FD5
:1041200043F00103FB77BB7F203BBB773B695A1C05
:104130003A61BA681344BA7F1A70A1E7FA687B69DA
:104140001A443B681A60BB7F202B01D8042300E08F
:104150000023BB773B69002B01D1062323E0BB681A
:104160001B78E52B02D1BB6805221A70BB69082BAE
:1041700002D1FB7F9B00FB77FB7F03F00303012B46
:1041800003D1BB7F43F01003BB77FB7F03F00C032D
:10419000042B03D1BB7F43F00803BB77BB680B3311
:1041A000BA7F1A70002318462037BD4680BD00BF75
:1041B000205C0008A05C000880B584B000AF786087
:1041C00039603B681B782F2B03D03B681B785C2B36
:1041D00006D13B6801333B607B6800229A6004E0B3
:1041E0007B681B685A697B689A603B681B781F2B49
:1041F00009D800217868FFF77FFC0346FB737B68D2
:1042000000225A6156E03B4619467868FFF7DEFE09
:104210000346FB73FB7B002B47D17868FFF758FE02
:104220000346FB737B689B69DB7ABB73FB7B002BCC
:104230001DD0FB7B042B3AD1BB7B03F02003002B6A
:104240000DD07B6800229A607B6800225A61BB7B9C
:1042500003F00403002B26D00023FB7327E0BB7B75
:1042600003F00403002B22D10523FB731FE0BB7B6B
:1042700003F00403002B1CD17B685B69BB60BB6847
:104280000B331B7803F01003002B02D10523FB73C3
:1042900010E07B681B68B9681846FFF7C7FD024647
:1042A0007B689A60AFE700BFADE700BF02E000BFE8
:1042B00000E000BFFB7B18461037BD4680BD00BF45
:1042C00080B489B000AF78604FF0FF333B617B680A
:1042D0001B68002B6FD07B681B68BB6102E0BB6969
:1042E0000133BB61BB691B78202B03D9BB691B78E9
:1042F0003A2BF4D1BB691B783A2B59D17B681B68E8
:10430000FB61FB695A1CFA611B78303B7B617B695E
:10431000092B0FD8FA69BB699A420BD17B69082B2C
:1043200044D87B693B61BB690133BB617B68BA6977
:104330001A603BE000237B61BB690133BB61214A0A
:104340007B6952F82330FB607B681B68FB61FB686C
:104350005A1CFA601B78BB72FB695A1CFA611B7805
:10436000FB72FB7A602B05D9FB7A7A2B02D8FB7A99
:10437000203BFB72BB7A002B03D0BA7AFB7A9A42BD
:10438000E5D0BB7A002B03D1FA69BB699A4205D00C
:104390007B6901337B617B69082BD0D97B69082B52
:1043A00004D87B693B617B68BA691A603B6903E0AA
:1043B000054B1B783B613B6918462437BD4680BCE2
:1043C000704700BF385D0008C601002080B582B08C
:1043D00000AF786039607B6800221A717B684FF00B
:1043E000FF321A6339687868FEF7ECFF0346002B4A
:1043F00001D003234AE07B6803F2322301331B78A8
:104400001B021AB27B6893F832321BB213431BB201
:10441000204A934201D0022338E07B686A33033399
:104420001B781A067B686A3302331B781B0413431C
:104430007A686A3201321278120213437A6892F86B
:104440006A20134323F07F43134A934201D1002390
:104450001CE07B68863303331B781A067B6886333F
:1044600002331B781B0413437A68863201321278B8
:10447000120213437A6892F88620134323F07F4395
:10448000054A934201D1002300E001231846083772
:10449000BD4680BD55AAFFFF4641540080B596B089
:1044A00000AFF860B9601346FB71FB6800221A6028
:1044B000B868FFF705FFF863FB6B002B01DA0B23ED
:1044C00093E29B4AFB6B52F82330BB63BB6B002B20
:1044D00001D10C2389E2FB68BA6B1A60BB6B1B78B5
:1044E000002B1AD0BB6B5B781846FCF7ADFA03467D
:1044F00087F8373097F8373003F00103002B0CD1E1
:10450000FB79002B07D097F8373003F00403002B1A
:1045100001D00A2369E2002367E2BB6B00221A7014
:10452000FB6BDAB2BB6B5A70BB6B5B781846FCF75F
:1045300069FA034687F8373097F8373003F00103FC
:10454000002B01D0032350E2FB79002B07D097F812
:10455000373003F00403002B01D00A2345E2002387
:104560003B65396DB86BFFF731FF034687F857306D
:1045700097F85730012B57D100233B642BE0BB6BDE
:1045800003F134023B6C1B0103F5DF7313443B63FF
:104590003B6B04331B78002B12D03B6B0B331B7827
:1045A0001A063B6B0A331B781B0413433A6B093220
:1045B0001278120213433A6B083212781A4300E061
:1045C00000223B6C9B0007F158010B4443F8442C3C
:1045D0003B6C01333B643B6C032BD0D900233B6421
:1045E0003B6C002B02D03B6C013B3B643B6C9B0063
:1045F00007F15802134453F8443C3B653B6D002BD4
:1046000005D0396DB86BFFF7E1FE034600E00223E9
:1046100087F8573097F85730002B05D03B6C0133A3
:104620003B643B6C032BE1D997F85730032B01D146
:104630000123DAE197F85730002B01D00D23D4E1A4
:10464000BB6B93F840301B021AB2BB6B93F83F3040
:104650001BB213431BB2B3F5007F01D00D23C4E19D
:10466000BB6B93F84B301B021AB2BB6B93F84A300A
:104670001BB213431BB29BB2FB64FB6C002B12D129
:10468000BB6B93F85B301A06BB6B93F85A301B0474
:104690001343BA6B92F8592012021343BA6B92F883
:1046A00058201343FB64BB6BFA6CDA61BB6B93F865
:1046B0004420BB6BDA70BB6BDB78012B05D0BB6B86
:1046C000DB78022B01D00D238FE1BB6BDB781A4620
:1046D000FB6C02FB03F3FB64BB6B93F84120BB6BE9
:1046E0009A70BB6B9B78002B08D0BB6B9B781A46EB
:1046F000BB6B9B78013B1340002B01D00D2374E171
:10470000BB6B93F846301B021AB2BB6B93F8453073
:104710001BB213431BB29AB2BB6B1A81BB6B1B89D2
:1047200003F00F039BB2002B04D00D235DE100BF0B
:10473000A0010020BB6B93F848301B021AB2BB6B80
:1047400093F847301BB213431BB29BB2BB64BB6CE4
:10475000002B12D1BB6B93F857301A06BB6B93F842
:1047600056301B041343BA6B92F8552012021343C0
:10477000BA6B92F854201343BB64BB6B93F843307D
:104780001B021AB2BB6B93F842301BB213431BB22D
:10479000FB85FB8D002B01D10D2326E1FA8DFB6CEF
:1047A0001344BA6B1289120992B21344BB62BA6CF9
:1047B000BB6A9A4201D20D2317E1BA6CBB6AD31AC5
:1047C000BA6B9278B3FBF2F37B627B6A002B01D168
:1047D0000D230AE1012387F857307B6A40F6F57212
:1047E000934202D9022387F857307B6A4FF6F5725D
:1047F000934202D9032387F857307B6A9A1CBB6B1C
:104800009A61BB6B3A6D1A62FA8D3B6D1A44BB6BB1
:104810005A623A6DBB6A1A44BB6BDA6297F857303A
:10482000032B1ED1BB6B1B89002B01D00D23DCE0B9
:10483000BB6B93F863301A06BB6B93F862301B04B2
:104840001343BA6B92F8612012021343BA6B92F8C9
:1048500060201A43BB6B9A62BB6B9B699B007B64B5
:104860001FE0BB6B1B89002B01D10D23BDE0BB6B8F
:104870005A6AFB6C1A44BB6B9A6297F85730022B4A
:1048800003D1BB6B9B695B000AE0BB6B9A69134663
:104890005B0013445A08BB6B9B6903F0010313448C
:1048A0007B64BB6BDA697B6C03F2FF135B0A9A4291
:1048B00001D20D2399E0BB6B4FF0FF321A61BB6B45
:1048C0001A69BB6BDA60BB6B80225A7197F857305C
:1048D000032B78D1BB6B93F865301B021AB2BB6B0C
:1048E00093F864301BB213431BB2012B6BD13B6DA9
:1048F00001331946B86BFEF765FD0346002B62D104
:10490000BB6B00225A71BB6B93F833321B021AB295
:10491000BB6B93F832321BB213431BB2354A93423E
:1049200051D1BB6B93F837301A06BB6B93F8363016
:104930001B041343BA6B92F8352012021343BA6B6F
:1049400092F8342013432C4A93423CD1BB6B93F82A
:104950001B321A06BB6B93F81A321B041343BA6B53
:1049600092F8192212021343BA6B92F818221343D9
:10497000224A934227D1BB6B93F81F321A06BB6BB6
:1049800093F81E321B041343BA6B92F81D221202D5
:104990001343BA6B92F81C221A43BB6B1A61BB6BB0
:1049A00093F823321A06BB6B93F822321B0413438D
:1049B000BA6B92F8212212021343BA6B92F82022AA
:1049C0001A43BB6BDA60BB6B97F857201A700C4B1D
:1049D0001B8801339AB20A4B1A80094B1A88BB6BA9
:1049E000DA80BB6B00225A61002318465837BD4657
:1049F00080BD00BF55AAFFFF5252614172724161F2
:104A0000C401002080B584B000AF78607B68FB6093
:104A1000FB68002B0FD0FB681B68002B0BD0FB68DA
:104A20001B681B78002B06D0FB681B68DA88FB68C4
:104A30009B889A4201D009230DE0FB681B685B78D4
:104A40001846FCF701F8034603F00103002B01D0E0
:104A5000032300E0002318461037BD4680BD00BF89
:104A600080B588B000AFF860B9601346FB71BB68D1
:104A70003B6107F110031846FFF722FCF861FB6960
:104A8000002B01DA0B2328E0164AFB6952F8233089
:104A9000BB61BB69002B02D0BB6900221A70FB68A6
:104AA000002B02D0FB6800221A70FA680D49FB69DE
:104AB00041F82320FB68002B02D0FB79012B01D0A9
:104AC00000230AE007F1080107F10C030022184651
:104AD000FFF7E4FC0346FB75FB7D18462037BD4617
:104AE00080BD00BFA001002080B594B000AFF86089
:104AF000B9601346FB71FB68002B01D109232FE13C
:104B0000FB6800221A60FB7903F01F03FB71FB793D
:104B100023F00103DAB207F1080107F12003184678
:104B2000FFF7BCFC034687F84F3097F84F30002B57
:104B300040F0148107F11403BB63BA6807F1200346
:104B400011461846FFF738FB034687F84F307B6B5A
:104B5000BB6497F84F30002B05D1BB6C002B02D102
:104B6000062387F84F30FB7903F01C03002B00F07D
:104B70008F8097F84F30002B12D097F84F30042BCE
:104B800007D107F120031846FFF7EEF9034687F82F
:104B90004F30FB7943F00803FB717B6BBB6412E081
:104BA000BB6C0B331B7803F01103002B03D00723DE
:104BB00087F84F3007E0FB7903F00403002B02D0A5
:104BC000082387F84F3097F84F30002B7ED1FB79C0
:104BD00003F00803002B79D0FBF7E0FF7864BB6C8F
:104BE0000E337A6CD2B21A70BB6C0F337A6C92B2FD
:104BF000120A92B2D2B21A70BB6C10337A6C120CD9
:104C0000D2B21A70BB6C11337A6C120ED2B21A7017
:104C1000BB6C0B3300221A70BB6C1C3300221A7061
:104C2000BB6C1D3300221A70BB6C1E3300221A703D
:104C3000BB6C1F3300221A703B6AB96C1846FFF731
:104C4000F5F838640021B86CFFF71CF93B6A0122C3
:104C50001A713B6C002B39D03B6A1B6B7B643B6A3F
:104C6000396C1846FEF760FE034687F84F3097F818
:104C70004F30002B2AD13B6A3A6C013ADA603B6A2A
:104C8000796C1846FEF79EFB034687F84F301DE00F
:104C900097F84F30002B19D1BB6C0B331B7803F006
:104CA0001003002B03D0042387F84F300EE0FB796C
:104CB00003F00203002B09D0BB6C0B331B7803F00D
:104CC0000103002B02D0072387F84F3097F84F30AD
:104CD000002B0FD1FB7903F00803002B03D0FB79E5
:104CE00043F02003FB713B6A1A6BFB68DA61FB68D7
:104CF000BA6C1A6297F84F30002B2FD1FB68FA7903
:104D00009A71FB680022DA713B6AB96C1846FFF7AA
:104D10008DF80246FB681A61BB6C1F331B781A06BC
:104D2000BB6C1E331B781B041343BA6C1D32127804
:104D300012021343BA6C1C3212781A43FB68DA6011
:104D4000FB6800229A60FB6800229A613A6AFB685D
:104D50001A60FB681B68DA88FB689A8097F84F3006
:104D600018465037BD4680BD80B58AB000AFF860A8
:104D7000B9607A603B60BB68BB613B6800221A6027
:104D8000F868FFF73FFE0346FB75FB7D002B01D063
:104D9000FB7D51E1FB68DB79002B02D0FB68DB79FE
:104DA0004AE1FB689B7903F00203002B01D1072342
:104DB00042E1FB689A687B681A44FB689B689A42E8
:104DC00080F0228100237B601EE1FB689B68C3F3B7
:104DD0000803002B40F0E380FB689B685B0ADAB2B3
:104DE000FB681B689B78013BDBB21340BB75BB7D46
:104DF000002B39D1FB689B68002B0DD1FB681B6928
:104E00007B627B6A002B10D1FB681B68002118466F
:104E1000FEF7DEFD786208E0FB681A68FB685B69F4
:104E200019461046FEF7D4FD78627B6A002B00F02D
:104E3000F0807B6A012B04D1FB680222DA71022325
:104E4000FAE07B6AB3F1FF3F04D1FB680122DA711B
:104E50000123F1E0FB687A6A5A61FB681B69002B49
:104E600002D1FB687A6A1A61FB689B7903F0400300
:104E7000002B19D0FB681B685878FB6803F12401EC
:104E8000FB689A690123FBF731FE0346002B04D02F
:104E9000FB680122DA710123CEE0FB689B7923F0E5
:104EA0004003DAB2FB689A71FB681A68FB685B69B9
:104EB00019461046FEF756FB38613B69002B04D1BA
:104EC000FB680222DA710223B6E0BB7D3A69134423
:104ED0003B617B685B0AFB61FB69002B3FD0BA7DBD
:104EE000FB691344FA6812689278934206D9FB680A
:104EF0001B689B781A46BB7DD31AFB61FB681B6855
:104F00005878FB693A69B969FBF7F0FD0346002B55
:104F100004D0FB680122DA7101238DE0FB689A69F5
:104F20003B69D21AFB699A4215D2FB6803F124004F
:104F3000FB689A693B69D31A5B02BA6913444FF460
:104F400000721946FEF782F9FB689B7923F0400353
:104F5000DAB2FB689A71FB695B023B6240E0FB6876
:104F60009A693B699A4217D0FB689A68FB68DB68CC
:104F70009A4211D2FB681B685878FB6803F1240140
:104F800001233A69FBF784FD0346002B04D0FB683C
:104F90000122DA7101234FE0FB683A699A61FB68EC
:104FA0009B68C3F30803C3F500733B623A6A7B68EE
:104FB0009A4201D97B683B62FB689B68C3F3080394
:104FC0002033FA68134404333A6AB9691846FEF785
:104FD0003DF9FB689B7943F04003DAB2FB689A71B4
:104FE000BA693B6A1344BB61FB689A683B6A1A441E
:104FF000FB689A603B681A683B6A1A443B681A600F
:105000007A683B6AD31A7B607B68002B7FF4DDAE45
:1050100000E000BFFB689A68FB68DB689A4203D92E
:10502000FB689A68FB68DA60FB689B7943F02003B1
:10503000DAB2FB689A71002318462837BD4680BD56
:1050400080B586B000AF78607868FFF7DBFC034678
:10505000FB75FB7D002B40F096807B689B7903F00D
:105060002003002B00F08F807B689B7903F04003C6
:10507000002B16D07B681B6858787B6803F12401ED
:105080007B689A690123FBF731FD0346002B01D0B1
:10509000012379E07B689B7923F04003DAB27B68D7
:1050A0009A717B681A687B68DB6919461046FEF7BF
:1050B00089F90346FB75FB7D002B64D17B681B6A75
:1050C0003B613B690B333A690B32127842F02002A4
:1050D000D2B21A703B691C337A68D268D2B21A70A5
:1050E0003B691D337A68D26892B2120A92B2D2B288
:1050F0001A703B691E337A68D268120CD2B21A70E9
:105100003B691F337A68D268120ED2B21A707B687C
:105110001B6919463869FEF7B5FEFBF73FFDF860DD
:105120003B691633FA68D2B21A703B691733FA68D2
:1051300092B2120A92B2D2B21A703B691833FA686C
:10514000120CD2B21A703B691933FA68120ED2B23D
:105150001A703B69123300221A703B691333002224
:105160001A707B689B7923F02003DAB27B689A710E
:105170007B681B6801221A717B681B681846FEF762
:105180004FF90346FB75FB7D18461837BD4680BDB9
:1051900080B584B000AF78607868FFF751FF0346B0
:1051A000FB73FB7B002B0AD17868FFF72BFC0346CF
:1051B000FB73FB7B002B02D17B6800221A60FB7B18
:1051C00018461037BD4680BD80B584B000AF78600A
:1051D0000B46FB70FB780A2B03D10D217868FFF793
:1051E000F3FF7B685B68FB60FB68002B25DBFB68DB
:1051F0005A1CFA607A681344FA781A73FB683C2BDD
:1052000012DD7B6818687B6803F10C01FA6807F10E
:105210000803FFF7A9FDBA68FB689A4201D1002391
:1052200001E04FF0FF33FB607B68FA685A607B68EF
:105230009B685A1C7B689A6000E000BF1037BD462F
:1052400080BD00BF90B597B000AF786039603B6813
:10525000FB6000233B613B697B6109E07B685A1C72
:105260007A601A7807F10C0311461846FFF7ACFF75
:105270007B681B78002BF1D13B69002B16DBF868AB
:105280003B691C4607F1080207F10C0303F10C010E
:1052900013462246FFF768FD0346002B06D13B6903
:1052A0001A46BB689A4201D17B6901E04FF0FF3397
:1052B00018465C37BD4690BD80B485B000AF7860BD
:1052C00039600023FB817B681B88FB81FB8903F429
:1052D0004153FB813B681A883B685B8813439AB251
:1052E0003B689B8813439AB23B68DB8813439AB2AE
:1052F0003B681B8913439AB23B685B8913439AB29C
:105300003B689B8913439AB23B68DB8913439AB28B
:10531000FB891343FB817B68FA891A807B689B8B2E
:105320009BB223F400639AB27B689A833B681A8A23
:105330007B681A8200BF1437BD4680BC704700BF2F
:1053400080B483B000AF78607B6800221A807B68ED
:1053500000225A807B6800229A807B680022DA80D3
:105360007B6800221A817B6800225A817B680022B8
:105370009A817B680022DA817B6807221A8200BF4B
:105380000C37BD4680BC704780B58AB000AF7860EE
:1053900039600023FB8400237B840423BB84574BA8
:1053A000FB617B689B88FB84FB8C23F03F03FB84C1
:1053B00007F10C031846FBF70BFD7B69FB61FB69EA
:1053C0004F4AA2FB03239B0C7B84FA8C7B8C1343F8
:1053D000FB847B68FA8C9A807B681B889BB223F0E5
:1053E00001039AB27B681A800023FB843B681B6828
:1053F000444A934215D83B681B685B00FA69B2FBCC
:10540000F3F3BB84BB8C032B01D80423BB84FA8C3D
:10541000BB8C1343FB847B8C01339AB27B681A8468
:1054200040E03B68DB884BF6FF72934209D13B6852
:105430001A6813465B001344FA69B2FBF3F3BB84AA
:105440000EE03B681A6813469B0013449A0013440D
:10545000FA69B2FBF3F3BB84BB8C43F48043BB8497
:10546000BB8CC3F30B03002B03D1BB8C43F00103B4
:10547000BB84BA8CFB8C13439BB26FEA43436FEA45
:105480005343FB847B8C4FF4967202FB03F31E4A5A
:1054900082FB03129211DB17D31A9BB201339AB22B
:1054A0007B681A847B68FA8C9A837B681B889BB222
:1054B00043F001039AB27B681A807B681B88FB84E7
:1054C000FB8C23F4816323F00203FB843B689A88FE
:1054D0003B685B8913439AB2FB8C1343FB847B6864
:1054E000FA8C1A803B689A893B681B8913439AB2ED
:1054F0007B681A8100BF2837BD4680BD00127A0044
:1055000083DE1B43A0860100D34D621080B483B0BC
:1055100000AF78600B46FB70FB78002B08D07B68EF
:105520001B889BB243F001039AB27B681A8007E0A4
:105530007B681B889BB223F001039AB27B681A80B8
:1055400000BF0C37BD4680BC704700BF80B483B03D
:1055500000AF78600B46FB70FB78002B08D07B68AF
:105560001B889BB243F480739AB27B681A8007E071
:105570007B681B889BB223F480739AB27B681A8085
:1055800000BF0C37BD4680BC704700BF80B483B0FD
:1055900000AF78600B46FB70FB78002B08D07B686F
:1055A0001B889BB243F400739AB27B681A8007E0B1
:1055B0007B681B889BB223F400739AB27B681A80C5
:1055C00000BF0C37BD4680BC704700BF80B483B0BD
:1055D00000AF78600B46FB701346BB70BB78002BA6
:1055E00004D0FB7843F00103FB7003E0FB7823F069
:1055F0000103FB70FB789AB27B681A8200BF0C37FC
:10560000BD4680BC704700BF80B483B000AF7860F7
:105610000B46FB70FB789AB27B681A8200BF0C378E
:10562000BD4680BC704700BF80B487B000AF7860D3
:10563000396000233B610023FB600023BB60002333
:10564000FB757B689B8A9BB2FB607B681B8B9BB264
:10565000BB60BB681B04BB60FA68BB68134323F0E4
:105660007F433B613A693B681A403B689A4202D1EA
:105670000123FB7501E00023FB75FB7D18461C37F9
:10568000BD4680BC704700BF80B487B000AF786073
:1056900039600023FB7500233B610023FB607B68BE
:1056A000FB603B681B0F3B613B6823F07F433B6023
:1056B0003B69002B03D0FB681433FB6005E03B68BB
:1056C0001B0C3B60FB681833FB60FB681A683B6887
:1056D0001340002B02D00123FB7501E00023FB7572
:1056E000FB7D18461C37BD4680BC704780B485B032
:1056F00000AF78600023FB730023BB730F237B7321
:105700007B68DB78002B38D0264BDB68DB4303F467
:10571000E0631B0AFB73FB7BC3F10403BB737A7B5F
:10572000FB7B42FA03F37B737B685B781A46BB7B97
:1057300002FA03F3FB737B689A787B7B1340DAB23F
:10574000FB7B1343FB73FB7B1B01FB73164A7B68DC
:105750001B781344FA7B83F80023134A7B681B7879
:105760005B09DBB218467B681B7803F01F0301213D
:1057700001FA03F342F820300FE00B497B681B78F5
:105780005B09DBB218467B681B7803F01F0301221C
:105790009A4000F1200341F8232000BF1437BD4692
:1057A00080BC704700ED00E000E100E080B584B00F
:1057B00002AF7860084611461A4603467B800B46C6
:1057C0007B7013463B707B88002B0ED0786800F00E
:1057D0008DF838787A7879883B7D01933B7C00930B
:1057E0000346786800F09AF800E000BF0837BD462D
:1057F00080BD00BF80B586B002AF78600846114614
:105800001A4603467B800B467B7013463B707B88B1
:10581000002B3ED0786800F069F80023FB6029E097
:105820007A88FB6842FA03F303F00103002B1DD0D2
:10583000FB68DA08FB68D9087B68083153F8213027
:10584000F96801F0070189000F2000FA01F1C9434E
:105850000B40387FF96801F00701890000FA01F177
:1058600019437B68083243F8221000E000BFFB6850
:105870000133FB60FB680F2BD2D97A7879883B7EA5
:1058800001933B78009313460222786800F046F8B3
:1058900000E000BF1037BD4680BD00BF80B485B0BA
:1058A00000AF0346FB800023FB8105E0FB89013349
:1058B000FB81FB885B08FB80FB88012BF6D8FB890A
:1058C00018461437BD4680BC704700BF80B483B013
:1058D00000AF78607B6803F13F4303F57E039B0ACA
:1058E0009BB218460C37BD4680BC704780B582B06D
:1058F00000AF78607868FFF7E9FF03461A46012396
:1059000003FA02F1044A044B1B6B0B43136300BF01
:105910000837BD4680BD00BF0038024080B584B066
:1059200000AF7860084611461A4603467B800B4656
:105930007B7013463B707868FFF7C8FF0346BB7364
:105940000023FB7367E07A88FB7B42FA03F303F0E2
:105950000103002B5BD0BB7BBA7B324931F81220AC
:1059600011B2FA7B012000FA02F212B20A4312B21B
:1059700091B22C4A22F813107B68DB68FA7B520044
:10598000032101FA02F2D2431340397EFA7B52001E
:1059900001FA02F21A437B68DA607B681A68FB7BC3
:1059A0005B00032101FA03F3DB4313407978FA7BB0
:1059B000520001FA02F21A437B681A607B78012BCD
:1059C00002D07B78022B23D17B685B68FA7B0121B4
:1059D00001FA02F292B2D24313403978FA7B01FA0B
:1059E00002F292B21A437B685A607B689A68FB7B2A
:1059F0005B00032101FA03F3DB431340397FFA7B99
:105A0000520001FA02F21A437B689A6000E000BF7C
:105A1000FB7B0133FB73FB7B0F2B94D900BF10374B
:105A2000BD4680BDC801002080B485B000AF78605D
:105A300039600023FB817B681B88FB817B68284AD7
:105A4000934213D07B68274A93420FD07B68B3F10F
:105A5000804F0BD07B68244A934207D07B68234A4F
:105A6000934203D07B68224A934208D1FB8923F0FA
:105A70007003FB813B685A88FB891343FB817B6879
:105A80001C4A93420CD07B681B4A934208D0FB8986
:105A900023F44073FB813B681A89FB891343FB8124
:105AA0007B68FA891A803B685A687B68DA623B68CF
:105AB0001A887B681A857B68094A934203D07B6801
:105AC000084A934204D13B689B7A9AB27B681A8653
:105AD0007B6801229A8200BF1437BD4680BC7047A4
