:020000040800F2
:1000000000270020252700088127000881270008F5
:1000100081270008812700088127000800000000D0
:100020000000000000000000000000008127000820
:100030008127000800000000812700087D48000893
:1000400081270008812700088127000881270008F0
:100050008127000881270008A1160008C51600089E
:10006000E91600080D17000831170008812700085D
:1000700081270008812700088127000881270008C0
:1000800081270008812700088127000881270008B0
:1000900081270008812700088127000855170008DC
:1000A0008127000881270008812700088127000890
:1000B000994D000881270008812700088127000842
:1000C0008127000881270008812700088127000870
:1000D0008127000879330008A9330008D9330008C4
:1000E000E117000881270008812700088127000800
:1000F0008127000881270008812700083D62000849
:10010000812700088127000881270008812700082F
:1001100009340008393400088127000881270008C5
:10012000812700088127000881270008812700080F
:1001300081270008812700088127000881270008FF
:10014000812700088127000881270008D16800085E
:1001500081270008812700088127000869340008EA
:1001600081270008812700088127000881270008CF
:1001700081270008812700088127000881270008BF
:10018000812700088127000880B485B000AF78601F
:100190000023FB607B68DB684FF0FF325A607B68AE
:1001A000DB686FF080425A61FB7B43F08003FB7396
:1001B0007B7B43F008037B737B68DB68FA689A619A
:1001C00000BF1437BD4680BC704700BF80B586B005
:1001D00000AF78600023FB7400237B610023FB6089
:1001E000032006F043FB7B68DB681B69FB607B69CF
:1001F00001337B617B69184A934201D9002326E0D1
:10020000FB68C3F3C073DBB2002BE9D000237B6132
:10021000FB6843F00103FB607B68DB68FA681A61E6
:100220007B68DB681B69FB607B6901337B617B69F1
:10023000094A934206D8FB68C3F30003DBB2012BE3
:10024000EED000E000BF032006F010FBFB7C184658
:100250001837BD4680BD00BF400D030080B489B093
:1002600000AFF860B96011461A460B46FB711346A1
:10027000BB800023FB76FB68DB78002B22D10023B8
:100280007B610023FB61BB880333002B00DA03335F
:100290009B107B61FB79FA6832339B0013449B68A7
:1002A0003B610023FB6109E0BB681A683B691A6087
:1002B000FB690133FB61BB680433BB60FA697B698E
:1002C0009A42F1D3FB7E18462437BD4680BC704766
:1002D00080B489B000AFF860B9601346FB8000239A
:1002E000FB61FB880333002B00DA03339B10BB61F7
:1002F000FB68D3F8D0307B610023FB6109E07B69A8
:100300001A68BB681A60FB690133FB61BB68043380
:10031000BB60FA69BB699A42F1D3BB6818462437BF
:10032000BD4680BC704700BF80B487B000AF786026
:100330000B46FB7000233B610023FB737B680022AC
:10034000DA707B6801229A707B6840229A80FB7881
:10035000012B13D14FF0A0433B617B680122DA727D
:100360007B6808221A707B6804225A707B684FF4FD
:10037000A072DA807B6802221A7211E0FB78002BEF
:100380000ED1454B3B617B680022DA727B680C2200
:100390001A707B6806225A707B684FF4A062DA807C
:1003A0003A697B68DA603B6903F500631A467B684B
:1003B0001A6100237B611CE07B695A013B6913448D
:1003C00003F5106319467A687B6904339B00134474
:1003D00099607B695A013B69134403F53063194600
:1003E0007A687B6914339B00134459607B6901333D
:1003F0007B617B685B781A467B699A42DCD83B69F3
:1004000003F580631A467B685A613B6903F588638C
:100410001A467B68C3F8CC2000237B610FE07B6920
:100420005A013B69134403F5A06319467A687B6956
:1004300022339B00134499607B6901337B617B68A5
:100440001B781A467B699A42E9D800237B610FE04A
:100450007B691A033B69134403F5805319467A6894
:100460007B6932339B00134499607B6901337B6164
:100470007B681B781A467B699A42E9D83B6903F589
:1004800060631A467B68C3F80C21FB7B18461C3757
:10049000BD4680BC704700BF0000044080B586B0F8
:1004A00000AF78600023FB7500233B610023FB60F5
:1004B0000023BB607B681B7A012B42D17B68DB6821
:1004C0009B6BFB60BB7B6FF30003BB737B685B7A4A
:1004D000002B03D0BB7B43F01003BB737B68DB684E
:1004E000FA689A6300233B617B68DB68DB683B61E9
:1004F0003B7C6FF386133B74BB7C6FF38613BB743A
:10050000BB7C6FF34103BB74BB7C6FF3C303BB7451
:100510007B68DB683A69DA607868FFF757FE7B68CA
:10052000DB78012B3DD13B7A052262F344033B7219
:100530003B7A43F020033B727B68DB68BA689A60C1
:100540002FE07B68DB68DB683B613B7C43F040036A
:100550003B747B68DB683A69DA607868FFF736FEDF
:100560000023FB60BB7B43F00103BB73BB7B43F009
:100570000403BB73BB7B43F00803BB73BB7B43F03B
:100580002003BB737B685B7A002B03D0BB7B43F0FB
:100590001003BB737B68DB68FA689A63142006F06B
:1005A00087F97B68DB78012B10D17B68DB689B685F
:1005B000BB603B7A052262F344033B723B7A43F013
:1005C00020033B727B68DB68BA689A60FB7D184643
:1005D0001837BD4680BD00BF80B485B000AF7860DD
:1005E0000023FB730023BB603B7A43F001033B72A3
:1005F0007B68DB687A68D2689168BA680A439A6057
:10060000FB7B18461437BD4680BC704780B485B06C
:1006100000AF78600023FB730023BB603B7A43F09C
:1006200001033B727B68DB687A68D2689168BA68BC
:10063000D2430A409A60FB7B18461437BD4680BC03
:10064000704700BF80B586B000AF78603960002386
:10065000FB7400237B610023FB60FB6843F02003F5
:10066000FB603B68DBB203F01F03DAB2FB6862F3A6
:100670008A13FB607B68DB68FA681A617B68DB6859
:100680001B69FB607B6901337B617B69094A93428B
:1006900006D8FB68C3F34013DBB2012BEED000E0B9
:1006A00000BF032006F0E2F8FB7C18461837BD4671
:1006B00080BD00BF400D030080B586B000AF7860FC
:1006C0000023FB7400237B610023FB60FB6843F085
:1006D0001003FB607B68DB68FA681A617B68DB6883
:1006E0001B69FB607B6901337B617B69094A93422B
:1006F00006D8FB68C3F30013DBB2012BEED000E099
:1007000000BF032006F0B2F8FB7C18461837BD4640
:1007100080BD00BF400D030080B584B000AF78609D
:100720000B46FB700023FB737B68DB68DB68BB60F8
:10073000FB7A6FF34513FB72FB7A6FF38613FB7240
:10074000FB78012B04D1FB7A43F02003FB7206E017
:10075000FB78002B03D1FB7A43F04003FB727B68EC
:10076000DB68BA68DA60322006F0A2F8FB7B184634
:100770001037BD4680BD00BF80B483B000AF786045
:100780007B68DB685B6903F0010318460C37BD46E4
:1007900080BC704780B582B000AF78607868FFF7A2
:1007A000EBFF0346012B0CBF01230023DBB21846ED
:1007B0000837BD4680BD00BF80B485B000AF78600B
:1007C0000023FB607B68DB685B69FB607B68DB6840
:1007D0009B69FA681340FB60FB6818461437BD46F6
:1007E00080BC704780B588B000AF78600023FB768E
:1007F0000023FB6100237B6100233B610023FB603E
:10080000786806F00BF87B68D3F80C3100221A6088
:100810007B681B7A012B04D10021786800F0F0F886
:1008200003E00121786800F0EBF8786800F030F917
:100830007B685B691B68FB603B7B6FF382033B73E8
:100840007B685B69FA681A607B68DB7A012B14D1DC
:100850007B68DB6880225A628023BB826023FB8234
:100860007B68DB687A699A62E0233B8260237B8243
:100870007B68DB683A69C3F8002110217868FFF7CC
:10088000E1FE7868FFF718FF0023FB6113E07A6848
:10089000FB6922339B0013449B684FF0FF329A6040
:1008A0007A68FB6922339B0013449B680022DA605C
:1008B000FB690133FB617B681B781A46FB699A422E
:1008C000E5D80121786800F01DF8786800F058F844
:1008D000FB7E18462037BD4680BD00BF80B483B084
:1008E00000AF78607B685B699B6803F00103002BB5
:1008F0000CBF01230023DBB218460C37BD4680BC79
:10090000704700BF80B584B000AF78600B46FB70C5
:100910000023FB60FB781946786805F065FF78686E
:1009200000F08AF80346FB607B7B03F01003DBB228
:10093000002B0BD1FB78012B08D17B7B43F01003FC
:100940007B737B68D3F8CC30FA681A607B7B03F04A
:100950001003DBB2002B0BD0FB78002B08D17B7B84
:100960006FF304137B737B68D3F8CC30FA681A609A
:10097000C82005F09DFF00BF1037BD4680BD00BFF9
:1009800080B584B000AF78600023FB730023BB60A8
:100990007B68DB6800229A617B68DB684FF0FF327E
:1009A0005A617868FFF7F0FB7B68DB78002B03D196
:1009B0003B7A43F010033B72FB7A43F00103FB7276
:1009C000FB7A43F00203FB72FB7A43F02003FB72D5
:1009D0003B7A43F008033B72BB7A43F02003BB72BF
:1009E0007B68DB687A68D2689169BA68D243114043
:1009F000BA680A439A61FB7B18461037BD4680BD32
:100A000080B485B000AF78600B46FB707B685B6993
:100A10001B68FB60FB7803F00303DAB23B7B62F3F5
:100A200001033B737B685B69FA681A6000BF143787
:100A3000BD4680BC704700BF80B485B000AF786011
:100A40007B68D3F8CC301B68FB603B7B6FF3820381
:100A50003B733B7B6FF341033B733B7B6FF3C30300
:100A60003B733B7B6FF345133B73FB6818461437AE
:100A7000BD4680BC704700BF80B483B000AF7860D3
:100A80007B685B695B6918460C37BD4680BC704764
:100A900080B584B000AF78607868FFF7CDFF03467B
:100AA000FB607B7B43F001037B737B68D3F8CC3026
:100AB000FA681A600A2005F0FBFE7B7B6FF30003E7
:100AC0007B737B68D3F8CC30FA681A60142005F089
:100AD000EFFE012318461037BD4680BD80B489B0B3
:100AE00000AF78600B46FB700023FB770023BB61EF
:100AF00000233B6100237B610023FB604FF0FF3349
:100B0000BB60FB787A6822339B0013449B68BA6809
:100B10009A6000237B617B68DB78012B03D13B7DEE
:100B200043F004033B75FB787A685B01134403F2DE
:100B3000B1331B78032B00F2888001A252F823F016
:100B4000510B0008050C0008510B0008B90B0008F8
:100B50003B7D43F001033B753B7D43F008033B7550
:100B60003B7D43F080033B757B7D43F004037B7545
:100B70003B7D43F010033B75FB787A685B011344BF
:100B800003F2AE331B78002B04D07B7D43F00103CE
:100B90007B7555E03B7D43F040033B75FB787A68FD
:100BA0005B01134403F56C731B78002B48D03B7D2D
:100BB00043F020033B7543E03B7D43F001033B756D
:100BC0003B7D43F010033B753B7D43F008033B75D1
:100BD0003B7D43F080033B757B7D43F004037B75D5
:100BE0007B7D43F002037B75FB787A685B011344DD
:100BF00003F2AE331B78002B24D07B7D43F001033E
:100C00007B751FE03B7D43F001033B757B7D43F02B
:100C100002037B753B7D43F020033B75FB787A68CC
:100C20005B01134403F2AE331B78002B0CD03B7DE9
:100C300043F080033B757B7D43F001037B7503E04C
:100C400000BF02E000BF00E000BFFB787A682233FB
:100C50009B0013449B687A69DA60FB78012202FAF0
:100C600003F3BB617B685B697A6852699169BA6911
:100C70000A439A61FB7C43F00203FB747B68DB68E8
:100C80007A68D26891693A690A439A610023FB60E5
:100C9000FB787A685B01134403F56B731B7803F0F0
:100CA0007F03DAB2FB8962F38C13FB81FB787A68ED
:100CB0005B01134403F2AD331B7803F00F03DAB288
:100CC0007B7B62F3C6037B73FB787A685B0113441A
:100CD00003F2AE331B7803F00103DAB27B7B62F3DD
:100CE000C7137B73FB787A685B01134403F2AF335D
:100CF0001B78022B0CBF01230023DAB2BB7B62F30B
:100D00004103BB73FB787A685B01134403F2B13390
:100D10001B7803F00303DAB2BB7B62F38303BB737C
:100D2000FB787A685B01134403F2B2331B88C3F388
:100D30000A039AB2BB8962F30A03BB81FB787A6823
:100D40005B01134403F2B1331B78032B03D1FB7B0C
:100D500043F02003FB73FB787A6822339B00134433
:100D60009B68FA681A60FB7F18462437BD4680BC32
:100D7000704700BF80B58CB000AF78600B46FB7049
:100D8000002387F82D3000237B854FF480733B854B
:100D900000233B6200237B620023BB60FB787A6800
:100DA0005B01134403F56F731B68002B32D0FB7893
:100DB0007A685B01134403F56F731B68FA787968EE
:100DC00052010A4402F2B23212881344013BFA780B
:100DD000796852010A4402F2B2321288B3FBF2F38C
:100DE000FB85FA8D3B8D9A4216D93B8DFB85FB78AE
:100DF000FA8DF97878684901014401F2B231098825
:100E000001FB02F211467A685B01134403F56F732C
:100E1000196001E00123FB85FB787A685B011344CC
:100E200003F2AE331B78002B11D0FB78FA8DF978E2
:100E300078684901014401F2B231098801FB02F2EC
:100E400011467A685B01134403F56F731960FB78F0
:100E50007A685B01134403F56F731B68C3F31202D6
:100E60003B6A62F312033B62FB8DC3F309039AB240
:100E70007B8C62F3CC037B84FB787A6815335B014F
:100E8000134403F58A731B7803F00303DAB297F86F
:100E9000233062F3461387F82330FB787A682233D5
:100EA0009B0013449B683A6A1A617B68DB78012BCC
:100EB0000ED1FB787A6822339B0013449B68FA7842
:100EC0007968153252010A4402F58C7212685A612F
:100ED000FB787A6822339B0013449B681B687B6213
:100EE0007868FFF7FBFC034603F00103DAB297F8DA
:100EF000273062F3451387F8273097F8273043F0FF
:100F0000800387F8273097F827306FF3861387F828
:100F10002730FB787A6822339B0013449B687A6AF7
:100F20001A607B68DB78002B7DD1FB787A685B01E7
:100F3000134403F2AE331B78002B74D1FB787A682C
:100F40005B01134403F56F731B68002B6BD0FB78B8
:100F50007A685B01134403F2B1331B78032B49D841
:100F600001A252F823F000BF790F0008B70F000864
:100F7000790F0008B70F00087B68DB68DB6A7B61CC
:100F8000FB787A685B01134403F56F731B680333C6
:100F90009B087B85BB8A7A8D9A422DD93B7A43F098
:100FA00020033B727B68DB687A68D2689169BA6813
:100FB0000A439A6120E07B685B691B69FB60FB78F0
:100FC0007A685B01134403F56F731B6803339B0856
:100FD0007B85BB897A8D9A4210D9FB7A43F0040352
:100FE000FB727B68DB687A68D2689169BA680A43E9
:100FF0009A6103E000BF02E000BF00E000BFFB78A1
:101000007A6815335B01134403F58C731968FB7818
:101010007A685B01134403F56F731B689BB2FA781F
:101020007868FFF71BF997F82D3018463037BD4622
:1010300080BD00BF80B48BB000AF78600B46FB7002
:10104000002387F827300023BB6100233B61FB7836
:101050007A6822339B0013449B681B68FB60FB7B10
:1010600043F08003FB73FB7B43F04003FB73BB7BCC
:1010700003F00C03DBB2002B05D0BB7B03F00C03A9
:10108000DBB2082B0BD17B68DB68DB6ABB61BB7E04
:10109000002B0FD1FB7B6FF3C713FB730AE07B6858
:1010A0005B691B693B61BB7C002B03D1FB7B6FF34E
:1010B000C713FB73FB787A6822339B0013449B6849
:1010C000FA681A6097F8273018462C37BD4680BC5E
:1010D000704700BF80B487B000AF78600B46FB70EC
:1010E0000023FB750023FB60FB7B43F08003FB7355
:1010F000FB89012262F3CC03FB81FB787A682233FF
:101100009B0013449B68FA681A61FB787A68223363
:101110009B0013449B681B683B61FB7C43F080038E
:10112000FB74FB7C6FF38613FB74FB787A682233C5
:101130009B0013449B683A691A60FB7D18461C3774
:10114000BD4680BC704700BF80B586B000AF7860F8
:101150000B46FB700023FB75FB78012B02D131237A
:101160003B7201E030233B723A237B7278680AF0CD
:1011700047F9024607F108030233796818460AF076
:1011800097F878680AF03CF90346023307F1180231
:101190001344002203F8102C07F10803012219461A
:1011A000074807F0A1F90346002B04D10123FB7582
:1011B000044B00221A70FB7D18461837BD4680BDCF
:1011C000B80C0020C801002080B582B000AF012318
:1011D000FB71404B1B78002B17D13F4B00221A703C
:1011E0003E4B4FF480621A603C4B1B6801333C4A13
:1011F00013604FF400713B4804F0C6FF3A4B0122E4
:101200001A70344B01221A705EE0324B1B78012BAE
:101210005AD1334B1A68314B1B689A424CD303F0B6
:10122000A5FD0346002B07D0304807F07DFC294B75
:1012300002221A700023FB712B4B1B78002B15D058
:10124000254B1B78002B07D1244B1A68244B2549CA
:10125000264807F089FA06E0204B1A68204B2449FB
:10126000224807F081FA204B00221A70214B1B788C
:10127000DBB2002B28D01F4B00221A701A4B012220
:101280001A70154B1B78002B05D14FF400711548CF
:1012900004F0BCFF04E04FF40071154804F0B6FF01
:1012A0000D4B1B78002B03D10B4B01221A700BE066
:1012B000094B00221A7007E00C4807F035FC054B7B
:1012C00002221A700023FB71FB7918460837BD46CD
:1012D00080BD00BFC8010020C9010020CC01002052
:1012E000D0010020B4040020D4010020B80C00205C
:1012F000B80800207C01002080B584B000AF012137
:101300004FF4001001F098FC0D4B3B600023BB80B4
:101310004BF6FF73FB8000233B8100237B814FF45E
:101320008043BB813B461946064808F015F8012169
:10133000044808F0D3F800BF1037BD4680BD00BF99
:10134000A08601000054004080B582B000AF7860F4
:101350000B46FB701346BB7000BF4FF4003178683A
:1013600008F07AF90346002BF7D10121786808F0DC
:10137000D5F800BF1349786808F03EF90346002B02
:10138000F8D0BA78FB781946786808F007F9BB7886
:10139000002B08D100BF0C49786808F02DF90346EE
:1013A000002BF8D00AE0BB78012B07D100BF07491A
:1013B000786808F021F90346002BF8D000BF083701
:1013C000BD4680BD0100030082000700020003004B
:1013D00080B582B000AF78600B46FB70FB78194691
:1013E000786808F0F9F800BF0549786808F004F952
:1013F0000346002BF8D000BF0837BD4680BD00BFB4
:101400008400070080B582B000AF78600121786861
:1014100008F0A4F800BF0837BD4680BD90B589B07C
:1014200002AF78600B467B8013467B707B88002B75
:1014300005D07A887B88013B1340002B21D0002304
:101440007B7519E07A887B7D42FA03F303F0010390
:10145000002B0ED07B7D012202FA03F39BB27A7837
:1014600019467868FFF7DAFF0346002B01D0012305
:101470000CE17B7D01337B757B7D0F2BE2D9002353
:1014800004E1844B1A687B881340002B05D1814B03
:101490005A687B881340002B01D00123F6E07B883B
:1014A000802B43D0802B11DC082B39D0082B06DC95
:1014B000022B2FD0042B30D0012B28D03CE0202B46
:1014C00034D0402B32D0102B2DD035E0B3F5006F47
:1014D0002FD0B3F5006F09DCB3F5007F26D0B3F54C
:1014E000806F26D0B3F5807F20D025E0B3F5005F74
:1014F0001FD0B3F5005F03DCB3F5805F19D01BE0AC
:10150000B3F5804F15D0B3F5004F12D014E0062389
:10151000BB7513E00723BB7510E00823BB750DE016
:101520000923BB750AE00A23BB7507E01723BB75C7
:1015300004E02823BB7501E00123A7E07B78012BA1
:1015400002D10123FB7507E07B78002B02D1022337
:10155000FB7501E00023FB75798800230193FB7D77
:10156000009300230022786808F0D0FA7B881846A0
:1015700008F044FB03463B75786808F057FB0346C8
:10158000FB74454A444B5B6C43F4804353644349CA
:101590003B7D9B08DBB21C46404A3B7D9B08DBB28F
:1015A000023352F823303A7D02F0030292000F20FA
:1015B00000FA02F2D2431A40A31C41F82320374814
:1015C0003B7D9B08DBB21C46344A3B7D9B08DBB26B
:1015D000023352F82330F97C3A7D02F00302920084
:1015E00001FA02F21A43A31C40F823202949294B8F
:1015F0001B687A88D24313400B602649254B5B68F1
:101600007A88D24313404B602249224B1A687B8868
:1016100013430B601F491F4BDB687A88D24313408A
:10162000CB601C491B4B9B687A88D24313408B606C
:101630007B78012B06D11749164BDA687B88134358
:10164000CB6015E07B78002B06D11249114B9A68CC
:101650007B8813438B600BE00E490E4BDA687B8866
:101660001343CB600B490B4B9A687B8813438B6009
:10167000BB7D3B730A237B733B7DBB730123FB73F1
:1016800007F10C03184608F0E1F9002318461C374F
:10169000BD4690BD003C014000380240003801408A
:1016A00080B500AF064B5B6903F00103002B05D04A
:1016B000034B01225A61012003F03EFB00BF80BDB5
:1016C000003C014080B500AF064B5B6903F00203AC
:1016D000002B05D0034B02225A61022003F02CFBA1
:1016E00000BF80BD003C014080B500AF064B5B6988
:1016F00003F00403002B05D0034B04225A6104209D
:1017000003F01AFB00BF80BD003C014080B500AF74
:10171000064B5B6903F00803002B05D0034B08223E
:101720005A61082003F008FB00BF80BD003C014067
:1017300080B500AF064B5B6903F01003002B05D0AA
:10174000034B10225A61102003F0F6FA00BF80BD4F
:10175000003C014080B500AF204B5B6903F02003E3
:10176000002B05D01D4B20225A61202003F0E4FA03
:101770001A4B5B6903F04003002B05D0174B402246
:101780005A61402003F0D8FA144B5B6903F08003E0
:10179000002B05D0114B80225A61802003F0CCFA37
:1017A0000E4B5B6903F48073002B07D00B4B4FF497
:1017B00080725A614FF4807003F0BEFA074B5B6988
:1017C00003F40073002B07D0044B4FF400725A61EE
:1017D0004FF4007003F0B0FA00BF80BD003C014040
:1017E00080B500AF2A4B5B6903F48063002B07D000
:1017F000274B4FF480625A614FF4806003F09CFAEB
:10180000234B5B6903F40063002B07D0204B4FF49C
:1018100000625A614FF4006003F08EFA1C4B5B6962
:1018200003F48053002B07D0194B4FF480525A61B8
:101830004FF4805003F080FA154B5B6903F40053BA
:10184000002B07D0124B4FF400525A614FF4005056
:1018500003F072FA0E4B5B6903F48043002B07D050
:101860000B4B4FF480425A614FF4804003F064FA0E
:10187000074B5B6903F40043002B07D0044B4FF484
:1018800000425A614FF4004003F056FA00BF80BD99
:10189000003C014080B586B000AF0346FB800121CB
:1018A000012001F0C9F94AF21043BB810023FB81FA
:1018B000FB883B610023BB820023BB7507F10C034F
:1018C00019464FF0804008F05FFA1C233B7200235A
:1018D0007B720023BB720123FB7207F108031846D9
:1018E00008F0B4F800BF1837BD4680BD80B500AF22
:1018F00001214FF0804008F0B1FA012201214FF0A0
:10190000804008F0CBFA00BF80BD00BF80B500AFBB
:10191000002201214FF0804008F0C0FA00214FF072
:10192000804008F09BFA00BF80BD00BF80B582B048
:1019300000AF7860084611461A460346FB700B4616
:10194000BB7013467B70F978FB787A6803F53173C6
:101950005B0013449B88DBB203F07F03D8B27A6844
:101960004B01134403F2AD3302461A70F978FB7849
:101970007A6803F531735B0013449B8803F080039E
:10198000002B14BF01230023DBB218467A684B01F9
:10199000134403F2AE3302461A70FB787A685B0197
:1019A000134403F56B73BA781A70FB787A685B019D
:1019B000134403F2B1333A7C1A70FB787A685B0106
:1019C000134403F2B233BA8A1A80FB787A685B0157
:1019D000134403F2AF337A781A70FB787A681E33B7
:1019E0005B011344043300221A70FB787A681E33BB
:1019F0005B011344053300221A707B78002B07D15A
:101A0000FB787A685B01134403F56C7301221A704A
:101A1000FB7819467868FFF761F800231846083705
:101A2000BD4680BD80B582B000AF786008461146E3
:101A30001A460346FB700B46BB7013467B70BB789F
:101A4000002B07D0FB787A685B01134403F56B73B6
:101A5000BA781A70FB787A685B01134403F2B233E8
:101A60001B88BA8A9A420AD0BB8A002B07D0FB781F
:101A70007A685B01134403F2B233BA8A1A80FB78A6
:101A80007A685B01134403F2AF331B787A789A4289
:101A90000AD07B78002B07D0FB787A685B0113446F
:101AA00003F2AF337A781A70FB7819467868FFF73B
:101AB00015F8002318460837BD4680BD80B584B0B0
:101AC00000AF78600B46FB70786800F05BF8034667
:101AD000FB81FB894FF6FF7293420ED0F989FB78A8
:101AE0009BB26FEA43436FEA534398B27A6801F5B9
:101AF00031735B00134402469A80FB89DBB21846BF
:101B00001037BD4680BD00BF80B483B000AF7860A1
:101B10000B46FB70FB78072B11D8F978FB787A68B5
:101B200003F531735B0013449B88C3F30E0398B233
:101B30007A6801F531735B00134402469A800023F2
:101B400018460C37BD4680BC704700BF80B485B0D6
:101B500000AF78600223FB730AE0FB7B7A6803F531
:101B600031735B00134400229A80FB7B0133FB73CB
:101B7000FB7B072BF1D9002318461437BD4680BCE8
:101B8000704700BF80B485B000AF78600023FB735E
:101B90000023FB730FE0FB7B7A6803F531735B0076
:101BA00013449B881BB2002B02DBFB7B9BB207E03C
:101BB000FB7B0133FB73FB7B072BECD94FF6FF73E9
:101BC00018461437BD4680BC704700BF80B582B050
:101BD00000AF78607B682C4A934208D10121102025
:101BE00001F084F80021102001F080F847E07B68C4
:101BF000264A93420AD101214FF4003001F058F8EF
:101C000000214FF4003001F053F838E07B68204A9F
:101C100093420AD101214FF4802001F049F80021BC
:101C20004FF4802001F044F829E07B68194A934280
:101C30000AD101214FF4002001F03AF800214FF4BD
:101C4000002001F035F81AE07B68134A93420AD16C
:101C500001214FF4801001F02BF800214FF4801087
:101C600001F026F80BE07B680C4A934207D1012172
:101C7000202001F03BF80021202001F037F800BFC0
:101C80000837BD4680BD00BF001001400044004041
:101C900000480040004C004000500040001401404B
:101CA00080B58AB000AF7860396000237B62002382
:101CB0003B620023FB610023BB617B681B8A9BB2F4
:101CC0007B627B6A23F440537B623B68DB881A4665
:101CD0007B6A13437B627B6A9AB27B681A827B6859
:101CE0009B899BB27B627B6A23F4B05323F00C0385
:101CF0007B623B689A883B681B8913439AB23B68B6
:101D00005B8913439BB21A467B6A13437B627B6AEF
:101D10009AB27B689A817B689B8A9BB27B627B6A62
:101D200023F440737B623B689B891A467B6A1343AA
:101D30007B627B6A9AB27B689A8207F10803184635
:101D400000F094FE7B68304A934203D07B682F4AB0
:101D5000934202D17B693B6201E03B693B627B6855
:101D60009B899BB21BB2002B0CDA3A6A13469B008C
:101D700013449A001A443B681B685B00B2FBF3F300
:101D8000FB610BE03A6A13469B0013449A001A4425
:101D90003B681B689B00B2FBF3F3FB61FB691C4AC9
:101DA000A2FB03235B091B017B627B6A1B09642284
:101DB00002FB03F3FA69D31ABB617B689B899BB270
:101DC0001BB2002B0CDABB69DB003233104AA2FBDA
:101DD00003235B0903F007037A6A13437B620BE07A
:101DE000BB691B0132330A4AA2FB03235B0903F0E0
:101DF0000F037A6A13437B627B6A9AB27B681A810B
:101E000000BF2837BD4680BD0010014000140140CE
:101E10001F85EB5180B588B002AFF860B9601346FA
:101E2000FB71FB6803F58873FA7992B20192009313
:101E30004FF480730022B968F86800F085F8034613
:101E4000FB75FB7D002B0AD1BB6803F12200FB6808
:101E500003F58873FA7992B2194600F029F9FB7DEF
:101E600018461837BD4680BD90B589B002AFF860FE
:101E7000B9601346FB800023FB82FB6803F588737F
:101E8000FA88019200934FF400730022B968F86851
:101E900000F05AF803467B757B7D002B20D10AE0C9
:101EA000FB8AFA8AF9680A4492F810110F4AD15451
:101EB000FB8A0133FB82FA8AFB889A42F0D3BB6823
:101EC00003F13400BB6803F13E01BB6803F16C020F
:101ED000FB6803F58874FB880093234600F058F9EB
:101EE0007B7D18461C37BD4690BD00BFDC0E002030
:101EF00080B588B002AFF860B9603B601346FB71F3
:101F0000FB799BB243F4407399B2FB6803F5887385
:101F10003A8C019200930B460022B968F86800F0F1
:101F200013F80346FB75FB7D002B07D1FB6803F517
:101F300088733A8C3968184600F06AFAFB7D1846B7
:101F40001837BD4680BD00BF80B584B000AFF860D3
:101F5000B96011461A460B46FB711346BB80FB79EC
:101F600063F07F03DAB2BB681A75BB6806225A7544
:101F7000BB68BA88DA82BB8803F47F43B3F5407F3D
:101F800004D1BB6840F209421A8302E0BB68002218
:101F90001A83BB68BA8B5A83BB8BBA69B968F86875
:101FA00007F08CFB034618461037BD4680BD00BFC6
:101FB00080B584B000AFF860B9601346FB71BB68B0
:101FC00000221A75BB6805225A75FB799AB2BB6864
:101FD000DA82BB6800221A83BB6800225A8300237E
:101FE0000022B968F86807F069FB03461846103705
:101FF000BD4680BD80B584B000AFF860B9601346BF
:10200000FB80BB6800221A75BB6809225A75BB6841
:10201000FA88DA82BB6800221A83BB6800225A83DE
:1020200000230022B968F86807F048FB0346184609
:102030001037BD4680BD00BF80B584B000AFF860EA
:10204000B96011461A460B46FB711346BB71BB685B
:1020500002221A75BB6801225A75BB680022DA8217
:10206000FB799AB2BB681A83BB6800225A8397F93E
:102070000730002B08DABB79FA681E335B01134482
:10208000043300221A7007E0BB79FA681E335B0143
:102090001344053300221A7000230022B968F8683F
:1020A00007F00CFB034618461037BD4680BD00BF45
:1020B00080B485B000AFF860B9601346FB80BB68A0
:1020C0001A78FB681A70BB685A78FB685A70BB684C
:1020D00002331B789AB2BB6803331B789BB21B0296
:1020E0009BB213449AB2FB685A80BB681A79FB68AA
:1020F0001A71BB685A79FB685A71BB689A79FB6898
:102100009A71BB68DA79FB68DA71FB88082B39D9D8
:10211000BB6808331B789AB2BB6809331B789BB243
:102120001B029BB213449AB2FB681A81BB680A3344
:102130001B789AB2BB680B331B789BB21B029BB215
:1021400013449AB2FB685A81BB680C331B789AB26D
:10215000BB680D331B789BB21B029BB213449AB22F
:10216000FB689A81BB689A7BFB689A73BB68DA7BD1
:10217000FB68DA73BB681A7CFB681A74BB685A7C0C
:10218000FB685A7400BF1437BD4680BC704700BF5F
:1021900080B58CB000AFF860B9607A603B603B6896
:1021A000FB62002387F82A30002387F82B303B6836
:1021B000FB623B681A78FB681A703B685A78FB68C8
:1021C0005A703B6802331B789AB23B6803331B7822
:1021D0009BB21B029BB213449AB2FB685A803B68C5
:1021E0001A79FB681A713B685A79FB685A713B6827
:1021F0009A79FB689A713B68DA79FB68DA713B6817
:102200001A7AFB681A723B8F092B40F29E800923D1
:102210007B82FB681B79052B00F2918000237B6297
:1022200087E007F112031946F86A00F023F9F86213
:10223000FB6A5B78042B7CD1FB6A02331B7887F83E
:102240002A3097F92A201346DB001344BA68134456
:102250007B62FB6A03331B78022B6AD807F11403F5
:10226000F96A184600F07AF8002387F82B303B7E95
:10227000052B5ED858E007F112031946F86A00F002
:10228000F9F8F862FB6A5B78052B4DD197F92A20A3
:1022900013469B001344DB001A467B681A4497F9E7
:1022A0002B30DB0013443B622A4B1B781A4697F90C
:1022B0002A309A420AD097F82A20264B1A7007F142
:1022C00014031946786A00F049F814E0224B1B8881
:1022D0001A46FB6A04331B781946FB6A05331B78E0
:1022E0001B020B449A4200DD23E007F11403194658
:1022F000786A00F033F8F96A386A00F05DF8FB6A32
:1023000004331B789AB2FB6A05331B789BB21B021D
:102310009BB213449AB2104B1A8097F92B30DBB260
:102320000133DBB287F82B3097F92B303A7E93429A
:10233000A1DBFB685A887B8A9A423FF672AF064B54
:1023400000221A80034B00221A7000BF3037BD46AE
:1023500080BD00BFD6010020D801002080B483B02A
:1023600000AF786039603B681A787B681A703B6808
:102370005A787B685A703B689A787B689A703B6899
:10238000DA787B68DA703B681A797B681A713B6887
:102390005A797B685A713B689A797B689A713B6875
:1023A000DA797B68DA713B681A7A7B681A7200BF47
:1023B0000C37BD4680BC704780B483B000AF7860F6
:1023C00039603B681A787B681A703B685A787B687A
:1023D0005A703B689A787B689A703B68DA787B68B9
:1023E000DA703B6804331B789AB23B6805331B787C
:1023F0009BB21B029BB213449AB27B689A803B68E3
:102400009A797B689A7100BF0C37BD4680BC7047D3
:1024100080B487B000AFF860B9601346FB80FB68FA
:1024200001331B78032B20D1FB681B789A1EFB8895
:102430009342A8BF1346BB82FB680233FB600023B4
:10244000FB820BE0FB8AFA6813441A78BB681A70A7
:10245000BB680133BB60FB8A0233FB82FA8ABB8A0A
:102460009A42EFD3BB6800221A7000BF1C37BD46EA
:1024700080BC704780B485B000AF786039603B683D
:102480001A887B681B789BB213449AB23B681A8007
:102490007B681B781A467B681344FB60FB68184610
:1024A0001437BD4680BC704780B582B000AF03468C
:1024B000FB71FA790C4913469B0013449B000B44B3
:1024C0001B68002B0AD0FA79074913469B00134476
:1024D0009B000B441B689847034600E00423184602
:1024E0000837BD4680BD00BF0000002080B582B027
:1024F00000AF0346FB71FA790D4913469B00134464
:102500009B000B4404331B68002B0BD0FA7908495D
:1025100013469B0013449B000B4404331B689847ED
:10252000034600E0042318460837BD4680BD00BFBF
:102530000000002080B584B000AFB9607A603B60D5
:102540000346FB733B68002B01D104231AE0FA7B9E
:102550000E4913469B0013449B000B4410331B6829
:10256000002B0ED0FA7B094913469B0013449B00B5
:102570000B4410331B683A687968B868984703467B
:1025800000E0042318461037BD4680BD000000203F
:1025900080B584B000AFB9607A603B600346FB73DE
:1025A0003B68002B01D104231AE0FA7B0E49134645
:1025B0009B0013449B000B440C331B68002B0ED074
:1025C000FA7B094913469B0013449B000B440C33D0
:1025D0001B683A687968B8689847034600E00423A6
:1025E00018461037BD4680BD0000002080B582B07F
:1025F00000AF03463A60FB710B46BB71FA790F4995
:1026000013469B0013449B000B4408331B68002BAC
:102610000ED0FA79094913469B0013449B000B44E2
:1026200008331B68BA79396810469847034600E0BA
:10263000042318460837BD4680BD00BF00000020B7
:1026400080B400AF024B1846BD4680BC704700BF47
:102650000000FC4280B400AF01231846BD4680BC98
:10266000704700BF80B400AF01231846BD4680BC50
:10267000704700BF80B400AF01231846BD4680BC40
:10268000704700BF80B400AF01231846BD4680BC30
:10269000704700BF80B483B000AF03463960FB7160
:1026A000012318460C37BD4680BC704780B483B008
:1026B00000AF03463960FB71012318460C37BD4655
:1026C00080BC704780B485B000AFF860B9607A60B4
:1026D000012318461437BD4680BC704780B485B0CE
:1026E00000AFF860B9607A60012318461437BD4620
:1026F00080BC704780B485B000AFF860B9607A6084
:10270000012318461437BD4680BC704780B485B09D
:1027100000AFF860B9607A60012318461437BD46EF
:1027200080BC704780B582B000AF104B7B60104B0F
:102730003B6007E03B681A1D3A607A68111D7960BA
:1027400012681A603B680B4A9342F3D30A480B495C
:102750004FF000028842B8BF40F8042BFADB00F0CB
:1027600023F900BF0837BD4680BD00BF56B600083C
:1027700000000020C8010020C8010020FC1E00202D
:1027800080B400AFFEE700BF80B500AF0F4806F091
:102790004BFA0346002B0CD00D4B1B78012B08D1B4
:1027A0000C4B1B78DBB223F00103DAB2094B1A7031
:1027B00007E0084B1B78DBB243F00103DAB2054BAC
:1027C0001A70044B1B78DBB2184680BDC41700207A
:1027D000701D0020B400002080B400AF034B1B78B4
:1027E000DBB21846BD4680BC704700BFB400002075
:1027F00080B586B000AFF860B9607A600023FB75E1
:102800007B68002B01D1042330E01A4B1B78DBB22C
:1028100003F00103002B01D0032327E0164806F044
:1028200003FA0346002B1BD0144B1B78012B17D146
:102830007B685B02BA68F9680F4803F069FB0346DE
:10284000FB750F490C4806F075FA0B4806F0ECF9D9
:102850000346002B01D1012308E0FB7D032BE7D0C9
:10286000FB7D002B01D1002300E00123184618371F
:10287000BD4680BDB4000020C4170020701D00209C
:10288000741D002080B586B000AFF860B9607A6032
:102890000023FB757B68002B01D1042336E01D4B20
:1028A0001B78DBB203F00103002B01D003232DE0E2
:1028B000194B1B78042B01D1022327E0174806F09F
:1028C000B3F90346002B1BD0134B1B78012B17D1F8
:1028D0007B685B02BA68F968104803F099FA03460E
:1028E000FB750F490D4806F025FA0C4806F09CF9D7
:1028F0000346002B01D1012308E0FB7D032BE7D029
:10290000FB7D002B01D1002300E00123184618377E
:10291000BD4680BDB4000020701D0020C4170020FB
:10292000741D002080B485B000AF03463960FB7190
:102930000023FB731A4B1B78DBB203F00103002B5F
:1029400001D0032327E0FB79032B21D801A252F801
:1029500023F000BF652900086B29000879290008C9
:10296000872900080023FB7314E00E4B1A683B68AC
:102970001A600023FB730DE03B684FF400721A806D
:102980000023FB7306E03B684FF400721A6001E01D
:102990000423FB73FB7B18461437BD4680BC70478D
:1029A000B4000020B415002080B5ADF50E7D00AF59
:1029B000002387F8363203F03FFB01F0B9FE03F045
:1029C000DBFF4FF4E1320021254800F0ADF902F0C1
:1029D00045F903F085FE01F0C9FF03F083FF03F022
:1029E000A7FF01F081FE02F051F903F0B3FF0346A7
:1029F000012BF4D197F83632002B1FD13B46012230
:102A00001849184605F02CFD0346002BE7D101219B
:102A10001548FEF799FB0346012B06D1012387F8E1
:102A20003732012387F83632D9E701220D490020D9
:102A300005F016FD002387F83732D0E797F83732D4
:102A4000002BCCD0FEF7C0FB0346002BC7D10023E0
:102A500087F8373201220349002005F001FDBEE767
:102A6000004C0040DCB40008E0B4000880B489B039
:102A700000AF78600023BB6100237B610023FB6112
:102A800002233B610023FB600223BB60484B9B6831
:102A900003F00C03BB61BB69042B07D0082B09D0E2
:102AA000002B3FD17B68434A1A603FE07B68424A73
:102AB0001A603BE03E4B5B6803F480039B0DFB60B8
:102AC0003B4B5B6803F03F03BB60FB68002B0DD002
:102AD000394ABB68B2FBF3F2354B596847F6C0730D
:102AE0000B409B0903FB02F3FB610CE0314ABB681E
:102AF000B2FBF3F22E4B596847F6C0730B409B09AB
:102B000003FB02F3FB612A4B5B6803F440331B0CAD
:102B100001335B003B61FA693B69B2FBF3F27B680E
:102B20001A6003E07B68234A1A6000BF204B9B6851
:102B300003F0F003BB61BB691B09BB611F4ABB69A2
:102B400013441B78DBB27B617B681A687B69DA40CF
:102B50007B685A60164B9B6803F4E053BB61BB690A
:102B60009B0ABB61154ABB6913441B78DBB27B61CE
:102B70007B685A687B69DA407B689A600C4B9B687B
:102B800003F46043BB61BB695B0BBB610B4ABB6970
:102B900013441B78DBB27B617B685A687B69DA403F
:102BA0007B68DA6000BF2437BD4680BC704700BF39
:102BB000003802400024F40000127A00B80000201F
:102BC00080B483B000AF78600B46FB70FB78002BBD
:102BD00006D00949084B1A6B7B6813430B6306E068
:102BE0000549054B1A6B7B68DB4313400B6300BF41
:102BF0000C37BD4680BC70470038024080B483B0BB
:102C000000AF78600B46FB70FB78002B06D00949BB
:102C1000084B5A6B7B6813434B6306E00549054B31
:102C20005A6B7B68DB4313404B6300BF0C37BD46D8
:102C300080BC70470038024080B483B000AF786039
:102C40000B46FB70FB78002B06D00949084B1A6C29
:102C50007B6813430B6406E00549054B1A6C7B68DF
:102C6000DB4313400B6400BF0C37BD4680BC70478C
:102C70000038024080B483B000AF78600B46FB7030
:102C8000FB78002B06D00949084B5A6C7B6813432C
:102C90004B6406E00549054B5A6C7B68DB431340E7
:102CA0004B6400BF0C37BD4680BC70470038024003
:102CB00080B483B000AF78600B46FB70FB78002BCC
:102CC00006D00949084B1A6A7B6813430B6206E079
:102CD0000549054B1A6A7B68DB4313400B6200BF52
:102CE0000C37BD4680BC70470038024080B483B0CA
:102CF00000AF78600B46FB70FB78002B06D00949CB
:102D0000084B5A6A7B6813434B6206E00549054B42
:102D10005A6A7B68DB4313404B6200BF0C37BD46E9
:102D200080BC70470038024080B588B004AFF860BE
:102D30000B467A60FB72FB68374A93420DD1F97AF1
:102D40000023039300230293002301930C23009399
:102D500000237A68304800F09FFBFB682F4A9342BB
:102D60000DD1F97A002303930023029300230193EA
:102D70000C23009300237A68284800F08DFBFB6841
:102D8000274A93420DD1F97A00230393002302933B
:102D9000002301930C23009300237A68204800F05D
:102DA0007BFBFB681F4A93420DD1F97A0023039302
:102DB00000230293002301930C23009300237A68DD
:102DC000184800F069FBFB68174A93420DD1F97A65
:102DD0000023039300230293002301930C23009309
:102DE00000237A68104800F057FBFB680F4A9342B3
:102DF0000DD1F97A0023039300230293002301935A
:102E00000C23009300237A68084800F045FB00BFBC
:102E10001037BD4680BD00BF001001400044004097
:102E200000480040004C00400050004000140140A9
:102E300080B584B000AF78600023FB73786800F041
:102E4000E5F8B860BB68DB88002B05D1BB681A8940
:102E5000BB685B899A421FD0BB685A89BB689B8854
:102E60009A4202D1BB6800225A81BB681B68BA68CB
:102E7000528913441B78FB73BB685B8901339AB298
:102E8000BB685A81BB68DB88002B05D0BB68DB8838
:102E9000013B9AB2BB68DA80FB7B18461037BD460F
:102EA00080BD00BF90B587B000AFF860B960134631
:102EB000FB800023FB82F86800F0A8F838613B69CA
:102EC000DB88002B0ED03B695B7B1946F86800F06D
:102ED00033F80346002B1AD13B69DA883B699B889B
:102EE0009A4214D0002322E0FB8ABA68D418F8680A
:102EF000FFF79EFF03462370FB8ABA6813441A78D3
:102F00003B695B7B9A4208D0FB8A0133FB82FA8AD9
:102F1000FB88013B9A42E7DB00E000BFFB8A0133FC
:102F2000FB82FB8ABA68134400221A70FB8A184697
:102F30001C37BD4690BD00BF80B584B000AF78603F
:102F40000B46FB70786800F061F8B860BB68DB88FE
:102F5000FB81BB685B89BB8116E0BB689B88BA8933
:102F60009A4201D10023BB81BB681A68BB89134414
:102F70001B78FA789A4201D1012309E0BB89013319
:102F8000BB81FB89013BFB81FB89002BE5D1002341
:102F900018461037BD4680BD80B483B000AF78605E
:102FA0000B46FB707B68DA887B689B889A421BD251
:102FB0007B681A897B689B889A4202D17B680022D1
:102FC0001A817B681B687A6812891344FA781A7030
:102FD0007B681B8901339AB27B681A817B68DB8826
:102FE00001339AB27B68DA8000BF0C37BD4680BCE3
:102FF000704700BF80B483B000AF78600B467B8021
:1030000000BF0C37BD4680BC704700BF80B485B0A0
:1030100000AF78607B68144A934201D1134BFB6088
:103020007B68134A934201D1124BFB607B68124AC2
:10303000934201D1114BFB607B68114A934201D14D
:10304000104BFB607B68104A934201D10F4BFB6031
:103050007B680F4A934201D10E4BFB60FB68184618
:103060001437BD4680BC704700100140C8000020E6
:1030700000440040D800002000480040E800002044
:10308000004C0040F80000200050004008010020E3
:10309000001401401801002080B485B000AF7860B2
:1030A0007B68144A934201D10023FB737B68124A68
:1030B000934201D10123FB737B68104A934201D1F3
:1030C0000223FB737B680E4A934201D10423FB73F6
:1030D0007B680C4A934201D10523FB737B680A4A43
:1030E000934201D10623FB73FB7B18461437BD4680
:1030F00080BC704700100140004400400048004080
:10310000004C0040005000400014014080B584B0E5
:1031100002AF0346FB71FB79002B0AD10723019311
:1031200003230093012300224FF4C0610D4806F0F1
:1031300011FDFB79012B09D1072301930323009390
:1031400001230022C021084806F004FDFB79032B6F
:1031500003D107210548FFF74DFF00BF0837BD46E3
:1031600080BD00BF0000024000040240001001408A
:1031700080B584B002AF0346FB71FB79002B09D107
:103180000723019303230093012300220C210D4800
:1031900006F0E0FCFB79012B09D1072301930323FF
:1031A0000093012300226021074806F0D3FCFB793D
:1031B000032B03D107210548FFF71CFF00BF083789
:1031C000BD4680BD00000240000C024000440040AB
:1031D00080B584B002AF0346FB71FB79002B0AD1A6
:1031E0000723019303230093012300224FF440613E
:1031F000144806F0AFFCFB79012B0AD10723019399
:1032000003230093012300224FF440610E4806F08F
:10321000A1FCFB79022B0AD107230193032300931E
:10322000012300224FF44071084806F093FCFB791B
:10323000032B03D107210648FFF7DCFE00BF083748
:10324000BD4680BD0004024000080240000C024060
:103250000048004080B584B002AF0346FB71FB79A3
:10326000002B09D10823019303230093012300229B
:1032700003210E4806F06EFCFB79012B0AD10823CE
:10328000019303230093012300224FF44061084877
:1032900006F060FCFB79032B03D108210548FFF7FA
:1032A000A9FE00BF0837BD4680BD00BF0000024038
:1032B00000080240004C004080B584B002AF0346D5
:1032C000FB71FB79002B14D1082301930323009396
:1032D000012300224FF480510B4806F03BFC0823E9
:1032E000019303230093012300220421074806F0E1
:1032F00031FCFB79032B03D108210548FFF77AFE47
:1033000000BF0837BD4680BD00080240000C0240E7
:103310000050004080B584B002AF0346FB71FB79DA
:10332000002B09D1082301930323009301230022DA
:10333000C0210E4806F00EFCFB79012B0AD10823B0
:10334000019303230093012300224FF48441084892
:1033500006F000FCFB79032B03D108210548FFF799
:1033600049FE00BF0837BD4680BD00BF00080240CF
:10337000001802400014014080B500AF084B1B88C4
:103380009BB203F02003002B07D0054B9B889BB218
:10339000DBB219460348FFF7FFFD00BF80BD00BF49
:1033A00000100140C800002080B500AF084B1B880A
:1033B0009BB203F02003002B07D0054B9B889BB2E8
:1033C000DBB219460348FFF7E7FD00BF80BD00BF31
:1033D00000440040D800002080B500AF084B1B8897
:1033E0009BB203F02003002B07D0054B9B889BB2B8
:1033F000DBB219460348FFF7CFFD00BF80BD00BF19
:1034000000480040E800002080B500AF084B1B8852
:103410009BB203F02003002B07D0054B9B889BB287
:10342000DBB219460348FFF7B7FD00BF80BD00BF00
:10343000004C0040F800002080B500AF084B1B880E
:103440009BB203F02003002B07D0054B9B889BB257
:10345000DBB219460348FFF79FFD00BF80BD00BFE8
:10346000005000400801002080B500AF084B1B88C9
:103470009BB203F02003002B07D0054B9B889BB227
:10348000DBB219460348FFF787FD00BF80BD00BFD0
:10349000001401401801002080B58CB000AFF86026
:1034A0007A601A460B46FB7213463B81F868FFF7B9
:1034B000ADFDF8627B68FB61FB68534A93420BD118
:1034C000524A524B5B6C43F010035364FB7A18462C
:1034D000FFF71CFE25233B76FB684D4A93420BD138
:1034E0004A4A4A4B1B6C43F400331364FB7A184678
:1034F000FFF73EFE26233B76FB68464A93420BD1FC
:10350000424A424B1B6C43F480231364FB7A1846F7
:10351000FFF75EFE27233B76FB683F4A93420BD1C1
:103520003A4A3A4B1B6C43F400231364FB7A184667
:10353000FFF790FE34233B76FB68384A93420BD169
:10354000324A324B1B6C43F480131364FB7A1846E7
:10355000FFF7B2FE35233B76FB68314A93420BD12D
:103560002A4A2A4B5B6C43F020035364FB7A1846CB
:10357000FFF7D0FE47233B76F868FEF727FB0123D1
:10358000FB7606237B76F868FFF786FD0346BB765D
:1035900007F11803184606F059FA3B893B85BB6BC7
:1035A0009BB2FB84FB6B9BB2BB843B6C9BB27B846A
:1035B0007B6C9BB23B84FB6A00221A7340F6FF735C
:1035C0007B6100BF7B695A1E7A61002BFAD107F13B
:1035D0001C031946F868FEF763FBFB689B899BB2E6
:1035E00043F020039AB2FB689A81FB6A01221A73A6
:1035F000FB689B899BB243F400539AB2FB689A81A3
:1036000000BF3037BD4680BD001001400038024089
:103610000044004000480040004C00400050004082
:103620000014014080B586B002AFF860B9603B601D
:103630001346FB80FB68BA681A61FB683A685A61F6
:10364000FB68FA881A83FB683A8B5A83FB6818690F
:10365000FB681B8B02221946FDF7E0FEFB685869E8
:10366000FB68598B00230193012300930023002260
:1036700006F04CFAFB6800225A72FB680022DA60FE
:10368000FB6800225A60FB6800221A60FB68012276
:103690009A7200BF1037BD4680BD00BF80B483B0B2
:1036A00000AF78607B68DA687B681B68D21A7B6839
:1036B0005A607B68DA687B681A607B68DB68002B7D
:1036C00004DA7B6801221A7201230CE07B68DB6854
:1036D000002B04DD7B6800221A72002303E07B6864
:1036E00002221A72022318460C37BD4680BC70476E
:1036F00080B485B000AF78607B681B691B697A680D
:10370000128B1340002B14BF01230023DBB2FB7389
:103710007B685B691B697A68528B1340002B14BF6E
:1037200001230023DBB2BB737B689B7AFA7B9A424E
:1037300027D07B68FA7B9A727B689B7A002B20D11A
:103740007B685B7A002B0ED1BB7B012B05D17B689C
:10375000DB685A1E7B68DA6013E07B68DB685A1C02
:103760007B68DA600DE0BB7B012B05D17B68DB68F1
:103770005A1C7B68DA6004E07B68DB685A1E7B6851
:10378000DA6000BF1437BD4680BC704780B483B098
:1037900000AF78600B46FB707B681B889BB203F020
:1037A0004003002B01D1002325E000BF7B681B896B
:1037B0009BB203F00303002BF8D07B681B899BB2FC
:1037C00003F08003002BF1D1FB789AB27B689A81D9
:1037D00000BF7B681B899BB203F00303002BF8D06A
:1037E0007B681B899BB203F08003002BF1D17B68BF
:1037F0009B899BB2DBB218460C37BD4680BC704734
:1038000080B485B000AF7860114B1B68BB60EFF3EC
:103810000583FB60FB68002B11D100BF0C4B1A68BD
:10382000BB68D21A7B689A42F8D30BE0094B1B683D
:1038300003F48033002B02D07B68013B7B607B6804
:10384000002BF3D100BF1437BD4680BC704700BFCA
:10385000E401002010E000E080B500AF01F086F840
:103860000021064801F0AAF8054B4FF480721A8334
:103870000A20FFF7C5FF00BF80BD00BF0030014038
:103880000008024080B582B000AF786039603B68C4
:10389000FF227968034801F0F1F800BF0837BD4600
:1038A00080BD00BF0030014080B582B000AF7860BD
:1038B00039603A687968034801F09CF800BF08371E
:1038C000BD4680BD0030014080B584B000AF786057
:1038D0000C4A7B681360FF210B48FFF757FF034634
:1038E000FB73FB7BFF2B03D0064B1B68002BF2D135
:1038F000FB7BFF2B0CBF01230023DBB218461037E4
:10390000BD4680BDE80100200030014080B500AF19
:10391000044B4FF480721A83FF210348FFF736FFF0
:1039200000BF80BD000802400030014080B500AFFC
:103930000A4B4FF480725A83FF210948FFF726FF94
:103940004FF4FA70FFF7C0FF0346002B01D00123AC
:1039500002E0FFF7DBFF0023184680BD00080240AD
:103960000030014080B584B000AF78603960134BFF
:10397000C8221A60FF211248FFF708FF0346FB73B5
:10398000FB7BFF2B03D10D4B1B68002BF2D1FB7B84
:10399000FE2B01D000230CE039687868FFF772FF36
:1039A000FF210748FFF7F2FEFF210548FFF7EEFE73
:1039B000012318461037BD4680BD00BFE801002036
:1039C0000030014080B584B000AF78600B46FB70DA
:1039D0004FF4FA70FFF778FF0346002B01D1002364
:1039E00022E0FB7819461248FFF7D0FEFB78FD2B4A
:1039F00019D04FF400717868FFF756FFFF210C488B
:103A0000FFF7C4FEFF210A48FFF7C0FEFF21084868
:103A1000FFF7BCFE0346FB73FB7B03F01F03052B84
:103A200001D0002300E0012318461037BD4680BDB9
:103A30000030014080B584B000AF03463960FB71AF
:103A400097F90730002B0EDAFB7903F07F03FB7147
:103A500000213720FFF7EEFF0346BB73BB7B012B32
:103A600001D9BB7B59E0FB790C2B08D0FFF74EFF47
:103A7000FFF75CFF0346002B01D1FF234DE0FB79EC
:103A800043F04003DBB219462648FFF77FFE3B6850
:103A90001B0EDBB219462348FFF778FE3B681B0C70
:103AA000DBB219461F48FFF771FE3B681B0ADBB209
:103AB00019461C48FFF76AFE3B68DBB219461948F5
:103AC000FFF764FE0123FB73FB79002B01D19523E3
:103AD000FB73FB79082B01D18723FB73FB7B194612
:103AE0001048FFF753FEFB790C2B03D1FF210D4843
:103AF000FFF74CFE0A23FB73FF210A48FFF746FE3F
:103B00000346BB7397F90E30002B05DAFB7B013BB4
:103B1000FB73FB7B002BEFD1BB7B18461037BD46F8
:103B200080BD00BF0030014080B582B002AF0023ED
:103B3000019300230093002301224FF48071034876
:103B400005F0E4FF00BFBD4680BD00BF0008024095
:103B500080B400AF01231846BD4680BC704700BF4B
:103B600080B400AF01231846BD4680BC704700BF3B
:103B700090B583B000AFFFF7D7FFFFF76DFEFFF7FB
:103B8000E7FF0346002B01D10223CCE00A23FB719F
:103B900006E0FF216648FFF7F9FDFB79013BFB7169
:103BA000FB79002BF5D100237B7100210020FFF76A
:103BB00041FF0346012B40F089805E4B4FF47A723F
:103BC0001A604FF4D5710820FFF734FF0346012B2C
:103BD00051D10023FB710EE0FC79FF215448FFF71F
:103BE000D5FD03461A4607F10803234403F8082CC1
:103BF000FB790133FB71FB79032BEDD9BB78012BEA
:103C000064D1FB78AA2B61D100BF4A4B1B68002B03
:103C100007D04FF08041A920FFF70CFF0346002B8F
:103C2000F3D1444B1B68002B50D000213A20FFF702
:103C300001FF0346002B49D10023FB710EE0FC7904
:103C4000FF213B48FFF7A2FD03461A4607F1080390
:103C5000234403F8082CFB790133FB71FB79032B18
:103C6000EDD93B7803F04003002B01D00C2300E09A
:103C700004237B712AE00021A920FFF7DBFE034625
:103C8000012B04D802237B71A923BB7103E001231C
:103C90007B710123BB7100BF264B1B68002B07D033
:103CA000BB7900211846FFF7C5FE0346002BF3D170
:103CB000204B1B68002B07D14FF400711020FFF739
:103CC000B9FE0346002B01D000237B711A4A7B7991
:103CD0001370FFF71BFE7B79002B08D0174B1B7866
:103CE000DBB223F00103DAB2144B1A7002E0134B7B
:103CF00001221A70FFF734FF0346002B08D10F4B47
:103D00001B78DBB243F00403DAB20C4B1A7007E005
:103D10000A4B1B78DBB223F00403DAB2074B1A70AC
:103D2000064B1B78DBB218460C37BD4690BD00BF72
:103D300000300140E8010020DA01002028010020C5
:103D400080B500AFFFF704FF0346002B01D101232C
:103D500018E0FFF705FF0346002B08D10A4B1B783C
:103D6000DBB243F00403DAB2074B1A7007E0064BEC
:103D70001B78DBB223F00403DAB2034B1A70024B58
:103D80001B78DBB2184680BD2801002080B584B0C6
:103D900000AFF860B9607A60FFF7DAFE0346002BE7
:103DA00006D0294B1B78DBB203F00103002B01D0B6
:103DB000032344E0254B1B7803F00803002B02D1BA
:103DC000BB685B02BB607B68012B11D1B968112015
:103DD000FFF730FE0346002B29D14FF40071F8683D
:103DE000FFF7C0FD0346002B21D000237B601EE0BF
:103DF000B9681220FFF71EFE0346002B17D14FF4BF
:103E00000071F868FFF7AEFD0346002B0AD0FB688F
:103E100003F50073FB607B68013B7B607B68002BD4
:103E2000EDD100E000BF00210C20FFF703FEFFF7FB
:103E30006DFD7B68002B14BF01230023DBB2184605
:103E40001037BD4680BD00BF28010020DA010020E8
:103E500080B584B000AFF860B9607A60FFF778FE93
:103E60000346002B01D101236AE0FFF779FE0346E8
:103E7000002B01D1022363E0334B1B78DBB203F04C
:103E80000103002B01D003235AE02F4B1B78DBB238
:103E900003F00403002B01D0022351E02B4B1B78CD
:103EA00003F00803002B02D1BB685B02BB607B6898
:103EB000012B10D1B9681820FFF7BCFD0346002B79
:103EC00036D1FE21F868FFF77DFD0346002B2FD089
:103ED00000237B602CE01D4B1B7803F00603002BB6
:103EE00003D079689720FFF7A5FDB9681920FFF77F
:103EF000A1FD0346002B1BD1FC21F868FFF762FDF2
:103F00000346002B0AD0FB6803F50073FB607B6857
:103F1000013B7B607B68002BEED100E000BFFD2100
:103F20000020FFF74FFD0346002B01D101237B60EA
:103F3000FFF7ECFC7B68002B14BF01230023DBB2EE
:103F400018461037BD4680BD28010020DA01002048
:103F500080B58CB000AF03463960FB71B34B1B7862
:103F6000DBB203F00103002B01D0032359E1FFF77B
:103F7000EFFD0346002B01D1032352E1012387F813
:103F80002F30FB79042B00F2378101A252F823F085
:103F9000A53F0008B93F0008F94100086540000846
:103FA0005F410008FFF7C2FC0346002B00F02881A8
:103FB000002387F82F3023E100210920FFF73AFD85
:103FC0000346002B40F01E8107F10C031021184618
:103FD000FFF7C8FC0346002B00F014813B7B9B09D4
:103FE000DBB2012B11D17B7D1A463B7D1B021344B2
:103FF0001A46FB7C1B0403F47C13134401333B621D
:104000003B6A9A023B681A6028E07B7C03F00F034E
:10401000DAB2BB7DDB09DBB21344DAB27B7D5B0035
:10402000DBB203F00603DBB21344DBB2023387F8E2
:104030002E303B7D9B09DBB21A46FB7C9B001A4469
:10404000BB7C9B0203F44063134401333B6297F84B
:104050002E30093B3A6A9A403B681A60002387F881
:104060002F30CFE0724B1B7803F00403002B33D0CA
:1040700000218D20FFF7DEFC0346002B40F0C480BA
:10408000FF216C48FFF782FB07F10C031021184653
:10409000FFF768FC0346002B00F0B680302387F85A
:1040A0002E3008E0FF216348FFF770FB97F82E30B1
:1040B000013B87F82E3097F82E30002BF2D1BB7DD4
:1040C0001B09DBB21A46102303FA02F23B681A609E
:1040D000002387F82F3097E000210920FFF7AAFC82
:1040E0000346002B40F0908007F10C031021184686
:1040F000FFF738FC0346002B00F086804C4B1B7802
:1041000003F00203002B12D0BB7D5B0003F07E03A3
:10411000FA7DD209D2B213445A1C7B7E9B09DBB2D2
:10412000013B02FA03F31A463B681A6013E0BB7DB9
:104130009B109BB203F01F030133FA7DD20002F003
:104140001802F97D4909C9B20A44013202FB03F39E
:104150001A463B681A60002387F82F3054E0344B2E
:104160001B7803F00603002B50D007F10C0319460F
:104170000B20FFF7EDFE0346002B49D13B7B9B094B
:10418000DBB2002B04D1BB7D03F04003002B41D0F8
:104190003B68FB61FB691B68BB62FB695B687B6218
:1041A000234B1B7803F00803002B05D1BB6A5B028D
:1041B000BB627B6A5B027B62B96A2020FFF73AFC34
:1041C0000346002B28D1796A2120FFF733FC0346F0
:1041D000002B21D100212620FFF72CFC0346002BC9
:1041E0001AD147F23050FFF76FFB0346002B13D074
:1041F000002387F82F300FE0042387F82F300CE0DE
:1042000000BF0AE000BF08E000BF06E000BF04E016
:1042100000BF02E000BF00E000BFFFF777FB97F8A8
:104220002F3018463037BD4680BD00BF2801002022
:10423000DA0100200030014080B586B002AF78601E
:1042400039603B68FB60FB6893F84330082B71D101
:10425000FB6893F84530502B6CD1FB6893F86E30B7
:104260005BB2002B0ADAFB6893F86E20364BDA70EB
:10427000FB68B3F87020344B9A8009E0FB6893F830
:104280006E20314B9A70FB68B3F870202E4BDA80A9
:10429000FB6893F876305BB2002B0ADAFB6893F880
:1042A0007620294BDA70FB68B3F87820264B9A8089
:1042B00009E0FB6893F87620234B9A70FB68B3F80B
:1042C0007820214BDA80204B9B7819467868FDF7DF
:1042D000F5FB03461A461C4B5A701B4BDB781946FC
:1042E0007868FDF7EBFB03461A46174B1A70164B1E
:1042F0005978FB6893F82020FB6893F82100124B53
:10430000DB8801930223009303467868FDF70EFBD8
:104310000D4B1978FB6893F82020FB6893F8210077
:10432000094B9B8801930223009303467868FDF7AD
:10433000FDFA04E0FB68D3F844311B6C9847002376
:1043400018461037BD4680BD9C11002080B582B054
:1043500000AF78603960154B5B78002B0ED0134BA3
:104360005B7819467868FCF765FE104B5B78194658
:104370007868FDF7C9FB0D4B00225A700B4B1B7878
:10438000002B0ED0094B1B7819467868FCF752FEBB
:10439000064B1B7819467868FDF7B6FB034B0022E5
:1043A0001A7000BF0837BD4680BD00BF9C110020B9
:1043B00080B485B000AF786039600023FB73044B94
:1043C00000221A70FB7B18461437BD4680BC70472C
:1043D000CC1E002080B586B000AF786039603B68A5
:1043E0003B610123FB750323FB730023BB737868D8
:1043F00004F01AFC0346002B00F0FB807F4B1B7877
:104400000A2B00F2ED8001A252F823F03944000893
:104410004744000875440008FD4400082945000889
:104420005545000881450008A9450008B345000826
:10443000D1440008DB450008786804F04FFC6F4B5E
:1044400001221A70D5E03968786800F0DFF8034679
:10445000FB75FB7D002B02D1684B02221A70FB7D9D
:10446000032B40F0BF80654B02225A70634B092238
:104470001A70B7E03968786800F0E8F80346FB7511
:10448000FB7D002B19D15E4B1A7A5D4B83F8082215
:104490005B4B93F80832002B0CD05A4B1B78002B47
:1044A00008D1584B01221A703B69D3F844311B6C78
:1044B00098479EE0514B03221A70FB7D032B40F07E
:1044C00093804E4B03225A704C4B09221A708BE09A
:1044D0003B695B79002239687868FDF7ADFD0346DA
:1044E000FB75FB7D002B40F08180454B002283F85B
:1044F0000822424B5A78414B1A7077E0786801F0F5
:104500007BFA0346FB73FB7B002B08D13B4B042259
:104510001A703D4B00221A700023FB7569E0FB7B8B
:10452000184600F0B5F864E0786801F0D3FA034665
:10453000FB73FB7B002B08D1304B05221A70324BEA
:1045400000221A700023FB7553E0FB7B184600F035
:104550009FF84EE0786801F04DFB0346FB73FB7B50
:10456000002B08D1254B08221A70274B00221A7005
:104570000023FB753DE0FB7B184600F089F838E02E
:10458000786801F0B7FB0346FB73FB7B002B06D179
:104590001A4B5A78194B1A700023FB7529E0FB7BE4
:1045A000184600F075F824E03968786804F0C2FB1A
:1045B0001FE03B69D3F84431DB6B98470346BB737C
:1045C000BB7B002B03D10D4B08221A7010E0BB7B84
:1045D000012B0DD10623FB750AE00423FB7508E0CF
:1045E00000BF06E000BF04E000BF02E000BF00E043
:1045F00000BFFB7D18461837BD4680BDCC1E00208D
:104600009C110020DC010020DB01002080B582B07D
:1046100000AF786039603B6821221A753B68FF2241
:104620005A753B680022DA823B6800221A833B6895
:1046300000225A83002300223968786805F03EF88A
:10464000034618460837BD4680BD00BF80B582B01E
:1046500000AF786039603B68A1221A753B68FE2282
:104660005A753B680022DA823B6800221A833B6855
:1046700001225A830123054A3968786805F01EF83B
:10468000034618460837BD4680BD00BFA411002070
:1046900080B483B000AF0346FB71FB79012B14D1CA
:1046A0000F4B1B780133DAB20D4B1A700C4B1B7891
:1046B000092B06D80B4B06221A700A4B0122DA701E
:1046C00009E0084B0A221A7005E0FB79022B02D19F
:1046D000044B0A221A7000BF0C37BD4680BC7047DD
:1046E000DB010020CC1E002080B582B000AF3B1D56
:1046F000022219460B48FEF7D5FB0346002B0DD0CE
:104700003B79642B06D0752B00D007E0064B0122C5
:104710001A7003E0054B01221A7000BF00BF083772
:10472000BD4680BD004C0040DD010020DE010020C0
:1047300080B586B000AF01210120FEF741FA0121CA
:104740000220FEF73DFA01210420FEF739FAC023CA
:104750003B6102233B7500237B750123BB7500235E
:10476000FB7507F1100319461C4801F021F82023BE
:10477000BB6001233B7300237B730023BB730023C7
:10478000FB7307F108031946144801F011F84FF4C0
:1047900080433B6000233B7100237B710023FB714E
:1047A0003B4619460E4801F003F801224FF48041C0
:1047B0000B48FCF733FE01222021084801F0BCF829
:1047C00004220621054801F0CFF8042207210348FE
:1047D00001F0CAF800BF1837BD4680BD0004024092
:1047E0000008024080B483B000AF03463960FB711B
:1047F00097F90730002B0BDA0D49FB7903F00F0313
:10480000043B3A68D2B21201D2B20B441A7609E0E4
:10481000084997F907303A68D2B21201D2B20B4474
:1048200083F8002300BF0C37BD4680BC704700BF33
:1048300000ED00E000E100E080B582B000AF7860FC
:104840007B68B3F1807F01D3012311E00A4A7B68C2
:1048500023F07F43013B53600F214FF0FF30FFF700
:10486000C1FF054B00229A60034B07221A60002308
:1048700018460837BD4680BD10E000E080B582B024
:1048800000AF374B1B680133354A1360354B1B684B
:10489000002B04D0334B1B68013B324A1360AFF34B
:1048A00000800023FB7152E0FB792F4A9B001344E8
:1048B0005B68002B48D0FB792B4A9B0013445B6854
:1048C0001B7B002B40D0FB79274A9B0013445B687D
:1048D0009B68002B38D0FB79234A9B0013445B680C
:1048E0009A68013A9A60FB791F4A9B0013445B68FF
:1048F0009B68002B28D1FB791B4A9B0013445B6803
:104900001A69FB7918499B000B445B685B69184680
:104910009047FB79144A9B0013445A68FB7912496B
:104920009B000B445B681B689360FB790E4A9B00FD
:1049300013445B685B68002B06D1FB790A4A9B0035
:1049400013445B6800221A73FB790133FB71064B39
:104950001B78FA799A42A7D300BF0837BD4680BDBD
:10496000E4010020E8010020F001002080B500AF44
:104970000D4B1B680D4AA2FB03239B091846FFF74A
:104980005BFF0346002B00D0FEE7074B1B689B092B
:10499000074AA2FB03239B0A064A1360064B012227
:1049A0001A7000BF80BD00BF68010020D34D6210A7
:1049B00017916502B0130020EC01002080B584B08F
:1049C00002AF78600B46FB707B68094A93420AD1BC
:1049D000F978002301934FF482730093002300229F
:1049E000034800F0A1F800BF0837BD4680BD00BFF6
:1049F0000030014080B487B000AFF860B9607A60E1
:104A0000FB681B889BB203F04003002B31D000BF32
:104A1000FB681B899BB203F00303002BF8D0FB68F3
:104A20001B899BB203F08003002BF1D100237B6133
:104A30001AE0BA687B6913441B789AB2FB689A81C2
:104A400000BFFB681B899BB203F00303002BF8D067
:104A5000FB681B899BB203F08003002BF1D1FB683C
:104A60009B897B6901337B617A697B689A42E0D3D9
:104A700000E000BF1C37BD4680BC704780B487B0E3
:104A800000AFF860B9603B601346FB71FB681B88A0
:104A90009BB203F04003002B34D000BFFB681B899E
:104AA0009BB203F00303002BF8D0FB681B899BB279
:104AB00003F08003002BF1D100237B611DE0FB7923
:104AC0009AB2FB689A8100BFFB681B899BB203F016
:104AD0000303002BF8D0FB681B899BB203F0800313
:104AE000002BF1D1BA687B691344FA68928992B2BB
:104AF000D2B21A707B6901337B617A693B689A4252
:104B0000DDD300E000BF1C37BD4680BC704700BF4E
:104B100080B483B000AF78600B467B8000BF0C3759
:104B2000BD4680BC704700BF80B588B000AF7860DC
:104B3000084611461A460346FB700B46BB701346E7
:104B40003B8007F10C03184604F0BEFB7B68294A42
:104B500093420BD1284A284B5B6C43F48053536437
:104B6000FB78184600F04AF800233B823B883B83E1
:104B70000023BB81BB8D7B833B8DFB814FF4007396
:104B8000FB82BB78002B04D100237B820023BB82F5
:104B900016E0BB78012B04D100237B820123BB826A
:104BA0000EE0BB78022B04D102237B820023BB8260
:104BB00006E0BB78032B03D102237B820123BB8257
:104BC0007B681B889BB223F040039AB27B681A80F3
:104BD00007F10C031946786804F032FB7B681B88E8
:104BE0009BB243F040039AB27B681A8000BF203723
:104BF000BD4680BD003001400038024080B584B021
:104C000002AF0346FB71FB79002B09D10523019309
:104C10000323009300230022E0210D4804F09AFFB3
:104C2000FB79012B09D10523019303230093002372
:104C300000223821074804F08DFFFB79032B03D1B4
:104C400005210548FFF764FF00BF0837BD4680BD5A
:104C500000000240000402400030014080B582B0F4
:104C600002AF4FF400430093064B4FF40052054946
:104C70000548FEF7D7FC2820FCF70CFE00BFBD4618
:104C800080BD00BF000802400802002080B500AFD0
:104C90002448FEF703FD00F069F80346002B0CD012
:104CA000214B1B780133DAB21F4B1A701E4B1B7855
:104CB000032B02D11C4B00221A701A4B5B68002B8D
:104CC00015DD194B1B78194ADB0013445B68164A43
:104CD0001278D20015490A44022110469847144B15
:104CE0001B78012B1CD1124B00221A7018E00D4BBF
:104CF0005B68002B14DA0C4B1B780C4ADB00134466
:104D00005B68094A1278D20008490A44012110461A
:104D10009847084B1B78012B02D1064B00221A70D2
:104D200000BF80BD08020020250200203C010020B9
:104D3000DE010020DD01002080B582B000AF034617
:104D4000FB80094B1B8BFA889A4202D10648FEF77A
:104D5000CFFCFB88B3F5804F01D1FCF7C7FD00BF46
:104D60000837BD4680BD00BF0802002080B483B074
:104D700000AF084B1B78FB71064B1B78002B02D051
:104D8000044B00221A70FB7918460C37BD4680BCD4
:104D9000704700BF2402002080B500AF01214FF012
:104DA000804005F09FF80346002B11D001214FF001
:104DB000804005F0C1F84FF48041064800F086FDC0
:104DC0000346002B02D1044B01221A70FCF79EFD12
:104DD00000BF80BD000802402402002080B483B0E0
:104DE00000AF78607B680122C3F8102300231846C7
:104DF0000C37BD4680BC704780B483B000AF78608C
:104E00007B680022C3F81023002318460C37BD46E8
:104E100080BC704780B483B000AF78600023184630
:104E20000C37BD4680BC704780B584B000AFF860D9
:104E30007A603B600B46FB72F86801F07FFC002053
:104E400001F0ECFC7968F86800F01AF87B683A68C1
:104E5000C3F840217B68BA69C3F84421FB7A19463C
:104E6000F86803F07DFE7B68D3F844311B689847EF
:104E7000F86801F09FFC00BF1037BD4680BD00BF41
:104E800080B582B000AF786039603B6800221A704C
:104E90003B6800225A703B6800229A703B680122EE
:104EA000DA703B6801221A773B6840229A713B68AE
:104EB000002283F820203B68012283F821203B68F0
:104EC0001B7919467868FCF71FFE3B685B79194629
:104ED0007868FCF719FE002318460837BD4680BDE8
:104EE00080B586B002AF786039600223FB737868C2
:104EF00003F09AFE0346002B0AD13B681B78002B77
:104F000006D03B681B78022B02D03B6802221A7045
:104F10003B681B780A2B00F2068101A252F823F0AD
:104F20004D4F0008694F0008EB500008275100085A
:104F30001D5000086B5000089B500008BB50000833
:104F40003F50000827510008C5500008786803F05A
:104F50006BFE0346002B00F0E8803B6801221A70CC
:104F6000642001F0A5FCE0E03B68D3F844319B6885
:104F7000984700217868FCF7A1FD03461A463B6874
:104F80005A7180217868FCF799FD03461A463B6800
:104F90001A71786803F03CFE0346002B40F0C7808E
:104FA0003B68D3F84431DB689847786803F01EFE0D
:104FB0000346DAB23B6883F821203B6804221A706A
:104FC0003B68D3F844319B693A6892F82120104637
:104FD00098473B6819793B6893F820203B6893F821
:104FE00021003B689B799BB2019300230093034609
:104FF0007868FCF79BFC3B6859793B6893F8202064
:105000003B6893F821003B689B799BB20193002396
:10501000009303467868FCF789FC88E03968786873
:1050200000F0B2F80346002B40F083803B68D3F8D1
:1050300044315B6B98473B6808221A7079E03B6803
:10504000D3F844319B6B98470346012B73D13B68DF
:10505000D3F840311B683968786898470346002BBD
:1050600069D13B6805221A7065E03B68D3F840318E
:105070009B683968786898470346FB73FB7BDBB213
:10508000002B03D13B6806221A7055E0FB7BDBB294
:105090001946386800F054F84EE03B68D3F84031C8
:1050A000DB683968786898470346FB73FB7BDBB2A3
:1050B0001946386800F044F83EE03968786800F036
:1050C000D5F939E039687868FFF7DAFE3B68D3F83C
:1050D00044315B6898473B68D3F840315B683A6875
:1050E000203211467868984726E03B68D3F844316F
:1050F0001B69984739687868FFF7C2FE3B68D3F8A8
:1051000044315B6898473B68D3F840315B683A6844
:1051100020321146786898477868FCF717FD3B689D
:1051200000221A7008E000BF06E000BF04E000BFE4
:1051300002E000BF00E000BF00BF1037BD4680BDE9
:1051400080B582B000AF78600B46FB70FB78052B12
:1051500002D0FB78042B08D17B68D3F844315B6C18
:1051600098477B680A221A700AE0FB78062B07D161
:105170007B680A221A707B68D3F844311B68984711
:1051800000BF0837BD4680BD80B596B002AF7860DD
:105190003960012387F84F303B689B78092B00F278
:1051A0004A8101A252F823F0D15100082F52000881
:1051B00059520008BF520008D95200081153000884
:1051C00067530008BB5300080F5400082F54000811
:1051D000082239687868FCF71DFE0346002B40F072
:1051E0002C813B6893F829203B689A71786803F01A
:1051F0000FFD3B6801229A703B6859793B689B79A7
:105200009BB2019300230093002300227868FCF7EF
:1052100009FC3B6819793B689B799BB20193002399
:105220000093002300227868FCF7FCFB05E11222C2
:1052300039687868FCF7EEFD0346002B40F0FF80EC
:105240003B68D3F84431DB693A682232104698470C
:105250003B6802229A70F2E0012239687868FCF714
:10526000A7FE0346002B40F0EC80022001F020FB5B
:105270003B68012283F820203B68D3F844311B6A45
:1052800098473B6803229A703B6819793B6893F80A
:105290002020002301930023009300237868FCF76B
:1052A000C1FB3B6859793B6893F8202000230193A8
:1052B0000023009300237868FCF7B4FBC1E00922C7
:1052C00039687868FCF7D0FD0346002B40F0BB80BE
:1052D0003B6804229A70B6E03B68DB8E1A46396858
:1052E0007868FCF7C1FD0346002B40F0AE803B68B8
:1052F000D3F844315B6A3A6802F134003A6802F14B
:105300003E013A686C3298473B6805229A709CE0EF
:105310003B6893F83030002B1BD03B6893F830206B
:1053200007F10C01FF2300930B4639687868FCF7FE
:10533000DFFD0346002B40F08A803B68D3F8443100
:105340009B6A07F10C02104698473B6806229A7048
:105350007DE03B68D3F844319B6A434898473B68FB
:1053600006229A7073E03B6893F83130002B1AD014
:105370003B6893F8312007F10C01FF2300930B46A3
:1053800039687868FCF7B4FD0346002B61D13B68AF
:10539000D3F84431DB6A07F10C02104698473B68AA
:1053A00007229A7055E03B68D3F84431DB6A2E48F7
:1053B00098473B6807229A704BE03B6893F832307D
:1053C000002B1AD03B6893F8322007F10C01FF2321
:1053D00000930B4639687868FCF78AFD0346002B7A
:1053E00039D13B68D3F844311B6B07F10C021046EE
:1053F00098473B6808229A702DE03B68D3F8443107
:105400001B6B194898473B6808229A7023E03B6859
:1054100093F839309BB21A4639687868FCF7EAFD90
:105420000346002B19D13B6809229A7015E000232E
:1054300087F84F3012E000BF10E000BF0EE000BF61
:105440000CE000BF0AE000BF08E000BF06E000BFBC
:1054500004E000BF02E000BF00E000BF97F84F305B
:1054600018465037BD4680BDE8B4000880B584B00A
:1054700000AF786039600023FB730023BB733B6887
:1054800000229A743B681B7F013B0A2B00F27E814D
:1054900001A252F823F000BFC5540008DF540008F1
:1054A000655500087F550008D955000805560008C5
:1054B000575600086D560008D95600081B570008BB
:1054C0005D5700083B6803F114013B685B791A469D
:1054D000786804F035F93B6802221A7763E13B688B
:1054E0005B791946786803F0B9FB0346BB73BB7B55
:1054F000012B2CD13B681B7D23F07F037B733B6822
:105500005B8B002B0ED0A64B41F288321A807B7B3E
:10551000802B03D13B6803221A7710E03B680522F9
:105520001A770CE09E4B32221A807B7B802B03D1B2
:105530003B6809221A7702E03B6807221A777868ED
:1055400003F07EFB03469AB23B681A8220E1BB7BE4
:10555000032B40F01D813B680B221A773B68052224
:105560009A7415E13B6899683B689A893B681B7996
:10557000786804F06FF93B6804221A7713E13B68FE
:105580001B791946786803F069FB0346BB73BB7B44
:10559000012B02D13B6809221A77BB7B042B04D173
:1055A0003B685A783B681A70F4E0BB7B032B03D14D
:1055B0003B680B221A77EDE0786803F041FB024666
:1055C0003B681B8AD31A764A1288934240F2E280E3
:1055D0003B680B221A77DDE03B685B797A681E3303
:1055E0005B011344053301221A703B6899683B68DC
:1055F0009A893B685B79786804F0D6F83B680622A4
:105600001A77D0E03B685B791946786803F026FB8F
:105610000346BB73BB7B012B03D13B6807221A7780
:10562000BAE0BB7B042B07D13B685A783B681A7001
:105630003B680C221A77AFE0BB7B022B03D13B689F
:1056400005221A77A8E0BB7B032B40F0A5803B68BE
:105650000B221A77A0E03B681B79002200217868B2
:1056600004F0F8F83B6808221A779CE03B681B7945
:105670001946786803F0F2FA0346BB73BB7B012B33
:1056800007D13B685A783B681A703B680D221A773D
:1056900084E0BB7B032B03D13B680B221A777DE0B0
:1056A000786803F0CDFA02463B681B8AD31A3C4A5D
:1056B0001288934203D93B680B221A776EE0BB7BBA
:1056C000042B6BD13B685A783B681A703B68042204
:1056D0009A740323FB7361E03B685B7918463B686F
:1056E0005B797A681E335B01134405331B7883F0C2
:1056F0000103D9B27A6800F11E035B01134405333C
:105700000A461A703B685B7900220021786804F031
:105710004BF83B680A221A7745E03B685B791946EB
:10572000786803F09BFA0346BB73BB7B012B07D160
:105730003B685A783B681A703B680D221A7731E053
:10574000BB7B022B03D13B6809221A772AE0BB7B83
:10575000032B27D13B680B221A7723E03B689B7B06
:105760000133DAB23B689A733B689B7B022B03D808
:105770003B6801221A7716E03B6808229A743B685E
:105780005A783B681A700223FB730CE000BF0AE0F2
:1057900000BF08E000BF06E000BF04E000BF02E079
:1057A0002802002000BFFB7B18461037BD4680BD95
:1057B00080B487B000AF7860396000237B6100233C
:1057C0003B610023FB6000237B6176E001227B6963
:1057D00002FA03F33B613B681A683B691340FB60C4
:1057E000FA683B699A4265D17B681A687B695B00FD
:1057F000032101FA03F3DB431A407B681A607B68DC
:105800001A683B681B7919467B695B0001FA03F350
:105810001A437B681A603B681B79012B03D03B68F5
:105820001B79022B2ED17B689A687B695B00032170
:1058300001FA03F3DB431A407B689A607B689A683D
:105840003B685B7919467B695B0001FA03F31A43F5
:105850007B689A607B685A687B699BB21946012312
:105860008B40DB431A407B685A607B685B683A6810
:10587000927911467A6992B201FA02F292B21A430F
:105880007B685A607B68DA687B699BB25B000321A6
:1058900001FA03F3DB431A407B68DA607B68DA685D
:1058A0003B68DB7919467B695B0001FA03F31A4315
:1058B0007B68DA607B6901337B617B690F2B85D95B
:1058C00000BF1C37BD4680BC704700BF80B485B0A8
:1058D00000AF78600B467B800023FB737B681A69FE
:1058E0007B881340002B02D00123FB7301E00023CF
:1058F000FB73FB7B18461437BD4680BC704700BF66
:1059000080B483B000AF78600B467B807B687A8878
:105910001A8300BF0C37BD4680BC704780B483B08B
:1059200000AF78600B467B807B687A885A8300BF23
:105930000C37BD4680BC704780B483B000AF786040
:105940000B467B8013467B707B78002B03D07B68F3
:105950007A881A8302E07B687A885A8300BF0C3702
:10596000BD4680BC704700BF80B485B000AF786092
:105970000B467B8013467B700023FB600023BB60DB
:105980007A787B8803F007039B0002FA03F3FB603D
:105990007B88DB089BB218467B88DB089BB21A46E3
:1059A0007B68083253F822207B8803F007039B00B2
:1059B0000F2101FA03F3DB4302EA03017B6800F1E4
:1059C000080243F822107B88DB089BB21A467B68EA
:1059D000083253F82220FB681343BB607B88DB0846
:1059E0009BB21A467B680832B96843F8221000BFA0
:1059F0001437BD4680BC704780B584B000AF786076
:105A00000323BB73786803F00FF90346002B56D0CD
:105A10002D4BDB78012B02D0022B32D04FE02B4BE9
:105A200000229A60294B00221A73284B06229A738F
:105A3000254B274A9A60244B3F229A81224B03220E
:105A40009A701023FB7307E0FB7B204A134400226B
:105A5000DA73FB7B013BFB73FB7B002BF4D11B4B0D
:105A60000022DA73184B01221A71174B07221A70A1
:105A7000154B0322DA73144B0222DA700323BB7333
:105A80001DE0114BDB7B002B05D10F4B0122DA709F
:105A90000023BB7312E00C4BDB7B012B05D10A4BBF
:105AA0000122DA700123BB7308E0074BDB7B022B7A
:105AB00004D1054B0122DA700223BB7300BFBB7B0C
:105AC00018461037BD4680BDCC1E0020DC1E0020CD
:105AD000BC1E002080B584B000AF78600323BB7388
